:020000040800F2
:1000000000000524652E0008712A0008732A0008E4
:10001000752A0008772A0008792A000800000000E5
:100020000000000000000000000000007B2A000823
:100030007D2A0008000000007F2A0008812A0008AD
:10004000B92E0008B92E0008B92E0008B92E0008F4
:10005000B92E0008B92E0008B92E0008B92E0008E4
:10006000B92E0008B92E0008B92E0008892A000808
:10007000992A0008A92A0008B92A0008C92A0008F4
:10008000D92A0008E92A0008F92A0008B92E000830
:10009000B92E0008B92E0008B92E0008B92E0008A4
:1000A000B92E0008B92E0008B92E0008B92E000894
:1000B000B92E0008B92E0008092B0008192B0008DA
:1000C000292B0008392B0008492B0008B92E0008FD
:1000D000B92E0008592B0008B92E0008692B00081A
:1000E000B92E0008B92E000800000000B92E000843
:1000F000B92E0008B92E0008B92E0008792B000887
:10010000B92E0008B92E0008B92E0008B92E000833
:10011000892B0008992B0008B92E0008A92B00088C
:10012000B92E0008B92B0008C92B0008D92B0008EC
:10013000E92B0008B92E0008B92E0008B92E0008D6
:1001400000000000000000000000000000000000AF
:10015000F92B0008092C0008192C0008B92E0008FA
:10016000292C0008392C0008B92E0008B92E0008E7
:10017000B92E0008B92E0008B92E000800000000B2
:10018000B92E0008B92E0008B92E0008492C000825
:10019000B92E0008B92E0008B92E0008592C000805
:1001A000B92E0008B92E0008B92E00080000000082
:1001B000B92E0008B92E0008B92E0008712C0008CD
:1001C000812C0008B92E000800000000000000008B
:1001D0000000000000000000B92E00080000000030
:1001E000000000000000000000000000000000000F
:1001F0000000000000000000B92E0008B92E000821
:10020000B92E0008B92E000800000000B92E000821
:10021000B92E0008B92E0008B92E0008B92E000822
:10022000B92E000800000000B92E000800000000F0
:10023000912C0008B92E000800000000A12C000835
:10024000B92E0008B12C0008C12C0008B92E0008F6
:10025000B92E0008B92E0008B92E0008B92E0008E2
:10026000B92E0008B92E0008B92E0008B92E0008D2
:10027000B92E0008B92E0008B92E000800000000B1
:10028000B92E0008B92E0008B92E0008B92E0008B2
:1002900000000000B92E0008B92E00080000000080
:1002A00000000000B92E0008B92E0008B92E000881
:1002B000B92E0008D12C0008B92E0008B92E00086C
:0C02C000B92E0008B92E0008B92E000865
:1002D00010B5054C237833B9044B13B10448AFF380
:1002E00000800123237010BD800600240000000060
:1002F000301A020808B5034B1BB103490348AFF39A
:10030000008008BD0000000084060024301A0208A6
:1003100001F0FF01102A2BDB10F0070F08D010F8B6
:10032000013B013A8B422DD010F0070F42B3F6D1BA
:10033000F0B441EA012141EA014122F007047FF0D3
:1003400000070023F0E80256083C85EA010586EA2A
:10035000010685FA47F5A3FA87F586FA47F6A5FA66
:1003600087F68EB9EED1F0BC01F0FF0102F0070272
:1003700032B110F8013B013A83EA010313B1F8D11D
:100380000020704701387047002D06BF35460338FE
:10039000073815F0010F07D1013015F4807F02BF37
:1003A000013015F4C03F0130F0BC0138704700BF88
:1003B000034613F8012B002AFBD1181A01387047A5
:1003C00053B94AB9002908BF00281CBF4FF0FF31BC
:1003D0004FF0FF3000F088B9ADF1080C6DE904CEA4
:1003E00000F006F8DDF804E0DDE9022304B0704710
:1003F0002DE9F047089D8E4604468846002B4AD1D9
:100400008A42174662D9B2FA82F64EB1C6F120038B
:1004100001FA06F820FA03F3B74043EA0808B440AB
:100420004FEA174E1FFA87FCB8FBFEF1230C0EFBB8
:10043000118843EA084301FB0CF29A4209D9FB18E0
:1004400001F1FF3080F0EA809A4240F2E780023901
:100450003B449A1AA3B2B2FBFEF00EFB102243EA11
:10046000024300FB0CFC9C4509D9FB1800F1FF324C
:1004700080F0D6809C4540F2D3803B44023840EA6D
:100480000140A3EB0C0300211DB1F3400022C5E99C
:100490000032BDE8F0878B4205D90DB1C5E90001F6
:1004A00000210846F5E7B3FA83F1002946D17345E8
:1004B00002D3824200F20581841A6EEB030201200E
:1004C0009046002DE5D0C5E90048E2E7002A00F09B
:1004D0009080B2FA82F6002E40F0A4808A1A030CB3
:1004E0004FEA174E80B2BCB20121B2FBFEFC0EFBFC
:1004F0001C2243EA024304FB0CF29A4207D9FB1880
:100500000CF1FF3802D29A4200F2E080C4469B1AF6
:10051000B3FBFEF20EFB123340EA034302FB04F48A
:100520009C4207D9FB1802F1FF3002D29C4200F234
:10053000CA8002461B1B42EA0C40A5E7C1F1200617
:100540008B4022FA06F71F430EFA01F420FA06F355
:100550002EFA06FE4FEA1749234300FA01F81FFA64
:1005600087FCBEFBF9F01C0C09FB10EE44EA0E44BC
:1005700000FB0CFEA64502FA01F209D93C1900F174
:10058000FF3A80F09C80A64540F2998002383C44B6
:10059000A4EB0E041FFA83FEB4FBF9F309FB13442A
:1005A0004EEA044403FB0CFCA44508D93C1903F1B2
:1005B000FF3E80F08280A4457FD9023B3C4443EA61
:1005C0000040A4EB0C04A0FB02EC64457346E1463A
:1005D00062D35FD05DB1B8EB030264EB090404FAA7
:1005E00006F622FA01F31E43CC40C5E9006400215F
:1005F0004FE7B1FBF2FC010C41EA0E4180B240EA48
:1006000001423B4638463C46B846BE462026B1FB32
:10061000F7F1A2EB080241EA0C4166E7014618E750
:1006200010462CE7C6F120022EFA02F3B740B14083
:1006300020FA02F24FEA174E0A43B3FBFEF8BCB2AF
:100640000EFB1833110C41EA034108FB04F9B040DA
:1006500089454FEA104380B23ED9791808F1FF3C32
:1006600001D289451FD8A1EB0901B1FBFEF909FBB5
:1006700004F80EFB191192B242EA0142424529D216
:10068000BA1809F1FF31C4D24245C2D2A9F1020120
:100690003A44BEE7F0459DD2BEEB02036CEB070C7B
:1006A0000138E14696E7A7EB09094944A8F1020C95
:1006B000B1FBFEF909FB04F8DBE773467FE7504620
:1006C00066E70846FDE63B44023A33E7ACF1020C2C
:1006D0003B441CE749469CE7A1EB0901C446B1FB3A
:1006E000FEF909FB04F8C4E7704700BF90281BD04F
:1006F0000B781B021A4A138049780B431380194A5E
:1007000001211170184A1288184921F81230184B2B
:100710001B88072B02D8013315490B80013202F0E8
:100720000702114B1A8070470B781B02114A138085
:1007300049780B431380104A012111700F4A128827
:100740000F4921F812300F4B1B88072B02D80133B9
:100750000C490B80013202F00702084B1A807047E7
:10076000F6060024F4060024F0060024D006002437
:10077000CA060024F8060024F5060024F206002428
:10078000E0060024CC0600247047000010B582B0BB
:10079000214B1C7824B1204B1C78204602B010BDA0
:1007A00017F05EFF1D4B1A681D4B19681BF0C0F84F
:1007B0000028F0D017F054FF194B18600023019364
:1007C000C2238DF8043083238DF80530154B1B8828
:1007D00053B9022301AA0121902017F043FB0128FD
:1007E0000ED1104B01221A80022301AA012192206E
:1007F00017F038FB012807D0084B0A221A60CAE715
:10080000064B0A221A60C8E7064B00221A80024BE8
:1008100001221A70BFE700BFC8060024AC060024FE
:10082000B0060024A806002407EE900AF8EEE77A46
:100830009FED177A67EE877A9FED167A67EE877AD3
:10084000B7EEE70A9FED106BB4EEC60BF1EE10FAAF
:1008500015D99FED117AF4EEC77AF1EE10FA02DBAA
:100860009FED0E0A704708B5B0EE041B20F0E8FCBF
:10087000B3EE097B20EE070BB7EEC00B08BD9FED72
:10088000070A7047AFF300807B14AE47E17A843FDC
:100890006F128340000000383333534000000000E3
:1008A000484B1B7803B9704710B517F0D9FE464B7B
:1008B0001A68464B19681BF03BF8E8B117F0D0FEF8
:1008C000424B1860424B1B884BB9022200219020FA
:1008D00017F004FB012869D13D4B01221A80022246
:1008E0000021922017F0FAFA012863D1384B002238
:1008F0001A80354B64221A60364B1B784BB3354B4C
:1009000000221A70344B1C88002C57D0334A02EB5B
:100910004400002332F8021F0B448242FAD1B3FB99
:10092000F4F39CB22046FFF77FFF2D4B83ED000AC6
:100930002C4B1C8007EE904AF8EEE77A9FED2A7A5E
:1009400067EE877A9FED297A67EE877A284BC3EDA9
:10095000007A284B1B7843B3264B00221A70264B93
:100960001C886CB3254A02EB4400002332F8021FB6
:100970000B449042FAD1B3FBF4F39CB22046FFF74C
:1009800053FF1F4B83ED000A1E4B1C8007EE904A5D
:10099000F8EEE77A9FED147A67EE877A9FED137A87
:1009A00067EE877A184BC3ED007A10BD064B0A221A
:1009B0001A60FAE7044B0A221A60F6E70023AEE752
:1009C0000023D8E7C8060024A0060024A4060024BB
:1009D0009C060024F5060024CC060024DE06002434
:1009E000C4060024B60600246F12834000000038BD
:1009F000BC060024F4060024CA060024CE06002407
:100A0000C0060024B4060024B8060024014B93ED70
:100A1000000A7047C4060024014B93ED000A70479A
:100A2000C006002470470000902810D00B781B02ED
:100A30000F4A138049780B43138007EE103ABAEE41
:100A4000EC7BB7EEC77B0B4B83ED007A70470B78DE
:100A50001B02094A138049780B43138007EE103AB2
:100A6000BAEEEC7BB7EEC77B044B83ED007A7047A0
:100A7000120700240C070024100700240807002494
:100A800000B585B017F0ECFD0022254B19681AF06F
:100A90004FFF10B905B05DF804FB17F0E1FD204BE6
:100AA00018604FF47A730293022301931D4B009355
:100AB0000123002290211C4806F07AFB78B9194BDB
:100AC0001A785B7843EA0223184A138007EE103A3B
:100AD000BAEEEC7BB7EEC77B154B83ED007A4FF493
:100AE0007A730293022301930E4B00930123002299
:100AF00092210D4806F05CFB0028CBD1094B1A78F7
:100B00005B7843EA02230B4A138007EE103ABAEEF1
:100B1000EC7BB7EEC77B084B83ED007ABAE700BFEA
:100B200004070024FC060024781400241007002485
:100B300008070024120700240C070024014B93ED42
:100B4000000A704708070024014B93ED000A704724
:100B50000C07002400B59DB04C22002109A81EF00E
:100B600003FD2022002101A81EF0FEFC022007F058
:100B7000AFFE00230093224B9A6942F440429A61EF
:100B80009B6903F440430093009B1D4A936913F44F
:100B9000005FFBD0092309934FF480330A930122AD
:100BA0000E920223129313931492602215921693BD
:100BB0007D22179218930C23199300231A931B93E9
:100BC00009A807F0ADFEB0B93F23019303230293B8
:100BD00000230393082304934023059306934FF4C3
:100BE000806207920893022101A808F087FA20B9D1
:100BF0001DB05DF804FB72B6FEE772B6FEE700BFFB
:100C00000048025800B5AFB09822002108A81EF095
:100C1000ABFC4FF410220023CDE900230123029303
:100C2000182203920222049205920693C02307938E
:100C30004FF480331493684608F0FEFC10B92FB0CF
:100C40005DF804FB72B6FEE72DE980489BB00024F6
:100C5000119412941394149403F060FC01238DF802
:100C600044308DF8454012941F228DF84C20872285
:100C70008DF84D208DF84E408DF84F408DF8503056
:100C80008DF851308DF852408DF8534011A803F083
:100C900063FC042003F050FC02F036F9CB4B5B6997
:100CA00013F4803F28D1C94BC3F88440BFF34F8F62
:100CB000D3F88030C3F3C906C3F34E335C0143F667
:100CC000E075C24804EA0501334641EA8372C0F880
:100CD0006022013BB3F1FF3FF7D1203C14F1200F1C
:100CE000F0D1BFF34F8FB94A536943F48033536156
:100CF000BFF34F8FBFF36F8FB44B5B6913F4003FAB
:100D000013D1BFF34F8FBFF36F8FB04B0022C3F8E7
:100D10005022BFF34F8FBFF36F8F5A6942F40032F6
:100D20005A61BFF34F8FBFF36F8F0023119312935C
:100D300013931493BFF34F8FA54BA449A54AC1F851
:100D4000683220339342FAD1BFF34F8FBFF36F8FD6
:100D500003F0E4FB01268DF844609D4B12934FF0A5
:100D60000D0A8DF84CA08DF8456000248DF84E409A
:100D700003278DF84F708DF853408DF852408DF851
:100D800051408DF84D408DF8504011A803F0E4FB20
:100D9000042003F0D1FBFFF7DDFEFFF733FF17F070
:100DA0006BFC17F06DF917F0E5F911941294139498
:100DB00014941594884DD5F8E03043F01003C5F82D
:100DC000E030D5F8E03003F010030493049BD5F82D
:100DD000E03043F00403C5F8E030D5F8E03003F02C
:100DE00004030593059BD5F8E03043F08003C5F874
:100DF000E030D5F8E03003F080030693069BD5F889
:100E0000E0303343C5F8E030D5F8E03033400793A5
:100E1000079BD5F8E03043F00203C5F8E030D5F881
:100E2000E03003F002030893089BD5F8E03043F06C
:100E30000803C5F8E030D5F8E03003F00803099363
:100E4000099B22464EF21001644805F04DFEDFF882
:100E500094B122463146584605F046FEDFF88891A7
:100E600022464FF45061484605F03EFEDFF87C8193
:100E7000224641F20F01404605F036FE4EF21003C5
:100E8000119312961394149411A9544805F07EFC02
:100E9000119612961394149411A9584605F076FCF5
:100EA000802311931294139411A9584605F06EFCF7
:100EB000062311931294139411A9494805F066FC76
:100EC000802311934FF404131293139411A94846ED
:100ED00005F05CFC4FF45063119312961394149434
:100EE00011A9484605F052FC4FF400731193129477
:100EF000139411A9484605F049FC41F20F031193E0
:100F000012961394149411A9404605F03FFC44F244
:100F1000200311931294139411A9404605F036FC56
:100F20004FF4004311934FF488131293139411A9B3
:100F3000404605F02BFC21464FF0807002F038F857
:100F4000D5F8D8303343C5F8D830D5F8D830334049
:100F50000293029BD5F8D83043F00203C5F8D8308D
:100F6000D5F8D83003F002030393039B22460421F3
:100F70000B2003F059FA0B2003F08AFA2246394677
:100F80000C2003F051FA0C2003F082FA22460421CF
:100F9000504603F049FA504603F07AFA22463146A9
:100FA0000E2003F041FA0E2003F072FA2246314679
:100FB0000F2003F039FA0F2003F06AFA224639466F
:100FC000102003F031FA102012E000BF00ED00E025
:100FD00000400030008000300044025800080258F1
:100FE000000402580000025800100258000C025879
:100FF00003F04EFA22463146112003F015FA112073
:1010000003F046FA224621462F2003F00DFA2F2046
:1010100003F03EFA22463946392003F005FA39201A
:1010200003F036FA224631463A2003F0FDF93A2021
:1010300003F02EFA224604213B2003F0F5F93B2071
:1010400003F026FA224621463C2003F0EDF93C202D
:1010500003F01EFA22462146442003F0E5F944201D
:1010600003F016FA22463146452003F0DDF945200B
:1010700003F00EFA22463146462003F0D5F9462009
:1010800003F006FAD5F8E03043F40013C5F8E03079
:10109000D5F8E03003F400130193019B22460421AC
:1010A000812003F0C1F9812003F0F2F922460421E6
:1010B000822003F0B9F9822003F0EAF9A648A74B91
:1010C0000360446084604FF40053436184610223F1
:1010D000C36104624462C460C46204631022426358
:1010E0002246214609F056FF002840F0C8839C485C
:1010F0009C4B036002234360012282604FF4005244
:101100004261C3610021C160C162016341630A465B
:1011100009F040FF002840F0B48300240D940E94A1
:101120000F942422214611A81EF01EFA8E488F4BE0
:1011300003604460082282600123036142610476F7
:1011400044760322C26180F820408462C462026354
:10115000C463046480F84440836402F011FF0028F3
:1011600040F0918300230D930DA97F4803F0B8F858
:10117000002840F08A837E4B119306231293139329
:1011800040F2FF73149304231593002316938DF8F4
:10119000653011A9744802F0C7F8002840F0778341
:1011A000744B11930C23129311A96F4802F0BCF8F1
:1011B000002840F06E83704B11931223129311A9F3
:1011C000694802F0B1F8002840F06583242200212C
:1011D00011A81EF0C9F96948694B036000234360F8
:1011E00008228260C3600121016142610376437677
:1011F0000322C26180F820308362C36280F8381015
:1012000043630263C363036480F84430836402F081
:10121000B7FE002840F04183012311930623129367
:10122000139340F2FF731493042315930023169332
:10123000189311A9514802F077F8002840F02F8345
:10124000504B11930C23129311A94C4802F06CF8E7
:10125000002840F026834C4B11931223129311A9BE
:10126000464802F061F8002840F01D832422002146
:1012700011A81EF079F94548454B036003F098F931
:10128000002840F01283002211921292139201233F
:101290001493159211A93D4803F09CF9002840F0E1
:1012A0000683102211A9394803F094F9002840F070
:1012B00000833848384B0360384B43600023836019
:1012C0000122C260036143618361C361036205F06F
:1012D000FBFD002840F0EF8200212E4807F05CFA69
:1012E000002840F0EA8200212A4807F083FA00280B
:1012F00040F0E5822A482B4B0360284B43600023D3
:1013000083600122C260036143618361C361036240
:1013100005F0DAFD002840F0D4820021204807F0D3
:101320003BFA002840F0CF8200211D4807F062FA06
:10133000002840F0CA821C481C4B03601C4B4360D1
:10134000002383600122C260036143618361C36142
:10135000036205F0B9FD2DE0480E00240458014059
:10136000B00D002424580140B8160024002002408B
:101370000800900C0004002A0008302E48160024B3
:101380000060025802003004000084CB44150024A1
:10139000007400407814002400540040AE329000E5
:1013A00024140024005800407C130024001C005822
:1013B0002710C720002840F08A820021A74807F0A4
:1013C000EBF9002840F085820021A44807F012FACA
:1013D000002840F08082A24AA24B13604FF4803371
:1013E0005360002393604FF48041D1601361032167
:1013F00051610D930E930F9310930A930B930C93DB
:10140000119312931393149315931693179396486D
:101410004FF080420260BF224260836040F2E732B8
:10142000C260036183610BF00BFC002840F0558221
:101430004FF480530D930DA98B480BF04DFD002800
:1014400040F04D8288480BF02BFC002840F0498288
:1014500000230A930C930AA983480CF0D5F90028BD
:1014600040F041826023119300231293139315934C
:10147000042211A97C480BF085FC002840F035823D
:10148000082211A978480BF07DFC002840F02F823B
:101490000C2211A974480BF075FC002840F0298239
:1014A000714801F011F800230D930E930F931093E0
:1014B0000A930B930C931193129313931493159314
:1014C0001693179369486A4A026043608360EF226B
:1014D000C260036183610BF0B3FB002840F00B8214
:1014E0004FF480530D930DA960480BF0F5FC0028D4
:1014F00040F003825D480BF0D3FB002840F0FF81F1
:1015000000230A930C930AA958480CF07DF900288F
:1015100040F0F781602311930023129313931593E6
:10152000042211A951480BF02DFC002840F0EB815A
:101530004E4800F0C9FF4F484F4B03604FF4E13372
:10154000436000238360C36003610C2242618361B6
:10155000C3610362436283620DF001FC002840F026
:10156000D481002143480DF02FFD002840F0CF81A9
:10157000002140480DF04DFD002840F0CA813D4853
:101580000DF003FD002840F0C6813C483C4B036051
:101590004FF4E133436000238360C36003610C2296
:1015A00042618361C3610362436283620DF0D7FBD2
:1015B000002840F0B281002130480DF005FD0028E0
:1015C00040F0AD8100212D480DF023FD002840F0B2
:1015D000A8812A480DF0D9FC002840F0A4812948B0
:1015E000294B03604FF4E133436000238360C36001
:1015F00003610C2242618361C361036243628362BF
:101600000DF0ADFB002840F0908100211D480DF049
:10161000DBFC002840F0A68100211A480DF0F9FCFF
:10162000002840F0A18117480DF0AFFC002840F0E1
:101630009D811648164B03604FF4E133436000234D
:101640008360C36003610C2242618361C3610362F2
:10165000436283620DF083FB1CE000BF7C13002417
:10166000440C002400240248F80B0024AC0B002496
:1016700000080040540A0024004C0040C009002427
:10168000005000402C090024007C004098080024F1
:1016900000100140002840F06B810021A4480DF0AB
:1016A00093FC002840F066810021A1480DF0B1FCB8
:1016B000002840F061819E480DF067FC002840F052
:1016C0005D819C489C4B03604FF4E13343600023F1
:1016D0008360C36003610C2242618361C361036262
:1016E000436283620DF03BFB002840F049810021FA
:1016F00090480DF069FC002840F0448100218D489D
:101700000DF087FC002840F03F818A480DF03DFC39
:10171000002840F03B810EF093FB8848884B036023
:10172000884B4360002383600122C26003614361F0
:101730008361C361036205F0C7FB002840F0288184
:1017400000217E4807F028F8002840F0238100217E
:101750007A4807F04FF8002840F01E8100231193CB
:10176000129313937848794A0260BF2242608360E3
:101770006323C360802383610BF062FA002840F08A
:101780000D8100231193139311A96F480CF03CF8BD
:10179000002840F005816E486E4B0360694B436042
:1017A000002383600122C260036143618361C361DE
:1017B000036205F089FB002840F0F48000216448B2
:1017C00006F0EAFF002840F0EF800021604807F0B3
:1017D00011F8002840F0EA805F48604B0360032363
:1017E000436040F6FF73C36040F2CF73836007F03D
:1017F0002DF8002840F0DC8017F022F816F0A4FE47
:1018000016F080FE12F038FA17F084F80FF08CFC16
:1018100016F088F816F056F818F046FB16F04AFE57
:101820004D4C204607F04EF84FF47A7001F0ACFBB7
:1018300016F036FE204607F045F84FF4FA7001F036
:10184000A3FB204607F03EF8454817F03BF916F099
:1018500083FE002800F0AE803F4C204607F032F8AF
:1018600016F050FF16F036FF16F072F917F07CF8FC
:1018700017F074FF19F09EFB15F01AFFEDE772B632
:10188000FEE772B6FEE772B6FEE772B6FEE772B624
:10189000FEE772B6FEE772B6FEE772B6FEE772B614
:1018A000FEE772B6FEE772B6FEE772B6FEE772B604
:1018B000FEE772B6FEE772B6FEE772B6FEE772B6F4
:1018C000FEE772B6FEE772B6FEE772B6FEE772B6E4
:1018D000FEE772B6FEE772B6FEE772B6FEE772B6D4
:1018E000FEE772B6FEE772B6FEE772B6FEE772B6C4
:1018F000FEE772B6FEE772B6FEE772B6FEE772B6B4
:10190000FEE772B6FEE772B6FEE772B6FEE772B6A3
:10191000FEE772B6FEE772B6FEE772B6FEE772B693
:10192000FEE772B6FEE772B6FEE772B6FEE700BFEC
:10193000980800240408002400480040D013002424
:10194000005C0040AE329000600B002400140040A8
:101950002813002400640040E00E002400480058D2
:10196000581A020872B6FEE772B6FEE772B6FEE7D4
:1019700072B6FEE772B6FEE772B6FEE772B6FEE733
:1019800072B6FEE772B6FEE772B6FEE772B6FEE723
:1019900072B6FEE772B6FEE772B6FEE772B6FEE713
:1019A00072B6FEE772B6FEE772B6FEE772B6FEE703
:1019B00072B6FEE7014817F085F84DE76C1A020889
:1019C00072B6FEE782B0074BD3F8F42042F0020271
:1019D000C3F8F420D3F8F43003F002030193019B21
:1019E00002B070470044025830B58BB00446002363
:1019F000059306930793089309930368574A934204
:101A000004D0574A93425DD00BB030BD554BD3F84C
:101A1000D82042F02002C3F8D820D3F8D82002F012
:101A200020020092009AD3F8E02042F00402C3F8AA
:101A3000E020D3F8E02002F004020192019AD3F8EA
:101A4000E02042F00102C3F8E020D3F8E03003F0D8
:101A500001030293029B03250595069505A94248BB
:101A600004F094FE4023059306950025079505A9EB
:101A70003E4804F08BFE3E483E4B03600923436022
:101A80008560C5604FF4806303614FF40063436178
:101A90004FF4005383614FF48073C3610562456264
:101AA00003F0B8F858B9324BA3659C6300220421B7
:101AB000122002F0B9FC122002F0EAFCA4E7FFF7C2
:101AC0007FFFF0E7274BD3F8E02042F08072C3F8A5
:101AD000E020D3F8E02002F080720392039AD3F85A
:101AE000E02042F00402C3F8E020D3F8E03003F035
:101AF00004030493049B4FF08061084601F058FAF8
:101B00004FF00061084601F053FA1B481B4B03607D
:101B10007323436000238360C3604FF480620261DB
:101B20004FF4006242614FF4005282614FF48072C0
:101B3000C2610362436203F06DF858B90E4BA365AE
:101B40009C63002204217F2002F06EFC7F2002F0C3
:101B50009FFC59E7FFF734FFF0E700BF0020024089
:101B60000060025800440258000802580000025861
:101B7000D0150024400402405815002410000240F3
:101B800010B588B00023039304930593069307933D
:101B90000268214B9A4201D008B010BD04461F4B89
:101BA000D3F8E82042F00052C3F8E820D3F8E82048
:101BB00002F000520192019AD3F8E02042F00102B3
:101BC000C3F8E020D3F8E03003F001030293029B56
:101BD000302303930323049303A9114804F0D6FD93
:101BE0001048114B0360432343604023836000236C
:101BF000C3604FF48062026143618361C361036229
:101C0000436203F007F818B9064BA3609C63C3E76F
:101C1000FFF7D6FEF8E700BF00740040004402580A
:101C200000000258CC140024580402402DE9F04171
:101C3000C0B0044600213B913C913D913E913F91C3
:101C4000B8220CA81DF090FC2368804A934212D061
:101C50007F4A934200F084807E4A934200F01481D0
:101C60007D4A934200F0A0817C4A934200F01082AA
:101C700040B0BDE8F08108220023CDE90C230CA878
:101C800007F0DAFC002862D1754ED6F8E03043F058
:101C90000203C6F8E030D6F8E03003F00203019307
:101CA000019BC0233B9312233C9300253D953E9519
:101CB00004233F933BA96B4804F068FDD6F8E83055
:101CC00043F40013C6F8E830D6F8E83003F4001304
:101CD0000293029B6448654B0360222343604023C8
:101CE0008360C5604FF48063036145618561C561B0
:101CF0000562456202F08EFF60BB5B4BA3639C6391
:101D00005B485C4B03602123436000238360C36016
:101D10004FF48062026143618361C3610362436285
:101D200002F078FFC8B9524BE3639C6300220121A3
:101D30001F2002F079FB1F2002F0AAFB00220121E4
:101D4000202002F071FB202002F0A2FB90E7FFF7B9
:101D500037FE99E7FFF734FECFE7FFF731FEE2E702
:101D600008220023CDE90C230CA807F065FC00280D
:101D700063D13B4ED6F8E03043F00203C6F8E030C2
:101D8000D6F8E03003F002030393039B4FF4406363
:101D90003B9312233C9300253D953E9504233F93AE
:101DA0003BA9304804F0F2FCD6F8E83043F4800355
:101DB000C6F8E830D6F8E83003F480030493049BB7
:101DC0002D482E4B03602423436040238360C5606D
:101DD0004FF48063036145618561C56105624562B9
:101DE00002F018FF60BB244BA3639C632448254B7F
:101DF00003602323436000238360C3604FF4806249
:101E0000026143618361C3610362436202F002FFC6
:101E1000C8B91B4BE3639C6300220121212002F01F
:101E200003FB212002F034FB00220121222002F0DA
:101E3000FBFA222002F02CFB1AE7FFF7C1FD98E71E
:101E4000FFF7BEFDCFE7FFF7BBFDE2E70054004020
:101E500000580040005C0040001C00580064004036
:101E60000044025800040258B0120024A0040240AA
:101E700038120024B8040240C01100245800024067
:101E8000481100247000024008220023CDE90C23F1
:101E90000CA807F0D1FB00287DD1A84ED6F8E03081
:101EA00043F00403C6F8E030D6F8E03003F0040352
:101EB0000593059BD6F8E03043F00103C6F8E03007
:101EC000D6F8E03003F001030693069B4FF400734D
:101ED0003B934FF01208CDF8F08000253D953E95DC
:101EE00004273F973BA9964804F050FC4FF48073B9
:101EF0003B93CDF8F0803D953E953F973BA99148A7
:101F000004F044FCD6F8E83043F40003C6F8E830A7
:101F1000D6F8E83003F400030793079B8A488B4BFD
:101F200003604A23436040238360C5604FF48063AD
:101F3000036145618561C5610562456202F06AFE23
:101F400060BB814BA3639C638148824B0360492340
:101F5000436000238360C3604FF480620261436189
:101F60008361C3610362436202F054FEC8B9784BD7
:101F7000E3639C6300220221482002F055FA4820C6
:101F800002F086FA00220221492002F04DFA49208F
:101F900002F07EFA6CE6FFF713FD7EE7FFF710FD17
:101FA000CFE7FFF70DFDE2E710220023CDE90C2378
:101FB0000CA807F041FB002861D1604ED6F8E03054
:101FC00043F00203C6F8E030D6F8E03003F0020335
:101FD0000893089B4FF440733B9312233C930025D6
:101FE0003D953E9506233F933BA95B4804F0CEFB0D
:101FF000D6F8F43043F08003C6F8F430D6F8F43065
:1020000003F080030993099B5448554B03600E234A
:10201000436040238360C5604FF480630361456182
:102020008561C561056202F0F5FD58BB4B4BA363AA
:102030009C634C484C4B03600D234360002383603A
:10204000C3604FF48062026143618361C3610362D4
:1020500002F0E0FDC8B9434BE3639C630022022118
:102060005F2002F0E1F95F2002F012FA0022022163
:10207000602002F0D9F9602002F00AFAF8E5FFF7D3
:102080009FFC9AE7FFF79CFCD0E7FFF799FCE2E79B
:1020900008220023CDE90C230CA807F0CDFA002874
:1020A00045D1264ED6F8E03043F00403C6F8E030C0
:1020B000D6F8E03003F004030A930A9B4FF4406320
:1020C0003B9312233C9300253D953E9504233F937B
:1020D0003BA91B4804F05AFBD6F8E83043F00073E4
:1020E000C6F8E830D6F8E83003F000730B930B9B8A
:1020F0001E481F4B03607D23436040238360C560FF
:102100004FF48063036145618561C5610562456285
:1021100002F080FD70B9154BA3639C63002201217E
:102120009D2002F081F99D2002F0B2F9A0E5FFF7B1
:1021300047FCB6E7FFF744FCEDE700BF0044025858
:102140000008025800000258D0100024A0000240ED
:1021500058100024B800024000040258E00F002488
:1021600008540258680F00241C540258F00E002432
:102170004000024038B504460368514A93420CD0EF
:10218000504A934226D0504A934242D04F4A9342FB
:102190005DD04F4A93427AD038BD4E4AD2F8E830EB
:1021A00023F40013C2F8E8304B4D4021284604F0D8
:1021B000E9FB8021284604F0E5FBA06B02F04AFF12
:1021C000E06B02F047FF1F2002F070F9202002F0C0
:1021D0006DF9E1E73F4AD2F8E83023F48003C2F812
:1021E000E8303D4D4FF48061284604F0CBFB4FF4BE
:1021F0000061284604F0C6FBA06B02F02BFFE06BE9
:1022000002F028FF212002F051F9222002F04EF9BD
:10221000C2E7304AD2F8E83023F40003C2F8E830CD
:102220004FF400712D4804F0ADFB4FF480712C4841
:1022300004F0A8FBA06B02F00DFFE06B02F00AFFB8
:10224000482002F033F9492002F030F9A4E702F502
:102250000A32D2F8F43023F08003C2F8F4301E4D75
:102260004FF48071284604F08DFB4FF4007128462E
:1022700004F088FBA06B02F0EDFEE06B02F0EAFEDA
:102280005F2002F013F9602002F010F984E7114A90
:10229000D2F8E83023F00073C2F8E8300F4D4FF465
:1022A0008061284604F06EFB4FF40061284604F07C
:1022B00069FBA06B02F0CEFE9D2002F0F7F86BE701
:1022C0000054004000580040005C0040001C0058D2
:1022D00000640040004402580004025800080258FC
:1022E0000000025830B589B000230393049305938E
:1022F000069307930268264B9A4201D009B030BD7D
:10230000244BD3F8DC2042F40072C3F8DC20D3F86D
:10231000DC2002F400720092009AD3F8E02042F030
:102320000202C3F8E020D3F8E02002F0020201929A
:10233000019AD3F8E02042F00802C3F8E020D3F875
:10234000E03003F008030293029B4CF2180303935E
:1023500002240494032506950923079303A90E4834
:1023600004F014FAC0230393049400240594069502
:102370000B23079303A9094804F008FA2246012118
:102380007C2002F051F87C2002F082F8B6E700BF12
:10239000002402480044025800040258000C02586D
:1023A00008B502680B4B9A4200D008BD0A4AD2F821
:1023B000DC3023F40073C2F8DC304CF2180107481B
:1023C00004F0E0FAC021064804F0DCFA7C2002F0B8
:1023D0006DF8EAE70024024800440258000402585D
:1023E000000C025810B584B00368B3F1804F08D0D8
:1023F0000446304A934212D02F4A934243D004B04D
:1024000010BD2E4BD3F8E82042F00102C3F8E820BB
:10241000D3F8E83003F001030193019BEFE7274B6A
:10242000D3F8E82042F00402C3F8E820D3F8E830FB
:1024300003F004030293029B2148224B03601E23F6
:102440004360402383600023C3604FF480620261D5
:102450004FF4006242614FF400528261C361036233
:10246000436202F0D7FB58B9154BA3629C6300226C
:1024700003211E2001F0D8FF1E2002F009F8BEE75C
:10248000FFF79EFAF0E70D4BD3F8E82042F0200268
:10249000C3F8E820D3F8E83003F020030393039B4C
:1024A00000220421372001F0BFFF372001F0F0FFA8
:1024B000A5E700BF00080040001400400044025897
:1024C000E80A00242804024000B589B000230393E1
:1024D00004930593069307930368B3F1804F05D0E7
:1024E0001B4A93421AD009B05DF804FB194BD3F88C
:1024F000E02042F00102C3F8E020D3F8E03003F01E
:1025000001030193019B0E230393022304930123F0
:10251000079303A9104804F039F9E4E70D4BD3F809
:10252000E02042F00802C3F8E020D3F8E03003F0E6
:1025300008030293029B4FF4005303930223049376
:102540000593079303A9054804F020F9CBE700BFE2
:10255000000800400044025800000258000C0258D5
:1025600030B5BFB00446002139913A913B913C917E
:102570003D91B8220AA81CF0F7FF2368B64A93429F
:1025800010D0B64A934261D0B54A934200F0998088
:10259000B44A934200F0CF80B34A934200F02081C6
:1025A0003FB030BD02220023CDE90A230AA807F07C
:1025B00043F8002844D1AD4BD3F8E82042F4002280
:1025C000C3F8E820D3F8E82002F400220092009A31
:1025D000D3F8E02042F00102C3F8E020D3F8E03065
:1025E00003F001030193019B4FF4C053399302237D
:1025F0003A9300253B953C9506233D9339A99C4889
:1026000004F0C4F89B489C4B036040234360836004
:10261000C5604FF48063036145618561C5610562F2
:10262000456202F0F7FA70B9924BE3679C630022AF
:102630000521342001F0F8FE342001F029FFAFE736
:10264000FFF7BEF9B7E7FFF7BBF9EDE7022200237A
:10265000CDE90A230AA806F0EFFF78BB834BD3F835
:10266000E82042F48012C3F8E820D3F8E82002F40E
:1026700080120292029AD3F8E02042F00202C3F8DC
:10268000E020D3F8E03003F002030393039B4FF400
:102690004053399302233A9300243B943C940E23F5
:1026A0003D9339A9754804F071F82246052135207B
:1026B00001F0BAFE352001F0EBFE71E7FFF780F97B
:1026C000CCE702220023CDE90A230AA806F0B4FFD2
:1026D00070BB664BD3F8E82042F00042C3F8E82014
:1026E000D3F8E82002F000420492049AD3F8E020E4
:1026F00042F01002C3F8E020D3F8E03003F01003FA
:102700000593059B0323399302233A9300243B94BA
:102710003C9408233D9339A9594804F037F82246E0
:102720000421532001F080FE532001F0B1FE37E771
:10273000FFF746F9CDE701220023CDE90A230AA8D5
:1027400006F07AFF002845D1484BD3F8F02042F03C
:102750001002C3F8F020D3F8F02002F01002069225
:10276000069AD3F8E02042F00102C3F8E020D3F843
:10277000E03003F001030793079B4FF4C0633993E4
:1027800002233A9300253B953C9507233D9339A9B5
:10279000374803F0FBFF3B483B4B03602A23436071
:1027A00040238360C5604FF48063036145618561A8
:1027B000C5610562456202F02DFA70B9314BE367DD
:1027C0009C6300220321252001F02EFE252001F02C
:1027D0005FFEE5E6FFF7F4F8B6E7FFF7F1F8EDE79F
:1027E00002220023CDE90A230AA806F025FF78BBC0
:1027F0001E4BD3F8E82042F48022C3F8E820D3F837
:10280000E82002F480220892089AD3F8E02042F0EF
:102810000802C3F8E020D3F8E03003F0080309937E
:10282000099B4FF44073399302233A9300243B945D
:102830003C9407233D9339A9144803F0A7FF22468F
:102840000321272001F0F0FD272001F021FEA7E65B
:10285000FFF7B6F8CCE700BF004C00400050004046
:10286000007C004000100140004800400044025835
:10287000000002588C07002488000240000402581F
:10288000001002581407002428000240000C0258CF
:102890002DE9F043B7B00446B822002102A81CF08D
:1028A00063FE2268694B9A4206D02268684B9A42BE
:1028B0006ED037B0BDE8F0834FF480720023CDE9CD
:1028C000022302A806F0B8FE002845D1614B1B6820
:1028D000002B44D05F4A13680133136034233193D3
:1028E0004FF00209CDF8C8900025339503233493A7
:1028F0004FF00608CDF8D480574F31A9384603F081
:1029000045FF40263196CDF8C89033953495CDF8E3
:10291000D48031A9384603F039FF5048504B03604A
:10292000572343608660C5604FF4806303614FF4B2
:10293000006343614FF4005383614FF48073C361BC
:102940000562456202F066F9F8B9444BC4F8843078
:102950009C63C4F88030A8E7FFF732F8B6E7414B34
:10296000D3F8F02042F48002C3F8F020D3F8F0301E
:1029700003F480030093009B00221146572001F0CE
:1029800053FD572001F084FDA4E7FFF719F8DCE7B9
:102990004FF480720023CDE902230023189302A88C
:1029A00006F04AFE002834D12A4B1B68002B33D096
:1029B000284A1368013313600823319302233293AA
:1029C0000025339534950623359331A9224803F029
:1029D000DDFE2548254B0360582343604023836078
:1029E000C5604FF4806303614FF4006343614FF4AB
:1029F000005383614FF48073C3610562456202F046
:102A000009F9F8B9184BC4F884309C63C4F88030D5
:102A10004FE7FEF7D5FFC7E7124BD3F8F02042F49B
:102A20008002C3F8F020D3F8F03003F48003019360
:102A3000019B00221146572001F0F6FC572001F0BF
:102A400027FDB5E7FEF7BCFFDCE700BF04580140F7
:102A5000245801402817002400100258380D002483
:102A60007004024000440258C00C00248804024054
:102A7000FEE7FEE7FEE7FEE7FEE7704770477047B8
:102A800008B500F06FFA08BD08B5024803F0C6F9B2
:102A900008BD00BF5815002408B5024803F0BEF970
:102AA00008BD00BF1407002408B5024803F0B6F9BA
:102AB00008BD00BFF00E002408B5024803F0AEF9CF
:102AC00008BD00BFC011002408B5024803F0A6F9F4
:102AD00008BD00BF4811002408B5024803F09EF964
:102AE00008BD00BF8C07002408B5024803F096F922
:102AF00008BD00BFD010002408B5024800F06AFAF3
:102B000008BD00BFB816002408B5024809F01AFF36
:102B100008BD00BFAC0B002408B5024804F07EFDE0
:102B200008BD00BF7814002408B5024805F0E4FD94
:102B300008BD00BF7814002408B5024804F06EFDFB
:102B400008BD00BF2414002408B5024805F0D4FDD8
:102B500008BD00BF2414002408B502480AF0B8FFDD
:102B600008BD00BF9808002408B502480AF0B0FF6D
:102B700008BD00BF0408002408B5024803F04EF960
:102B800008BD00BF5810002408B502480AF0A0FF95
:102B900008BD00BF540A002408B502480AF098FF97
:102BA00008BD00BFC009002408B5024809F0CAFEEC
:102BB00008BD00BF600B002408B5024803F02EF9E1
:102BC00008BD00BFE80A002408B5024803F026F952
:102BD00008BD00BFD015002408B5024803F01EF957
:102BE00008BD00BFCC14002408B5024803F016F954
:102BF00008BD00BF380D002408B5024803F00EF9E7
:102C000008BD00BFC00C002408B5024803F006F957
:102C100008BD00BFB012002408B5024803F0FEF85A
:102C200008BD00BF3812002408B5024804F0F6FCC5
:102C300008BD00BFD013002408B5024805F05CFDB4
:102C400008BD00BFD013002408B502480AF040FFB9
:102C500008BD00BF2C09002408B5034808F0F0FBAC
:102C6000024808F0EDFB08BD480E0024B00D00241A
:102C700008B5024804F0D2FC08BD00BF7C13002454
:102C800008B5024805F038FD08BD00BF7C130024DC
:102C900008B5024809F00AFB08BD00BF440C002437
:102CA00008B5024800F096F908BD00BF4816002498
:102CB00008B5024803F0B2F808BD00BFE00F0024D9
:102CC00008B5024803F0AAF808BD00BF680F002449
:102CD00008B5024804F0A2FC08BD00BF2813002478
:102CE0000120704708B51CF0A1FC162303604FF0CB
:102CF000FF3008BD08B51CF099FC16230360FEE701
:102D000070B5161E07DD0C468D19AFF3008004F870
:102D1000010BA542F9D1304670BD4FF0FF3070472E
:102D20004FF400534B600020704701207047002093
:102D30007047000008B503460C4A126852B10B4AAE
:102D4000106803440A4A0B49521A934206D8074AAC
:102D5000136008BD054A08491160F0E71CF066FCE5
:102D60000C2303604FF0FF30F3E700BF2C17002463
:102D70000000052400600000F0DB00242B4AD2F89C
:102D8000883043F47003C2F88830294B1B6803F085
:102D90000F03062B06D8264A136823F00F0343F0CF
:102DA00007031360234B1A6842F001021A600022E5
:102DB0001A611968204A0A401A601D4B1B6813F0FB
:102DC000080F06D01A4A136823F00F0343F00703D5
:102DD0001360184B00229A61DA611A6217499962EE
:102DE0001749D962174919635A639963DA631964F9
:102DF0005A64196821F4802119601A66D3F8D43016
:102E000013F4805F10D10B4BD3F8D42042F48052DE
:102E1000C3F8D4200C4A43F2D2011160D3F8D42075
:102E200022F48052C3F8D420704700BF00ED00E0C8
:102E300000200052004402587FEDF6EA0002020230
:102E40000000FF018002010100400052044AD368E3
:102E500043F00203D360536813F4005FFBD0704764
:102E600000480258DFF838D0FFF7F0FFFFF786FF81
:102E70000C480D490D4A002302E0D458C4500433D5
:102E8000C4188C42F9D30A4A0A4C002301E01360AB
:102E90000432A242FBD31CF0CFFBFDF7D5FE7047F6
:102EA000000005240000002480060024885F02083A
:102EB00080060024F0DB0024FEE700000F4B1B78A7
:102EC0000BB90120704710B504464FF47A70B0FB7F
:102ED000F3F30B4A1068B0FBF3F001F00BFB0F2C7F
:102EE00000D808B1012010BD002221464FF0FF306C
:102EF00001F09AFA034B1C600020F4E7080000245C
:102F0000040000240C00002410B5032001F07AFA1C
:102F100005F0F8FF0F498B690F4AC3F30323D35C15
:102F200003F01F03D8408B6903F00F03D35C03F059
:102F30001F0320FA03F3094A1360094B18600F209E
:102F4000FFF7BCFF10B10124204610BD0446FEF778
:102F500039FDF9E700440258E81F02080000002488
:102F600004000024034A1168034B1B780B441360D0
:102F7000704700BF3017002408000024014B186878
:102F8000704700BF3017002438B50446FFF7F6FF3E
:102F90000546B4F1FF3F02D0044B1B781C44FFF7F9
:102FA000EDFF401BA042FAD338BD00BF080000244B
:102FB000034A536823EA00030B435360704700BF82
:102FC00000040058704708B5806BFFF7FBFF08BD91
:102FD00070477047F8B5044603681D685E689F4AED
:102FE000934205D002F58072934201D09C4B00E0E1
:102FF0009C4B9F6807F01F0715F0020F10D016F0CA
:10300000020F0DD0236E13F0100F03D1236E43F483
:1030100000632366204601F061F9236802221A60EA
:1030200015F0040F02D016F0040F05D115F0080FAB
:103030003ED016F0080F3BD0236E13F0100F03D1D3
:10304000236E43F4007323662368DA6812F4406F3A
:1030500028D1854A934200F00981DA6812F4005FB2
:1030600020D11A6812F0080F1CD09A6812F0040FD1
:1030700010D15A6822F00C025A60236E23F4807338
:103080002366236E13F4805F0CD1236E43F001039B
:10309000236607E0236E43F010032366636E43F05C
:1030A00001036366204614F01FFC23680C221A609B
:1030B00015F0200F02D016F0200F05D115F0400FAB
:1030C00048D016F0400F45D0236E13F0100F03D1F7
:1030D000236E43F4005323662368DA6C02F4C07253
:1030E000D86861498B4200F0AF80D96862BB11F0AB
:1030F000007F05D001F4005200F44060024323D168
:103100001A6812F0400F1FD011F4001F1CD19A68EA
:1031100012F0080F10D15A6822F060025A60236E34
:1031200023F480532366236E13F4807F0CD1236E27
:1031300043F00103236607E0236E43F01003236688
:10314000636E43F001036366204601F0C3F8236811
:1031500060221A6015F0800F02D016F0800F20D187
:1031600015F4807F02D016F4807F25D115F4007FFE
:1031700002D016F4007F2BD115F0100F47D016F0B7
:10318000100F44D0E36B002B33D0002F46D02368C0
:10319000324A934228D002F58072934224D0304BB9
:1031A00023E0236E43F4803323662046FFF710FFAD
:1031B000236880221A60D3E7236E43F4003323662A
:1031C000204601F089F823684FF480721A60CDE739
:1031D000236E43F480232366204601F07EF82368A3
:1031E0004FF400721A60C7E71E4B9B6813F4404F00
:1031F0000AD0236E43F480632366636E43F00203B8
:1032000063662046FFF7E5FE236810221A6015F476
:10321000806F02D016F4806F06D1F8BD2368DB689A
:1032200013F0030FF0D0E4E7236E43F480432366EA
:10323000636E43F00803636623684FF480621A608C
:10324000204601F048F8E8E7C121F94011F0010FEC
:103250007FF44BAF0149C96848E700BF0020024036
:1032600000630258002302400021024040F2212264
:10327000FA4012F0010F7FF4F0AE014AD268EDE699
:103280000020024008B50346806B026E12F0500F1A
:1032900030D1036E43F40073036603681A6812F0BA
:1032A000080F14D0DA6812F4406F20D1DB6813F4F1
:1032B000005F1CD1036E23F480730366036E13F466
:1032C000805F14D1036E43F0010303660FE0DB68F7
:1032D00013F0030F0BD1036E23F480730366036EA8
:1032E00013F4805F03D1036E43F00103036614F00F
:1032F000FBFA08BD026E12F0100F04D1826DD26C81
:1033000018469047F5E7FFF764FEF2E708B5806BD3
:10331000036E43F040030366436E43F004034366C9
:10332000FFF757FE08BD000070B582B00022019281
:1033300090F85C20012A00F0B2820346012280F856
:103340005C200268906810F0040F09D01A6E42F0F9
:1033500020021A660120002283F85C2002B070BDB2
:103360000868A84CA2420BD0002809DBC0F3130464
:10337000002C4CD1800E01248440D0692043D061C0
:1033800048684FEA901C0CF00C0C1A6802F1300EE1
:103390005EF80C4000F01F000A68C2F384628240AD
:1033A0001F2505FA00F024EA000002434EF80C2025
:1033B00018688468826802F0080204F0040C52EA7B
:1033C0000C022DD01A68906810F0010F40F05B825B
:1033D0000E68CC688B48824200F06E81D2F8C00043
:1033E000C6F3130520EA050004F01805864CEC40EE
:1033F00034402043C2F8C000C868844A904200F0BC
:103400006B810A68002AC0F2D6810020A3E790FAF7
:10341000A0F0B0FA80F000F01F0001248440ACE777
:103420000C68E50D05F0040514304259C4F304544A
:103430000726A64022EA06028E68A6403243425181
:103440001A687048824211D07148006800F07040DC
:10345000B0F1805F46D0D06810F0100F74D1D06802
:10346000C0F3820040004C69844041E0C0680D69AF
:10347000042D40F050826348046E046EC4F38464EB
:103480000868C0F31305002D40F08C80C0F38462FF
:10349000944200F0C1805B4A546E526E424012F07A
:1034A000F84F00F0E380186800F16805826E846EC2
:1034B000C4F384640A68C2F38462A24200F0DC8030
:1034C000186800F16C05C26EC46EC4F384640A68A7
:1034D000C2F38462A2427FF475AF2A6822F00042F0
:1034E0002A606FE7D068C0F3820040004C698440D6
:1034F0000D69042D40F02082106E00F0F8400C6839
:10350000B0EB846F00F0C9801868426E02F0F84298
:103510000C68B2EB846F00F0C5801868826E02F010
:10352000F8420C68B2EB846F00F0C1801868C26E7C
:1035300002F0F8420C68B2EB846F7FF443AFC26EC6
:1035400022F00042C2663DE7D068400800F0080063
:103550004C698440CCE70C69603050F8242022F09C
:103560008072CD692A4340F824201A680D6991F8C9
:1035700020406038824207D0906810F0010F40F080
:103580008C810E68CC6829E7603050F82520012C2A
:1035900014BF0024012422F0007242EA446240F881
:1035A00025200FE790FAA0F51DB1B5FA85F5AC42DC
:1035B00032D0144C656E646EC4F38464154D90FA79
:1035C000A0F018B1B0FA80F0A0423BD0186800F12A
:1035D0006805826E846EC4F384640A6892FAA2F26B
:1035E0001AB1B2FA82F2A24246D0186800F16C0514
:1035F000C26EC46EC4F384640A6892FAA2F2B2FA8C
:1036000082F267E700600258FFFF0F000000FF47EB
:103610000010005C64600258A248026E22F0004272
:1036200002661A6802F16405506E546EC4F3846435
:103630000868C0F31306002EC1D1C0F38460844231
:103640007FF431AF9748824211D02A6822F00042BD
:103650002A60186800F16805826E846EC4F3846481
:103660000A68C2F31306002EB8D124E78E4D2A68EB
:1036700022F000422A60ECE72A6822F000422A6029
:10368000186800F16C05C26EC46EC4F384640A68E5
:10369000C2F31306002EB0D11AE7106E20F00040DE
:1036A000106631E7426E22F00042426635E7826ED4
:1036B00022F00042826639E70546D0F8B020C6F312
:1036C000130022EA000204F018047848E040304079
:1036D0000243C5F8B0208FE61A687548824208D0C8
:1036E0007448824238D06F48824200F059810124E8
:1036F00064E10868704CA04200F057816F4CA04212
:1037000000F060816E4CA04200F05E816D4CA042E2
:1037100000F05C8104F186641034A04200F058810E
:10372000694CA04200F0568104F1042404F54014D1
:10373000A04200F0518104F1866404F50064A042C7
:1037400000F04C81614CA04200F04A81604CA042E4
:1037500000F04881012431E10868574CA04200F094
:103760004381564CA04200F04181554CA04200F0EC
:103770003F81544CA04200F03D8104F18664103436
:10378000A04200F03981504CA04200F0378104F192
:10379000042404F54014A04200F0328104F1866450
:1037A00004F50064A04200F02D81494CA04200F0D5
:1037B0002B81012402E119683D48814200F0988084
:1037C00000F58070814200F0938042488468A0F543
:1037D0004070806810F0010F40F0978004F0E076B0
:1037E0003C4D02E004F0E0763B4D3C4882420DD077
:1037F0003B4882422DD03B4882424CD114F4800F8A
:1038000002D1284A914235D00020A4E514F4000FDB
:103810003BD1244A914201D000209CE5AA6822F0C5
:10382000E072324342F40002AA602F4A1268920901
:103830002E49A1FB02129209013252000192019A13
:103840002AB3019A013A0192019A002AF9D1002083
:1038500081E514F0807F1CD1124A914201D00020F2
:1038600079E5AA6822F0E072324342F08072AA60E1
:10387000002070E5AA6822F0E072324342F4800230
:10388000AA60002067E5002065E5002063E50020D0
:1038900061E500205FE500205DE500205BE502209A
:1038A0005CE500BF0060025864600258FFFF0F0033
:1038B00000200240002102400200300404006008A1
:1038C0000800900C1000C0100004002A00002143E2
:1038D0000000844B0063025800230240000052C7DE
:1038E000000021C3000084CB04000024632D3E05AA
:1038F00046488468A0F54070856800F5807080684F
:10390000284310F0010F3FF46DAF1A6E42F0200211
:103910001A6601201FE53E4C54F82520C0F3C10073
:1039200040004A698240086800F0F840024342F0D3
:10393000004244F825200BE0603252F82560086808
:1039400000F0F84006F000463043204342F82500DE
:103950001A68304882423FF4FEAD0D69603252F879
:10396000250091F82140012C14BF0024012420F0EF
:10397000004040EAC47042F825001D6828690A7EAC
:10398000012A14BF00220122D2020C6904F01F0494
:10399000A24020F4F04002432A6113E5196814E7BD
:1039A0000A68002AFADB0020D5E4012090FAA0F092
:1039B000B0FA80F000F01F0001248440D069204359
:1039C000D0611EE51448F1E71448EFE71448EDE72D
:1039D0001448EBE71448E9E71448E7E71448E5E73B
:1039E0001448E3E71448E1E70120DFE70A48DDE790
:1039F0000A48DBE70A48D9E70A48D7E70A48D5E783
:103A00000A48D3E70A48D1E70B48CFE70023024032
:103A10006060025800600258400020198000501D6C
:103A2000000180210002B0250008302E0010603215
:103A300000209036000052470000B84F70B5044691
:103A4000036898689A6802F0080200F004000243D4
:103A500065D0DA6812F0007F04D0208B40F20112AA
:103A6000904223D002295CD09A6812F0040F09D04A
:103A70009A6812F0020F05D19868394A024042F064
:103A800010029A6001292FD023689A6812F0080F5B
:103A900051D103290CBF0C250425FFF76FFA064608
:103AA00023689B681D4225D1002039E01A6812F076
:103AB000400F10D12B4A196811F0400F0BD1013A79
:103AC000F9D1236E43F010032366636E43F00103C4
:103AD0006366012024E040221A6023689A6812F08D
:103AE000040F35D10425D8E70425D6E723689B6861
:103AF0002B4212D0FFF742FA831B052BF6D923681D
:103B00009B682B42F2D0236E43F010032366636E52
:103B100043F001036366012002E0002000E0002082
:103B200070BD9A6812F0080F03D09A6812F0020F65
:103B300005D00825B1E79A6812F0020FA9D198685C
:103B4000074A024042F020029A600229A1D1F0E720
:103B50009A6812F0020F01D004259EE701218BE73D
:103B6000C0FFFF7F00DC0C0003689A6812F0010FB1
:103B700057D170B5044699682C4A114209D0036E9A
:103B800043F010030366436E43F0010343660120D4
:103B900070BD9968264A0A4042F001029A60FFF718
:103BA000EDF905462368234A93420BD002F5807253
:103BB000934207D0204A92681A6812F0010F32D15E
:103BC0001B4E0FE01D4A9168A2F500729342F3D19B
:103BD00011F01F0FF0D00020DAE723681A6812F006
:103BE000010F1CD19A6812F0010F04D19A6832407B
:103BF00042F001029A60FFF7C1F9401B0228ECD99C
:103C000023681B6813F0010FE7D1236E43F0100304
:103C10002366636E43F0010363660120B8E700206A
:103C2000B6E7002070470020B2E700BF3F000080E9
:103C3000C0FFFF7F002002400063025800230240C3
:103C4000F8B504460D46164600684449884204D03B
:103C5000434B984201D0434900E043498F68816853
:103C600011F0040F75D194F85C20012A73D007F08D
:103C70001F07012384F85C3040F22123FB4013F03E
:103C8000010F04D1002384F85C30012062E020465B
:103C9000FFF76AFF002858D1226EA0F60273134086
:103CA00043F48073236622682D4B9A4238D0236EEA
:103CB00023F480132366236E13F4805F33D0636E86
:103CC00023F006036366A36D284ADA63A36D284ACE
:103CD0001A64A36D274ADA6423681C221A60002341
:103CE00084F85C302268536843F010035360226804
:103CF000214B9A421AD0D36823F00303216B0B4364
:103D0000D360216833462A464031A06D01F0D6FACF
:103D100022689168194B0B4043F00403936019E04B
:103D2000002FC8D1C3E700236366CCE71A46DB68DF
:103D300094F8381023F0030343EA4103D360226868
:103D4000D36843F00103D360DBE7002384F85C30E1
:103D500000E00220F8BD0220FCE700BF0020024086
:103D6000002102400063025800230240853200080F
:103D7000C72F00080D33000800600258C0FFFF7F06
:103D800038B503689A68996812F0020F03D10446A7
:103D900011F0010F01D1002038BD9A6802F00D0228
:103DA000012A09D0036E43F010030366436E43F00B
:103DB000010343660120EFE79968164A0A4042F082
:103DC00002029A60036803221A60FFF7D7F80546DB
:103DD00023689B6813F0010F06D10020DCE72368FD
:103DE0009B6813F0010F13D0FFF7C8F8401B02289F
:103DF000F5D923689B6813F0010FF0D0236E43F0D0
:103E000010032366636E43F0010363660120C3E77A
:103E10000020C1E7C0FFFF7F90F85C30012B18D075
:103E200010B50446012380F85C300321FFF706FE3D
:103E300018B1002384F85C3010BD2046FFF7A0FFC6
:103E40000028F6D1226E044B134043F00103236691
:103E5000EFE70220704700BFFEEEFFFF10B50446FB
:103E60000368404A934220D002F5807293421CD0EE
:103E70003D4B9B6813F4403F1CD005F097FA6368F4
:103E8000B3F5003F05D0B3F5403F26D0B3F5803FF2
:103E900002D11B0CB0FBF3F0344B98424ED8226891
:103EA000936823F44073936010BD314B9B6813F407
:103EB000403FE2D14FF40020002106F0D9FB6368B7
:103EC000B3F5101F36D022D8B3F5E01F30D006D995
:103ED000B3F5001FE0D14009DEE78008DCE7B3F569
:103EE000801F08D00CD8B3F5002F04D023F4002293
:103EF000B2F5802FD0D19B0C5B00B0FBF3F0CBE789
:103F0000B3F5A01FF7D0B3F5C01FF4D0C4E7B3F5E5
:103F1000201F11D0B3F5301FBED1164B9842BED929
:103F20002268936823F4407343F480739360BBE783
:103F30000009B1E78009AFE7C009ADE70E4B984231
:103F4000EED90E4B984207D82268936823F4407349
:103F500043F400739360A7E72268936843F44073C7
:103F60009360A1E7002002400063025821BCBE001C
:103F700000230240FF21BCBE41787D0181F0FA029E
:103F800070B582B000230193002800F0338104460D
:103F9000036E002B42D023689A6812F0005F03D0B2
:103FA0009968954A0A409A6023689A6812F0805F7F
:103FB00016D19968914A0A4042F080529A60904B1B
:103FC0001B689B098F4AA2FB03239B0901330193C2
:103FD000019B2BB1019B013B0193019B002BF9D16C
:103FE0002268936813F0805F1FD1236E43F01003A3
:103FF0002366636E43F00103636601259168236EB7
:1040000003F0100301F004010B4310D0236E43F0C2
:10401000100323660125284602B070BDFDF7E4FCBD
:104020000023636684F85C30B5E70025E6E7236E7D
:1040300023F4817343F002032366936813F0010FA6
:1040400012D1714B9A426BD003F580739A4267D0BC
:104050006E4B9B6813F0010F06D16D4A936823F4F1
:104060007C1361680B4393602268684B9A4262D06C
:10407000E36BA1680B43617E43EA413394F820105F
:1040800043EA014394F8201001296CD0A16A21B1C0
:1040900001F47871E06A01430B435C498A4267D0BE
:1040A000D0685C4901401943D16021688A688B68F7
:1040B00003F0080302F00402134322D1534B994248
:1040C00063D0237E226B42EA8332C868524B03409E
:1040D0001343CB6094F84430012B5DD02268136900
:1040E00023F0010313612268136923F07043216CEC
:1040F0000B4313612268454B9A4202D02046FFF7DA
:10410000ADFE2369012B6CD02268136B23F00F03E3
:104110001363236E23F0030343F0010323667AE75E
:10412000394B996803F580739B680B4313F0010FBB
:104130009ED13A4A92E7E36BE1680B43617E43EA22
:104140004133A168182906D01C290AD00C2914BFB4
:1041500000210121C90094F8200043EA00430B43E9
:1041600090E71021F7E7616A013943EA41438DE79F
:10417000C8682B4A02401A43CA602268136923F0B8
:104180004063616B0B4313618FE7237E94F8382003
:10419000520042EA833298E722681C4B9A4210D0C0
:1041A0001069A36C591EE36C266D334343EA014347
:1041B000616D0B431B4901400B4343F00103136145
:1041C00091E719461869A36C626D1343164A0240C1
:1041D0001343E26C1343226D134343F001030B615D
:1041E00081E721680A6BE369013B22F00F02134368
:1041F0000B638EE701250EE7C0FFFF5FC0FFFF6F77
:1042000004000024632D3E05002002400060025897
:104210000063025803C0F0FFFCBFFFFF0023024011
:104220000740F0FF1EF800FC1FF800FC70B582B0DC
:104230000023019390F85C30012B42D004460D46D8
:104240001646012380F85C30FFF79AFD00282FD135
:10425000226E1D4B134043F00203236622689168CF
:104260001A4B0B4006F08046334305F480352B4350
:1042700043F00043936022689368002B06DB236EB3
:1042800023F0030343F00103236615E0019B013390
:10429000019301990E4B9942EED3236E23F0120342
:1042A00043F010032366002384F85C30012006E00D
:1042B000236E43F010032366002384F85C3002B0C1
:1042C00070BD0220FBE700BFFDEEFFFFC0FFFE3F19
:1042D00000F8C3257047704770477047704700006B
:1042E00090F85C20012A6BD010B49DB003460122E7
:1042F00080F85C2000221892199200683C4A904293
:1043000060D01A6E42F020021A66002283F85C2008
:10431000012068E00A6852B33648826822F44042BD
:104320004C68224382601A68A0F54070824213D024
:1043300000F5807082420FD02F4A926812F0010F70
:104340003AD12C4884680A6889680A432B4921407D
:104350000A438260002043E0254A906802F580729B
:104360009268024312F0010FEBD0002038E021499F
:104370008A6822F440428A601A68A1F540718A4234
:104380000FD001F580718A420BD01B4A926812F05F
:10439000010F13D117498868184A02408A6000202B
:1043A0001EE0134A916802F5807292680A4312F087
:1043B000010FEFD0002013E0002011E000200FE0FB
:1043C000022070470E4A9068A2F5807292680243FC
:1043D00012F0040F9ED01A6E42F020021A660120DD
:1043E000002283F85C201DB05DF8044B704700BFCD
:1043F000002002400023024000600258E0F0FFFF6E
:1044000000210240064AD368000200F4E06023F471
:10441000E0631B041B0C1843024B0343D36070473B
:1044200000ED00E00000FA0500B5164BDB68C3F3B1
:104430000223C3F1070CBCF1040F28BF4FF0040C9A
:1044400003F1040EBEF1060F8CBF033B00234FF0B7
:10445000FF3E0EFA0CFC21EA0C0199400EFA03FE15
:1044600022EA0E021143002805DB0901C9B2064BFE
:1044700019545DF804FB00F00F000901C9B2034BA9
:104480001954F6E700ED00E000E400E014ED00E070
:10449000002807DB410900F01F0001238340024A86
:1044A00042F82130704700BF00E100E000280CDB3B
:1044B000430900F01F00012282402033034941F8E4
:1044C0002320BFF34F8FBFF36F8F704700E100E0F1
:1044D000BFF34F8F0549CA6802F4E062044B1343EF
:1044E000CB60BFF34F8F00BFFDE700BF00ED00E0E2
:1044F0000400FA050138B0F1807F0BD24FF0E023C1
:104500005861054AF02182F82310002098610722A3
:104510001A6170470120704700ED00E0BFF35F8F24
:10452000044B5A6A22F480325A620022C3F8942063
:10453000704700BF00ED00E040F00100054BC3F8FC
:1045400094005A6A42F480325A62BFF34F8FBFF32D
:104550006F8F704700ED00E04378144AC2F898303E
:10456000D2F8A03023F00103C2F8A0304368C2F8AB
:104570009C30017BC37A1B0643EA017301780B432D
:10458000817A43EAC143417B43EA8143817B43EA29
:104590004143C17B43EA0143417A43EA0123017A63
:1045A00043EA4103C2F8A030704700BF00ED00E0CD
:1045B00070B110B50446037933B102232371002092
:1045C00020610123237110BD4371FDF7D9FAF4E78F
:1045D00001207047002800F0BE802DE9F0410D4613
:1045E00016460446002900F0B2804379012B00F002
:1045F000B08001234371022303710B68042B3ED06A
:104600002B69012B00F092802068C16B06F010022C
:104610000723934021EA0301EB68012B00F093800C
:10462000022B00F09280AE68B6FA86F676092B6807
:10463000AF683B43334393400B43C3632068036835
:104640004FF48041914023EA010303602068016830
:1046500040F6FE73934021EA03016B6893400B43DD
:10466000036020680368C02101FA02F223EA020312
:1046700003600123237100206071BDE8F081FEF723
:104680007DFC074636B123685A6B002A3EDBAA69D7
:104690005A641FE02368596B304A0A40C2B1DFF800
:1046A000BC8004E023685A6B12EA080F10D0FEF7B2
:1046B00065FCC01B0128F5D923685B6B13EA080F62
:1046C000F0D0236943F00803236103202071D4E76D
:1046D000AA691A642068836C06F0100240F2FF3168
:1046E000914023EA0103E96991400B438364206808
:1046F000C36CFF21914023EA0103296A91400B43D7
:10470000C3647DE723685A6B002AC0DAFEF736FCE3
:10471000C01B0128F6D923685B6B002BF2DA2369F2
:1047200043F00803236103202071A6E721688A6B08
:1047300006F010001F23834022EA03026B698340C6
:1047400013438B6360E7002671E701266FE70120C2
:1047500093E7022091E70120704700BF008000200E
:10476000F0B4866D0568914C914FBD4218BFA542CB
:104770000CBF012400241837BD4208BF44F00104D7
:104780001837BD4208BF44F001041837BD4208BFC6
:1047900044F001041837BD4208BF44F00104183743
:1047A000BD4208BF44F001041837BD4208BF44F0C1
:1047B000010407F55677BD4208BF44F001041837DD
:1047C000BD4208BF44F001041837BD4208BF44F0A1
:1047D00001041837BD4208BF44F001041837BD4238
:1047E00008BF44F001041837BD4208BF44F001047B
:1047F0001837BD4208BF44F001041837BD4208BF56
:1048000044F001046B4FBD4208BF44F0010414376B
:10481000BD4208BF44F001041437BD4208BF44F054
:1048200001041437BD4208BF44F001041437BD42EF
:1048300008BF44F001041437BD4208BF44F001042E
:104840001437BD4208BF44F0010414B95A4CA542C4
:1048500007D1446E856E6560C46E14B1046F456FF8
:1048600065600568514C524FBD4218BFA5420CBF50
:10487000012400241837BD4208BF44F00104183752
:10488000BD4208BF44F001041837BD4208BF44F0E0
:1048900001041837BD4208BF44F001041837BD4277
:1048A00008BF44F001041837BD4208BF44F00104BA
:1048B00007F55677BD4208BF44F001041837BD42E2
:1048C00008BF44F001041837BD4208BF44F001049A
:1048D0001837BD4208BF44F001041837BD4208BF75
:1048E00044F001041837BD4208BF44F001041837F2
:1048F000BD4208BF44F0010414B9304CA54215D1A3
:10490000C46D04F01F053F24AC40B46005682C68FA
:1049100024F480242C60046863608368402B3AD0C0
:10492000036899600368DA60F0BC7047214C244F3B
:10493000BD4218BFA5420CBF012400241437BD425C
:1049400008BF44F001041437BD4208BF44F001041D
:104950001437BD4208BF44F001041437BD4208BFFC
:1049600044F001041437BD4208BF44F0010414B9F7
:10497000114CA542D8D1C46D04F01F050124AC40F0
:104980007460046863608368402B09D00368996091
:104990000368DA60C8E703689A600368D960C3E710
:1049A00003689A600368D960BEE700BF1000024048
:1049B000280002400854025894540258B804024097
:1049C0001C54025801460268344B3548824218BFD5
:1049D0009A420CBF012300231830824208BF43F0E3
:1049E00001031830824208BF43F0010318308242AD
:1049F00008BF43F001031830824208BF43F00103AF
:104A00001830824208BF43F001031830824208BFC9
:104A100043F0010300F55670824208BF43F00103E2
:104A20001830824208BF43F001031830824208BFA9
:104A300043F001031830824208BF43F001031830ED
:104A4000824208BF43F001031830824208BF43F09E
:104A500001031830824208BF43F0010313B9114B20
:104A60009A4213D110B4D0B210380F4BA3FB0043BD
:104A7000C3F302130D4CE35CCB655F280AD96FF3D7
:104A80000902101D88655DF8044B704722F0FF0095
:104A90008865704706481040F4E700BF10000240E8
:104AA00028000240B8040240ABAAAAAAF81F0208D4
:104AB00000FCFFFF0368264A26498B4218BF934239
:104AC0000CBF0122002214318B4208BF42F00102C8
:104AD00014318B4208BF42F0010214318B4208BFEF
:104AE00042F0010214318B4208BF42F0010214313E
:104AF0008B4208BF42F0010212B9174A934212D109
:104B0000DBB2083B154AA2FB0323154A02EB131242
:104B10009200C3F30413012101FA03F31149026661
:104B2000416683667047D9B210390F4AA2FB012152
:104B300009090E4A1A44A82A08D90D4A0A449200C3
:104B400001F01F0101238B400A49E8E70831F4E72F
:104B5000085402581C54025894540258CDCCCCCC62
:104B60000096001680580258ABAAAAAAF0FBFDBF17
:104B7000008200108008024090F804C00CF1FF3160
:104B8000072937D810B402681B4B1C4CA24218BF2F
:104B90009A420CBF012300231434A24208BF43F001
:104BA00001031434A24208BF43F001031434A242AB
:104BB00008BF43F001031434A24208BF43F00103CD
:104BC0001434A24208BF43F0010313B90C4B9A42BC
:104BD0000BD10C4B63449B000B4AC3660267012355
:104BE0008B4043675DF8044B7047084B63449B0060
:104BF000074AF2E7704700BF085402581C54025895
:104C0000945402583F960016405902583F820010B3
:104C10004009024038B50446FEF7B0F9002C00F018
:104C20000A8205462268624B62498A4218BF9A424C
:104C30000CBF0123002318318A4208BF43F001034F
:104C400018318A4208BF43F0010318318A4208BF75
:104C500043F0010318318A4208BF43F001031831C1
:104C60008A4208BF43F0010318318A4208BF43F06B
:104C7000010301F556718A4208BF43F00103183160
:104C80008A4208BF43F0010318318A4208BF43F04B
:104C9000010318318A4208BF43F0010318318A42E8
:104CA00008BF43F0010318318A4208BF43F00103F3
:104CB00018318A4208BF43F0010313B93E4B9A42B0
:104CC0001AD1022384F83530002384F83430136875
:104CD00023F00103136023681A6812F0010F77D0E4
:104CE000FEF74CF9431B052BF5D9202363650323FD
:104CF00084F83530012038BD304B31498A4218BF25
:104D00009A420CBF0123002314318A4208BF43F0AA
:104D1000010314318A4208BF43F0010314318A426F
:104D200008BF43F0010314318A4208BF43F0010376
:104D300014318A4208BF43F001031BB9214B9A4248
:104D400040F06381022384F83530002384F8343046
:104D500010686FF31010A368402B00F05D81802B6A
:104D600014BF002301239B03E1682569294365697A
:104D70002943A5692943E5692943256A40EA1510B5
:104D800040EAD1010B43136022680F4B13440F4AD2
:104D9000A2FB03231B099B00E3652046FFF712FEDD
:104DA000E26D02F01F0101228A40426057E000BF1D
:104DB0001000024028000240B80402400854025883
:104DC0001C54025894540258F8ABFDA7CDCCCCCC5F
:104DD0001A689A491140A268E068024320690243B8
:104DE00060690243A0690243E0690243206A02430A
:104DF0000A43616A042900F0C3806168522900F205
:104E0000C9803E2940F2C1803F398D4820FA01F126
:104E100011F0010F01D042F480121A6021684A6932
:104E200022F00702636A1A43042B0ED1A06A0243E0
:104E3000E36A53B1A569002D40F0C280012800F05B
:104E4000B98030F0020000F0AA804A612046FFF7E6
:104E5000B9FDE36D03F01F023F2393408360226896
:104E6000784B79498A4218BF9A420CBF012300232C
:104E700018318A4208BF43F0010318318A4208BF43
:104E800043F0010318318A4208BF43F0010318318F
:104E90008A4208BF43F0010318318A4208BF43F039
:104EA000010318318A4208BF43F0010301F556712E
:104EB0008A4208BF43F0010318318A4208BF43F019
:104EC000010318318A4208BF43F0010318318A42B6
:104ED00008BF43F0010318318A4208BF43F00103C1
:104EE00018318A4208BF43F0010318318A4208BFD3
:104EF00043F0010318318A4208BF43F001035349CC
:104F00008A4208BF43F0010314318A4208BF43F0CC
:104F1000010314318A4208BF43F0010314318A426D
:104F200008BF43F0010314318A4208BF43F0010374
:104F300014318A4208BF43F0010314318A4208BF8A
:104F400043F0010313B9424B9A4213D12046FFF7B5
:104F5000B1FDA368802B61D0236E22791A60636E45
:104F6000A26E5A606368013B072B5AD90023E3669F
:104F70002367636700206065012384F83530BAE653
:104F8000E16A206B01430A4337E7293905293FF6D7
:104F900044AF40E7743903293FF63FAF3BE7C3F323
:104FA0000063002B3FF451AF40236365012084F878
:104FB0003500A0E6B3F1C07F14BF00230123F0E762
:104FC000B5F5005F0AD00228EED903287FF43DAF83
:104FD000C3F30063002B3FF438AFE5E703283FF647
:104FE00034AF01A555F820F0A94F0008F94F00088B
:104FF000A94F0008FF4F0008C3F30063EAE7B3F1CD
:10500000C07F14BF00230123E4E74023636503232B
:1050100084F8353001206EE61023A5E60023636096
:105020009AE72046FFF7A8FDE36E00221A60236F7F
:10503000626F5A609EE701205DE600BF3F8010FE70
:105040000F030F00100002402800024008540258CD
:1050500094540258002800F0238110B504460268D9
:10506000904B91498A4218BF9A420CBF01230023FA
:1050700018318A4208BF43F0010318318A4208BF41
:1050800043F0010318318A4208BF43F0010318318D
:105090008A4208BF43F0010318318A4208BF43F037
:1050A000010318318A4208BF43F0010301F556712C
:1050B0008A4208BF43F0010318318A4208BF43F017
:1050C000010318318A4208BF43F0010318318A42B4
:1050D00008BF43F0010318318A4208BF43F00103BF
:1050E00018318A4208BF43F0010318318A4208BFD1
:1050F00043F001031BB96D4B9A4240F0878013685F
:1051000023F0010313602268664B67498A4218BF87
:105110009A420CBF0123002318318A4208BF43F092
:10512000010318318A4208BF43F0010318318A4253
:1051300008BF43F0010318318A4208BF43F001035E
:1051400018318A4208BF43F0010318318A4208BF70
:1051500043F0010301F556718A4208BF43F0010391
:1051600018318A4208BF43F0010318318A4208BF50
:1051700043F0010318318A4208BF43F0010318319C
:105180008A4208BF43F0010318318A4208BF43F046
:10519000010318318A4208BF43F0010313B9434B9E
:1051A0009A4238D1002313602268536022689360CA
:1051B0002268D36022681361236821225A61204645
:1051C000FFF700FCE36D03F01F023F239340836071
:1051D0002046FFF76FFC236E23B100221A60636E36
:1051E000A26E5A606368013B072B4FD90020E0662E
:1051F00020676067E06320646064A064E064206509
:10520000606584F8350084F8340010BD136823F01D
:105210000103136077E7264B26498A4218BF9A425A
:105220000CBF0123002314318A4208BF43F001035D
:1052300014318A4208BF43F0010314318A4208BF87
:1052400043F0010314318A4208BF43F001031431D3
:105250008A4208BF43F0010313B9174B9A4213D196
:105260000023136022685360226893602268D36031
:10527000226813612046FFF7A5FBE36D03F01F02D0
:10528000012393404360A3E70120BEE72046FFF7D8
:1052900073FCE36E00221A60236F626F5A60A5E709
:1052A000012070471000024028000240B80402406C
:1052B000085402581C54025894540258002800F014
:1052C000D28170B5044690F83400012800F0CD81F9
:1052D000012084F8340094F83500C0B2012807D0CA
:1052E0004FF400636365002384F83430012070BDFF
:1052F000022084F835000020606525689548964EA8
:10530000B54218BF85420CBF012000201836B542B7
:1053100008BF40F001001836B54208BF40F0010058
:105320001836B54208BF40F001001836B54208BF34
:1053300040F001001836B54208BF40F001001836B1
:10534000B54208BF40F0010006F55676B54208BFE9
:1053500040F001001836B54208BF40F00100183691
:10536000B54208BF40F001001836B54208BF40F012
:1053700001001836B54208BF40F001001836B542AA
:1053800008BF40F001001836B54208BF40F00100E8
:1053900018B97248854240F04B81286820F001001E
:1053A00028602046FFF7DCF922686A4B6A498A4286
:1053B00018BF9A420CBF0123002318318A4208BF4C
:1053C00043F0010318318A4208BF43F0010318314A
:1053D0008A4208BF43F0010318318A4208BF43F0F4
:1053E000010318318A4208BF43F0010318318A4291
:1053F00008BF43F0010301F556718A4208BF43F02C
:10540000010318318A4208BF43F0010318318A4270
:1054100008BF43F0010318318A4208BF43F001037B
:1054200018318A4208BF43F0010318318A4208BF8D
:1054300043F0010318318A4208BF43F001031BB94E
:10544000464B9A4240F0F980136823F01E0343F064
:1054500016031360236C23B12268136843F008031A
:10546000136022683B4B3C498A4218BF9A420CBFEA
:105470000123002318318A4208BF43F00103183189
:105480008A4208BF43F0010318318A4208BF43F043
:10549000010318318A4208BF43F0010318318A42E0
:1054A00008BF43F0010318318A4208BF43F00103EB
:1054B00001F556718A4208BF43F0010318318A4250
:1054C00008BF43F0010318318A4208BF43F00103CB
:1054D00018318A4208BF43F0010318318A4208BFDD
:1054E00043F0010318318A4208BF43F00103183129
:1054F0008A4208BF43F0010318318A4208BF43F0D3
:10550000010317498A4208BF43F0010314318A425C
:1055100008BF43F0010314318A4208BF43F001037E
:1055200014318A4208BF43F0010314318A4208BF94
:1055300043F0010314318A4208BF43F001031431E0
:105540008A4208BF43F0010373B9064B9A421AD14D
:105550000AE000BF1000024028000240B8040240E8
:105560000854025894540258236E1A6812F4803F6B
:1055700003D01A6842F480721A60E36E1BB11A6895
:1055800042F480721A602268394B3A498A4218BF45
:105590009A420CBF0123002318318A4208BF43F00E
:1055A000010318318A4208BF43F0010318318A42CF
:1055B00008BF43F0010318318A4208BF43F00103DA
:1055C00018318A4208BF43F0010318318A4208BFEC
:1055D00043F0010301F556718A4208BF43F001030D
:1055E00018318A4208BF43F0010318318A4208BFCC
:1055F00043F0010318318A4208BF43F00103183118
:105600008A4208BF43F0010318318A4208BF43F0C1
:10561000010318318A4208BF43F0010313B9164B46
:105620009A421AD1136843F00103136000205EE62A
:10563000286820F001002860B3E6136823F00E0309
:1056400043F00A031360236C002B3FF40AAF226877
:10565000136843F00403136003E7136843F0010386
:105660001360002043E60120704702203FE600BFA0
:105670001000024028000240B804024070B5044601
:10568000FDF77CFC002C00F04882054694F835308C
:10569000DBB2022B06D080236365002384F834300C
:1056A000012070BD2268924B92498A4218BF9A42EB
:1056B0000CBF0123002318318A4208BF43F00103C5
:1056C00018318A4208BF43F0010318318A4208BFEB
:1056D00043F0010318318A4208BF43F00103183137
:1056E0008A4208BF43F0010318318A4208BF43F0E1
:1056F000010301F556718A4208BF43F001031831D6
:105700008A4208BF43F0010318318A4208BF43F0C0
:10571000010318318A4208BF43F0010318318A425D
:1057200008BF43F0010318318A4208BF43F0010368
:1057300018318A4208BF43F001031BB96E4B9A42ED
:1057400040F0F780136823F01E031360226853694A
:1057500023F08003536126682268654B65498A42BD
:1057600018BF9A420CBF0123002318318A4208BF98
:1057700043F0010318318A4208BF43F00103183196
:105780008A4208BF43F0010318318A4208BF43F040
:10579000010318318A4208BF43F0010318318A42DD
:1057A00008BF43F0010301F556718A4208BF43F078
:1057B000010318318A4208BF43F0010318318A42BD
:1057C00008BF43F0010318318A4208BF43F00103C8
:1057D00018318A4208BF43F0010318318A4208BFDA
:1057E00043F0010318318A4208BF43F00103183126
:1057F0008A4208BF43F0010340498A4208BF43F090
:10580000010314318A4208BF43F0010314318A4274
:1058100008BF43F0010314318A4208BF43F001037B
:1058200014318A4208BF43F0010314318A4208BF91
:1058300043F0010314318A4208BF43F0010313B956
:105840002F4B9A4204D1226E136823F480731360A5
:105850002268274B27498A4218BF9A420CBF01236E
:10586000002318318A4208BF43F0010318318A42ED
:1058700008BF43F0010318318A4208BF43F0010317
:1058800018318A4208BF43F0010318318A4208BF29
:1058900043F0010318318A4208BF43F0010301F5C8
:1058A00056718A4208BF43F0010318318A4208BF8B
:1058B00043F0010318318A4208BF43F00103183155
:1058C0008A4208BF43F0010318318A4208BF43F0FF
:1058D000010318318A4208BF43F0010318318A429C
:1058E00008BF43F001036BB9034B9A4227D109E08B
:1058F0001000024028000240B80402400854025838
:1059000094540258136823F001031360336813F0B2
:10591000010F19D0FDF732FB401B0528F6D92023D3
:105920006365032384F83530002384F83430012084
:10593000B7E6136823F00E03136026680CE71368BC
:1059400023F001031360E1E72268754B75498A4231
:1059500018BF9A420CBF0123002318318A4208BFA6
:1059600043F0010318318A4208BF43F001031831A4
:105970008A4208BF43F0010318318A4208BF43F04E
:10598000010318318A4208BF43F0010318318A42EB
:1059900008BF43F0010301F556718A4208BF43F086
:1059A000010318318A4208BF43F0010318318A42CB
:1059B00008BF43F0010318318A4208BF43F00103D6
:1059C00018318A4208BF43F0010318318A4208BFE8
:1059D00043F0010318318A4208BF43F001031BB9A9
:1059E000514B9A4240F09180A16DE36D03F01F028C
:1059F0003F2393408B602268494B4A498A4218BF33
:105A00009A420CBF0123002318318A4208BF43F099
:105A1000010318318A4208BF43F0010318318A425A
:105A200008BF43F0010318318A4208BF43F0010365
:105A300018318A4208BF43F0010318318A4208BF77
:105A400043F0010301F556718A4208BF43F0010398
:105A500018318A4208BF43F0010318318A4208BF57
:105A600043F0010318318A4208BF43F001031831A3
:105A70008A4208BF43F0010318318A4208BF43F04D
:105A8000010318318A4208BF43F0010318318A42EA
:105A900008BF43F0010325498A4208BF43F00103D0
:105AA00014318A4208BF43F0010314318A4208BF0F
:105AB00043F0010314318A4208BF43F0010314315B
:105AC0008A4208BF43F0010314318A4208BF43F001
:105AD000010314318A4208BF43F0010313B9144B88
