:020000040800F2
:1000000000000524792D0008A5290008A72900086B
:10001000A9290008AB290008AD290008000000004C
:10002000000000000000000000000000AF290008F0
:10003000B129000800000000B3290008B529000814
:10004000CD2D0008CD2D0008CD2D0008CD2D0008A8
:10005000CD2D0008CD2D0008CD2D0008CD2D000898
:10006000CD2D0008CD2D0008CD2D0008BD2900089C
:10007000CD290008DD290008ED290008FD29000828
:100080000D2A00081D2A00082D2A0008CD2D000881
:10009000CD2D0008CD2D0008CD2D0008CD2D000858
:1000A000CD2D0008CD2D0008CD2D0008CD2D000848
:1000B000CD2D0008CD2D00083D2A00084D2A00084E
:1000C0005D2A00086D2A00087D2A0008CD2D000851
:1000D000CD2D00088D2A0008CD2D00089D2A00088E
:1000E000CD2D0008CD2D000800000000CD2D00080A
:1000F000CD2D0008CD2D0008CD2D0008CD2D0008F8
:10010000CD2D0008CD2D0008CD2D0008CD2D0008E7
:10011000AD2A0008BD2A0008CD2A0008DD2A000803
:10012000CD2D0008ED2A0008FD2A00080D2B00083F
:100130001D2B0008CD2D0008CD2D0008CD2D000869
:1001400000000000000000000000000000000000AF
:100150002D2B00083D2B00084D2B0008CD2D00084D
:10016000CD2D0008CD2D0008CD2D0008CD2D000887
:10017000CD2D0008CD2D0008CD2D00080000000079
:10018000CD2D0008CD2D0008CD2D00085D2B0008D9
:10019000CD2D0008CD2D0008CD2D00086D2B0008B9
:1001A000CD2D0008CD2D0008CD2D00080000000049
:1001B000CD2D0008CD2D0008CD2D0008852B000881
:1001C000952B0008CD2D0008000000000000000065
:1001D0000000000000000000CD2D0008000000001D
:1001E000000000000000000000000000000000000F
:1001F0000000000000000000CD2D0008CD2D0008FB
:10020000CD2D0008CD2D000800000000CD2D0008E8
:10021000CD2D0008CD2D0008CD2D0008CD2D0008D6
:10022000CD2D000800000000CD2D000800000000CA
:10023000A52B0008CD2D000800000000B52B0008FC
:10024000CD2D0008C52B0008D52B0008CD2D0008AA
:10025000CD2D0008CD2D0008CD2D0008CD2D000896
:10026000CD2D0008CD2D0008CD2D0008CD2D000886
:10027000CD2D0008CD2D0008CD2D00080000000078
:10028000CD2D0008CD2D0008CD2D0008CD2D000866
:1002900000000000CD2D0008CD2D0008000000005A
:1002A00000000000CD2D0008CD2D0008CD2D000848
:1002B000CD2D0008E52B0008CD2D0008CD2D000820
:0C02C000CD2D0008CD2D0008CD2D00082C
:1002D00010B5054C237833B9044B13B10448AFF380
:1002E00000800123237010BDC00300240000000023
:1002F00098F2010808B5034B1BB103490348AFF35B
:10030000008008BD00000000C403002498F201082A
:1003100001F0FF01102A2BDB10F0070F08D010F8B6
:10032000013B013A8B422DD010F0070F42B3F6D1BA
:10033000F0B441EA012141EA014122F007047FF0D3
:1003400000070023F0E80256083C85EA010586EA2A
:10035000010685FA47F5A3FA87F586FA47F6A5FA66
:1003600087F68EB9EED1F0BC01F0FF0102F0070272
:1003700032B110F8013B013A83EA010313B1F8D11D
:100380000020704701387047002D06BF35460338FE
:10039000073815F0010F07D1013015F4807F02BF37
:1003A000013015F4C03F0130F0BC0138704700BF88
:1003B000034613F8012B002AFBD1181A01387047A5
:1003C00053B94AB9002908BF00281CBF4FF0FF31BC
:1003D0004FF0FF3000F088B9ADF1080C6DE904CEA4
:1003E00000F006F8DDF804E0DDE9022304B0704710
:1003F0002DE9F047089D8E4604468846002B4AD1D9
:100400008A42174662D9B2FA82F64EB1C6F120038B
:1004100001FA06F820FA03F3B74043EA0808B440AB
:100420004FEA174E1FFA87FCB8FBFEF1230C0EFBB8
:10043000118843EA084301FB0CF29A4209D9FB18E0
:1004400001F1FF3080F0EA809A4240F2E780023901
:100450003B449A1AA3B2B2FBFEF00EFB102243EA11
:10046000024300FB0CFC9C4509D9FB1800F1FF324C
:1004700080F0D6809C4540F2D3803B44023840EA6D
:100480000140A3EB0C0300211DB1F3400022C5E99C
:100490000032BDE8F0878B4205D90DB1C5E90001F6
:1004A00000210846F5E7B3FA83F1002946D17345E8
:1004B00002D3824200F20581841A6EEB030201200E
:1004C0009046002DE5D0C5E90048E2E7002A00F09B
:1004D0009080B2FA82F6002E40F0A4808A1A030CB3
:1004E0004FEA174E80B2BCB20121B2FBFEFC0EFBFC
:1004F0001C2243EA024304FB0CF29A4207D9FB1880
:100500000CF1FF3802D29A4200F2E080C4469B1AF6
:10051000B3FBFEF20EFB123340EA034302FB04F48A
:100520009C4207D9FB1802F1FF3002D29C4200F234
:10053000CA8002461B1B42EA0C40A5E7C1F1200617
:100540008B4022FA06F71F430EFA01F420FA06F355
:100550002EFA06FE4FEA1749234300FA01F81FFA64
:1005600087FCBEFBF9F01C0C09FB10EE44EA0E44BC
:1005700000FB0CFEA64502FA01F209D93C1900F174
:10058000FF3A80F09C80A64540F2998002383C44B6
:10059000A4EB0E041FFA83FEB4FBF9F309FB13442A
:1005A0004EEA044403FB0CFCA44508D93C1903F1B2
:1005B000FF3E80F08280A4457FD9023B3C4443EA61
:1005C0000040A4EB0C04A0FB02EC64457346E1463A
:1005D00062D35FD05DB1B8EB030264EB090404FAA7
:1005E00006F622FA01F31E43CC40C5E9006400215F
:1005F0004FE7B1FBF2FC010C41EA0E4180B240EA48
:1006000001423B4638463C46B846BE462026B1FB32
:10061000F7F1A2EB080241EA0C4166E7014618E750
:1006200010462CE7C6F120022EFA02F3B740B14083
:1006300020FA02F24FEA174E0A43B3FBFEF8BCB2AF
:100640000EFB1833110C41EA034108FB04F9B040DA
:1006500089454FEA104380B23ED9791808F1FF3C32
:1006600001D289451FD8A1EB0901B1FBFEF909FBB5
:1006700004F80EFB191192B242EA0142424529D216
:10068000BA1809F1FF31C4D24245C2D2A9F1020120
:100690003A44BEE7F0459DD2BEEB02036CEB070C7B
:1006A0000138E14696E7A7EB09094944A8F1020C95
:1006B000B1FBFEF909FB04F8DBE773467FE7504620
:1006C00066E70846FDE63B44023A33E7ACF1020C2C
:1006D0003B441CE749469CE7A1EB0901C446B1FB3A
:1006E000FEF909FB04F8C4E7704700BF90281ED04C
:1006F0000B781B021D4A138049780B4313801C4A58
:10070000012111701B4A12881B4921F812301B4B22
:100710001B88072B02D8013318490B80013202F0E5
:100720000702144B1A80164B00221A6070470B7890
:100730001B02144A138049780B431380124A01218B
:100740001170124A1288124921F81230114B1B887D
:10075000072B02D801330F490B80013202F0070248
:100760000A4B1A800C4B00221A6070473A0400248E
:100770003804002434040024140400240E0400244B
:10078000040400243C04002439040024360400241A
:1007900024040024100400240804002490280CBF22
:1007A000024B034B00221A60704700BF080400246C
:1007B0000404002470B504460D46164690280CD05B
:1007C0000A4B01221A6017F07FF8094B1860324675
:1007D0002946204616F08EFB70BD064B01221A609A
:1007E00017F072F8044B1860F1E700BF040400240E
:1007F000FC0300240804002400040024014B002210
:100800001A7070470C04002407EE900AF8EEE77A9D
:100810009FED177A67EE877A9FED167A67EE877AF3
:10082000B7EEE70A9FED106BB4EEC60BF1EE10FACF
:1008300015D99FED117AF4EEC77AF1EE10FA02DBCA
:100840009FED0E0A704708B5B0EE041B1EF02CF9A0
:10085000B3EE097B20EE070BB7EEC00B08BD9FED92
:10086000070A7047AFF300807B14AE47E17A843FFC
:100870006F12834000000038333353400000000003
:10088000494B1B78042B00D0704710B517F01CF8AB
:10089000464B1A68464B19681AF0D4FAE8B117F0BB
:1008A00013F8434B1860434B1B884BB902220021BD
:1008B0009020FFF77FFF012869D13E4B01221A806B
:1008C000022200219220FFF775FF012863D1394BE6
:1008D00000221A80354B64221A60374B1B784BB3C9
:1008E000354B00221A70354B1C88002C57D0344AE7
:1008F00002EB4400002332F8021F0B448242FAD17B
:10090000B3FBF4F39CB22046FFF77EFF2D4B83ED43
:10091000000A2D4B1C8007EE904AF8EEE77A9FED17
:100920002B7A67EE877A9FED2A7A67EE877A294BD2
:10093000C3ED007A284B1B7843B3274B00221A7073
:10094000264B1C886CB3264A02EB4400002332F885
:10095000021F0B449042FAD1B3FBF4F39CB2204641
:10096000FFF752FF1F4B83ED000A1F4B1C8007EE61
:10097000904AF8EEE77A9FED157A67EE877A9FED59
:10098000147A67EE877A194BC3ED007A10BD074BD6
:100990000A221A60FAE7054B0A221A60F6E70023DA
:1009A000AEE70023D8E700BF0C040024E0030024D6
:1009B000E4030024DC030024390400241004002490
:1009C00022040024F8030024EA0300246F12834069
:1009D00000000038F0030024380400240E04002432
:1009E00012040024F4030024E8030024EC03002490
:1009F000014B93ED000A7047F8030024014B93ED7F
:100A0000000A7047F403002490280CBF024B034BEC
:100A100004221A70704700BF4E0400244D040024C5
:100A2000902813D00B781B02124A138049780B438D
:100A3000138007EE103ABAEEEC7BB7EEC77B0E4B95
:100A400083ED007A0D4B04221A7070470B781B025D
:100A50000B4A138049780B43138007EE103ABAEE25
:100A6000EC7BB7EEC77B074B83ED007A064B042285
:100A70001A707047620400245C0400244D040024B2
:100A800060040024580400244E040024F8B50446F1
:100A90000D4616461F4690280DD016F015FF0A4B3E
:100AA00018600A4B02221A703B46324629462046FD
:100AB00016F070F9F8BD16F007FF054B1860054BEE
:100AC00002221A70F0E700BF500400244D040024F5
:100AD000540400244E04002470B504460D46164606
:100AE00090280CD016F0F0FE094B1860094B02223A
:100AF0001A7032462946204616F088F970BD16F065
:100B0000E3FE054B1860054B02221A70F1E700BFA7
:100B1000500400244D040024540400244E040024F6
:100B20000023034A1370034A1370034A137070477B
:100B30004C0400244E0400244D040024244B1B7854
:100B4000002B42D100B583B040238DF80430A023A0
:100B50008DF805301F4B1B6813F0010F03D11E4B9E
:100B60001B78022B11D11B4B1B6813F0020F03D112
:100B70001A4B1B78022B16D1164B1B68032B20D067
:100B8000134B187803B05DF804FB022301AA01217E
:100B90009020FFF77BFF0128E5D10E4A136843F050
:100BA00001031360DFE7022301AA01219220FFF76E
:100BB0006DFF0128E0D1074A136843F00203136078
:100BC000DAE7034B04221A70DAE7014B1878704712
:100BD0004C040024480400244E0400244D04002446
:100BE00008B516F071FE254B1A68254B19681AF0E6
:100BF00029F9C0B1234B1B88B3B1224B1B8813F0DA
:100C0000010F03D1204B1B78022B15D11D4B1B88E4
:100C100013F0020F03D11D4B1B78022B19D1194B76
:100C20001B88032B22D008BD16F04EFE144B186013
:100C3000124B00221A60E0E7022200219020FFF709
:100C40004BFF0128E2D10F4A138843F001031380C0
:100C5000DCE7022200219220FFF73EFF0128DED1CF
:100C6000084A138843F002031380D8E7054B00229B
:100C70001A80024B64221A60D5E700BF40040024AA
:100C8000440400243E0400244E0400244D040024A7
:100C9000014B93ED000A704758040024014B93ED7B
:100CA000000A70475C04002400B59DB04C2200216E
:100CB00009A81CF061F82022002101A81CF05CF8B2
:100CC000022007F039FC00230093224B9A6942F47A
:100CD00040429A619B6903F440430093009B1D4A84
:100CE000936913F4005FFBD0092309934FF4803319
:100CF0000A9301220E9202231293139314926022FC
:100D0000159216937D22179218930C2319930023A2
:100D10001A931B9309A807F037FCB0B93F2301933E
:100D20000323029300230393082304934023059392
:100D300006934FF4806207920893022101A808F0FD
:100D400011F820B91DB05DF804FB72B6FEE772B66B
:100D5000FEE700BF0048025800B5AFB0982200215E
:100D600008A81CF009F84FF410220023CDE9002355
:100D70000123029318220392022204920592069301
:100D8000C02307934FF480331493684608F088FA21
:100D900010B92FB05DF804FB72B6FEE72DE980486C
:100DA0009BB00024119412941394149403F040FB0C
:100DB00001238DF844308DF8454012941F228DF8A0
:100DC0004C2087228DF84D208DF84E408DF84F40F5
:100DD0008DF850308DF851308DF852408DF85340D9
:100DE00011A803F043FB042003F030FB02F016F8D7
:100DF000C84B5B6913F4803F28D1C64BC3F88440CD
:100E0000BFF34F8FD3F88030C3F3C906C3F34E331B
:100E10005C0143F6E075BF4804EA0501334641EA48
:100E20008372C0F86022013BB3F1FF3FF7D1203C51
:100E300014F1200FF0D1BFF34F8FB64A536943F43A
:100E400080335361BFF34F8FBFF36F8FB14B5B693B
:100E500013F4003F13D1BFF34F8FBFF36F8FAD4B30
:100E60000022C3F85022BFF34F8FBFF36F8F5A6930
:100E700042F400325A61BFF34F8FBFF36F8F0023EC
:100E80001193129313931493BFF34F8FA24BA14965
:100E9000A24AC1F8683220339342FAD1BFF34F8F90
:100EA000BFF36F8F03F0C4FA01238DF844309A4AE0
:100EB00012920D228DF84C208DF8453000248DF8CB
:100EC0004E4003238DF84F308DF853408DF852403B
:100ED0008DF851408DF84D408DF8504011A803F029
:100EE000C5FA042003F0B2FA1194129413941494E6
:100EF000BFF34F8F8A4B87498A4AC1F86832203343
:100F00009342FAD1BFF34F8FBFF36F8F03F090FA84
:100F100001268DF84460824B12934FF00B0B8DF835
:100F20004CB04FF0020A8DF845A000248DF84E40D9
:100F300003278DF84F708DF853408DF852408DF88F
:100F400051408DF84D408DF8504011A803F08EFAB5
:100F5000042003F07BFAFFF7A7FEFFF7FDFE16F073
:100F6000BFFC16F0DDFA16F01DFB16F047FB16F07D
:100F700075FB16F0B9FB16F0E7FB1194129413946D
:100F800014941594684DD5F8E03043F01003C5F87B
:100F9000E030D5F8E03003F010030493049BD5F85B
:100FA000E03043F00403C5F8E030D5F8E03003F05A
:100FB00004030593059BD5F8E03043F08003C5F8A2
:100FC000E030D5F8E03003F080030693069BD5F8B7
:100FD000E0303343C5F8E030D5F8E03033400793D4
:100FE000079BD5F8E03043EA0A03C5F8E030D5F8AE
:100FF000E03003EA0A030893089BD5F8E03043F099
:101000000803C5F8E030D5F8E03003F00803099391
:10101000099B22464EF21001444805F0F5FBDFF82B
:10102000189122464FF45061484605F0EDFBDFF879
:101030000C81224641F20F01404605F0E5FB4EF2DD
:101040001003119312961394149411A9374805F0C4
:101050002DFA802311931294139411A9344805F0AA
:1010600025FA062311931294139411A9314805F01F
:101070001DFA802311934FF404131293139411A9B2
:10108000484605F013FA4FF45063119312961394E7
:10109000149411A9484605F009FA4FF4007311930E
:1010A0001294139411A9484605F000FA41F20F0377
:1010B000119312961394149411A9404605F0F6F971
:1010C00044F2200311931294139411A9404605F0A1
:1010D000EDF94FF4004311934FF4881312931394D6
:1010E00011A9404605F0E2F916F0ECF94FF4FA6068
:1010F00001F0D4FED5F8D8303343C5F8D830D5F850
:10110000D83033400293029BD5F8D83043EA0A0323
:1011100016E000BF00ED00E000400030008000302D
:1011200000300038004000380044025800080258DF
:10113000000002580004025800100258000C025827
:10114000C5F8D830D5F8D83003EA0A030393039BD7
:1011500022460421584603F0F1F8584603F022F9DC
:10116000224639460C2003F0E9F80C2003F01AF966
:10117000224604210D2003F0E1F80D2003F012F9BE
:10118000224631460E2003F0D9F80E2003F00AF96A
:10119000224631460F2003F0D1F80F2003F002F968
:1011A00022463946102003F0C9F8102003F0FAF85F
:1011B00022462146112003F0C1F8112003F0F2F875
:1011C00022463946392003F0B9F8392003F0EAF80D
:1011D000224631463A2003F0B1F83A2003F0E2F813
:1011E000224604213B2003F0A9F83B2003F0DAF863
:1011F000224621463C2003F0A1F83C2003F0D2F81F
:1012000022462146442003F099F8442003F0CAF80E
:1012100022463146452003F091F8452003F0C2F8FC
:1012200022463146462003F089F8462003F0BAF8FA
:10123000D5F8E03043F40013C5F8E030D5F8E030DD
:1012400003F400130193019B22460421812003F043
:1012500075F8812003F0A6F822460421822003F0CD
:101260006DF8822003F09EF8A748A84B0360446005
:1012700084604FF4005343618461C0F81CA0046291
:101280004462C460C462046310234363534622462D
:10129000214609F0B3FC002840F0AF839C489D4BE9
:1012A000036002234360012282604FF400524261D6
:1012B000C3610021C160C162016341630A4609F054
:1012C0009DFC002840F09B8300240D940E940F9405
:1012D0002422214611A81BF04FFD8F488F4B03603D
:1012E00044600822826001230361426104764476EF
:1012F0000322C26180F820408462C4620263C46336
:10130000046480F84440836402F0C4FD002840F087
:10131000788300230D930DA97F4802F06BFF00280E
:1013200040F071837E4B119306231293139340F286
:10133000FF73149304231593002316938DF86530DF
:1013400011A9754801F07AFF002840F05E83754BC3
:1013500011930C23129311A96F4801F06FFF00281D
:1013600040F05583704B11931223129311A96A48D0
:1013700001F064FF002840F04C832422002111A8D2
:101380001BF0FAFC69486A4B0360002343600822A3
:101390008260C360012101614261037643760322CA
:1013A000C26180F820308362C36280F838104363E2
:1013B0000263C363036480F84430836402F06AFD0F
:1013C000002840F0288301231193062312931393DE
:1013D00040F2FF731493042315930023169318937C
:1013E00011A9524801F02AFF002840F01683514B02
:1013F00011930C23129311A94C4801F01FFF0028F0
:1014000040F00D834C4B11931223129311A94748BE
:1014100001F014FF002840F004832422002111A8C9
:101420001BF0AAFC4548464B036003F04BF800282C
:1014300040F0F982002211920623129313920123A5
:101440001493159211A93D4803F086F8002840F046
:10145000EC823C483C4B03603C4B43600023836080
:101460000122C260036143618361C361036205F0CD
:10147000BBFB002840F0DB820021324807F002F875
:10148000002840F0D68200212E4807F029F80028D5
:1014900040F0D1822E482F4B03602C4B4360002339
:1014A00083600122C260036143618361C36103629F
:1014B00005F09AFB002840F0C0820021244806F085
:1014C000E1FF002840F0BB820021214807F008F826
:1014D000002840F0B6822048204B0360204B436038
:1014E000002383600122C260036143618361C361A1
:1014F000036205F079FB002840F0A5820021164820
:1015000006F0C0FF2EE000BFE40B002404580140A9
:101510004C0B002424580140781300240020024082
:101520000800900C0004002A0008302E0813002444
:101530000060025802003004000084CB0412002432
:10154000007400403811002400540040AE32900076
:10155000E41000240058004090100024001C0058A3
:101560002710C720002840F070820021A64806F00E
:10157000B7FF002840F06B82A44AA54B13604FF4DC
:1015800080335360002393604FF48041D160136136
:10159000032151610D930E930F9310930A930B93B4
:1015A0000C9311931293139314931593169317930B
:1015B00098484FF080420260BF224260836040F250
:1015C000E732C260036183610BF06EF9002840F0DE
:1015D00040824FF480530D930DA98E480BF0B0FA62
:1015E000002840F038828B480BF08EF9002840F03C
:1015F000348200230A930C930AA986480BF038FF23
:10160000002840F02C826023119300221292139242
:10161000159211A97F480BF0E9F9002840F02182CA
:10162000042211A97B480BF0E1F9002840F01B824D
:10163000082211A977480BF0D9F9002840F015824B
:101640000C2211A973480BF0D1F9002840F00F8249
:10165000704800F0D3FE00230D930E930F93109368
:101660000A930B930C931193129313931493159362
:10167000169317936848694A026043608360EF22BB
:10168000C260036183610BF00FF9002840F0F18123
:101690004FF480530D930DA95F480BF051FA0028C9
:1016A00040F0E9815C480BF02FF9002840F0E5811B
:1016B00000230A930C930AA957480BF0D9FE00287F
:1016C00040F0DD816023119300231293139315934F
:1016D000042211A950480BF089F9002840F0D1816B
:1016E0004D4800F08BFE4E484E4B03604FF4E13303
:1016F000436000238360C36003610C224261836105
:10170000C3610362436283620DF05DF9002840F01B
:10171000BA81002142480DF08BFA002840F0B581D3
:1017200000213F480DF0A9FA002840F0B0813C4864
:101730000DF05FFA002840F0AC813B483B4B036062
:101740004FF4E133436000238360C36003610C22E4
:1017500042618361C3610362436283620DF033F9C6
:10176000002840F0988100212F480DF061FA0028F0
:1017700040F0938100212C480DF07FFA002840F0C2
:101780008E8129480DF035FA002840F08A812848DA
:10179000284B03604FF4E133436000238360C36050
:1017A00003610C2242618361C3610362436283620D
:1017B0000DF009F9002840F0768100211C480DF059
:1017C00037FA002840F07181002119480DF055FAD0
:1017D000002840F06C8116480DF00BFA002840F00C
:1017E00068811548154B03604FF4E13343600023D3
:1017F0008360C36003610C2242618361C361036241
:10180000436283621CE000BF90100024E0090024C2
:101810000024024848090024FC0800240008004075
:10182000A4070024004C0040100700240050004092
:101830007C060024007C0040E805002400100140E4
:101840000DF0C1F8002840F0368100219E480DF0CF
:10185000EFF9002840F0318100219B480DF00DFA8E
:10186000002840F02C8198480DF0C3F9002840F082
:1018700028819648964B03604FF4E1334360002380
:101880008360C36003610C2242618361C3610362B0
:10189000436283620DF097F8002840F0298100210F
:1018A0008A480DF0C5F9002840F0248100218748BE
:1018B0000DF0E3F9002840F01F8184480DF099F9FC
:1018C000002840F01B810DF0FFFE002311931293BE
:1018D00013938048804A0260BF2242608360632382
:1018E000C360802383610AF0DFFF002840F0088195
:1018F00000231193139311A976480BF0B9FD00282A
:1019000040F000817548764B0360764B43600023BE
:1019100083600122C260036143618361C36103622A
:1019200005F062F9002840F0EF8000216B4806F0D6
:10193000A9FD002840F0EA800021684806F0D0FDAB
:10194000002840F0E5800023119312931393149321
:101950000D930E930F936448644A02604360836062
:1019600041F63F72C2600361436183610AF09CFFEC
:10197000002840F0CF804FF48053119311A95A48AA
:101980000BF0DEF8002840F0C78020230D930023E1
:101990000E930F930DA954480BF06AFD002840F0F8
:1019A000BD8016F08FF815F007FF15F09FFD11F0C0
:1019B0002DF816F0F7F80EF093FA14F0B7FF14F0C4
:1019C00085FF17F01FFD15F07DFD15F071FD4FF43B
:1019D000FA7001F063FA15F0F7FE002800F0A0801D
:1019E00015F0ACFF15F0C0F816F006F917F01EF868
:1019F00018F096FE14F03EFEF2E772B6FEE772B6FD
:101A0000FEE772B6FEE772B6FEE772B6FEE772B6A2
:101A1000FEE772B6FEE772B6FEE772B6FEE772B692
:101A2000FEE772B6FEE772B6FEE772B6FEE772B682
:101A3000FEE772B6FEE772B6FEE772B6FEE772B672
:101A4000FEE772B6FEE772B6FEE772B6FEE772B662
:101A5000FEE772B6FEE772B6FEE772B6FEE772B652
:101A6000FEE772B6FEE772B6FEE772B6FEE772B642
:101A7000FEE772B6FEE772B6FEE772B6FEE772B632
:101A8000FEE772B6FEE772B6FEE772B6FEE772B622
:101A9000FEE772B6FEE772B6FEE772B6FEE772B612
:101AA000FEE772B6FEE772B6FEE772B6FEE772B602
:101AB000FEE772B6FEE772B6FEE772B6FEE772B6F2
:101AC000FEE772B6FEE700BFE805002454050024D7
:101AD00000480040B0080024001400403C100024DE
:101AE00000640040AE3290009409002400000140E0
:101AF00072B6FEE772B6FEE772B6FEE772B6FEE7B2
:101B000072B6FEE772B6FEE772B6FEE772B6FEE7A1
:101B100072B6FEE772B6FEE772B6FEE772B6FEE791
:101B20004FF4007017F028F8092017F00FF857E766
:101B300072B6FEE782B0074BD3F8F42042F00202FF
:101B4000C3F8F420D3F8F43003F002030193019BAF
:101B500002B070470044025830B58BB004460023F1
:101B6000059306930793089309930368574A934292
:101B700004D0574A93425DD00BB030BD554BD3F8DB
:101B8000D82042F02002C3F8D820D3F8D82002F0A1
:101B900020020092009AD3F8E02042F00402C3F839
:101BA000E020D3F8E02002F004020192019AD3F879
:101BB000E02042F00102C3F8E020D3F8E03003F067
:101BC00001030293029B03250595069505A942484A
:101BD00004F06CFC4023059306950025079505A9A4
:101BE0003E4804F063FC3E483E4B036009234360DB
:101BF0008560C5604FF4806303614FF40063436107
:101C00004FF4005383614FF48073C36105624562F2
:101C100002F0C4FF58B9324BA3659C630022042133
:101C2000122002F08BFB122002F0BCFBA4E7FFF7AE
:101C30007FFFF0E7274BD3F8E02042F08072C3F833
:101C4000E020D3F8E02002F080720392039AD3F8E8
:101C5000E02042F00402C3F8E020D3F8E03003F0C3
:101C600004030493049B4FF08061084601F02AF9B5
:101C70004FF00061084601F025F91B481B4B03603B
:101C80007323436000238360C3604FF4806202616A
:101C90004FF4006242614FF4005282614FF480724F
:101CA000C2610362436202F079FF58B90E4BA3652B
:101CB0009C63002204217F2002F040FB7F2002F081
:101CC00071FB59E7FFF734FFF0E700BF0020024047
:101CD00000600258004402580008025800000258F0
:101CE0009012002440040240181200241000024008
:101CF00010B588B0002303930493059306930793CC
:101D00000268284B9A4201D008B010BD0446264B09
:101D1000D3F8E82042F00052C3F8E820D3F8E820D6
:101D200002F000520192019AD3F8E02042F0010241
:101D3000C3F8E020D3F8E03003F001030293029BE4
:101D4000302303930323049303A9184804F0AEFB44
:101D50001748184B036043234360402383600023EC
:101D6000C3604FF4806202614FF4006242614FF43D
:101D7000005282614FF48072C2610362436202F0DA
:101D80000DFF58B90A4BA3609C6300221146362010
:101D900002F0D4FA362002F005FBB5E7FFF7C8FEE3
:101DA000F0E700BF007400400044025800000258F1
:101DB0008C1100245804024070B5BCB004460021C8
:101DC0003791389139913A913B91B82208A81AF08D
:101DD000D3FF23687D4A93420CD07D4A93427ED044
:101DE0007C4A934200F00E817B4A934200F07E8150
:101DF0003CB070BD08220023CDE9082308A807F0F5
:101E00004FFA002862D1754ED6F8E03043F0020355
:101E1000C6F8E030D6F8E03003F002030093009BF0
:101E2000C023379312233893002539953A9504231C
:101E30003B9337A96A4804F039FBD6F8E83043F4FD
:101E40000013C6F8E830D6F8E83003F40013019325
:101E5000019B6448644B03602223436040238360FA
:101E6000C5604FF48063036145618561C5610562AA
:101E7000456202F093FE60BB5A4BA3639C635B48D0
:101E80005B4B03602123436000238360C3604FF4F6
:101E90008062026143618361C3610362436202F055
:101EA0007DFEC8B9514BE3639C63002201211F20D2
:101EB00002F044FA1F2002F075FA002201212020CE
:101EC00002F03CFA202002F06DFA91E7FFF730FEB5
:101ED00099E7FFF72DFECFE7FFF72AFEE2E708229A
:101EE0000023CDE9082308A807F0DAF9002863D118
:101EF0003A4ED6F8E03043F00203C6F8E030D6F8A8
:101F0000E03003F002030293029B4FF440633793E7
:101F100012233893002539953A9504233B9337A92A
:101F20002F4804F0C3FAD6F8E83043F48003C6F82B
:101F3000E830D6F8E83003F480030393039B2D4880
:101F40002D4B03602423436040238360C5604FF41E
:101F50008063036145618561C5610562456202F088
:101F60001DFE60BB234BA3639C632448244B03608A
:101F70002323436000238360C3604FF480620261C7
:101F800043618361C3610362436202F007FEC8B923
:101F90001A4BE3639C6300220121212002F0CEF959
:101FA000212002F0FFF900220121222002F0C6F9CF
:101FB000222002F0F7F91BE7FFF7BAFD98E7FFF7D9
:101FC000B7FDCFE7FFF7B4FDE2E700BF00540040E4
:101FD00000580040001C00580064004000440258B3
:101FE00000040258C40F0024A00402404C0F002437
:101FF000B8040240D40E0024580002405C0E0024B5
:102000007000024010220023CDE9082308A807F041
:1020100047F9002861D16C4ED6F8E03043F0020356
:10202000C6F8E030D6F8E03003F002030493049BD6
:102030004FF44073379312233893002539953A951E
:1020400006233B9337A9614804F030FAD6F8F43000
:1020500043F08003C6F8F430D6F8F43003F0800380
:102060000593059B5A485B4B03600E234360402356
:102070008360C5604FF48063036145618561C5611C
:10208000056202F08BFD58BB514BA3639C63524821
:10209000524B03600D23436000238360C3604FF401
:1020A0008062026143618361C361036202F076FD75
:1020B000C8B9494BE3639C63002202215F2002F010
:1020C0003DF95F2002F06EF900220221602002F04B
:1020D00035F9602002F066F98AE6FFF729FD9AE7F4
:1020E000FFF726FDD0E7FFF723FDE2E708220023F4
:1020F000CDE9082308A807F0D3F800285BD1324EB9
:10210000D6F8E03043F00403C6F8E030D6F8E0300B
:1021100003F004030693069B4FF4406337931223A6
:102120003893002539953A9504233B9337A92C48D9
:1021300004F0BCF9D6F8E83043F00073C6F8E83094
:10214000D6F8E83003F000730793079B2548264B29
:1021500003607D23436040238360C5604FF4806348
:10216000036145618561C5610562456202F016FD46
:1021700020BB1C4BA3639C631C481D4B03607C234A
:10218000436000238360C3604FF480620261436157
:102190008361C3610362436202F000FD88B9134B9F
:1021A000E3639C63002201219D2002F0C7F89D207B
:1021B00002F0F8F81CE6FFF7BBFCA0E7FFF7B8FC5D
:1021C000D7E7FFF7B5FCEAE70044025800040258DD
:1021D000E40D0024085402586C0D00241C540258CD
:1021E00000080258F40C0024400002407C0C00243B
:1021F000A000024030B589B00023039304930593F7
:10220000069307930268264B9A4201D009B030BD6D
:10221000244BD3F8DC2042F40072C3F8DC20D3F85E
:10222000DC2002F400720092009AD3F8E02042F021
:102230000202C3F8E020D3F8E02002F0020201928B
:10224000019AD3F8E02042F00802C3F8E020D3F866
:10225000E03003F008030293029B4CF2180303934F
:1022600002240494032506950923079303A90E4825
:1022700004F01CF9C02303930494002405940695EC
:102280000B23079303A9094804F010F92246012102
:102290007C2002F053F87C2002F084F8B6E700BFFF
:1022A000002402480044025800040258000C02585E
:1022B00008B502680B4B9A4200D008BD0A4AD2F812
:1022C000DC3023F40073C2F8DC304CF2180107480C
:1022D00004F0E8F9C021064804F0E4F97C2002F09B
:1022E0006FF8EAE70024024800440258000402584C
:1022F000000C025810B584B003683A4A93420BD0E0
:102300000446B3F1804F15D0374A934220D0374A64
:10231000934251D004B010BD354BD3F8F02042F0B9
:102320000102C3F8F020D3F8F03003F0010300936A
:10233000009BEFE72E4BD3F8E82042F00102C3F8F0
:10234000E820D3F8E83003F001030193019BE1E7B3
:10235000274BD3F8E82042F00402C3F8E820D3F872
:10236000E83003F004030293029B2248224B0360EF
:102370001E234360402383600023C3604FF48062C8
:1023800002614FF4006242614FF400528261C36106
:102390000362436202F002FC58B9164BA3629C63CD
:1023A000002203211E2001F0C9FF1E2001F0FAFFC8
:1023B000B0E7FFF7BDFBF0E70D4BD3F8E82042F0A4
:1023C0002002C3F8E820D3F8E83003F02003039399
:1023D000039B00220421372001F0B0FF372001F0D9
:1023E000E1FF97E7000001400008004000140040B2
:1023F00000440258380800242804024000B589B07F
:102400000023039304930593069307930368B3F1A2
:10241000804F05D01B4A93421BD009B05DF804FBE6
:10242000194BD3F8E02042F00102C3F8E020D3F8C2
:10243000E03003F001030193019B0F230393022378
:10244000049305930123079303A9104804F02EF881
:10245000E3E70D4BD3F8E02042F00802C3F8E02098
:10246000D3F8E03003F008030293029B4FF40053CB
:102470000393022304930593079303A9044804F0EC
:1024800015F8CAE70008004000440258000002584E
:10249000000C025830B5BFB00446002139913A9182
:1024A0003B913C913D91B8220AA81AF065FC236843
:1024B000B64A934210D0B64A934261D0B54A93428D
:1024C00000F09980B44A934200F0CF80B34A93421F
:1024D00000F020813FB030BD02220023CDE90A2365
:1024E0000AA806F0DDFE002844D1AD4BD3F8E82061
:1024F00042F40022C3F8E820D3F8E82002F40022D6
:102500000092009AD3F8E02042F00102C3F8E020E4
:10251000D3F8E03003F001030193019B4FF4C05363
:10252000399302233A9300253B953C9506233D932E
:1025300039A99C4803F0BAFF9B489C4B0360402399
:1025400043608360C5604FF48063036145618561CA
:10255000C5610562456202F021FB70B9924BE367E9
:102560009C6300220521342001F0E8FE342001F0B4
:1025700019FFAFE7FFF7DCFAB7E7FFF7D9FAEDE7A6
:1025800002220023CDE90A230AA806F089FE78BBBF
:10259000834BD3F8E82042F48012C3F8E820D3F844
:1025A000E82002F480120292029AD3F8E02042F06E
:1025B0000202C3F8E020D3F8E03003F002030393F3
:1025C000039B4FF44053399302233A9300243B94E6
:1025D0003C940E233D9339A9754803F067FF2246CA
:1025E0000521352001F0AAFE352001F0DBFE71E760
:1025F000FFF79EFACCE702220023CDE90A230AA8BE
:1026000006F04EFE70BB664BD3F8E82042F0004265
:10261000C3F8E820D3F8E82002F000420492049ABC
:10262000D3F8E02042F01002C3F8E020D3F8E03005
:1026300003F010030593059B0323399302233A9378
:1026400000243B943C9408233D9339A9594803F056
:102650002DFF22460421532001F070FE532001F08B
:10266000A1FE37E7FFF764FACDE701220023CDE9A9
:102670000A230AA806F014FE002845D1484BD3F8D7
:10268000F02042F01002C3F8F020D3F8F02002F05E
:1026900010020692069AD3F8E02042F00102C3F835
:1026A000E020D3F8E03003F001030793079B4FF4D9
:1026B000C063399302233A9300253B953C95072349
:1026C0003D9339A9374803F0F1FE3B483B4B03608B
:1026D0002A23436040238360C5604FF48063036115
:1026E00045618561C5610562456202F057FA70B9BE
:1026F000314BE3679C6300220321252001F01EFE7D
:10270000252001F04FFEE5E6FFF712FAB6E7FFF7E6
:102710000FFAEDE702220023CDE90A230AA806F00A
:10272000BFFD78BB1E4BD3F8E82042F48022C3F8EB
:10273000E820D3F8E82002F480220892089AD3F81F
:10274000E02042F00802C3F8E020D3F8E03003F0C4
:1027500008030993099B4FF44073399302233A937A
:1027600000243B943C9407233D9339A9144803F07B
:102770009DFE22460321272001F0E0FD272001F0E5
:1027800011FEA7E6FFF7D4F9CCE700BF004C0040EC
:1027900000500040007C0040001001400048004014
:1027A0000044025800000258DC0400248800024063
:1027B000000402580010025864040024280002405B
:1027C000000C02582DE9F043B7B00446B8220021AE
:1027D00002A81AF0D1FA2268694B9A4206D0226800
:1027E000684B9A426ED037B0BDE8F0834FF48072E8
:1027F0000023CDE9022302A806F052FD002845D1AE
:10280000614B1B68002B44D05F4A1368013313608F
:10281000342331934FF00209CDF8C8900025339549
:10282000032334934FF00608CDF8D480574F31A9D5
:10283000384603F03BFE40263196CDF8C8903395DC
:102840003495CDF8D48031A9384603F02FFE504896
:10285000504B0360572343608660C5604FF480632C
:1028600003614FF4006343614FF4005383614FF4FD
:102870008073C3610562456202F090F9F8B9444B78
:10288000C4F884309C63C4F88030A8E7FFF750F99F
:10289000B6E7414BD3F8F02042F48002C3F8F020B1
:1028A000D3F8F03003F480030093009B002211461C
:1028B000572001F043FD572001F074FDA4E7FFF716
:1028C00037F9DCE74FF480720023CDE902230023BF
:1028D000189302A806F0E4FC002834D12A4B1B68A8
:1028E000002B33D0284A1368013313600823319337
:1028F000022332930025339534950623359331A96D
:10290000224803F0D3FD2548254B0360582343603C
:1029100040238360C5604FF4806303614FF400631C
:1029200043614FF4005383614FF48073C3610562C8
:10293000456202F033F9F8B9184BC4F884309C634F
:10294000C4F880304FE7FFF7F3F8C7E7124BD3F82E
:10295000F02042F48002C3F8F020D3F8F03003F402
:1029600080030193019B00221146572001F0E6FCF1
:10297000572001F017FDB5E7FFF7DAF8DCE700BFF5
:102980000458014024580140E81300240010025864
:10299000D40A002470040240004402585C0A002457
:1029A00088040240FEE7FEE7FEE7FEE7FEE7704729
:1029B0007047704708B500F05FFA08BD08B50248D7
:1029C00003F0BCF808BD00BF1812002408B5024887
:1029D00003F0B4F808BD00BF6404002408B5024841
:1029E00003F0ACF808BD00BFF40C002408B50248A1
:1029F00003F0A4F808BD00BFD40E002408B50248B7
:102A000003F09CF808BD00BF5C0E002408B5024826
:102A100003F094F808BD00BFDC04002408B50248A8
:102A200003F08CF808BD00BF7C0C002408B50248F8
:102A300000F05AFA08BD00BF7813002408B5024818
:102A400009F0B4FD08BD00BFFC08002408B5024829
:102A500004F05AFC08BD00BF3811002408B5024834
:102A600005F0C0FC08BD00BF3811002408B50248BD
:102A700004F04AFC08BD00BFE410002408B5024879
:102A800005F0B0FC08BD00BFE410002408B5024802
:102A90000AF052FE08BD00BFE805002408B5024850
:102AA0000AF04AFE08BD00BF5405002408B50248DC
:102AB0000AF042FE08BD00BFA407002408B5024882
:102AC0000AF03AFE08BD00BF1007002408B502480E
:102AD00001F00BFD08BD00BF0412002408B5024838
:102AE00009F064FD08BD00BFB008002408B5024825
:102AF00003F024F808BD00BF3808002408B50248D8
:102B000003F01CF808BD00BF9012002408B502486D
:102B100003F014F808BD00BF8C11002408B502486A
:102B200003F00CF808BD00BFD40A002408B5024821
:102B300003F004F808BD00BF5C0A002408B5024891
:102B400002F0FCFF08BD00BFC40F002408B5024816
:102B500002F0F4FF08BD00BF4C0F002408B5024886
:102B60000AF0EAFD08BD00BF7C06002408B5034852
:102B700008F09AFA024808F097FA08BDE40B00241E
:102B80004C0B002408B5024804F0BEFB08BD00BF92
:102B90009010002408B5024805F024FC08BD00BFD1
:102BA0009010002408B5024809F0B4F908BD00BF30
:102BB000E009002408B5024800F096F908BD00BFFE
:102BC0000813002408B5024802F0B8FF08BD00BF92
:102BD000E40D002408B5024802F0B0FF08BD00BFB4
:102BE0006C0D002408B5024804F08EFB08BD00BF40
:102BF0003C1000240120704708B51AF01FF9162375
:102C000003604FF0FF3008BD08B51AF017F916231E
:102C10000360FEE770B5161E07DD0C468D19AFF395
:102C2000008004F8010BA542F9D1304670BD4FF089
:102C3000FF3070474FF400534B6000207047012075
:102C4000704700207047000008B503460C4A126820
:102C500052B10B4A106803440A4A0B49521A934274
:102C600006D8074A136008BD054A08491160F0E715
:102C70001AF0E4F80C2303604FF0FF30F3E700BFD5
:102C8000EC130024000005240060000050D4002450
:102C90002B4AD2F8883043F47003C2F88830294BAD
:102CA0001B6803F00F03062B06D8264A136823F08F
:102CB0000F0343F007031360234B1A6842F001022D
:102CC0001A6000221A611968204A0A401A601D4BD6
:102CD0001B6813F0080F06D01A4A136823F00F037D
:102CE00043F007031360184B00229A61DA611A62FD
:102CF000174999621749D962174919635A63996349
:102D0000DA6319645A64196821F4802119601A661B
:102D1000D3F8D43013F4805F10D10B4BD3F8D42008
:102D200042F48052C3F8D4200C4A43F2D20111601D
:102D3000D3F8D42022F48052C3F8D420704700BFC7
:102D400000ED00E000200052004402587FEDF6EA5A
:102D5000000202020000FF01800201010040005257
:102D6000044AD36843F00203D360536813F4005F4E
:102D7000FBD0704700480258DFF838D0FFF7F0FF6B
:102D8000FFF786FF0C480D490D4A002302E0D45896
:102D9000C4500433C4188C42F9D30A4A0A4C0023A5
:102DA00001E013600432A242FBD31AF04DF8FDF7A4
:102DB000F5FF70470000052400000024B003002444
:102DC00060350208C003002450D40024FEE7000050
:102DD0000F4B1B780BB90120704710B504464FF418
:102DE0007A70B0FBF3F30B4A1068B0FBF3F001F01C
:102DF0000BFB0F2C00D808B1012010BD002221468A
:102E00004FF0FF3001F09AFA034B1C600020F4E70A
:102E100008000024040000240C00002410B5032046
:102E200001F07AFA05F0A2FE0F498B690F4AC3F34D
:102E30000323D35C03F01F03D8408B6903F00F0317
:102E4000D35C03F01F0320FA03F3094A1360094B14
:102E500018600F20FFF7BCFF10B10124204610BD01
:102E60000446FEF767FEF9E700440258C0F2010885
:102E70000000002404000024034A1168034B1B785F
:102E80000B441360704700BFF013002408000024B7
:102E9000014B1868704700BFF013002438B5044692
:102EA000FFF7F6FF0546B4F1FF3F02D0044B1B7855
:102EB0001C44FFF7EDFF401BA042FAD338BD00BF12
:102EC00008000024034A536823EA00030B435360BD
:102ED000704700BF00040058704708B5806BFFF7CB
:102EE000FBFF08BD70477047F8B5044603681D68CE
:102EF0005E689F4A934205D002F58072934201D0EA
:102F00009C4B00E09C4B9F6807F01F0715F0020FD9
:102F100010D016F0020F0DD0236E13F0100F03D156
:102F2000236E43F400632366204601F061F92368B1
:102F300002221A6015F0040F02D016F0040F05D11A
:102F400015F0080F3ED016F0080F3BD0236E13F09B
:102F5000100F03D1236E43F4007323662368DA68ED
:102F600012F4406F28D1854A934200F00981DA6853
:102F700012F4005F20D11A6812F0080F1CD09A6872
:102F800012F0040F10D15A6822F00C025A60236E1E
:102F900023F480732366236E13F4805F0CD1236EB9
:102FA00043F00103236607E0236E43F0100323661A
:102FB000636E43F001036366204613F099FC2368B7
:102FC0000C221A6015F0200F02D016F0200F05D148
:102FD00015F0400F48D016F0400F45D0236E13F087
:102FE000100F03D1236E43F4005323662368DA6C79
:102FF00002F4C072D86861498B4200F0AF80D96892
:1030000062BB11F0007F05D001F4005200F4406073
:10301000024323D11A6812F0400F1FD011F4001F91
:103020001CD19A6812F0080F10D15A6822F0600281
:103030005A60236E23F480532366236E13F4807F3B
:103040000CD1236E43F00103236607E0236E43F0A7
:1030500010032366636E43F001036366204601F0AC
:10306000C3F8236860221A6015F0800F02D016F0B2
:10307000800F20D115F4807F02D016F4807F25D1F7
:1030800015F4007F02D016F4007F2BD115F0100F3D
:1030900047D016F0100F44D0E36B002B33D0002F35
:1030A00046D02368324A934228D002F58072934278
:1030B00024D0304B23E0236E43F480332366204634
:1030C000FFF710FF236880221A60D3E7236E43F4D2
:1030D00000332366204601F089F823684FF480729C
:1030E0001A60CDE7236E43F480232366204601F067
:1030F0007EF823684FF400721A60C7E71E4B9B6886
:1031000013F4404F0AD0236E43F480632366636E4A
:1031100043F0020363662046FFF7E5FE23681022B2
:103120001A6015F4806F02D016F4806F06D1F8BDD6
:103130002368DB6813F0030FF0D0E4E7236E43F459
:1031400080432366636E43F00803636623684FF48D
:1031500080621A60204601F048F8E8E7C121F94092
:1031600011F0010F7FF44BAF0149C96848E700BF78
:103170000020024000630258002302400021024068
:1031800040F22122FA4012F0010F7FF4F0AE014A22
:10319000D268EDE60020024008B50346806B026E5F
:1031A00012F0500F30D1036E43F4007303660368CE
:1031B0001A6812F0080F14D0DA6812F4406F20D1A8
:1031C000DB6813F4005F1CD1036E23F48073036685
:1031D000036E13F4805F14D1036E43F001030366A2
:1031E0000FE0DB6813F0030F0BD1036E23F4807341
:1031F0000366036E13F4805F03D1036E43F0010393
:10320000036613F075FB08BD026E12F0100F04D1B7
:10321000826DD26C18469047F5E7FFF764FEF2E73F
:1032200008B5806B036E43F040030366436E43F0C2
:1032300004034366FFF757FE08BD000070B582B077
:103240000022019290F85C20012A00F0B28203462D
:10325000012280F85C200268906810F0040F09D009
:103260001A6E42F020021A660120002283F85C20C8
:1032700002B070BD0868A84CA2420BD0002809DB40
:10328000C0F31304002C4CD1800E01248440D0697B
:103290002043D06148684FEA901C0CF00C0C1A686F
:1032A00002F1300E5EF80C4000F01F000A68C2F315
:1032B000846282401F2505FA00F024EA00000243E0
:1032C0004EF80C2018688468826802F0080204F046
:1032D000040C52EA0C022DD01A68906810F0010F0D
:1032E00040F05B820E68CC688B48824200F06E81B1
:1032F000D2F8C000C6F3130520EA050004F0180553
:10330000864CEC4034402043C2F8C000C868844A70
:10331000904200F06B810A68002AC0F2D68100203A
:10332000A3E790FAA0F0B0FA80F000F01F000124AB
:103330008440ACE70C68E50D05F0040514304259F3
:10334000C4F304540726A64022EA06028E68A6406B
:10335000324342511A687048824211D07148006865
:1033600000F07040B0F1805F46D0D06810F0100FD0
:1033700074D1D068C0F3820040004C69844041E0C1
:10338000C0680D69042D40F050826348046E046EDD
:10339000C4F384640868C0F31305002D40F08C80EA
:1033A000C0F38462944200F0C1805B4A546E526E56
:1033B000424012F0F84F00F0E380186800F1680511
:1033C000826E846EC4F384640A68C2F38462A2428B
:1033D00000F0DC80186800F16C05C26EC46EC4F3A6
:1033E00084640A68C2F38462A2427FF475AF2A68DB
:1033F00022F000422A606FE7D068C0F382004000EC
:103400004C6984400D69042D40F02082106E00F05C
:10341000F8400C68B0EB846F00F0C9801868426E09
:1034200002F0F8420C68B2EB846F00F0C5801868B7
:10343000826E02F0F8420C68B2EB846F00F0C1803B
:103440001868C26E02F0F8420C68B2EB846F7FF429
:1034500043AFC26E22F00042C2663DE7D06840082A
:1034600000F008004C698440CCE70C69603050F8EB
:10347000242022F08072CD692A4340F824201A6863
:103480000D6991F820406038824207D0906810F0B2
:10349000010F40F08C810E68CC6829E7603050F84D
:1034A0002520012C14BF0024012422F0007242EADE
:1034B000446240F825200FE790FAA0F51DB1B5FA57
:1034C00085F5AC4232D0144C656E646EC4F38464EE
:1034D000154D90FAA0F018B1B0FA80F0A0423BD0A0
:1034E000186800F16805826E846EC4F384640A680B
:1034F00092FAA2F21AB1B2FA82F2A24246D0186847
:1035000000F16C05C26EC46EC4F384640A6892FA5A
:10351000A2F2B2FA82F267E700600258FFFF0F00E2
:103520000000FF470010005C64600258A248026E71
:1035300022F0004202661A6802F16405506E546E71
:10354000C4F384640868C0F31306002EC1D1C0F32D
:10355000846084427FF431AF9748824211D02A6858
:1035600022F000422A60186800F16805826E846EBD
:10357000C4F384640A68C2F31306002EB8D124E7AA
:103580008E4D2A6822F000422A60ECE72A6822F079
:1035900000422A60186800F16C05C26EC46EC4F364
:1035A00084640A68C2F31306002EB0D11AE7106EC5
:1035B00020F00040106631E7426E22F00042426681
:1035C00035E7826E22F00042826639E70546D0F880
:1035D000B020C6F3130022EA000204F01804784871
:1035E000E04030400243C5F8B0208FE61A687548C5
:1035F000824208D07448824238D06F48824200F03C
:103600005981012464E10868704CA04200F05781A0
:103610006F4CA04200F060816E4CA04200F05E81D1
:103620006D4CA04200F05C8104F186641034A0422D
:1036300000F05881694CA04200F0568104F1042446
:1036400004F54014A04200F0518104F1866404F5B1
:103650000064A04200F04C81614CA04200F04A811D
:10366000604CA04200F04881012431E10868574CC9
:10367000A04200F04381564CA04200F04181554CDD
:10368000A04200F03F81544CA04200F03D8104F183
:1036900086641034A04200F03981504CA04200F002
:1036A000378104F1042404F54014A04200F0328173
:1036B00004F1866404F50064A04200F02D81494CB9
:1036C000A04200F02B81012402E119683D488142AB
:1036D00000F0988000F58070814200F093804248AD
:1036E0008468A0F54070806810F0010F40F097806A
:1036F00004F0E0763C4D02E004F0E0763B4D3C48BF
:1037000082420DD03B4882422DD03B4882424CD170
:1037100014F4800F02D1284A914235D00020A4E54C
:1037200014F4000F3BD1244A914201D000209CE5C3
:10373000AA6822F0E072324342F40002AA602F4AE3
:10374000126892092E49A1FB02129209013252001D
:103750000192019A2AB3019A013A0192019A002A30
:10376000F9D1002081E514F0807F1CD1124A9142EA
:1037700001D0002079E5AA6822F0E072324342F0DD
:103780008072AA60002070E5AA6822F0E0723243DD
:1037900042F48002AA60002067E5002065E5002071
:1037A00063E5002061E500205FE500205DE5002085
:1037B0005BE502205CE500BF0060025864600258CF
:1037C000FFFF0F00002002400021024002003004F1
:1037D000040060080800900C1000C0100004002ACB
:1037E000000021430000844B006302580023024084
:1037F000000052C7000021C3000084CB0400002455
:10380000632D3E0546488468A0F54070856800F544
:1038100080708068284310F0010F3FF46DAF1A6E7E
:1038200042F020021A6601201FE53E4C54F8252084
:10383000C0F3C10040004A698240086800F0F840C7
:10384000024342F0004244F825200BE0603252F877
:103850002560086800F0F84006F000463043204339
:1038600042F825001A68304882423FF4FEAD0D69E7
:10387000603252F8250091F82140012C14BF002439
:10388000012420F0004040EAC47042F825001D6881
:1038900028690A7E012A14BF00220122D2020C6983
:1038A00004F01F04A24020F4F04002432A6113E513
:1038B000196814E70A68002AFADB0020D5E4012021
:1038C00090FAA0F0B0FA80F000F01F0001248440CC
:1038D000D0692043D0611EE51448F1E71448EFE7B2
:1038E0001448EDE71448EBE71448E9E71448E7E724
:1038F0001448E5E71448E3E71448E1E70120DFE76F
:103900000A48DDE70A48DBE70A48D9E70A48D7E76B
:103910000A48D5E70A48D3E70A48D1E70B48CFE77A
:1039200000230240606002580060025840002019E5
:103930008000501D000180210002B0250008302EBB
:103940000010603200209036000052470000B84F4F
:1039500070B50446036898689A6802F0080200F09F
:103960000400024365D0DA6812F0007F04D0208B97
:1039700040F20112904223D002295CD09A6812F0E2
:10398000040F09D09A6812F0020F05D19868394ADD
:10399000024042F010029A6001292FD023689A68F1
:1039A00012F0080F51D103290CBF0C250425FFF795
:1039B0006FFA064623689B681D4225D1002039E036
:1039C0001A6812F0400F10D12B4A196811F0400FFD
:1039D0000BD1013AF9D1236E43F010032366636ED5
:1039E00043F001036366012024E040221A6023684B
:1039F0009A6812F0040F35D10425D8E70425D6E7DC
:103A000023689B682B4212D0FFF742FA831B052BD9
:103A1000F6D923689B682B42F2D0236E43F0100343
:103A20002366636E43F001036366012002E0002019
:103A300000E0002070BD9A6812F0080F03D09A6869
:103A400012F0020F05D00825B1E79A6812F0020FB4
:103A5000A9D19868074A024042F020029A600229E0
:103A6000A1D1F0E79A6812F0020F01D004259EE779
:103A700001218BE7C0FFFF7F00DC0C0003689A6820
:103A800012F0010F57D170B5044699682C4A1142C3
:103A900009D0036E43F010030366436E43F0010345
:103AA0004366012070BD9968264A0A4042F001022F
:103AB0009A60FFF7EDF905462368234A93420BD03D
:103AC00002F58072934207D0204A92681A6812F079
:103AD000010F32D11B4E0FE01D4A9168A2F5007212
:103AE0009342F3D111F01F0FF0D00020DAE72368E2
:103AF0001A6812F0010F1CD19A6812F0010F04D15C
:103B00009A68324042F001029A60FFF7C1F9401B07
:103B10000228ECD923681B6813F0010FE7D1236E4C
:103B200043F010032366636E43F0010363660120D4
:103B3000B8E70020B6E7002070470020B2E700BFDA
:103B40003F000080C0FFFF7F00200240006302585A
:103B500000230240F8B504460D4616460068444965
:103B6000884204D0434B984201D0434900E0434986
:103B70008F68816811F0040F75D194F85C20012AD8
:103B800073D007F01F07012384F85C3040F2212333
:103B9000FB4013F0010F04D1002384F85C300120B6
:103BA00062E02046FFF76AFF002858D1226EA0F697
:103BB0000273134043F48073236622682D4B9A42AC
:103BC00038D0236E23F480132366236E13F4805FB2
:103BD00033D0636E23F006036366A36D284ADA636D
:103BE000A36D284A1A64A36D274ADA6423681C224D
:103BF0001A60002384F85C302268536843F0100395
:103C000053602268214B9A421AD0D36823F00303F1
:103C1000216B0B43D360216833462A464031A06DA7
:103C200001F0DCF922689168194B0B4043F0040362
:103C3000936019E0002FC8D1C3E700236366CCE787
:103C40001A46DB6894F8381023F0030343EA410373
:103C5000D3602268D36843F00103D360DBE700231D
:103C600084F85C3000E00220F8BD0220FCE700BFD1
:103C7000002002400021024000630258002302405D
:103C800099310008DB2E000821320008006002583C
:103C9000C0FFFF7F38B503689A68996812F0020F79
:103CA00003D1044611F0010F01D1002038BD9A68FC
:103CB00002F00D02012A09D0036E43F010030366DF
:103CC000436E43F0010343660120EFE79968164A0B
:103CD0000A4042F002029A60036803221A60FFF76A
:103CE000D7F8054623689B6813F0010F06D1002022
:103CF000DCE723689B6813F0010F13D0FFF7C8F8C7
:103D0000401B0228F5D923689B6813F0010FF0D0FF
:103D1000236E43F010032366636E43F00103636672
:103D20000120C3E70020C1E7C0FFFF7F90F85C30AF
:103D3000012B18D010B50446012380F85C30032114
:103D4000FFF706FE18B1002384F85C3010BD204652
:103D5000FFF7A0FF0028F6D1226E044B134043F07A
:103D600001032366EFE70220704700BFFEEEFFFF6E
:103D700010B504460368404A934220D002F5807291
:103D800093421CD03D4B9B6813F4403F1CD005F080
:103D900041F96368B3F5003F05D0B3F5403F26D045
:103DA000B3F5803F02D11B0CB0FBF3F0344B9842CB
:103DB0004ED82268936823F44073936010BD314B52
:103DC0009B6813F4403FE2D14FF40020002106F03D
:103DD00083FA6368B3F5101F36D022D8B3F5E01F1D
:103DE00030D006D9B3F5001FE0D14009DEE78008E6
:103DF000DCE7B3F5801F08D00CD8B3F5002F04D052
:103E000023F40022B2F5802FD0D19B0C5B00B0FBD5
:103E1000F3F0CBE7B3F5A01FF7D0B3F5C01FF4D094
:103E2000C4E7B3F5201F11D0B3F5301FBED1164B38
:103E30009842BED92268936823F4407343F4807398
:103E40009360BBE70009B1E78009AFE7C009ADE7C0
:103E50000E4B9842EED90E4B984207D822689368D1
:103E600023F4407343F400739360A7E722689368D8
:103E700043F440739360A1E70020024000630258BE
:103E800021BCBE0000230240FF21BCBE41787D0161
:103E900081F0FA0270B582B000230193002800F08F
:103EA00033810446036E002B42D023689A6812F0D7
:103EB000005F03D09968954A0A409A6023689A681F
:103EC00012F0805F16D19968914A0A4042F0805200
:103ED0009A60904B1B689B098F4AA2FB03239B09A6
:103EE00001330193019B2BB1019B013B0193019B8A
:103EF000002BF9D12268936813F0805F1FD1236EE5
:103F000043F010032366636E43F0010363660125EB
:103F10009168236E03F0100301F004010B4310D0ED
:103F2000236E43F0100323660125284602B070BDBE
:103F3000FDF712FE0023636684F85C30B5E70025C8
:103F4000E6E7236E23F4817343F00203236693684C
:103F500013F0010F12D1714B9A426BD003F58073AD
:103F60009A4267D06E4B9B6813F0010F06D16D4AE1
:103F7000936823F47C1361680B4393602268684B59
:103F80009A4262D0E36BA1680B43617E43EA4133FE
:103F900094F8201043EA014394F8201001296CD0D2
:103FA000A16A21B101F47871E06A01430B435C49D5
:103FB0008A4267D0D0685C4901401943D1602168CA
:103FC0008A688B6803F0080302F00402134322D1CD
:103FD000534B994263D0237E226B42EA8332C868F6
:103FE000524B03401343CB6094F84430012B5DD017
:103FF0002268136923F0010313612268136923F017
:104000007043216C0B4313612268454B9A4202D0E6
:104010002046FFF7ADFE2369012B6CD02268136B9D
:1040200023F00F031363236E23F0030343F0010314
:1040300023667AE7394B996803F580739B680B43D5
:1040400013F0010F9ED13A4A92E7E36BE1680B430C
:10405000617E43EA4133A168182906D01C290AD0A1
:104060000C2914BF00210121C90094F8200043EA63
:1040700000430B4390E71021F7E7616A013943EAF7
:1040800041438DE7C8682B4A02401A43CA60226840
:10409000136923F04063616B0B4313618FE7237E49
:1040A00094F83820520042EA833298E722681C4B89
:1040B0009A4210D01069A36C591EE36C266D3343ED
:1040C00043EA0143616D0B431B4901400B4343F03D
:1040D0000103136191E719461869A36C626D1343DC
:1040E000164A02401343E26C1343226D134343F01C
:1040F00001030B6181E721680A6BE369013B22F050
:104100000F0213430B638EE701250EE7C0FFFF5F2D
:10411000C0FFFF6F04000024632D3E050020024015
:10412000006002580063025803C0F0FFFCBFFFFFAD
:10413000002302400740F0FF1EF800FC1FF800FCBF
:1041400070B582B00023019390F85C30012B42D00F
:1041500004460D461646012380F85C30FFF79AFDB1
:1041600000282FD1226E1D4B134043F0020323661B
:10417000226891681A4B0B4006F08046334305F4E1
:1041800080352B4343F00043936022689368002BF3
:1041900006DB236E23F0030343F00103236615E0DF
:1041A000019B0133019301990E4B9942EED3236E8B
:1041B00023F0120343F010032366002384F85C30DD
:1041C000012006E0236E43F010032366002384F8E9
:1041D0005C3002B070BD0220FBE700BFFDEEFFFFC8
:1041E000C0FFFE3F00F8C325704770477047704717
:1041F0007047000090F85C20012A6BD010B49DB08D
:104200000346012280F85C2000221892199200686F
:104210003C4A904260D01A6E42F020021A66002298
:1042200083F85C20012068E00A6852B3364882684F
:1042300022F440424C68224382601A68A0F5407024
:10424000824213D000F5807082420FD02F4A9268CC
:1042500012F0010F3AD12C4884680A6889680A4331
:104260002B4921400A438260002043E0254A9068A0
:1042700002F580729268024312F0010FEBD0002029
:1042800038E021498A6822F440428A601A68A1F520
:1042900040718A420FD001F580718A420BD01B4ACF
:1042A000926812F0010F13D117498868184A02402A
:1042B0008A6000201EE0134A916802F580729268BD
:1042C0000A4312F0010FEFD0002013E0002011E0AC
:1042D00000200FE0022070470E4A9068A2F580721D
:1042E0009268024312F0040F9ED01A6E42F0200230
:1042F0001A660120002283F85C201DB05DF8044B93
:10430000704700BF002002400023024000600258B6
:10431000E0F0FFFF00210240064AD368000200F4EB
:10432000E06023F4E0631B041B0C1843024B0343BF
:10433000D360704700ED00E00000FA0500B5164BB1
:10434000DB68C3F30223C3F1070CBCF1040F28BFE1
:104350004FF0040C03F1040EBEF1060F8CBF033BBB
:1043600000234FF0FF3E0EFA0CFC21EA0C019940AD
:104370000EFA03FE22EA0E021143002805DB0901B2
:10438000C9B2064B19545DF804FB00F00F00090197
:10439000C9B2034B1954F6E700ED00E000E400E079
:1043A00014ED00E0002807DB410900F01F000123A5
:1043B0008340024A42F82130704700BF00E100E02C
:1043C00000280CDB430900F01F000122824020334B
:1043D000034941F82320BFF34F8FBFF36F8F70471E
:1043E00000E100E0BFF34F8F0549CA6802F4E062C4
:1043F000044B1343CB60BFF34F8F00BFFDE700BFFB
:1044000000ED00E00400FA050138B0F1807F0BD226
:104410004FF0E0235861054AF02182F82310002074
:10442000986107221A6170470120704700ED00E093
:10443000BFF35F8F044B5A6A22F480325A62002223
:10444000C3F89420704700BF00ED00E040F0010089
:10445000054BC3F894005A6A42F480325A62BFF3A3
:104460004F8FBFF36F8F704700ED00E04378144A21
:10447000C2F89830D2F8A03023F00103C2F8A0307F
:104480004368C2F89C30017BC37A1B0643EA017380
:1044900001780B43817A43EAC143417B43EA81437C
:1044A000817B43EA4143C17B43EA0143417A43EACA
:1044B0000123017A43EA4103C2F8A030704700BFEC
:1044C00000ED00E070B110B50446037933B102236A
:1044D0002371002020610123237110BD4371FDF77A
:1044E00007FCF4E701207047704770B50446036885
:1044F0001D685E6B15F4005F02D016F4005F06D1F4
:1045000015F0005F02D016F0005F11D170BD0422DB
:104510000271026942F0010202614FF400525A63D3
:104520000268136823F480531360FFF7DDFFE7E7A9
:1045300004232371236943F00203236123684FF0AE
:1045400000525A632268136823F080531360204698
:1045500000F0C8F8DAE70000002800F0BE802DE97E
:10456000F0410D4616460446002900F0B28043791A
:10457000012B00F0B08001234371022303710B680B
:10458000042B3ED02B69012B00F092802068C16B78
:1045900006F010020723934021EA0301EB68012B88
:1045A00000F09380022B00F09280AE68B6FA86F697
:1045B00076092B68AF683B43334393400B43C36397
:1045C000206803684FF48041914023EA01030360AF
:1045D0002068016840F6FE73934021EA03016B688E
:1045E00093400B43036020680368C02101FA02F284
:1045F00023EA020303600123237100206071BDE8F8
:10460000F081FEF745FC074636B123685A6B002A55
:104610003EDBAA695A641FE02368596B304A0A409E
:10462000C2B1DFF8BC8004E023685A6B12EA080FBD
:1046300010D0FEF72DFCC01B0128F5D923685B6B59
:1046400013EA080FF0D0236943F008032361032025
:104650002071D4E7AA691A642068836C06F01002FE
:1046600040F2FF31914023EA0103E96991400B4395
:1046700083642068C36CFF21914023EA0103296A07
:1046800091400B43C3647DE723685A6B002AC0DA6C
:10469000FEF7FEFBC01B0128F6D923685B6B002BDD
:1046A000F2DA236943F00803236103202071A6E7AF
:1046B00021688A6B06F010001F23834022EA030260
:1046C0006B69834013438B6360E7002671E7012623
:1046D0006FE7012093E7022091E70120704700BFB8
:1046E0000080002070470000F0B4866D0568914C92
:1046F000914FBD4218BFA5420CBF012400241837BA
:10470000BD4208BF44F001041837BD4208BF44F061
:1047100001041837BD4208BF44F001041837BD42F8
:1047200008BF44F001041837BD4208BF44F001043B
:104730001837BD4208BF44F0010407F55677BD4263
:1047400008BF44F001041837BD4208BF44F001041B
:104750001837BD4208BF44F001041837BD4208BFF6
:1047600044F001041837BD4208BF44F00104183773
:10477000BD4208BF44F001041837BD4208BF44F0F1
:1047800001041837BD4208BF44F001046B4FBD421D
:1047900008BF44F001041437BD4208BF44F00104CF
:1047A0001437BD4208BF44F001041437BD4208BFAE
:1047B00044F001041437BD4208BF44F0010414372B
:1047C000BD4208BF44F001041437BD4208BF44F0A5
:1047D000010414B95A4CA54207D1446E856E656038
:1047E000C46E14B1046F456F65600568514C524F3B
:1047F000BD4218BFA5420CBF012400241837BD429A
:1048000008BF44F001041837BD4208BF44F001045A
:104810001837BD4208BF44F001041837BD4208BF35
:1048200044F001041837BD4208BF44F001041837B2
:10483000BD4208BF44F0010407F55677BD4208BFEA
:1048400044F001041837BD4208BF44F00104183792
:10485000BD4208BF44F001041837BD4208BF44F010
:1048600001041837BD4208BF44F001041837BD42A7
:1048700008BF44F001041837BD4208BF44F00104EA
:1048800014B9304CA54215D1C46D04F01F053F2466
:10489000AC40B46005682C6824F480242C60046863
:1048A00063608368402B3AD0036899600368DA60DC
:1048B000F0BC7047214C244FBD4218BFA5420CBF2D
:1048C000012400241437BD4208BF44F0010414370A
:1048D000BD4208BF44F001041437BD4208BF44F094
:1048E00001041437BD4208BF44F001041437BD422F
:1048F00008BF44F0010414B9114CA542D8D1C46DCD
:1049000004F01F050124AC40746004686360836890
:10491000402B09D0036899600368DA60C8E7036830
:104920009A600368D960C3E703689A600368D96036
:10493000BEE700BF100002402800024008540258A1
:1049400094540258B80402401C54025801460268AC
:10495000344B3548824218BF9A420CBF01230023D2
:104960001830824208BF43F001031830824208BF6A
:1049700043F001031830824208BF43F001031830AE
:10498000824208BF43F001031830824208BF43F05F
:1049900001031830824208BF43F0010300F556704E
:1049A000824208BF43F001031830824208BF43F03F
:1049B00001031830824208BF43F0010318308242DD
:1049C00008BF43F001031830824208BF43F00103DF
:1049D0001830824208BF43F001031830824208BFFA
:1049E00043F0010313B9114B9A4213D110B4D0B262
:1049F00010380F4BA3FB0043C3F302130D4CE35CD1
:104A0000CB655F280AD96FF30902101D88655DF830
:104A1000044B704722F0FF0088657047064810403D
:104A2000F4E700BF1000024028000240B804024032
:104A3000ABAAAAAAD0F2010800FCFFFF0368264A2D
:104A400026498B4218BF93420CBF01220022143129
:104A50008B4208BF42F0010214318B4208BF42F082
:104A6000010214318B4208BF42F0010214318B4223
:104A700008BF42F0010214318B4208BF42F001022C
:104A800012B9174A934212D1DBB2083B154AA2FB76
:104A90000323154A02EB13129200C3F304130121FE
:104AA00001FA03F311490266416683667047D9B281
:104AB00010390F4AA2FB012109090E4A1A44A82AFB
:104AC00008D90D4A0A44920001F01F0101238B40CE
:104AD0000A49E8E70831F4E7085402581C54025820
:104AE00094540258CDCCCCCC009600168058025875
:104AF000ABAAAAAAF0FBFDBF00820010800802400A
:104B000090F804C00CF1FF31072937D810B40268BF
:104B10001B4B1C4CA24218BF9A420CBF012300231E
:104B20001434A24208BF43F001031434A24208BF68
:104B300043F001031434A24208BF43F001031434CC
:104B4000A24208BF43F001031434A24208BF43F05D
:104B5000010313B90C4B9A420BD10C4B63449B00DD
:104B60000B4AC366026701238B4043675DF8044B21
:104B70007047084B63449B00074AF2E7704700BF49
:104B8000085402581C540258945402583F96001678
:104B9000405902583F8200104009024038B504468F
:104BA000FEF776F9002C00F00A8205462268624B77
:104BB00062498A4218BF9A420CBF01230023183170
:104BC0008A4208BF43F0010318318A4208BF43F00C
:104BD000010318318A4208BF43F0010318318A42A9
:104BE00008BF43F0010318318A4208BF43F00103B4
:104BF00018318A4208BF43F0010301F556718A4219
:104C000008BF43F0010318318A4208BF43F0010393
:104C100018318A4208BF43F0010318318A4208BFA5
:104C200043F0010318318A4208BF43F001031831F1
:104C30008A4208BF43F0010318318A4208BF43F09B
:104C4000010313B93E4B9A421AD1022384F835303E
:104C5000002384F83430136823F0010313602368C1
:104C60001A6812F0010F77D0FEF712F9431B052BDB
:104C7000F5D920236365032384F83530012038BD3E
:104C8000304B31498A4218BF9A420CBF012300239E
:104C900014318A4208BF43F0010314318A4208BF2D
:104CA00043F0010314318A4208BF43F00103143179
:104CB0008A4208BF43F0010314318A4208BF43F01F
:104CC00001031BB9214B9A4240F06381022384F80F
:104CD0003530002384F8343010686FF31010A36867
:104CE000402B00F05D81802B14BF002301239B0328
:104CF000E1682569294365692943A5692943E5696F
:104D00002943256A40EA151040EAD1010B4313609C
:104D100022680F4B13440F4AA2FB03231B099B007D
:104D2000E3652046FFF712FEE26D02F01F0101224B
:104D30008A40426057E000BF100002402800024055
:104D4000B8040240085402581C54025894540258A3
:104D5000F8ABFDA7CDCCCCCC1A689A491140A2681B
:104D6000E06802432069024360690243A06902438C
:104D7000E0690243206A02430A43616A042900F0A1
:104D8000C3806168522900F2C9803E2940F2C18087
:104D90003F398D4820FA01F111F0010F01D042F4A2
:104DA00080121A6021684A6922F00702636A1A4376
:104DB000042B0ED1A06A0243E36A53B1A569002D0A
:104DC00040F0C280012800F0B98030F0020000F00D
:104DD000AA804A612046FFF7B9FDE36D03F01F0288
:104DE0003F23934083602268784B79498A4218BFF9
:104DF0009A420CBF0123002318318A4208BF43F0B6
:104E0000010318318A4208BF43F0010318318A4276
:104E100008BF43F0010318318A4208BF43F0010381
:104E200018318A4208BF43F0010318318A4208BF93
:104E300043F0010301F556718A4208BF43F00103B4
:104E400018318A4208BF43F0010318318A4208BF73
:104E500043F0010318318A4208BF43F001031831BF
:104E60008A4208BF43F0010318318A4208BF43F069
:104E7000010318318A4208BF43F0010318318A4206
:104E800008BF43F0010353498A4208BF43F00103BE
:104E900014318A4208BF43F0010314318A4208BF2B
:104EA00043F0010314318A4208BF43F00103143177
:104EB0008A4208BF43F0010314318A4208BF43F01D
:104EC000010314318A4208BF43F0010313B9424B76
:104ED0009A4213D12046FFF7B1FDA368802B61D021
:104EE000236E22791A60636EA26E5A606368013B7A
:104EF000072B5AD90023E3662367636700206065A8
:104F0000012384F83530BAE6E16A206B01430A4395
:104F100037E7293905293FF644AF40E774390329BB
:104F20003FF63FAF3BE7C3F30063002B3FF451AFC5
:104F300040236365012084F83500A0E6B3F1C07F0B
:104F400014BF00230123F0E7B5F5005F0AD0022863
:104F5000EED903287FF43DAFC3F30063002B3FF489
:104F600038AFE5E703283FF634AF01A555F820F048
:104F7000314F0008814F0008314F0008874F00086B
:104F8000C3F30063EAE7B3F1C07F14BF002301233A
:104F9000E4E740236365032384F8353001206EE69F
:104FA0001023A5E6002363609AE72046FFF7A8FDDB
:104FB000E36E00221A60236F626F5A609EE7012041
:104FC0005DE600BF3F8010FE0F030F00100002409F
:104FD000280002400854025894540258002800F057
:104FE000D28170B5044690F83400012800F0CD81DC
:104FF000012084F8340094F83500C0B2012807D0AD
:105000004FF400636365002384F83430012070BDE1
:10501000022084F835000020606525689548964E8A
:10502000B54218BF85420CBF012000201836B5429A
:1050300008BF40F001001836B54208BF40F001003B
:105040001836B54208BF40F001001836B54208BF17
:1050500040F001001836B54208BF40F00100183694
:10506000B54208BF40F0010006F55676B54208BFCC
:1050700040F001001836B54208BF40F00100183674
:10508000B54208BF40F001001836B54208BF40F0F5
:1050900001001836B54208BF40F001001836B5428D
:1050A00008BF40F001001836B54208BF40F00100CB
:1050B00018B97248854240F04B81286820F0010001
:1050C00028602046FFF710FB22686A4B6A498A4233
:1050D00018BF9A420CBF0123002318318A4208BF2F
:1050E00043F0010318318A4208BF43F0010318312D
:1050F0008A4208BF43F0010318318A4208BF43F0D7
:10510000010318318A4208BF43F0010318318A4273
:1051100008BF43F0010301F556718A4208BF43F00E
:10512000010318318A4208BF43F0010318318A4253
:1051300008BF43F0010318318A4208BF43F001035E
:1051400018318A4208BF43F0010318318A4208BF70
:1051500043F0010318318A4208BF43F001031BB931
:10516000464B9A4240F0F980136823F01E0343F047
:1051700016031360236C23B12268136843F00803FD
:10518000136022683B4B3C498A4218BF9A420CBFCD
:105190000123002318318A4208BF43F0010318316C
:1051A0008A4208BF43F0010318318A4208BF43F026
:1051B000010318318A4208BF43F0010318318A42C3
:1051C00008BF43F0010318318A4208BF43F00103CE
:1051D00001F556718A4208BF43F0010318318A4233
:1051E00008BF43F0010318318A4208BF43F00103AE
:1051F00018318A4208BF43F0010318318A4208BFC0
:1052000043F0010318318A4208BF43F0010318310B
:105210008A4208BF43F0010318318A4208BF43F0B5
:10522000010317498A4208BF43F0010314318A423F
:1052300008BF43F0010314318A4208BF43F0010361
:1052400014318A4208BF43F0010314318A4208BF77
:1052500043F0010314318A4208BF43F001031431C3
:105260008A4208BF43F0010373B9064B9A421AD130
:105270000AE000BF1000024028000240B8040240CB
:105280000854025894540258236E1A6812F4803F4E
:1052900003D01A6842F480721A60E36E1BB11A6878
:1052A00042F480721A602268394B3A498A4218BF28
:1052B0009A420CBF0123002318318A4208BF43F0F1
:1052C000010318318A4208BF43F0010318318A42B2
:1052D00008BF43F0010318318A4208BF43F00103BD
:1052E00018318A4208BF43F0010318318A4208BFCF
:1052F00043F0010301F556718A4208BF43F00103F0
:1053000018318A4208BF43F0010318318A4208BFAE
:1053100043F0010318318A4208BF43F001031831FA
:105320008A4208BF43F0010318318A4208BF43F0A4
:10533000010318318A4208BF43F0010313B9164B29
:105340009A421AD1136843F00103136000205EE60D
:10535000286820F001002860B3E6136823F00E03EC
:1053600043F00A031360236C002B3FF40AAF22685A
:10537000136843F00403136003E7136843F0010369
:105380001360002043E60120704702203FE600BF83
:105390001000024028000240B804024070B50446E4
:1053A000FDF776FD002C00F04882054694F8353074
:1053B000DBB2022B06D080236365002384F83430EF
:1053C000012070BD2268924B92498A4218BF9A42CE
:1053D0000CBF0123002318318A4208BF43F00103A8
:1053E00018318A4208BF43F0010318318A4208BFCE
:1053F00043F0010318318A4208BF43F0010318311A
:105400008A4208BF43F0010318318A4208BF43F0C3
:10541000010301F556718A4208BF43F001031831B8
:105420008A4208BF43F0010318318A4208BF43F0A3
:10543000010318318A4208BF43F0010318318A4240
:1054400008BF43F0010318318A4208BF43F001034B
:1054500018318A4208BF43F001031BB96E4B9A42D0
:1054600040F0F780136823F01E031360226853692D
:1054700023F08003536126682268654B65498A42A0
:1054800018BF9A420CBF0123002318318A4208BF7B
:1054900043F0010318318A4208BF43F00103183179
:1054A0008A4208BF43F0010318318A4208BF43F023
:1054B000010318318A4208BF43F0010318318A42C0
:1054C00008BF43F0010301F556718A4208BF43F05B
:1054D000010318318A4208BF43F0010318318A42A0
:1054E00008BF43F0010318318A4208BF43F00103AB
:1054F00018318A4208BF43F0010318318A4208BFBD
:1055000043F0010318318A4208BF43F00103183108
:105510008A4208BF43F0010340498A4208BF43F072
:10552000010314318A4208BF43F0010314318A4257
:1055300008BF43F0010314318A4208BF43F001035E
:1055400014318A4208BF43F0010314318A4208BF74
:1055500043F0010314318A4208BF43F0010313B939
:105560002F4B9A4204D1226E136823F48073136088
:105570002268274B27498A4218BF9A420CBF012351
:10558000002318318A4208BF43F0010318318A42D0
:1055900008BF43F0010318318A4208BF43F00103FA
:1055A00018318A4208BF43F0010318318A4208BF0C
:1055B00043F0010318318A4208BF43F0010301F5AB
:1055C00056718A4208BF43F0010318318A4208BF6E
:1055D00043F0010318318A4208BF43F00103183138
:1055E0008A4208BF43F0010318318A4208BF43F0E2
:1055F000010318318A4208BF43F0010318318A427F
:1056000008BF43F001036BB9034B9A4227D109E06D
:105610001000024028000240B8040240085402581A
:1056200094540258136823F001031360336813F095
:10563000010F19D0FDF72CFC401B0528F6D92023BB
:105640006365032384F83530002384F83430012067
:10565000B7E6136823F00E03136026680CE713689F
:1056600023F001031360E1E72268754B75498A4214
:1056700018BF9A420CBF0123002318318A4208BF89
:1056800043F0010318318A4208BF43F00103183187
:105690008A4208BF43F0010318318A4208BF43F031
:1056A000010318318A4208BF43F0010318318A42CE
:1056B00008BF43F0010301F556718A4208BF43F069
:1056C000010318318A4208BF43F0010318318A42AE
:1056D00008BF43F0010318318A4208BF43F00103B9
:1056E00018318A4208BF43F0010318318A4208BFCB
:1056F00043F0010318318A4208BF43F001031BB98C
:10570000514B9A4240F09180A16DE36D03F01F026E
:105710003F2393408B602268494B4A498A4218BF15
:105720009A420CBF0123002318318A4208BF43F07C
:10573000010318318A4208BF43F0010318318A423D
:1057400008BF43F0010318318A4208BF43F0010348
:1057500018318A4208BF43F0010318318A4208BF5A
:1057600043F0010301F556718A4208BF43F001037B
:1057700018318A4208BF43F0010318318A4208BF3A
:1057800043F0010318318A4208BF43F00103183186
:105790008A4208BF43F0010318318A4208BF43F030
:1057A000010318318A4208BF43F0010318318A42CD
:1057B00008BF43F0010325498A4208BF43F00103B3
:1057C00014318A4208BF43F0010314318A4208BFF2
:1057D00043F0010314318A4208BF43F0010314313E
:1057E0008A4208BF43F0010314318A4208BF43F0E4
:1057F000010314318A4208BF43F0010313B9144B6B
:105800009A420BD1636EA26E5A60E36E33B11A688E
:1058100022F480721A60236F626F5A60012384F849
:105820003530002084F83400CBE5A16DE36D03F042
:105830001F02012393404B606DE70120C1E500BFCB
:105840001000024028000240B804024008540258E8
:1058500094540258002800F0628108B5014690F87F
:105860003530DBB2022B03D080234365012008BD15
:1058700002682B4B2B48824218BF9A420CBF01236F
:1058800000231830824208BF43F0010318308242DF
:1058900008BF43F001031830824208BF43F0010300
:1058A0001830824208BF43F001031830824208BF1B
:1058B00043F001031830824208BF43F0010300F5B2
:1058C0005670824208BF43F001031830824208BF7D
:1058D00043F001031830824208BF43F0010318303F
:1058E000824208BF43F001031830824208BF43F0F0
:1058F00001031830824208BF43F00103183082428E
:1059000008BF43F0010313B9074B9A420ED1042399
:1059100081F83530136823F0010313600020A6E7F7
:105920001000024028000240B8040240136823F02F
:105930000E0313600A687C4BA0F58F60824218BF8B
:105940009A420CBF012300231830824208BF43F063
:1059500001031830824208BF43F00103183082422D
:1059600008BF43F001031830824208BF43F001032F
:105970001830824208BF43F001031830824208BF4A
:1059800043F0010300F55670824208BF43F0010363
:105990001830824208BF43F001031830824208BF2A
:1059A00043F001031830824208BF43F0010318306E
:1059B000824208BF43F001031830824208BF43F01F
:1059C00001031830824208BF43F001031BB9574B53
:1059D0009A4240F09F80136823F0010313600A6825
:1059E000514B5348824218BF9A420CBF01230023F7
:1059F0001830824208BF43F001031830824208BFCA
:105A000043F001031830824208BF43F0010318300D
:105A1000824208BF43F001031830824208BF43F0BE
:105A200001031830824208BF43F0010300F55670AD
:105A3000824208BF43F001031830824208BF43F09E
:105A400001031830824208BF43F00103183082423C
:105A500008BF43F001031830824208BF43F001033E
:105A60001830824208BF43F001031830824208BF59
:105A700043F001031830824208BF43F001032D4870
:105A8000824208BF43F001031430824208BF43F052
:105A900001031430824208BF43F0010314308242F4
:105AA00008BF43F001031430824208BF43F00103F2
:105AB0001430824208BF43F001031430824208BF11
:105AC00043F0010313B91C4B9A4217D10A6E1368B5
:105AD00023F480731360886DCB6D03F01F020123E4
