:020000040800F2
:1000000000000524D92E0008D52A0008D72A0008A8
:10001000D92A0008DB2A0008DD2A000800000000B9
:10002000000000000000000000000000DF2A0008BF
:10003000E12A000800000000E32A0008E52A000881
:100040002D2F00082D2F00082D2F00082D2F000820
:100050002D2F00082D2F00082D2F00082D2F000810
:100060002D2F00082D2F00082D2F0008ED2A000845
:10007000FD2A00080D2B00081D2B00082D2B000861
:100080003D2B00084D2B00085D2B00082D2F00088C
:100090002D2F00082D2F00082D2F00082D2F0008D0
:1000A0002D2F00082D2F00082D2F00082D2F0008C0
:1000B0002D2F00082D2F00086D2B00087D2B000828
:1000C0008D2B00089D2B0008AD2B00082D2F00085C
:1000D0002D2F0008BD2B00082D2F0008CD2B000868
:1000E0002D2F00082D2F0008000000002D2F0008E4
:1000F0002D2F00082D2F00082D2F0008DD2B0008C4
:100100002D2F00082D2F00082D2F00082D2F00085F
:10011000ED2B0008FD2B00080D2C00081D2C0008FD
:100120002D2F00082D2C00083D2C00084D2C000818
:100130005D2C00082D2F00082D2F00082D2F000802
:1001400000000000000000000000000000000000AF
:100150006D2C00087D2C00088D2C00082D2F000828
:100160009D2C0008AD2C00082D2F00082D2F000815
:100170002D2F00082D2F00082D2F00080000000053
:100180002D2F00082D2F00082D2F0008BD2C000852
:100190002D2F00082D2F00082D2F0008CD2C000832
:1001A0002D2F00082D2F00082D2F00080000000023
:1001B0002D2F00082D2F00082D2F0008E52C0008FA
:1001C000F52C00082D2F00080000000000000000A2
:1001D00000000000000000002D2F000800000000BB
:1001E000000000000000000000000000000000000F
:1001F00000000000000000002D2F00082D2F000837
:100200002D2F00082D2F0008000000002D2F0008C2
:100210002D2F00082D2F00082D2F00082D2F00084E
:100220002D2F0008000000002D2F00080000000006
:10023000052D00082D2F000800000000152D0008D6
:100240002D2F0008252D0008352D00082D2F000822
:100250002D2F00082D2F00082D2F00082D2F00080E
:100260002D2F00082D2F00082D2F00082D2F0008FE
:100270002D2F00082D2F00082D2F00080000000052
:100280002D2F00082D2F00082D2F00082D2F0008DE
:10029000000000002D2F00082D2F00080000000096
:1002A000000000002D2F00082D2F00082D2F000822
:1002B0002D2F0008452D00082D2F00082D2F000898
:0C02C0002D2F00082D2F00082D2F000806
:1002D00010B5054C237833B9044B13B10448AFF380
:1002E00000800123237010BD800600240000000060
:1002F000881C020808B5034B1BB103490348AFF340
:10030000008008BD0000000084060024881C02084C
:1003100001F0FF01102A2BDB10F0070F08D010F8B6
:10032000013B013A8B422DD010F0070F42B3F6D1BA
:10033000F0B441EA012141EA014122F007047FF0D3
:1003400000070023F0E80256083C85EA010586EA2A
:10035000010685FA47F5A3FA87F586FA47F6A5FA66
:1003600087F68EB9EED1F0BC01F0FF0102F0070272
:1003700032B110F8013B013A83EA010313B1F8D11D
:100380000020704701387047002D06BF35460338FE
:10039000073815F0010F07D1013015F4807F02BF37
:1003A000013015F4C03F0130F0BC0138704700BF88
:1003B000034613F8012B002AFBD1181A01387047A5
:1003C00053B94AB9002908BF00281CBF4FF0FF31BC
:1003D0004FF0FF3000F088B9ADF1080C6DE904CEA4
:1003E00000F006F8DDF804E0DDE9022304B0704710
:1003F0002DE9F047089D8E4604468846002B4AD1D9
:100400008A42174662D9B2FA82F64EB1C6F120038B
:1004100001FA06F820FA03F3B74043EA0808B440AB
:100420004FEA174E1FFA87FCB8FBFEF1230C0EFBB8
:10043000118843EA084301FB0CF29A4209D9FB18E0
:1004400001F1FF3080F0EA809A4240F2E780023901
:100450003B449A1AA3B2B2FBFEF00EFB102243EA11
:10046000024300FB0CFC9C4509D9FB1800F1FF324C
:1004700080F0D6809C4540F2D3803B44023840EA6D
:100480000140A3EB0C0300211DB1F3400022C5E99C
:100490000032BDE8F0878B4205D90DB1C5E90001F6
:1004A00000210846F5E7B3FA83F1002946D17345E8
:1004B00002D3824200F20581841A6EEB030201200E
:1004C0009046002DE5D0C5E90048E2E7002A00F09B
:1004D0009080B2FA82F6002E40F0A4808A1A030CB3
:1004E0004FEA174E80B2BCB20121B2FBFEFC0EFBFC
:1004F0001C2243EA024304FB0CF29A4207D9FB1880
:100500000CF1FF3802D29A4200F2E080C4469B1AF6
:10051000B3FBFEF20EFB123340EA034302FB04F48A
:100520009C4207D9FB1802F1FF3002D29C4200F234
:10053000CA8002461B1B42EA0C40A5E7C1F1200617
:100540008B4022FA06F71F430EFA01F420FA06F355
:100550002EFA06FE4FEA1749234300FA01F81FFA64
:1005600087FCBEFBF9F01C0C09FB10EE44EA0E44BC
:1005700000FB0CFEA64502FA01F209D93C1900F174
:10058000FF3A80F09C80A64540F2998002383C44B6
:10059000A4EB0E041FFA83FEB4FBF9F309FB13442A
:1005A0004EEA044403FB0CFCA44508D93C1903F1B2
:1005B000FF3E80F08280A4457FD9023B3C4443EA61
:1005C0000040A4EB0C04A0FB02EC64457346E1463A
:1005D00062D35FD05DB1B8EB030264EB090404FAA7
:1005E00006F622FA01F31E43CC40C5E9006400215F
:1005F0004FE7B1FBF2FC010C41EA0E4180B240EA48
:1006000001423B4638463C46B846BE462026B1FB32
:10061000F7F1A2EB080241EA0C4166E7014618E750
:1006200010462CE7C6F120022EFA02F3B740B14083
:1006300020FA02F24FEA174E0A43B3FBFEF8BCB2AF
:100640000EFB1833110C41EA034108FB04F9B040DA
:1006500089454FEA104380B23ED9791808F1FF3C32
:1006600001D289451FD8A1EB0901B1FBFEF909FBB5
:1006700004F80EFB191192B242EA0142424529D216
:10068000BA1809F1FF31C4D24245C2D2A9F1020120
:100690003A44BEE7F0459DD2BEEB02036CEB070C7B
:1006A0000138E14696E7A7EB09094944A8F1020C95
:1006B000B1FBFEF909FB04F8DBE773467FE7504620
:1006C00066E70846FDE63B44023A33E7ACF1020C2C
:1006D0003B441CE749469CE7A1EB0901C446B1FB3A
:1006E000FEF909FB04F8C4E7704700BF90281ED04C
:1006F0000B781B021D4A138049780B4313801C4A58
:10070000012111701B4A12881B4921F812301B4B22
:100710001B88072B02D8013318490B80013202F0E5
:100720000702144B1A80164B00221A6070470B7890
:100730001B02144A138049780B431380124A01218B
:100740001170124A1288124921F81230114B1B887D
:10075000072B02D801330F490B80013202F0070248
:100760000A4B1A800C4B00221A607047FA060024CC
:10077000F8060024F4060024D4060024CE06002443
:10078000C4060024FC060024F9060024F606002412
:10079000E4060024D0060024C806002490280CBFDC
:1007A000024B034B00221A60704700BFC8060024AA
:1007B000C406002470B504460D46164690280CD099
:1007C0000A4B01221A6017F07BFE094B1860324673
:1007D0002946204617F0FAFA70BD064B01221A602E
:1007E00017F06EFE044B1860F1E700BFC40600244A
:1007F000BC060024C8060024C006002408B51B4B14
:100800001B681BB91A4B1B68C3B908BD17F058FE0B
:100810004FF47A72174B19681BF072F90028F1D067
:10082000124B00221A60144B03221A704FF480708E
:1008300018F07EFF092018F065FFE3E717F040FE8F
:100840004FF47A720D4B19681BF05AF90028DCD06E
:10085000074B00221A60084B03221A704FF4807075
:1008600018F066FF092018F04DFFCEE7C8060024F7
:10087000C4060024C0060024CC060024BC060024C4
:10088000014B00221A707047CC06002400000000C3
:1008900007EE900AF8EEE77A9FED177A67EE877A0F
:1008A0009FED167A67EE877AB7EEE70A9FED106B39
:1008B000B4EEC60BF1EE10FA15D99FED117AF4EEF5
:1008C000C77AF1EE10FA02DB9FED0E0A704708B509
:1008D000B0EE041B20F0E0FDB3EE097B20EE070B29
:1008E000B7EEC00B08BD9FED070A7047AFF300805D
:1008F0007B14AE47E17A843F6F12834000000038DA
:100900003333534000000000494B1B78042B00D0C8
:10091000704710B517F0D4FD464B1A68464B19685E
:100920001BF0EEF8E8B117F0CBFD434B1860434BDA
:100930001B884BB9022200219020FFF73BFF0128C2
:1009400069D13E4B01221A80022200219220FFF73A
:1009500031FF012863D1394B00221A80354B6422C4
:100960001A60374B1B784BB3354B00221A70354B4E
:100970001C88002C57D0344A02EB4400002332F884
:10098000021F0B448242FAD1B3FBF4F39CB220461F
:10099000FFF77EFF2D4B83ED000A2D4B1C8007EEE9
:1009A000904AF8EEE77A9FED2B7A67EE877A9FED13
:1009B0002A7A67EE877A294BC3ED007A284B1B7899
:1009C00043B3274B00221A70264B1C886CB3264A6F
:1009D00002EB4400002332F8021F0B449042FAD18C
:1009E000B3FBF4F39CB22046FFF752FF1F4B83ED9D
:1009F000000A1F4B1C8007EE904AF8EEE77A9FED45
:100A0000157A67EE877A9FED147A67EE877A194B2D
:100A1000C3ED007A10BD074B0A221A60FAE7054BB6
:100A20000A221A60F6E70023AEE70023D8E700BFEA
:100A3000CC060024A0060024A40600249C06002462
:100A4000F9060024D0060024E2060024B80600249B
:100A5000AA0600246F12834000000038B00600246C
:100A6000F8060024CE060024D2060024B406002492
:100A7000A8060024AC060024014B93ED000A704741
:100A8000B8060024014B93ED000A7047B406002419
:100A900070470000902810D00B781B020F4A13807B
:100AA00049780B43138007EE103ABAEEEC7BB7EEB1
:100AB000C77B0B4B83ED007A70470B781B02094A0A
:100AC000138049780B43138007EE103ABAEEEC7BA3
:100AD000B7EEC77B044B83ED007A704716070024FE
:100AE00010070024140700240C07002408B517F091
:100AF000E7FC1B4B1A681B4B19681BF001F800B987
:100B000008BD17F0DDFC174B1860174B1B884BB95D
:100B100002220021902017F0E5F8012810D1124B95
:100B200001221A8002220021922017F0DBF801280E
:100B30000ED10D4B00221A80094B64221A60DFE7A8
:100B4000074B02221A60094A138801331380D7E742
:100B5000034B02221A60054A138801331380CFE742
:100B60000007002404070024FE06002408070024D0
:100B7000014B93ED000A70470C070024014B93EDE5
:100B8000000A70471007002400B59DB04C220021D8
:100B900009A81EF0E1FD2022002101A81EF0DCFDC5
:100BA000022007F0C7FE00230093224B9A6942F40B
:100BB00040429A619B6903F440430093009B1D4AA5
:100BC000936913F4005FFBD0092309934FF480333A
:100BD0000A9301220E92022312931393149260221D
:100BE000159216937D22179218930C2319930023C4
:100BF0001A931B9309A807F0C5FEB0B93F230193D0
:100C000003230293002303930823049340230593B3
:100C100006934FF4806207920893022101A808F01E
:100C20009FFA20B91DB05DF804FB72B6FEE772B6FC
:100C3000FEE700BF0048025800B5AFB0982200217F
:100C400008A81EF089FD4FF410220023CDE90023EF
:100C50000123029318220392022204920592069322
:100C6000C02307934FF480331493684608F016FDB1
:100C700010B92FB05DF804FB72B6FEE72DE980488D
:100C80009BB00024119412941394149403F080FCEC
:100C900001238DF844308DF8454012941F228DF8C1
:100CA0004C2087228DF84D208DF84E408DF84F4016
:100CB0008DF850308DF851308DF852408DF85340FA
:100CC00011A803F083FC042003F070FC02F056F935
:100CD000CF4B5B6913F4803F28D1CD4BC3F88440E0
:100CE000BFF34F8FD3F88030C3F3C906C3F34E333D
:100CF0005C0143F6E075C64804EA0501334641EA63
:100D00008372C0F86022013BB3F1FF3FF7D1203C72
:100D100014F1200FF0D1BFF34F8FBD4A536943F454
:100D200080335361BFF34F8FBFF36F8FB84B5B6955
:100D300013F4003F13D1BFF34F8FBFF36F8FB44B4A
:100D40000022C3F85022BFF34F8FBFF36F8F5A6951
:100D500042F400325A61BFF34F8FBFF36F8F00230D
:100D60001193129313931493BFF34F8FA94BA84978
:100D7000A94AC1F8683220339342FAD1BFF34F8FAA
:100D8000BFF36F8F03F004FC01268DF84460A14B84
:100D900012934FF00D0A8DF84CA08DF84560002499
:100DA0008DF84E4003278DF84F708DF853408DF825
:100DB00052408DF851408DF84D408DF8504011A8AB
:100DC00003F004FC042003F0F1FBFFF7DDFEFFF766
:100DD00033FF17F081FB17F09BF817F013F911940C
:100DE00012941394149415948C4DD5F8E03043F07C
:100DF0001003C5F8E030D5F8E03003F01003049399
:100E0000049BD5F8E03043F00403C5F8E030D5F892
:100E1000E03003F004030593059BD5F8E03043F080
:100E20008003C5F8E030D5F8E03003F08003069386
:100E3000069BD5F8E0303343C5F8E030D5F8E03014
:100E400033400793079BD5F8E03043F00203C5F821
:100E5000E030D5F8E03003F002030893089BD5F8A2
:100E6000E03043F00803C5F8E030D5F8E03003F097
:100E700008030993099BDFF8B0B122464EF2100136
:100E8000584605F0A5FEDFF8A49122464FF45061C4
:100E9000484605F09DFEDFF89881224641F20F0199
:100EA000404605F095FE4EF21003119312961394EE
:100EB000149411A9584605F0DDFC4FF0800BCDF8D5
:100EC00044B01294139411A9554805F0D3FC06239D
:100ED00011931294139411A9524805F0CBFCCDF84C
:100EE00044B04FF404131293139411A9484605F02B
:100EF000C1FC4FF45063119312961394149411A9EA
:100F0000484605F0B7FC4FF4007311931294139404
:100F100011A9484605F0AEFC41F20F031193129659
:100F20001394149411A9404605F0A4FC44F2200344
:100F300011931294139411A9404605F09BFC4FF4B1
:100F4000004311934FF488131293139411A9404650
:100F500005F090FCD5F8D8303343C5F8D830D5F833
:100F6000D83033400293029BD5F8D83043F00203C7
:100F7000C5F8D830D5F8D83003F002030393039BAB
:100F8000224604210B2003F089FA0B2003F0BAFA61
:100F9000224639460C2003F081FA0C2003F0B2FA05
:100FA00022460421504603F079FA504603F0AAFA8B
:100FB000224631460E2003F071FA0E2003F0A2FA09
:100FC000224631460F2003F069FA0F2003F09AFA07
:100FD00022463946102003F061FA102003F092FAFD
:100FE00022463146112003F059FA112003F08AFA03
:100FF000224621462F2003F051FA2F2003F082FAD7
:1010000022463946392003F049FA392012E000BF60
:1010100000ED00E000400030008000300044025845
:10102000000002580004025800080258001002583C
:10103000000C025803F066FA224631463A2003F0CB
:101040002DFA3A2003F05EFA224604213B2003F0F9
:1010500025FA3B2003F056FA224621463C2003F0B5
:101060001DFA3C2003F04EFA22462146442003F0AC
:1010700015FA442003F046FA22463146452003F093
:101080000DFA452003F03EFA22463146462003F091
:1010900005FA462003F036FAD5F8E03043F40013A1
:1010A000C5F8E030D5F8E03003F400130193019B5C
:1010B00022460421812003F0F1F9812003F022FA75
:1010C00022460421822003F0E9F9822003F01AFA73
:1010D000A648A74B0360446084604FF4005343610B
:1010E00084610223C36104624462C460C462046315
:1010F000102242632246214609F07EFF002840F07C
:10110000D4839C489C4B036002234360012282608D
:101110004FF400524261C3610021C160C1620163AA
:1011200041630A4609F068FF002840F0C0830024AC
:101130000D940E940F942422214611A81EF00CFB4E
:101140008E488F4B03604460082282600123036154
:101150004261047644760322C26180F820408462B2
:10116000C4620263C463046480F84440836402F090
:1011700041FF002840F09D8300230D930DA97F4877
:1011800003F0E8F8002840F096837E4B1193062385
:101190001293139340F2FF731493042315930023C7
:1011A00016938DF8653011A9744802F0F7F80028FD
:1011B00040F08383744B11930C23129311A96F4851
:1011C00002F0ECF8002840F07A83704B1193122360
:1011D000129311A9694802F0E1F8002840F07183E8
:1011E0002422002111A81EF0B7FA6948694B036058
:1011F0000023436008228260C360012101614261D3
:10120000037643760322C26180F820308362C36292
:1012100080F8381043630263C363036480F844308A
:10122000836402F0E7FE002840F04D830123119310
:1012300006231293139340F2FF7314930423159320
:1012400000231693189311A9514802F0A7F800281B
:1012500040F03B83504B11930C23129311A94C483F
:1012600002F09CF8002840F032834C4B119312237B
:10127000129311A9464802F091F8002840F0298302
:101280002422002111A81EF067FA4548454B03604F
:1012900003F0C8F9002840F01E83002211920623B3
:1012A0001293139201231493159211A93C4803F051
:1012B00003FA002840F011833B483C4B03603C4B51
:1012C0004360002383600122C26003614361836144
:1012D000C361036205F06CFE002840F0008300212A
:1012E000314807F0CDFA002840F0FB8200212E485B
:1012F00007F0F4FA002840F0F6822E482E4B0360E7
:101300002B4B4360002383600122C2600361436171
:101310008361C361036205F04BFE002840F0E58263
:101320000021244807F0ACFA002840F0E0820021B8
:10133000204807F0D3FA002840F0DB821F48204BFA
:101340000360204B4360002383600122C26003617D
:1013500043618361C361036205F02AFE002840F007
:10136000CA820021154807F08BFA2DE0980E002460
:1013700004580140000E002424580140F8160024AF
:10138000002002400800900C0004002A0008302EC3
:10139000881600240060025802003004000084CB4C
:1013A0008415002400740040B81400240054004048
:1013B000AE3290006414002400580040BC13002496
:1013C000001C00582710C720002840F096820021FA
:1013D000A64807F083FA002840F09182A44AA54B62
:1013E00013604FF480335360002393604FF48041C7
:1013F000D1601361032151610D930E930F931093EC
:101400000A930B930C9311931293139314931593C4
:101410001693179398484FF080420260BF224260B3
:10142000836040F2E732C260036183610BF03AFCF3
:10143000002840F066824FF480530D930DA98E482A
:101440000BF07CFD002840F05E828B480BF05AFCCC
:10145000002840F05A8200230A930C930AA9864878
:101460000CF004FA002840F052826023119300220D
:1014700012921392159211A97F480BF0B5FC002827
:1014800040F04782042211A97B480BF0ADFC0028F4
:1014900040F04182082211A977480BF0A5FC0028F2
:1014A00040F03B820C2211A973480BF09DFC0028F0
:1014B00040F03582704801F039F800230D930E9307
:1014C0000F9310930A930B930C931193129313930E
:1014D00014931593169317936848694A0260436002
:1014E0008360EF22C260036183610BF0DBFB0028A5
:1014F00040F017824FF480530D930DA95F480BF015
:101500001DFD002840F00F825C480BF0FBFB00281B
:1015100040F00B8200230A930C930AA957480CF061
:10152000A5F9002840F00382602311930023129351
:1015300013931593042211A950480BF055FC002871
:1015400040F0F7814D4800F0F1FF4E484E4B0360EC
:101550004FF4E133436000238360C36003610C22D6
:1015600042618361C3610362436283620DF029FCBF
:10157000002840F0E081002142480DF057FD00288E
:1015800040F0DB8100213F480DF075FD002840F060
:10159000EF813C480DF02BFD002840F0EB813B48EB
:1015A0003B4B03604FF4E133436000238360C3602F
:1015B00003610C2242618361C361036243628362FF
:1015C0000DF0FFFB002840F0D78100212F480DF0DF
:1015D0002DFD002840F0D28100212C480DF04BFD5C
:1015E000002840F0CD8129480DF001FD002840F091
:1015F000C9812848284B03604FF4E133436000233E
:101600008360C36003610C2242618361C361036232
:10161000436283620DF0D5FB002840F0B5810021C4
:101620001C480DF003FD002840F0B081002119484E
:101630000DF021FD002840F0AB8116480DF0D7FCDD
:10164000002840F0A7811548154B03604FF4E133A3
:10165000436000238360C36003610C2242618361A5
:10166000C3610362436283621CE000BFBC130024B9
:10167000940C002400240248FC0B0024B00B00242E
:1016800000080040580A0024004C0040C40900240F
:101690000050004030090024007C00409C080024D9
:1016A000001001400DF08DFB002840F075810021F5
:1016B000A3480DF0BBFC002840F070810021A04839
:1016C0000DF0D9FC002840F06B819D480DF08FFC97
:1016D000002840F067819B489B4B03604FF4E13347
:1016E000436000238360C36003610C224261836115
:1016F000C3610362436283620DF063FB002840F024
:10170000538100218F480DF091FC002840F04E815C
:1017100000218C480DF0AFFC002840F04981894839
:101720000DF065FC002840F045810EF0ABF88748CD
:10173000874B0360874B4360002383600122C260B4
:10174000036143618361C361036205F031FC0028DA
:1017500040F0328100217D4807F092F8002840F0E7
:101760002D810021794807F0B9F8002840F0288140
:1017700000231193129313937748784A0260BF2293
:10178000426083606323C360802383610BF08AFA25
:10179000002840F0178100231193139311A96E487C
:1017A0000CF064F8002840F00F816D486D4B036029
:1017B000684B4360002383600122C2600361436180
:1017C0008361C361036205F0F3FB002840F0FE80F3
:1017D0000021634807F054F8002840F0F980002108
:1017E0005F4807F07BF8002840F0F4800023119355
:1017F0001293139314930D930E930F935A485B4ACD
:1018000002604360836041F63F72C26003614361DE
:1018100083610BF047FA002840F0DE804FF48053DC
:10182000119311A950480BF089FB002840F0D68095
:1018300020230D9300230E930F930DA94A480CF01B
:1018400015F8002840F0CC8016F04EFF16F0B0FDE1
:1018500016F08CFD12F06EF916F0B6FF0FF024FAB8
:1018600015F0CEFF15F09CFF18F0BEFA16F06AFDD9
:1018700012F028F94FF47A7001F0C0FB16F058FD11
:101880004FF4FA7001F0BAFB16F09AFD16F068FEFC
:1018900016F050FE16F0D4F816F0C0FF17F0A2FEB6
:1018A00019F08AFB15F072FEF0E772B6FEE772B629
:1018B000FEE772B6FEE772B6FEE772B6FEE772B6F4
:1018C000FEE772B6FEE772B6FEE772B6FEE772B6E4
:1018D000FEE772B6FEE772B6FEE772B6FEE772B6D4
:1018E000FEE772B6FEE772B6FEE772B6FEE772B6C4
:1018F000FEE772B6FEE772B6FEE772B6FEE772B6B4
:10190000FEE772B6FEE772B6FEE772B6FEE772B6A3
:10191000FEE772B6FEE772B6FEE772B6FEE772B693
:10192000FEE772B6FEE772B6FEE772B6FEE772B683
:10193000FEE772B6FEE772B6FEE772B6FEE700BFDC
:101940009C080024080800240048004010140024CB
:10195000005C0040AE329000640B00240014004094
:101960006813002400640040480C0024000001407B
:1019700072B6FEE772B6FEE772B6FEE772B6FEE733
:1019800072B6FEE772B6FEE772B6FEE772B6FEE723
:1019900072B6FEE772B6FEE772B6FEE772B6FEE713
:1019A00072B6FEE772B6FEE772B6FEE772B6FEE703
:1019B00072B6FEE772B6FEE772B6FEE772B6FEE7F3
:1019C00072B6FEE772B6FEE772B6FEE772B6FEE7E3
:1019D00072B6FEE772B6FEE772B6FEE772B6FEE7D3
:1019E00072B6FEE772B6FEE782B0074BD3F8F4207A
:1019F00042F00202C3F8F420D3F8F43003F00203FB
:101A00000193019B02B070470044025830B58BB07F
:101A100004460023059306930793089309930368EC
:101A2000574A934204D0574A93425DD00BB030BD21
:101A3000554BD3F8D82042F02002C3F8D820D3F871
:101A4000D82002F020020092009AD3F8E02042F061
:101A50000402C3F8E020D3F8E02002F0040201926F
:101A6000019AD3F8E02042F00102C3F8E020D3F855
:101A7000E03003F001030293029B032505950695D0
:101A800005A9424804F0F6FE40230593069500257B
:101A9000079505A93E4804F0EDFE3E483E4B036025
:101AA000092343608560C5604FF4806303614FF490
:101AB000006343614FF4005383614FF48073C3614B
:101AC0000562456203F01AF958B9324BA3659C636D
:101AD00000220421122002F0E1FC122002F012FD8B
:101AE000A4E7FFF77FFFF0E7274BD3F8E02042F0B1
:101AF0008072C3F8E020D3F8E02002F080720392F5
:101B0000039AD3F8E02042F00402C3F8E020D3F8AF
:101B1000E03003F004030493049B4FF08061084617
:101B200001F080FA4FF00061084601F07BFA1B4893
:101B30001B4B03607323436000238360C3604FF437
:101B4000806202614FF4006242614FF40052826190
:101B50004FF48072C2610362436203F0CFF858B958
:101B60000E4BA3659C63002204217F2002F096FCAB
:101B70007F2002F0C7FC59E7FFF734FFF0E700BF12
:101B80000020024000600258004402580008025839
:101B9000000002581016002440040240981500244A
:101BA0001000024010B588B00023039304930593FE
:101BB000069307930268284B9A4201D008B010BDE3
:101BC0000446264BD3F8E82042F00052C3F8E82040
:101BD000D3F8E82002F000520192019AD3F8E020F5
:101BE00042F00102C3F8E020D3F8E03003F0010333
:101BF0000293029B302303930323049303A9184801
:101C000004F038FE1748184B036043234360402319
:101C100083600023C3604FF4806202614FF400626E
:101C200042614FF4005282614FF48072C2610362DC
:101C3000436203F063F858B90A4BA3609C63002227
:101C40001146362002F02AFC362002F05BFCB5E794
:101C5000FFF7C8FEF0E700BF0074004000440258E0
:101C6000000002580C150024580402402DE9F041F0
:101C7000C0B0044600213B913C913D913E913F9183
:101C8000B8220CA81DF068FD2368804A934212D048
:101C90007F4A934200F084807E4A934200F0148190
:101CA0007D4A934200F0A0817C4A934200F010826A
:101CB00040B0BDE8F08108220023CDE90C230CA838
:101CC00007F0ECFC002862D1754ED6F8E03043F006
:101CD0000203C6F8E030D6F8E03003F002030193C7
:101CE000019BC0233B9312233C9300253D953E95D9
:101CF00004233F933BA96B4804F0BCFDD6F8E830C1
:101D000043F40013C6F8E830D6F8E83003F40013C3
:101D10000293029B6448654B036022234360402387
:101D20008360C5604FF48063036145618561C5616F
:101D30000562456202F0E2FF60BB5B4BA3639C63FC
:101D40005B485C4B03602123436000238360C360D6
:101D50004FF48062026143618361C3610362436245
:101D600002F0CCFFC8B9524BE3639C63002201210F
:101D70001F2002F093FB1F2002F0C4FB0022012170
:101D8000202002F08BFB202002F0BCFB90E7FFF745
:101D900029FE99E7FFF726FECFE7FFF723FEE2E7EC
:101DA00008220023CDE90C230CA807F077FC0028BB
:101DB00063D13B4ED6F8E03043F00203C6F8E03082
:101DC000D6F8E03003F002030393039B4FF4406323
:101DD0003B9312233C9300253D953E9504233F936E
:101DE0003BA9304804F046FDD6F8E83043F48003C0
:101DF000C6F8E830D6F8E83003F480030493049B77
:101E00002D482E4B03602423436040238360C5602C
:101E10004FF48063036145618561C5610562456278
:101E200002F06CFF60BB244BA3639C632448254BEA
:101E300003602323436000238360C3604FF4806208
:101E4000026143618361C3610362436202F056FF32
:101E5000C8B91B4BE3639C6300220121212002F0DF
:101E60001DFB212002F04EFB00220121222002F066
:101E700015FB222002F046FB1AE7FFF7B3FD98E7B7
:101E8000FFF7B0FDCFE7FFF7ADFDE2E700540040FC
:101E900000580040005C0040001C005800640040F6
:101EA0000044025800040258F0120024A00402402A
:101EB00078120024B80402400012002458000240A6
:101EC000881100247000024008220023CDE90C2371
:101ED0000CA807F0E3FB00287DD1A84ED6F8E0302F
:101EE00043F00403C6F8E030D6F8E03003F0040312
:101EF0000593059BD6F8E03043F00103C6F8E030C7
:101F0000D6F8E03003F001030693069B4FF400730C
:101F10003B934FF01208CDF8F08000253D953E959B
:101F200004273F973BA9964804F0A4FC4FF4807324
:101F30003B93CDF8F0803D953E953F973BA9914866
:101F400004F098FCD6F8E83043F40003C6F8E83013
:101F5000D6F8E83003F400030793079B8A488B4BBD
:101F600003604A23436040238360C5604FF480636D
:101F7000036145618561C5610562456202F0BEFE8F
:101F800060BB814BA3639C638148824B0360492300
:101F9000436000238360C3604FF480620261436149
:101FA0008361C3610362436202F0A8FEC8B9784B43
:101FB000E3639C6300220221482002F06FFA48206C
:101FC00002F0A0FA00220221492002F067FA49201B
:101FD00002F098FA6CE6FFF705FD7EE7FFF702FDD9
:101FE000CFE7FFF7FFFCE2E710220023CDE90C2347
:101FF0000CA807F053FB002861D1604ED6F8E03002
:1020000043F00203C6F8E030D6F8E03003F00203F4
:102010000893089B4FF440733B9312233C93002595
:102020003D953E9506233F933BA95B4804F022FC77
:10203000D6F8F43043F08003C6F8F430D6F8F43024
:1020400003F080030993099B5448554B03600E230A
:10205000436040238360C5604FF480630361456142
:102060008561C561056202F049FE58BB4B4BA36315
:102070009C634C484C4B03600D23436000238360FA
:10208000C3604FF48062026143618361C361036294
:1020900002F034FEC8B9434BE3639C630022022183
:1020A0005F2002F0FBF95F2002F02CFA00220221EF
:1020B000602002F0F3F9602002F024FAF8E5FFF75F
:1020C00091FC9AE7FFF78EFCD0E7FFF78BFCE2E785
:1020D00008220023CDE90C230CA807F0DFFA002822
:1020E00045D1264ED6F8E03043F00403C6F8E03080
:1020F000D6F8E03003F004030A930A9B4FF44063E0
:102100003B9312233C9300253D953E9504233F933A
:102110003BA91B4804F0AEFBD6F8E83043F000734F
:10212000C6F8E830D6F8E83003F000730B930B9B49
:102130001E481F4B03607D23436040238360C560BE
:102140004FF48063036145618561C5610562456245
:1021500002F0D4FD70B9154BA3639C6300220121EA
:102160009D2002F09BF99D2002F0CCF9A0E5FFF73D
:1021700039FCB6E7FFF736FCEDE700BF0044025834
:10218000000802580000025810110024A00002406C
:1021900098100024B80002400004025820100024C7
:1021A00008540258A80F00241C540258300F002471
:1021B0004000024038B504460368514A93420CD0AF
:1021C000504A934226D0504A934242D04F4A9342BB
:1021D0005DD04F4A93427AD038BD4E4AD2F8E830AB
:1021E00023F40013C2F8E8304B4D4021284604F098
:1021F0003DFC8021284604F039FCA06B02F09EFFD4
:10220000E06B02F09BFF1F2002F08AF9202002F011
:1022100087F9E1E73F4AD2F8E83023F48003C2F8B7
:10222000E8303D4D4FF48061284604F01FFC4FF428
:102230000061284604F01AFCA06B02F07FFFE06BFF
:1022400002F07CFF212002F06BF9222002F068F9F5
:10225000C2E7304AD2F8E83023F40003C2F8E8308D
:102260004FF400712D4804F001FC4FF480712C48AC
:1022700004F0FCFBA06B02F061FFE06B02F05EFF7C
:10228000482002F04DF9492002F04AF9A4E702F58E
:102290000A32D2F8F43023F08003C2F8F4301E4D35
:1022A0004FF48071284604F0E1FB4FF4007128469A
:1022B00004F0DCFBA06B02F041FFE06B02F03EFF9C
:1022C0005F2002F02DF9602002F02AF984E7114A1C
:1022D000D2F8E83023F00073C2F8E8300F4D4FF425
:1022E0008061284604F0C2FB4FF40061284604F0E8
:1022F000BDFBA06B02F022FF9D2002F011F96BE7FD
:102300000054004000580040005C0040001C005891
:1023100000640040004402580004025800080258BB
:102320000000025830B589B000230393049305934D
:10233000069307930268264B9A4201D009B030BD3C
:10234000244BD3F8DC2042F40072C3F8DC20D3F82D
:10235000DC2002F400720092009AD3F8E02042F0F0
:102360000202C3F8E020D3F8E02002F0020201925A
:10237000019AD3F8E02042F00802C3F8E020D3F835
:10238000E03003F008030293029B4CF2180303931E
:1023900002240494032506950923079303A90E48F4
:1023A00004F068FAC023039304940024059406956E
:1023B0000B23079303A9094804F05CFA2246012184
:1023C0007C2002F06BF87C2002F09CF8B6E700BF9E
:1023D000002402480044025800040258000C02582D
:1023E00008B502680B4B9A4200D008BD0A4AD2F8E1
:1023F000DC3023F40073C2F8DC304CF218010748DB
:1024000004F034FBC021064804F030FB7C2002F0CD
:1024100087F8EAE700240248004402580004025802
:10242000000C025810B584B003683A4A93420BD0AE
:102430000446B3F1804F15D0374A934220D0374A33
:10244000934251D004B010BD354BD3F8F02042F088
:102450000102C3F8F020D3F8F03003F00103009339
:10246000009BEFE72E4BD3F8E82042F00102C3F8BF
:10247000E820D3F8E83003F001030193019BE1E782
:10248000274BD3F8E82042F00402C3F8E820D3F841
:10249000E83003F004030293029B2248224B0360BE
:1024A0001E234360402383600023C3604FF4806297
:1024B00002614FF4006242614FF400528261C361D5
:1024C0000362436202F01AFC58B9164BA3629C6384
:1024D000002203211E2001F0E1FF1E2002F012F86D
:1024E000B0E7FFF77FFAF0E70D4BD3F8E82042F0B2
:1024F0002002C3F8E820D3F8E83003F02003039368
:10250000039B00220421372001F0C8FF372001F08F
:10251000F9FF97E700000140000800400014004068
:1025200000440258EC0A00242804024000B589B097
:102530000023039304930593069307930368B3F171
:10254000804F05D01B4A93421BD009B05DF804FBB5
:10255000194BD3F8E02042F00102C3F8E020D3F891
:10256000E03003F001030193019B0F230393022347
:10257000049305930123079303A9104804F07AF903
:10258000E3E70D4BD3F8E02042F00802C3F8E02067
:10259000D3F8E03003F008030293029B4FF400539A
:1025A0000393022304930593079303A9044804F0BB
:1025B00061F9CAE7000800400044025800000258D0
:1025C000000C025830B5BFB00446002139913A9151
:1025D0003B913C913D91B8220AA81DF0BDF82368BB
:1025E000B64A934210D0B64A934261D0B54A93425C
:1025F00000F09980B44A934200F0CF80B34A9342EE
:1026000000F020813FB030BD02220023CDE90A2333
:102610000AA807F043F8002844D1AD4BD3F8E820CE
:1026200042F40022C3F8E820D3F8E82002F40022A4
:102630000092009AD3F8E02042F00102C3F8E020B3
:10264000D3F8E03003F001030193019B4FF4C05332
:10265000399302233A9300253B953C9506233D93FD
:1026600039A99C4804F006F99B489C4B0360402321
:1026700043608360C5604FF4806303614561856199
:10268000C5610562456202F039FB70B9924BE367A0
:102690009C6300220521342001F000FF342001F06A
:1026A00031FFAFE7FFF79EF9B7E7FFF79BF9EDE7DB
:1026B00002220023CDE90A230AA806F0EFFF78BB27
:1026C000834BD3F8E82042F48012C3F8E820D3F813
:1026D000E82002F480120292029AD3F8E02042F03D
:1026E0000202C3F8E020D3F8E03003F002030393C2
:1026F000039B4FF44053399302233A9300243B94B5
:102700003C940E233D9339A9754804F0B3F8224652
:102710000521352001F0C2FE352001F0F3FE71E7FE
:10272000FFF760F9CCE702220023CDE90A230AA8CB
:1027300006F0B4FF70BB664BD3F8E82042F00042CD
:10274000C3F8E820D3F8E82002F000420492049A8B
:10275000D3F8E02042F01002C3F8E020D3F8E030D4
:1027600003F010030593059B0323399302233A9347
:1027700000243B943C9408233D9339A9594804F024
:1027800079F822460421532001F088FE532001F0FD
:10279000B9FE37E7FFF726F9CDE701220023CDE99F
:1027A0000A230AA806F07AFF002845D1484BD3F83F
:1027B000F02042F01002C3F8F020D3F8F02002F02D
:1027C00010020692069AD3F8E02042F00102C3F804
:1027D000E020D3F8E03003F001030793079B4FF4A8
:1027E000C063399302233A9300253B953C95072318
:1027F0003D9339A9374804F03DF83B483B4B036013
:102800002A23436040238360C5604FF480630361E3
:1028100045618561C5610562456202F06FFA70B974
:10282000314BE3679C6300220321252001F036FE33
:10283000252001F067FEE5E6FFF7D4F8B6E7FFF7DD
:10284000D1F8EDE702220023CDE90A230AA806F019
:1028500025FF78BB1E4BD3F8E82042F48022C3F852
:10286000E820D3F8E82002F480220892089AD3F8EE
:10287000E02042F00802C3F8E020D3F8E03003F093
:1028800008030993099B4FF44073399302233A9349
:1028900000243B943C9407233D9339A9144803F04A
:1028A000E9FF22460321272001F0F8FD272001F04F
:1028B00029FEA7E6FFF796F8CCE700BF004C0040E2
:1028C00000500040007C00400010014000480040E3
:1028D000004402580000025890070024880002407B
:1028E0000004025800100258180700242800024073
:1028F000000C02582DE9F043B7B00446B82200217D
:1029000002A81CF029FF2268694B9A4206D022686F
:10291000684B9A426ED037B0BDE8F0834FF48072B6
:102920000023CDE9022302A806F0B8FE002845D115
:10293000614B1B68002B44D05F4A1368013313605E
:10294000342331934FF00209CDF8C8900025339518
:10295000032334934FF00608CDF8D480574F31A9A4
:10296000384603F087FF40263196CDF8C89033955E
:102970003495CDF8D48031A9384603F07BFF504818
:10298000504B0360572343608660C5604FF48063FB
:1029900003614FF4006343614FF4005383614FF4CC
:1029A0008073C3610562456202F0A8F9F8B9444B2F
:1029B000C4F884309C63C4F88030A8E7FFF712F8AD
:1029C000B6E7414BD3F8F02042F48002C3F8F02080
:1029D000D3F8F03003F480030093009B00221146EB
:1029E000572001F05BFD572001F08CFDA4E7FEF7B6
:1029F000F9FFDCE74FF480720023CDE902230023C6
:102A0000189302A806F04AFE002834D12A4B1B680E
:102A1000002B33D0284A1368013313600823319305
:102A2000022332930025339534950623359331A93B
:102A3000224803F01FFF2548254B036058234360BD
:102A400040238360C5604FF4806303614FF40063EB
:102A500043614FF4005383614FF48073C361056297
:102A6000456202F04BF9F8B9184BC4F884309C6306
:102A7000C4F880304FE7FEF7B5FFC7E7124BD3F835
:102A8000F02042F48002C3F8F020D3F8F03003F4D1
:102A900080030193019B00221146572001F0FEFCA8
:102AA000572001F02FFDB5E7FEF79CFFDCE700BFE4
:102AB00004580140245801406817002400100258AF
:102AC000880D00247004024000440258100D0024B8
:102AD00088040240FEE7FEE7FEE7FEE7FEE77047F8
:102AE0007047704708B500F077FA08BD08B502488E
:102AF00003F008FA08BD00BF9815002408B5024885
:102B000003F000FA08BD00BF1807002408B502480A
:102B100003F0F8F908BD00BF300F002408B50248E3
:102B200003F0F0F908BD00BF0012002408B5024808
:102B300003F0E8F908BD00BF8811002408B5024879
:102B400003F0E0F908BD00BF9007002408B5024873
:102B500003F0D8F908BD00BF1011002408B50248E1
:102B600000F072FA08BD00BFF816002408B502484C
:102B700009F01AFF08BD00BFB00B002408B50248D9
:102B800004F0C0FD08BD00BFB814002408B5024819
:102B900005F026FE08BD00BFB814002408B50248A1
:102BA00004F0B0FD08BD00BF6414002408B502485D
:102BB00005F016FE08BD00BF6414002408B50248E5
:102BC0000AF0B8FF08BD00BF9C08002408B5024801
:102BD0000AF0B0FF08BD00BF0808002408B502488D
:102BE00003F090F908BD00BF9810002408B5024812
:102BF0000AF0A0FF08BD00BF580A002408B502482B
:102C00000AF098FF08BD00BFC409002408B50248B7
:102C100001F01BFD08BD00BF8415002408B5024863
:102C200009F0C2FE08BD00BF640B002408B50248CD
:102C300003F068F908BD00BFEC0A002408B502489B
:102C400003F060F908BD00BF1016002408B5024863
:102C500003F058F908BD00BF0C15002408B5024860
:102C600003F050F908BD00BF880D002408B50248E4
:102C700003F048F908BD00BF100D002408B5024854
:102C800003F040F908BD00BFF012002408B5024867
:102C900003F038F908BD00BF7812002408B50248D7
:102CA00004F030FD08BD00BF1014002408B5024830
:102CB00005F096FD08BD00BF1014002408B50248B9
:102CC0000AF038FF08BD00BF3009002408B50348EA
:102CD00008F0E8FB024808F0E5FB08BD980E002468
:102CE000000E002408B5024804F00CFD08BD00BF2A
:102CF000BC13002408B5024805F072FD08BD00BFF2
:102D0000BC13002408B5024809F002FB08BD00BF4F
:102D1000940C002408B5024800F096F908BD00BFE5
:102D20008816002408B5024803F0ECF808BD00BF7F
:102D30002010002408B5024803F0E4F808BD00BFE5
:102D4000A80F002408B5024804F0DCFC08BD00BF51
:102D5000681300240120704708B51CF05FFD16239E
:102D600003604FF0FF3008BD08B51CF057FD162377
:102D70000360FEE770B5161E07DD0C468D19AFF334
:102D8000008004F8010BA542F9D1304670BD4FF028
:102D9000FF3070474FF400534B6000207047012014
:102DA000704700207047000008B503460C4A1268BF
:102DB00052B10B4A106803440A4A0B49521A934213
:102DC00006D8074A136008BD054A08491160F0E7B4
:102DD0001CF024FD0C2303604FF0FF30F3E700BF2D
:102DE0006C170024000005240060000090D7002428
:102DF0002B4AD2F8883043F47003C2F88830294B4C
:102E00001B6803F00F03062B06D8264A136823F02D
:102E10000F0343F007031360234B1A6842F00102CB
:102E20001A6000221A611968204A0A401A601D4B74
:102E30001B6813F0080F06D01A4A136823F00F031B
:102E400043F007031360184B00229A61DA611A629B
:102E5000174999621749D962174919635A639963E7
:102E6000DA6319645A64196821F4802119601A66BA
:102E7000D3F8D43013F4805F10D10B4BD3F8D420A7
:102E800042F48052C3F8D4200C4A43F2D2011160BC
:102E9000D3F8D42022F48052C3F8D420704700BF66
:102EA00000ED00E000200052004402587FEDF6EAF9
:102EB000000202020000FF018002010100400052F6
:102EC000044AD36843F00203D360536813F4005FED
:102ED000FBD0704700480258DFF838D0FFF7F0FF0A
:102EE000FFF786FF0C480D490D4A002302E0D45835
:102EF000C4500433C4188C42F9D30A4A0A4C002344
:102F000001E013600432A242FBD31CF08DFCFDF7FC
:102F1000B5FE704700000524000000248006002450
:102F2000106002088006002490D70024FEE700000D
:102F30000F4B1B780BB90120704710B504464FF4B6
:102F40007A70B0FBF3F30B4A1068B0FBF3F001F0BA
:102F50000BFB0F2C00D808B1012010BD0022214628
:102F60004FF0FF3001F09AFA034B1C600020F4E7A9
:102F700008000024040000240C00002410B50320E5
:102F800001F07AFA05F0F0FF0F498B690F4AC3F39D
:102F90000323D35C03F01F03D8408B6903F00F03B6
:102FA000D35C03F01F0320FA03F3094A1360094BB3
:102FB00018600F20FFF7BCFF10B10124204610BDA0
:102FC0000446FEF711FDF9E700440258B01C020860
:102FD0000000002404000024034A1168034B1B78FE
:102FE0000B441360704700BF7017002408000024D2
:102FF000014B1868704700BF7017002438B50446AD
:10300000FFF7F6FF0546B4F1FF3F02D0044B1B78F3
:103010001C44FFF7EDFF401BA042FAD338BD00BFB0
:1030200008000024034A536823EA00030B4353605B
:10303000704700BF00040058704708B5806BFFF769
:10304000FBFF08BD70477047F8B5044603681D686C
:103050005E689F4A934205D002F58072934201D088
:103060009C4B00E09C4B9F6807F01F0715F0020F78
:1030700010D016F0020F0DD0236E13F0100F03D1F5
:10308000236E43F400632366204601F061F9236850
:1030900002221A6015F0040F02D016F0040F05D1B9
:1030A00015F0080F3ED016F0080F3BD0236E13F03A
:1030B000100F03D1236E43F4007323662368DA688C
:1030C00012F4406F28D1854A934200F00981DA68F2
:1030D00012F4005F20D11A6812F0080F1CD09A6811
:1030E00012F0040F10D15A6822F00C025A60236EBD
:1030F00023F480732366236E13F4805F0CD1236E58
:1031000043F00103236607E0236E43F010032366B8
:10311000636E43F001036366204614F053FB23689B
:103120000C221A6015F0200F02D016F0200F05D1E6
:1031300015F0400F48D016F0400F45D0236E13F025
:10314000100F03D1236E43F4005323662368DA6C17
:1031500002F4C072D86861498B4200F0AF80D96830
:1031600062BB11F0007F05D001F4005200F4406012
:10317000024323D11A6812F0400F1FD011F4001F30
:103180001CD19A6812F0080F10D15A6822F0600220
:103190005A60236E23F480532366236E13F4807FDA
:1031A0000CD1236E43F00103236607E0236E43F046
:1031B00010032366636E43F001036366204601F04B
:1031C000C3F8236860221A6015F0800F02D016F051
:1031D000800F20D115F4807F02D016F4807F25D196
:1031E00015F4007F02D016F4007F2BD115F0100FDC
:1031F00047D016F0100F44D0E36B002B33D0002FD4
:1032000046D02368324A934228D002F58072934216
:1032100024D0304B23E0236E43F4803323662046D2
:10322000FFF710FF236880221A60D3E7236E43F470
:1032300000332366204601F089F823684FF480723A
:103240001A60CDE7236E43F480232366204601F005
:103250007EF823684FF400721A60C7E71E4B9B6824
:1032600013F4404F0AD0236E43F480632366636EE9
:1032700043F0020363662046FFF7E5FE2368102251
:103280001A6015F4806F02D016F4806F06D1F8BD75
:103290002368DB6813F0030FF0D0E4E7236E43F4F8
:1032A00080432366636E43F00803636623684FF42C
:1032B00080621A60204601F048F8E8E7C121F94031
:1032C00011F0010F7FF44BAF0149C96848E700BF17
:1032D0000020024000630258002302400021024007
:1032E00040F22122FA4012F0010F7FF4F0AE014AC1
:1032F000D268EDE60020024008B50346806B026EFE
:1033000012F0500F30D1036E43F40073036603686C
:103310001A6812F0080F14D0DA6812F4406F20D146
:10332000DB6813F4005F1CD1036E23F48073036623
:10333000036E13F4805F14D1036E43F00103036640
:103340000FE0DB6813F0030F0BD1036E23F48073DF
:103350000366036E13F4805F03D1036E43F0010331
:10336000036614F02FFA08BD026E12F0100F04D19C
:10337000826DD26C18469047F5E7FFF764FEF2E7DE
:1033800008B5806B036E43F040030366436E43F061
:1033900004034366FFF757FE08BD000070B582B016
:1033A0000022019290F85C20012A00F0B2820346CC
:1033B000012280F85C200268906810F0040F09D0A8
:1033C0001A6E42F020021A660120002283F85C2067
:1033D00002B070BD0868A84CA2420BD0002809DBDF
:1033E000C0F31304002C4CD1800E01248440D0691A
:1033F0002043D06148684FEA901C0CF00C0C1A680E
:1034000002F1300E5EF80C4000F01F000A68C2F3B3
:10341000846282401F2505FA00F024EA000002437E
:103420004EF80C2018688468826802F0080204F0E4
:10343000040C52EA0C022DD01A68906810F0010FAB
:1034400040F05B820E68CC688B48824200F06E814F
:10345000D2F8C000C6F3130520EA050004F01805F1
:10346000864CEC4034402043C2F8C000C868844A0F
:10347000904200F06B810A68002AC0F2D6810020D9
:10348000A3E790FAA0F0B0FA80F000F01F0001244A
:103490008440ACE70C68E50D05F004051430425992
:1034A000C4F304540726A64022EA06028E68A6400A
:1034B000324342511A687048824211D07148006804
:1034C00000F07040B0F1805F46D0D06810F0100F6F
:1034D00074D1D068C0F3820040004C69844041E060
:1034E000C0680D69042D40F050826348046E046E7C
:1034F000C4F384640868C0F31305002D40F08C8089
:10350000C0F38462944200F0C1805B4A546E526EF4
:10351000424012F0F84F00F0E380186800F16805AF
:10352000826E846EC4F384640A68C2F38462A24229
:1035300000F0DC80186800F16C05C26EC46EC4F344
:1035400084640A68C2F38462A2427FF475AF2A6879
:1035500022F000422A606FE7D068C0F3820040008A
:103560004C6984400D69042D40F02082106E00F0FB
:10357000F8400C68B0EB846F00F0C9801868426EA8
:1035800002F0F8420C68B2EB846F00F0C580186856
:10359000826E02F0F8420C68B2EB846F00F0C180DA
:1035A0001868C26E02F0F8420C68B2EB846F7FF4C8
:1035B00043AFC26E22F00042C2663DE7D0684008C9
:1035C00000F008004C698440CCE70C69603050F88A
:1035D000242022F08072CD692A4340F824201A6802
:1035E0000D6991F820406038824207D0906810F051
:1035F000010F40F08C810E68CC6829E7603050F8EC
:103600002520012C14BF0024012422F0007242EA7C
:10361000446240F825200FE790FAA0F51DB1B5FAF5
:1036200085F5AC4232D0144C656E646EC4F384648C
:10363000154D90FAA0F018B1B0FA80F0A0423BD03E
:10364000186800F16805826E846EC4F384640A68A9
:1036500092FAA2F21AB1B2FA82F2A24246D01868E5
:1036600000F16C05C26EC46EC4F384640A6892FAF9
:10367000A2F2B2FA82F267E700600258FFFF0F0081
:103680000000FF470010005C64600258A248026E10
:1036900022F0004202661A6802F16405506E546E10
:1036A000C4F384640868C0F31306002EC1D1C0F3CC
:1036B000846084427FF431AF9748824211D02A68F7
:1036C00022F000422A60186800F16805826E846E5C
:1036D000C4F384640A68C2F31306002EB8D124E749
:1036E0008E4D2A6822F000422A60ECE72A6822F018
:1036F00000422A60186800F16C05C26EC46EC4F303
:1037000084640A68C2F31306002EB0D11AE7106E63
:1037100020F00040106631E7426E22F0004242661F
:1037200035E7826E22F00042826639E70546D0F81E
:10373000B020C6F3130022EA000204F0180478480F
:10374000E04030400243C5F8B0208FE61A68754863
:10375000824208D07448824238D06F48824200F0DA
:103760005981012464E10868704CA04200F057813F
:103770006F4CA04200F060816E4CA04200F05E8170
:103780006D4CA04200F05C8104F186641034A042CC
:1037900000F05881694CA04200F0568104F10424E5
:1037A00004F54014A04200F0518104F1866404F550
:1037B0000064A04200F04C81614CA04200F04A81BC
:1037C000604CA04200F04881012431E10868574C68
:1037D000A04200F04381564CA04200F04181554C7C
:1037E000A04200F03F81544CA04200F03D8104F122
:1037F00086641034A04200F03981504CA04200F0A1
:10380000378104F1042404F54014A04200F0328111
:1038100004F1866404F50064A04200F02D81494C57
:10382000A04200F02B81012402E119683D48814249
:1038300000F0988000F58070814200F0938042484B
:103840008468A0F54070806810F0010F40F0978008
:1038500004F0E0763C4D02E004F0E0763B4D3C485D
:1038600082420DD03B4882422DD03B4882424CD10F
:1038700014F4800F02D1284A914235D00020A4E5EB
:1038800014F4000F3BD1244A914201D000209CE562
:10389000AA6822F0E072324342F40002AA602F4A82
:1038A000126892092E49A1FB0212920901325200BC
:1038B0000192019A2AB3019A013A0192019A002ACF
:1038C000F9D1002081E514F0807F1CD1124A914289
:1038D00001D0002079E5AA6822F0E072324342F07C
:1038E0008072AA60002070E5AA6822F0E07232437C
:1038F00042F48002AA60002067E5002065E5002010
:1039000063E5002061E500205FE500205DE5002023
:103910005BE502205CE500BF00600258646002586D
:10392000FFFF0F000020024000210240020030048F
:10393000040060080800900C1000C0100004002A69
:10394000000021430000844B006302580023024022
:10395000000052C7000021C3000084CB04000024F3
:10396000632D3E0546488468A0F54070856800F5E3
:1039700080708068284310F0010F3FF46DAF1A6E1D
:1039800042F020021A6601201FE53E4C54F8252023
:10399000C0F3C10040004A698240086800F0F84066
:1039A000024342F0004244F825200BE0603252F816
:1039B0002560086800F0F84006F0004630432043D8
:1039C00042F825001A68304882423FF4FEAD0D6986
:1039D000603252F8250091F82140012C14BF0024D8
:1039E000012420F0004040EAC47042F825001D6820
:1039F00028690A7E012A14BF00220122D2020C6922
:103A000004F01F04A24020F4F04002432A6113E5B1
:103A1000196814E70A68002AFADB0020D5E40120BF
:103A200090FAA0F0B0FA80F000F01F00012484406A
:103A3000D0692043D0611EE51448F1E71448EFE750
:103A40001448EDE71448EBE71448E9E71448E7E7C2
:103A50001448E5E71448E3E71448E1E70120DFE70D
:103A60000A48DDE70A48DBE70A48D9E70A48D7E70A
:103A70000A48D5E70A48D3E70A48D1E70B48CFE719
:103A80000023024060600258006002584000201984
:103A90008000501D000180210002B0250008302E5A
:103AA0000010603200209036000052470000B84FEE
:103AB00070B50446036898689A6802F0080200F03E
:103AC0000400024365D0DA6812F0007F04D0208B36
:103AD00040F20112904223D002295CD09A6812F081
:103AE000040F09D09A6812F0020F05D19868394A7C
:103AF000024042F010029A6001292FD023689A6890
:103B000012F0080F51D103290CBF0C250425FFF733
:103B10006FFA064623689B681D4225D1002039E0D4
:103B20001A6812F0400F10D12B4A196811F0400F9B
:103B30000BD1013AF9D1236E43F010032366636E73
:103B400043F001036366012024E040221A602368E9
:103B50009A6812F0040F35D10425D8E70425D6E77A
:103B600023689B682B4212D0FFF742FA831B052B78
:103B7000F6D923689B682B42F2D0236E43F01003E2
:103B80002366636E43F001036366012002E00020B8
:103B900000E0002070BD9A6812F0080F03D09A6808
:103BA00012F0020F05D00825B1E79A6812F0020F53
:103BB000A9D19868074A024042F020029A6002297F
:103BC000A1D1F0E79A6812F0020F01D004259EE718
:103BD00001218BE7C0FFFF7F00DC0C0003689A68BF
:103BE00012F0010F57D170B5044699682C4A114262
:103BF00009D0036E43F010030366436E43F00103E4
:103C00004366012070BD9968264A0A4042F00102CD
:103C10009A60FFF7EDF905462368234A93420BD0DB
:103C200002F58072934207D0204A92681A6812F017
:103C3000010F32D11B4E0FE01D4A9168A2F50072B0
:103C40009342F3D111F01F0FF0D00020DAE7236880
:103C50001A6812F0010F1CD19A6812F0010F04D1FA
:103C60009A68324042F001029A60FFF7C1F9401BA6
:103C70000228ECD923681B6813F0010FE7D1236EEB
:103C800043F010032366636E43F001036366012073
:103C9000B8E70020B6E7002070470020B2E700BF79
:103CA0003F000080C0FFFF7F0020024000630258F9
:103CB00000230240F8B504460D4616460068444904
:103CC000884204D0434B984201D0434900E0434925
:103CD0008F68816811F0040F75D194F85C20012A77
:103CE00073D007F01F07012384F85C3040F22123D2
:103CF000FB4013F0010F04D1002384F85C30012055
:103D000062E02046FFF76AFF002858D1226EA0F635
:103D10000273134043F48073236622682D4B9A424A
:103D200038D0236E23F480132366236E13F4805F50
:103D300033D0636E23F006036366A36D284ADA630B
:103D4000A36D284A1A64A36D274ADA6423681C22EB
:103D50001A60002384F85C302268536843F0100333
:103D600053602268214B9A421AD0D36823F0030390
:103D7000216B0B43D360216833462A464031A06D46
:103D800001F010FB22689168194B0B4043F00403CB
:103D9000936019E0002FC8D1C3E700236366CCE726
:103DA0001A46DB6894F8381023F0030343EA410312
:103DB000D3602268D36843F00103D360DBE70023BC
:103DC00084F85C3000E00220F8BD0220FCE700BF70
:103DD00000200240002102400063025800230240FC
:103DE000F93200083B3000088133000800600258B7
:103DF000C0FFFF7F38B503689A68996812F0020F18
:103E000003D1044611F0010F01D1002038BD9A689A
:103E100002F00D02012A09D0036E43F0100303667D
:103E2000436E43F0010343660120EFE79968164AA9
:103E30000A4042F002029A60036803221A60FFF708
:103E4000D7F8054623689B6813F0010F06D10020C0
:103E5000DCE723689B6813F0010F13D0FFF7C8F865
:103E6000401B0228F5D923689B6813F0010FF0D09E
:103E7000236E43F010032366636E43F00103636611
:103E80000120C3E70020C1E7C0FFFF7F90F85C304E
:103E9000012B18D010B50446012380F85C300321B3
:103EA000FFF706FE18B1002384F85C3010BD2046F1
:103EB000FFF7A0FF0028F6D1226E044B134043F019
:103EC00001032366EFE70220704700BFFEEEFFFF0D
:103ED00010B504460368404A934220D002F5807230
:103EE00093421CD03D4B9B6813F4403F1CD005F01F
:103EF0008FFA6368B3F5003F05D0B3F5403F26D095
:103F0000B3F5803F02D11B0CB0FBF3F0344B984269
:103F10004ED82268936823F44073936010BD314BF0
:103F20009B6813F4403FE2D14FF40020002106F0DB
:103F3000D1FB6368B3F5101F36D022D8B3F5E01F6C
:103F400030D006D9B3F5001FE0D14009DEE7800884
:103F5000DCE7B3F5801F08D00CD8B3F5002F04D0F0
:103F600023F40022B2F5802FD0D19B0C5B00B0FB74
:103F7000F3F0CBE7B3F5A01FF7D0B3F5C01FF4D033
:103F8000C4E7B3F5201F11D0B3F5301FBED1164BD7
:103F90009842BED92268936823F4407343F4807337
:103FA0009360BBE70009B1E78009AFE7C009ADE75F
:103FB0000E4B9842EED90E4B984207D82268936870
:103FC00023F4407343F400739360A7E72268936877
:103FD00043F440739360A1E700200240006302585D
:103FE00021BCBE0000230240FF21BCBE41787D0100
:103FF00081F0FA0270B582B000230193002800F02E
:1040000033810446036E002B42D023689A6812F075
:10401000005F03D09968954A0A409A6023689A68BD
:1040200012F0805F16D19968914A0A4042F080529E
:104030009A60904B1B689B098F4AA2FB03239B0944
:1040400001330193019B2BB1019B013B0193019B28
:10405000002BF9D12268936813F0805F1FD1236E83
:1040600043F010032366636E43F00103636601258A
:104070009168236E03F0100301F004010B4310D08C
:10408000236E43F0100323660125284602B070BD5D
:10409000FDF7BCFC0023636684F85C30B5E70025BF
:1040A000E6E7236E23F4817343F0020323669368EB
:1040B00013F0010F12D1714B9A426BD003F580734C
:1040C0009A4267D06E4B9B6813F0010F06D16D4A80
:1040D000936823F47C1361680B4393602268684BF8
:1040E0009A4262D0E36BA1680B43617E43EA41339D
:1040F00094F8201043EA014394F8201001296CD071
:10410000A16A21B101F47871E06A01430B435C4973
:104110008A4267D0D0685C4901401943D160216868
:104120008A688B6803F0080302F00402134322D16B
:10413000534B994263D0237E226B42EA8332C86894
:10414000524B03401343CB6094F84430012B5DD0B5
:104150002268136923F0010313612268136923F0B5
:104160007043216C0B4313612268454B9A4202D085
:104170002046FFF7ADFE2369012B6CD02268136B3C
:1041800023F00F031363236E23F0030343F00103B3
:1041900023667AE7394B996803F580739B680B4374
:1041A00013F0010F9ED13A4A92E7E36BE1680B43AB
:1041B000617E43EA4133A168182906D01C290AD040
:1041C0000C2914BF00210121C90094F8200043EA02
:1041D00000430B4390E71021F7E7616A013943EA96
:1041E00041438DE7C8682B4A02401A43CA602268DF
:1041F000136923F04063616B0B4313618FE7237EE8
:1042000094F83820520042EA833298E722681C4B27
:104210009A4210D01069A36C591EE36C266D33438B
:1042200043EA0143616D0B431B4901400B4343F0DB
:104230000103136191E719461869A36C626D13437A
:10424000164A02401343E26C1343226D134343F0BA
:1042500001030B6181E721680A6BE369013B22F0EE
:104260000F0213430B638EE701250EE7C0FFFF5FCC
:10427000C0FFFF6F04000024632D3E0500200240B4
:10428000006002580063025803C0F0FFFCBFFFFF4C
:10429000002302400740F0FF1EF800FC1FF800FC5E
:1042A00070B582B00023019390F85C30012B42D0AE
:1042B00004460D461646012380F85C30FFF79AFD50
:1042C00000282FD1226E1D4B134043F002032366BA
:1042D000226891681A4B0B4006F08046334305F480
:1042E00080352B4343F00043936022689368002B92
:1042F00006DB236E23F0030343F00103236615E07E
:10430000019B0133019301990E4B9942EED3236E29
:1043100023F0120343F010032366002384F85C307B
:10432000012006E0236E43F010032366002384F887
:104330005C3002B070BD0220FBE700BFFDEEFFFF66
:10434000C0FFFE3F00F8C3257047704770477047B5
:104350007047000090F85C20012A6BD010B49DB02B
:104360000346012280F85C2000221892199200680E
:104370003C4A904260D01A6E42F020021A66002237
:1043800083F85C20012068E00A6852B336488268EE
:1043900022F440424C68224382601A68A0F54070C3
:1043A000824213D000F5807082420FD02F4A92686B
:1043B00012F0010F3AD12C4884680A6889680A43D0
:1043C0002B4921400A438260002043E0254A90683F
:1043D00002F580729268024312F0010FEBD00020C8
:1043E00038E021498A6822F440428A601A68A1F5BF
:1043F00040718A420FD001F580718A420BD01B4A6E
:10440000926812F0010F13D117498868184A0240C8
:104410008A6000201EE0134A916802F5807292685B
:104420000A4312F0010FEFD0002013E0002011E04A
:1044300000200FE0022070470E4A9068A2F58072BB
:104440009268024312F0040F9ED01A6E42F02002CE
:104450001A660120002283F85C201DB05DF8044B31
:10446000704700BF00200240002302400060025855
:10447000E0F0FFFF00210240064AD368000200F48A
:10448000E06023F4E0631B041B0C1843024B03435E
:10449000D360704700ED00E00000FA0500B5164B50
:1044A000DB68C3F30223C3F1070CBCF1040F28BF80
:1044B0004FF0040C03F1040EBEF1060F8CBF033B5A
:1044C00000234FF0FF3E0EFA0CFC21EA0C0199404C
:1044D0000EFA03FE22EA0E021143002805DB090151
:1044E000C9B2064B19545DF804FB00F00F00090136
:1044F000C9B2034B1954F6E700ED00E000E400E018
:1045000014ED00E0002807DB410900F01F00012343
:104510008340024A42F82130704700BF00E100E0CA
:1045200000280CDB430900F01F00012282402033E9
:10453000034941F82320BFF34F8FBFF36F8F7047BC
:1045400000E100E0BFF34F8F0549CA6802F4E06262
:10455000044B1343CB60BFF34F8F00BFFDE700BF99
:1045600000ED00E00400FA050138B0F1807F0BD2C5
:104570004FF0E0235861054AF02182F82310002013
:10458000986107221A6170470120704700ED00E032
:10459000BFF35F8F044B5A6A22F480325A620022C2
:1045A000C3F89420704700BF00ED00E040F0010028
:1045B000054BC3F894005A6A42F480325A62BFF342
:1045C0004F8FBFF36F8F704700ED00E04378144AC0
:1045D000C2F89830D2F8A03023F00103C2F8A0301E
:1045E0004368C2F89C30017BC37A1B0643EA01731F
:1045F00001780B43817A43EAC143417B43EA81431B
:10460000817B43EA4143C17B43EA0143417A43EA68
:104610000123017A43EA4103C2F8A030704700BF8A
:1046200000ED00E070B110B50446037933B1022308
:104630002371002020610123237110BD4371FDF718
:10464000B1FAF4E701207047704770B5044603687B
:104650001D685E6B15F4005F02D016F4005F06D192
:1046600015F0005F02D016F0005F11D170BD04227A
:104670000271026942F0010202614FF400525A6372
:104680000268136823F480531360FFF7DDFFE7E748
:1046900004232371236943F00203236123684FF04D
:1046A00000525A632268136823F080531360204637
:1046B00000F0C8F8DAE70000002800F0BE802DE91D
:1046C000F0410D4616460446002900F0B2804379B9
:1046D000012B00F0B08001234371022303710B68AA
:1046E000042B3ED02B69012B00F092802068C16B17
:1046F00006F010020723934021EA0301EB68012B27
:1047000000F09380022B00F09280AE68B6FA86F635
:1047100076092B68AF683B43334393400B43C36335
:10472000206803684FF48041914023EA010303604D
:104730002068016840F6FE73934021EA03016B682C
:1047400093400B43036020680368C02101FA02F222
:1047500023EA020303600123237100206071BDE896
:10476000F081FEF745FC074636B123685A6B002AF4
:104770003EDBAA695A641FE02368596B304A0A403D
:10478000C2B1DFF8BC8004E023685A6B12EA080F5C
:1047900010D0FEF72DFCC01B0128F5D923685B6BF8
:1047A00013EA080FF0D0236943F0080323610320C4
:1047B0002071D4E7AA691A642068836C06F010029D
:1047C00040F2FF31914023EA0103E96991400B4334
:1047D00083642068C36CFF21914023EA0103296AA6
:1047E00091400B43C3647DE723685A6B002AC0DA0B
:1047F000FEF7FEFBC01B0128F6D923685B6B002B7C
:10480000F2DA236943F00803236103202071A6E74D
:1048100021688A6B06F010001F23834022EA0302FE
:104820006B69834013438B6360E7002671E70126C1
:104830006FE7012093E7022091E70120704700BF56
:104840000080002070470000F0B4866D0568914C30
:10485000914FBD4218BFA5420CBF01240024183758
:10486000BD4208BF44F001041837BD4208BF44F000
:1048700001041837BD4208BF44F001041837BD4297
:1048800008BF44F001041837BD4208BF44F00104DA
:104890001837BD4208BF44F0010407F55677BD4202
:1048A00008BF44F001041837BD4208BF44F00104BA
:1048B0001837BD4208BF44F001041837BD4208BF95
:1048C00044F001041837BD4208BF44F00104183712
:1048D000BD4208BF44F001041837BD4208BF44F090
:1048E00001041837BD4208BF44F001046B4FBD42BC
:1048F00008BF44F001041437BD4208BF44F001046E
:104900001437BD4208BF44F001041437BD4208BF4C
:1049100044F001041437BD4208BF44F001041437C9
:10492000BD4208BF44F001041437BD4208BF44F043
:10493000010414B95A4CA54207D1446E856E6560D6
:10494000C46E14B1046F456F65600568514C524FD9
:10495000BD4218BFA5420CBF012400241837BD4238
:1049600008BF44F001041837BD4208BF44F00104F9
:104970001837BD4208BF44F001041837BD4208BFD4
:1049800044F001041837BD4208BF44F00104183751
:10499000BD4208BF44F0010407F55677BD4208BF89
:1049A00044F001041837BD4208BF44F00104183731
:1049B000BD4208BF44F001041837BD4208BF44F0AF
:1049C00001041837BD4208BF44F001041837BD4246
:1049D00008BF44F001041837BD4208BF44F0010489
:1049E00014B9304CA54215D1C46D04F01F053F2405
:1049F000AC40B46005682C6824F480242C60046802
:104A000063608368402B3AD0036899600368DA607A
:104A1000F0BC7047214C244FBD4218BFA5420CBFCB
:104A2000012400241437BD4208BF44F001041437A8
:104A3000BD4208BF44F001041437BD4208BF44F032
:104A400001041437BD4208BF44F001041437BD42CD
:104A500008BF44F0010414B9114CA542D8D1C46D6B
:104A600004F01F050124AC4074600468636083682F
:104A7000402B09D0036899600368DA60C8E70368CF
:104A80009A600368D960C3E703689A600368D960D5
:104A9000BEE700BF10000240280002400854025840
:104AA00094540258B80402401C540258014602684B
:104AB000344B3548824218BF9A420CBF0123002371
:104AC0001830824208BF43F001031830824208BF09
:104AD00043F001031830824208BF43F0010318304D
:104AE000824208BF43F001031830824208BF43F0FE
:104AF00001031830824208BF43F0010300F55670ED
:104B0000824208BF43F001031830824208BF43F0DD
:104B100001031830824208BF43F00103183082427B
:104B200008BF43F001031830824208BF43F001037D
:104B30001830824208BF43F001031830824208BF98
:104B400043F0010313B9114B9A4213D110B4D0B200
:104B500010380F4BA3FB0043C3F302130D4CE35C6F
:104B6000CB655F280AD96FF30902101D88655DF8CF
:104B7000044B704722F0FF008865704706481040DC
:104B8000F4E700BF1000024028000240B8040240D1
:104B9000ABAAAAAAC01C020800FCFFFF0368264AB1
:104BA00026498B4218BF93420CBF012200221431C8
:104BB0008B4208BF42F0010214318B4208BF42F021
:104BC000010214318B4208BF42F0010214318B42C2
:104BD00008BF42F0010214318B4208BF42F00102CB
:104BE00012B9174A934212D1DBB2083B154AA2FB15
:104BF0000323154A02EB13129200C3F3041301219D
:104C000001FA03F311490266416683667047D9B21F
:104C100010390F4AA2FB012109090E4A1A44A82A99
:104C200008D90D4A0A44920001F01F0101238B406C
:104C30000A49E8E70831F4E7085402581C540258BE
:104C400094540258CDCCCCCC009600168058025813
:104C5000ABAAAAAAF0FBFDBF0082001080080240A8
:104C600090F804C00CF1FF31072937D810B402685E
:104C70001B4B1C4CA24218BF9A420CBF01230023BD
:104C80001434A24208BF43F001031434A24208BF07
:104C900043F001031434A24208BF43F0010314346B
:104CA000A24208BF43F001031434A24208BF43F0FC
:104CB000010313B90C4B9A420BD10C4B63449B007C
:104CC0000B4AC366026701238B4043675DF8044BC0
:104CD0007047084B63449B00074AF2E7704700BFE8
:104CE000085402581C540258945402583F96001617
:104CF000405902583F8200104009024038B504462E
:104D0000FEF776F9002C00F00A8205462268624B15
:104D100062498A4218BF9A420CBF0123002318310E
:104D20008A4208BF43F0010318318A4208BF43F0AA
:104D3000010318318A4208BF43F0010318318A4247
:104D400008BF43F0010318318A4208BF43F0010352
:104D500018318A4208BF43F0010301F556718A42B7
:104D600008BF43F0010318318A4208BF43F0010332
:104D700018318A4208BF43F0010318318A4208BF44
:104D800043F0010318318A4208BF43F00103183190
:104D90008A4208BF43F0010318318A4208BF43F03A
:104DA000010313B93E4B9A421AD1022384F83530DD
:104DB000002384F83430136823F001031360236860
:104DC0001A6812F0010F77D0FEF712F9431B052B7A
:104DD000F5D920236365032384F83530012038BDDD
:104DE000304B31498A4218BF9A420CBF012300233D
:104DF00014318A4208BF43F0010314318A4208BFCC
:104E000043F0010314318A4208BF43F00103143117
:104E10008A4208BF43F0010314318A4208BF43F0BD
:104E200001031BB9214B9A4240F06381022384F8AD
:104E30003530002384F8343010686FF31010A36805
:104E4000402B00F05D81802B14BF002301239B03C6
:104E5000E1682569294365692943A5692943E5690D
:104E60002943256A40EA151040EAD1010B4313603B
:104E700022680F4B13440F4AA2FB03231B099B001C
:104E8000E3652046FFF712FEE26D02F01F010122EA
:104E90008A40426057E000BF1000024028000240F4
:104EA000B8040240085402581C5402589454025842
:104EB000F8ABFDA7CDCCCCCC1A689A491140A268BA
:104EC000E06802432069024360690243A06902432B
:104ED000E0690243206A02430A43616A042900F040
:104EE000C3806168522900F2C9803E2940F2C18026
:104EF0003F398D4820FA01F111F0010F01D042F441
:104F000080121A6021684A6922F00702636A1A4314
:104F1000042B0ED1A06A0243E36A53B1A569002DA8
:104F200040F0C280012800F0B98030F0020000F0AB
:104F3000AA804A612046FFF7B9FDE36D03F01F0226
:104F40003F23934083602268784B79498A4218BF97
:104F50009A420CBF0123002318318A4208BF43F054
:104F6000010318318A4208BF43F0010318318A4215
:104F700008BF43F0010318318A4208BF43F0010320
:104F800018318A4208BF43F0010318318A4208BF32
:104F900043F0010301F556718A4208BF43F0010353
:104FA00018318A4208BF43F0010318318A4208BF12
:104FB00043F0010318318A4208BF43F0010318315E
:104FC0008A4208BF43F0010318318A4208BF43F008
:104FD000010318318A4208BF43F0010318318A42A5
:104FE00008BF43F0010353498A4208BF43F001035D
:104FF00014318A4208BF43F0010314318A4208BFCA
:1050000043F0010314318A4208BF43F00103143115
:105010008A4208BF43F0010314318A4208BF43F0BB
:10502000010314318A4208BF43F0010313B9424B14
:105030009A4213D12046FFF7B1FDA368802B61D0BF
:10504000236E22791A60636EA26E5A606368013B18
:10505000072B5AD90023E366236763670020606546
:10506000012384F83530BAE6E16A206B01430A4334
:1050700037E7293905293FF644AF40E7743903295A
:105080003FF63FAF3BE7C3F30063002B3FF451AF64
:1050900040236365012084F83500A0E6B3F1C07FAA
:1050A00014BF00230123F0E7B5F5005F0AD0022802
:1050B000EED903287FF43DAFC3F30063002B3FF428
:1050C00038AFE5E703283FF634AF01A555F820F0E7
:1050D00091500008E150000891500008E750000886
:1050E000C3F30063EAE7B3F1C07F14BF00230123D9
:1050F000E4E740236365032384F8353001206EE63E
:105100001023A5E6002363609AE72046FFF7A8FD79
:10511000E36E00221A60236F626F5A609EE70120DF
:105120005DE600BF3F8010FE0F030F00100002403D
:10513000280002400854025894540258002800F0F5
:10514000238110B504460268904B91498A4218BFEA
:105150009A420CBF0123002318318A4208BF43F052
:10516000010318318A4208BF43F0010318318A4213
:1051700008BF43F0010318318A4208BF43F001031E
:1051800018318A4208BF43F0010318318A4208BF30
:1051900043F0010301F556718A4208BF43F0010351
:1051A00018318A4208BF43F0010318318A4208BF10
:1051B00043F0010318318A4208BF43F0010318315C
:1051C0008A4208BF43F0010318318A4208BF43F006
:1051D000010318318A4208BF43F001031BB96D4B2C
:1051E0009A4240F08780136823F00103136022681D
:1051F000664B67498A4218BF9A420CBF01230023BD
:1052000018318A4208BF43F0010318318A4208BFAF
:1052100043F0010318318A4208BF43F001031831FB
:105220008A4208BF43F0010318318A4208BF43F0A5
:10523000010318318A4208BF43F0010301F556719A
:105240008A4208BF43F0010318318A4208BF43F085
:10525000010318318A4208BF43F0010318318A4222
:1052600008BF43F0010318318A4208BF43F001032D
:1052700018318A4208BF43F0010318318A4208BF3F
:1052800043F0010313B9434B9A4238D10023136012
:1052900022685360226893602268D3602268136199
:1052A000236821225A612046FFF700FCE36D03F0DA
:1052B0001F023F23934083602046FFF76FFC236E5D
:1052C00023B100221A60636EA26E5A606368013BCC
:1052D000072B4FD90020E06620676067E0632064F9
:1052E0006064A064E0642065606584F8350084F83B
:1052F000340010BD136823F00103136077E7264BD9
:1053000026498A4218BF9A420CBF01230023143158
:105310008A4208BF43F0010314318A4208BF43F0B8
:10532000010314318A4208BF43F0010314318A4259
:1053300008BF43F0010314318A4208BF43F0010360
:1053400013B9174B9A4213D100231360226853609C
:10535000226893602268D360226813612046FFF7B9
:10536000A5FBE36D03F01F02012393404360A3E715
:105370000120BEE72046FFF773FCE36E00221A60AF
:10538000236F626F5A60A5E701207047100002404A
:1053900028000240B8040240085402581C54025825
:1053A00094540258002800F0D28170B5044690F859
:1053B0003400012800F0CD81012084F8340094F8F5
:1053C0003500C0B2012807D04FF4006363650023A5
:1053D00084F83430012070BD022084F835000020AC
:1053E000606525689548964EB54218BF85420CBF4A
:1053F000012000201836B54208BF40F001001836E1
:10540000B54208BF40F001001836B54208BF40F071
:1054100001001836B54208BF40F001001836B54209
:1054200008BF40F001001836B54208BF40F0010047
:1054300006F55676B54208BF40F001001836B54271
:1054400008BF40F001001836B54208BF40F0010027
:105450001836B54208BF40F001001836B54208BF03
:1054600040F001001836B54208BF40F00100183680
:10547000B54208BF40F0010018B97248854240F0BB
:105480004B81286820F0010028602046FFF7DCF9F6
:1054900022686A4B6A498A4218BF9A420CBF0123AC
:1054A000002318318A4208BF43F0010318318A42B1
:1054B00008BF43F0010318318A4208BF43F00103DB
:1054C00018318A4208BF43F0010318318A4208BFED
:1054D00043F0010318318A4208BF43F0010301F58C
:1054E00056718A4208BF43F0010318318A4208BF4F
:1054F00043F0010318318A4208BF43F00103183119
:105500008A4208BF43F0010318318A4208BF43F0C2
:10551000010318318A4208BF43F0010318318A425F
:1055200008BF43F001031BB9464B9A4240F0F98093
:10553000136823F01E0343F016031360236C23B19A
:105540002268136843F00803136022683B4B3C4910
:105550008A4218BF9A420CBF0123002318318A42A5
:1055600008BF43F0010318318A4208BF43F001032A
:1055700018318A4208BF43F0010318318A4208BF3C
:1055800043F0010318318A4208BF43F00103183188
:105590008A4208BF43F0010301F556718A4208BFF1
:1055A00043F0010318318A4208BF43F00103183168
:1055B0008A4208BF43F0010318318A4208BF43F012
:1055C000010318318A4208BF43F0010318318A42AF
:1055D00008BF43F0010318318A4208BF43F00103BA
:1055E00018318A4208BF43F0010317498A4208BFB5
:1055F00043F0010314318A4208BF43F00103143120
:105600008A4208BF43F0010314318A4208BF43F0C5
:10561000010314318A4208BF43F0010314318A4266
:1056200008BF43F0010314318A4208BF43F001036D
:1056300073B9064B9A421AD10AE000BF100002402B
:1056400028000240B80402400854025894540258FA
:10565000236E1A6812F4803F03D01A6842F48072F5
:105660001A60E36E1BB11A6842F480721A602268F5
:10567000394B3A498A4218BF9A420CBF0123002392
:1056800018318A4208BF43F0010318318A4208BF2B
:1056900043F0010318318A4208BF43F00103183177
:1056A0008A4208BF43F0010318318A4208BF43F021
:1056B000010318318A4208BF43F0010301F5567116
:1056C0008A4208BF43F0010318318A4208BF43F001
:1056D000010318318A4208BF43F0010318318A429E
:1056E00008BF43F0010318318A4208BF43F00103A9
:1056F00018318A4208BF43F0010318318A4208BFBB
:1057000043F0010313B9164B9A421AD1136843F0C0
:105710000103136000205EE6286820F00100286085
:10572000B3E6136823F00E0343F00A031360236CFF
:10573000002B3FF40AAF2268136843F004031360A0
:1057400003E7136843F001031360002043E60120E0
:10575000704702203FE600BF1000024028000240D0
:10576000B804024070B50446FDF742FC002C00F07E
:105770004882054694F83530DBB2022B06D08023F0
:105780006365002384F83430012070BD2268924B99
:1057900092498A4218BF9A420CBF01230023183154
:1057A0008A4208BF43F0010318318A4208BF43F020
:1057B000010318318A4208BF43F0010318318A42BD
:1057C00008BF43F0010318318A4208BF43F00103C8
:1057D00018318A4208BF43F0010301F556718A422D
:1057E00008BF43F0010318318A4208BF43F00103A8
:1057F00018318A4208BF43F0010318318A4208BFBA
:1058000043F0010318318A4208BF43F00103183105
:105810008A4208BF43F0010318318A4208BF43F0AF
:1058200001031BB96E4B9A4240F0F780136823F0D6
:105830001E0313602268536923F0800353612668B6
:105840002268654B65498A4218BF9A420CBF012302
:10585000002318318A4208BF43F0010318318A42FD
:1058600008BF43F0010318318A4208BF43F0010327
:1058700018318A4208BF43F0010318318A4208BF39
:1058800043F0010318318A4208BF43F0010301F5D8
:1058900056718A4208BF43F0010318318A4208BF9B
:1058A00043F0010318318A4208BF43F00103183165
:1058B0008A4208BF43F0010318318A4208BF43F00F
:1058C000010318318A4208BF43F0010318318A42AC
:1058D00008BF43F0010318318A4208BF43F00103B7
:1058E00040498A4208BF43F0010314318A4208BF8D
:1058F00043F0010314318A4208BF43F0010314311D
:105900008A4208BF43F0010314318A4208BF43F0C2
:10591000010314318A4208BF43F0010314318A4263
:1059200008BF43F0010313B92F4B9A4204D1226EF2
:10593000136823F4807313602268274B27498A4237
:1059400018BF9A420CBF0123002318318A4208BFB6
:1059500043F0010318318A4208BF43F001031831B4
:105960008A4208BF43F0010318318A4208BF43F05E
:10597000010318318A4208BF43F0010318318A42FB
:1059800008BF43F0010301F556718A4208BF43F096
:10599000010318318A4208BF43F0010318318A42DB
:1059A00008BF43F0010318318A4208BF43F00103E6
:1059B00018318A4208BF43F0010318318A4208BFF8
:1059C00043F0010318318A4208BF43F001036BB969
:1059D000034B9A4227D109E0100002402800024000
:1059E000B80402400854025894540258136823F033
:1059F00001031360336813F0010F19D0FDF7F8FAB3
:105A0000401B0528F6D920236365032384F835302D
:105A1000002384F834300120B7E6136823F00E0326
:105A2000136026680CE7136823F001031360E1E7B5
:105A30002268754B75498A4218BF9A420CBF0123F0
:105A4000002318318A4208BF43F0010318318A420B
:105A500008BF43F0010318318A4208BF43F0010335
:105A600018318A4208BF43F0010318318A4208BF47
:105A700043F0010318318A4208BF43F0010301F5E6
:105A800056718A4208BF43F0010318318A4208BFA9
:105A900043F0010318318A4208BF43F00103183173
:105AA0008A4208BF43F0010318318A4208BF43F01D
:105AB000010318318A4208BF43F0010318318A42BA
:105AC00008BF43F001031BB9514B9A4240F091804B
:105AD000A16DE36D03F01F023F2393408B602268AA
