:020000040800F2
:1000000000000524DD2D0008192A00081B2A00081D
:100010001D2A00081F2A0008212A000800000000ED
:10002000000000000000000000000000232A00087B
:10003000252A000800000000272A0008292A0008B5
:10004000312E0008312E0008312E0008312E000814
:10005000312E0008312E0008312E0008312E000804
:10006000312E0008312E0008312E0008312A0008F8
:10007000412A0008512A0008612A0008712A000854
:10008000812A0008312E0008912A0008312E00082C
:10009000312E0008312E0008312E0008312E0008C4
:1000A000312E0008312E0008312E0008312E0008B4
:1000B000312E0008312E0008A12A0008B12A0008BC
:1000C000C12A0008D12A0008E12A0008312E0008C0
:1000D000312E0008F12A0008312E0008012B0008FB
:1000E000312E0008312E000800000000312E0008DB
:1000F000312E0008312E0008312E0008312E000864
:10010000312E0008312E0008312E0008312E000853
:10011000112B0008212B0008312B0008412B00086F
:10012000312E0008512B0008612B0008712B0008AC
:10013000812B0008312E0008312E0008312E0008D6
:1001400000000000000000000000000000000000AF
:10015000912B0008A12B0008B12B0008312E0008BC
:10016000312E0008312E0008312E0008312E0008F3
:10017000312E0008312E0008312E0008000000004A
:10018000312E0008312E0008312E0008C12B000846
:10019000312E0008312E0008312E0008D12B000826
:1001A000312E0008312E0008312E0008000000001A
:1001B000312E0008312E0008312E0008E92B0008EE
:1001C000F92B0008312E000800000000000000009C
:1001D0000000000000000000312E000800000000B8
:1001E000000000000000000000000000000000000F
:1001F0000000000000000000312E0008312E000831
:10020000312E0008312E000800000000312E0008B9
:10021000312E0008312E0008312E0008312E000842
:10022000312E000800000000312E00080000000000
:10023000092C0008312E000800000000192C0008CD
:10024000312E0008292C0008392C0008312E000816
:10025000312E0008312E0008312E0008312E000802
:10026000312E0008312E0008312E0008312E0008F2
:10027000312E0008312E0008312E00080000000049
:10028000312E0008312E0008312E0008312E0008D2
:1002900000000000312E0008312E00080000000090
:1002A00000000000312E0008312E0008312E000819
:1002B000312E0008492C0008312E0008312E00088C
:0C02C000312E0008312E0008312E0008FD
:1002D00010B5054C237833B9044B13B10448AFF380
:1002E00000800123237010BDC00300240000000023
:1002F00000F0010808B5034B1BB103490348AFF3F5
:10030000008008BD00000000C403002400F00108C4
:1003100001F0FF01102A2BDB10F0070F08D010F8B6
:10032000013B013A8B422DD010F0070F42B3F6D1BA
:10033000F0B441EA012141EA014122F007047FF0D3
:1003400000070023F0E80256083C85EA010586EA2A
:10035000010685FA47F5A3FA87F586FA47F6A5FA66
:1003600087F68EB9EED1F0BC01F0FF0102F0070272
:1003700032B110F8013B013A83EA010313B1F8D11D
:100380000020704701387047002D06BF35460338FE
:10039000073815F0010F07D1013015F4807F02BF37
:1003A000013015F4C03F0130F0BC0138704700BF88
:1003B000034613F8012B002AFBD1181A01387047A5
:1003C00053B94AB9002908BF00281CBF4FF0FF31BC
:1003D0004FF0FF3000F088B9ADF1080C6DE904CEA4
:1003E00000F006F8DDF804E0DDE9022304B0704710
:1003F0002DE9F047089D8E4604468846002B4AD1D9
:100400008A42174662D9B2FA82F64EB1C6F120038B
:1004100001FA06F820FA03F3B74043EA0808B440AB
:100420004FEA174E1FFA87FCB8FBFEF1230C0EFBB8
:10043000118843EA084301FB0CF29A4209D9FB18E0
:1004400001F1FF3080F0EA809A4240F2E780023901
:100450003B449A1AA3B2B2FBFEF00EFB102243EA11
:10046000024300FB0CFC9C4509D9FB1800F1FF324C
:1004700080F0D6809C4540F2D3803B44023840EA6D
:100480000140A3EB0C0300211DB1F3400022C5E99C
:100490000032BDE8F0878B4205D90DB1C5E90001F6
:1004A00000210846F5E7B3FA83F1002946D17345E8
:1004B00002D3824200F20581841A6EEB030201200E
:1004C0009046002DE5D0C5E90048E2E7002A00F09B
:1004D0009080B2FA82F6002E40F0A4808A1A030CB3
:1004E0004FEA174E80B2BCB20121B2FBFEFC0EFBFC
:1004F0001C2243EA024304FB0CF29A4207D9FB1880
:100500000CF1FF3802D29A4200F2E080C4469B1AF6
:10051000B3FBFEF20EFB123340EA034302FB04F48A
:100520009C4207D9FB1802F1FF3002D29C4200F234
:10053000CA8002461B1B42EA0C40A5E7C1F1200617
:100540008B4022FA06F71F430EFA01F420FA06F355
:100550002EFA06FE4FEA1749234300FA01F81FFA64
:1005600087FCBEFBF9F01C0C09FB10EE44EA0E44BC
:1005700000FB0CFEA64502FA01F209D93C1900F174
:10058000FF3A80F09C80A64540F2998002383C44B6
:10059000A4EB0E041FFA83FEB4FBF9F309FB13442A
:1005A0004EEA044403FB0CFCA44508D93C1903F1B2
:1005B000FF3E80F08280A4457FD9023B3C4443EA61
:1005C0000040A4EB0C04A0FB02EC64457346E1463A
:1005D00062D35FD05DB1B8EB030264EB090404FAA7
:1005E00006F622FA01F31E43CC40C5E9006400215F
:1005F0004FE7B1FBF2FC010C41EA0E4180B240EA48
:1006000001423B4638463C46B846BE462026B1FB32
:10061000F7F1A2EB080241EA0C4166E7014618E750
:1006200010462CE7C6F120022EFA02F3B740B14083
:1006300020FA02F24FEA174E0A43B3FBFEF8BCB2AF
:100640000EFB1833110C41EA034108FB04F9B040DA
:1006500089454FEA104380B23ED9791808F1FF3C32
:1006600001D289451FD8A1EB0901B1FBFEF909FBB5
:1006700004F80EFB191192B242EA0142424529D216
:10068000BA1809F1FF31C4D24245C2D2A9F1020120
:100690003A44BEE7F0459DD2BEEB02036CEB070C7B
:1006A0000138E14696E7A7EB09094944A8F1020C95
:1006B000B1FBFEF909FB04F8DBE773467FE7504620
:1006C00066E70846FDE63B44023A33E7ACF1020C2C
:1006D0003B441CE749469CE7A1EB0901C446B1FB3A
:1006E000FEF909FB04F8C4E7704700BF90281ED04C
:1006F0000B781B021D4A138049780B4313801C4A58
:10070000012111701B4A12881B4921F812301B4B22
:100710001B88072B02D8013318490B80013202F0E5
:100720000702144B1A80164B00221A6070470B7890
:100730001B02144A138049780B431380124A01218B
:100740001170124A1288124921F81230114B1B887D
:10075000072B02D801330F490B80013202F0070248
:100760000A4B1A800C4B00221A6070473A0400248E
:100770003804002434040024140400240E0400244B
:10078000040400243C04002439040024360400241A
:1007900024040024100400240804002490280CBF22
:1007A000024B034B00221A60704700BF080400246C
:1007B0000404002470B504460D46164690280CD05B
:1007C0000A4B01221A6017F01FF8094B18603246D5
:1007D0002946204616F0C6FB70BD064B01221A6062
:1007E00017F012F8044B1860F1E700BF040400246E
:1007F000FC0300240804002400040024014B002210
:100800001A7070470C04002407EE900AF8EEE77A9D
:100810009FED177A67EE877A9FED167A67EE877AF3
:10082000B7EEE70A9FED106BB4EEC60BF1EE10FACF
:1008300015D99FED117AF4EEC77AF1EE10FA02DBCA
:100840009FED0E0A704708B5B0EE041B1DF0E0FFE7
:10085000B3EE097B20EE070BB7EEC00B08BD9FED92
:10086000070A7047AFF300807B14AE47E17A843FFC
:100870006F12834000000038333353400000000003
:10088000494B1B78042B00D0704710B516F0BCFF05
:10089000464B1A68464B19681AF088F9E8B116F009
:1008A000B3FF434B1860434B1B884BB90222002116
:1008B0009020FFF77FFF012869D13E4B01221A806B
:1008C000022200219220FFF775FF012863D1394BE6
:1008D00000221A80354B64221A60374B1B784BB3C9
:1008E000354B00221A70354B1C88002C57D0344AE7
:1008F00002EB4400002332F8021F0B448242FAD17B
:10090000B3FBF4F39CB22046FFF77EFF2D4B83ED43
:10091000000A2D4B1C8007EE904AF8EEE77A9FED17
:100920002B7A67EE877A9FED2A7A67EE877A294BD2
:10093000C3ED007A284B1B7843B3274B00221A7073
:10094000264B1C886CB3264A02EB4400002332F885
:10095000021F0B449042FAD1B3FBF4F39CB2204641
:10096000FFF752FF1F4B83ED000A1F4B1C8007EE61
:10097000904AF8EEE77A9FED157A67EE877A9FED59
:10098000147A67EE877A194BC3ED007A10BD074BD6
:100990000A221A60FAE7054B0A221A60F6E70023DA
:1009A000AEE70023D8E700BF0C040024E0030024D6
:1009B000E4030024DC030024390400241004002490
:1009C00022040024F8030024EA0300246F12834069
:1009D00000000038F0030024380400240E04002432
:1009E00012040024F4030024E8030024EC03002490
:1009F000014B93ED000A7047F8030024014B93ED7F
:100A0000000A7047F403002490280CBF024B034BEC
:100A100004221A70704700BF4E0400244D040024C5
:100A2000902813D00B781B02124A138049780B438D
:100A3000138007EE103ABAEEEC7BB7EEC77B0E4B95
:100A400083ED007A0D4B04221A7070470B781B025D
:100A50000B4A138049780B43138007EE103ABAEE25
:100A6000EC7BB7EEC77B074B83ED007A064B042285
:100A70001A707047620400245C0400244D040024B2
:100A800060040024580400244E040024F8B50446F1
:100A90000D4616461F4690280DD016F0B5FE0A4B9F
:100AA00018600A4B02221A703B46324629462046FD
:100AB00016F0A8F9F8BD16F0A7FE054B1860054B17
:100AC00002221A70F0E700BF500400244D040024F5
:100AD000540400244E04002470B504460D46164606
:100AE00090280CD016F090FE094B1860094B02229A
:100AF0001A7032462946204616F0C0F970BD16F02D
:100B000083FE054B1860054B02221A70F1E700BF07
:100B1000500400244D040024540400244E040024F6
:100B20000023034A1370034A1370034A137070477B
:100B30004C0400244E0400244D040024244B1B7854
:100B4000002B42D100B583B040238DF80430A023A0
:100B50008DF805301F4B1B6813F0010F03D11E4B9E
:100B60001B78022B11D11B4B1B6813F0020F03D112
:100B70001A4B1B78022B16D1164B1B68032B20D067
:100B8000134B187803B05DF804FB022301AA01217E
:100B90009020FFF77BFF0128E5D10E4A136843F050
:100BA00001031360DFE7022301AA01219220FFF76E
:100BB0006DFF0128E0D1074A136843F00203136078
:100BC000DAE7034B04221A70DAE7014B1878704712
:100BD0004C040024480400244E0400244D04002446
:100BE00008B516F011FE254B1A68254B196819F047
:100BF000DDFFC0B1234B1B88B3B1224B1B8813F020
:100C0000010F03D1204B1B78022B15D11D4B1B88E4
:100C100013F0020F03D11D4B1B78022B19D1194B76
:100C20001B88032B22D008BD16F0EEFD144B186074
:100C3000124B00221A60E0E7022200219020FFF709
:100C40004BFF0128E2D10F4A138843F001031380C0
:100C5000DCE7022200219220FFF73EFF0128DED1CF
:100C6000084A138843F002031380D8E7054B00229B
:100C70001A80024B64221A60D5E700BF40040024AA
:100C8000440400243E0400244E0400244D040024A7
:100C9000014B93ED000A704758040024014B93ED7B
:100CA000000A70475C04002400B59DB04C2200216E
:100CB00009A81BF015FF2022002101A81BF010FF3E
:100CC000022007F0B9FD00230093224B9A6942F4F9
:100CD00040429A619B6903F440430093009B1D4A84
:100CE000936913F4005FFBD0092309934FF4803319
:100CF0000A9301220E9202231293139314926022FC
:100D0000159216937D22179218930C2319930023A2
:100D10001A931B9309A807F0B7FDB0B93F230193BD
:100D20000323029300230393082304934023059392
:100D300006934FF4806207920893022101A808F0FD
:100D400091F920B91DB05DF804FB72B6FEE772B6EA
:100D5000FEE700BF0048025800B5AFB0982200215E
:100D600008A81BF0BDFE4FF410220023CDE900239C
:100D70000123029318220392022204920592069301
:100D8000C02307934FF480331493684608F008FC9F
:100D900010B92FB05DF804FB72B6FEE72DE980486C
:100DA0009BB00024119412941394149403F072FBDA
:100DB00001238DF844308DF8454012941F228DF8A0
:100DC0004C2087228DF84D208DF84E408DF84F40F5
:100DD0008DF850308DF851308DF852408DF85340D9
:100DE00011A803F075FB042003F062FB02F048F841
:100DF000CF4B5B6913F4803F28D1CD4BC3F88440BF
:100E0000BFF34F8FD3F88030C3F3C906C3F34E331B
:100E10005C0143F6E075C64804EA0501334641EA41
:100E20008372C0F86022013BB3F1FF3FF7D1203C51
:100E300014F1200FF0D1BFF34F8FBD4A536943F433
:100E400080335361BFF34F8FBFF36F8FB84B5B6934
:100E500013F4003F13D1BFF34F8FBFF36F8FB44B29
:100E60000022C3F85022BFF34F8FBFF36F8F5A6930
:100E700042F400325A61BFF34F8FBFF36F8F0023EC
:100E80001193129313931493BFF34F8FA94BA84957
:100E9000A94AC1F8683220339342FAD1BFF34F8F89
:100EA000BFF36F8F03F0F6FA01268DF84460A14B73
:100EB00012934FF00D0A8DF84CA08DF84560002478
:100EC0008DF84E4003278DF84F708DF853408DF804
:100ED00052408DF851408DF84D408DF8504011A88A
:100EE00003F0F6FA042003F0E3FAFFF7DDFEFFF764
:100EF00033FF16F095FC16F0B3FA16F0F3FA16F07D
:100F00001DFB16F04BFB16F08FFB16F0BDFB11948A
:100F10001294139414941594884DD5F8E03043F04E
:100F20001003C5F8E030D5F8E03003F01003049367
:100F3000049BD5F8E03043F00403C5F8E030D5F861
:100F4000E03003F004030593059BD5F8E03043F04F
:100F50008003C5F8E030D5F8E03003F08003069355
:100F6000069BD5F8E0303343C5F8E030D5F8E030E3
:100F700033400793079BD5F8E03043F00203C5F8F0
:100F8000E030D5F8E03003F002030893089BD5F871
:100F9000E03043F00803C5F8E030D5F8E03003F066
:100FA00008030993099BDFF8A0B122464EF2100115
:100FB000584605F08FFDDFF8949122464FF45061BA
:100FC000484605F087FDDFF88881224641F20F018F
:100FD000404605F07FFD4EF21003119312961394D4
:100FE000149411A9584605F0C7FB4FF0800BCDF8BB
:100FF00044B01294139411A9514805F0BDFB062387
:1010000011931294139411A94E4805F0B5FBCDF835
:1010100044B04FF404131293139411A9484605F0F9
:10102000ABFB4FF45063119312961394149411A9CF
:10103000484605F0A1FB4FF40073119312941394EA
:1010400011A9484605F098FB41F20F03119312963F
:101050001394149411A9404605F08EFB44F220032A
:1010600011931294139411A9404605F085FB4FF497
:10107000004311934FF488131293139411A940461F
:1010800005F07AFB16F0BEF94FF4FA6001F038FF74
:10109000D5F8D8303343C5F8D830D5F8D8303340F8
:1010A0000293029BD5F8D83043F00203C5F8D8303C
:1010B000D5F8D83003F002030393039B22460421A2
:1010C0000B2003F06DF90B2003F09EF92246394600
:1010D0000C2003F065F90C2003F096F92246042158
:1010E000504603F05DF9504603F08EF92246314632
:1010F0000E2003F055F90E2003F086F92246314602
:101100000F2003F04DF90F2003F07EF922463946F7
:10111000102003F045F9102003F076F922463946F5
:10112000392003F03DF9392003F06EF9224611E031
:1011300000ED00E000400030008000300044025824
:10114000000002580004025800080258001002581B
:10115000000C025831463A2003F022F93A2003F0FD
:1011600053F9224604213B2003F01AF93B2003F0F7
:101170004BF9224621463C2003F012F93C2003F0B3
:1011800043F922462146442003F00AF9442003F0A3
:101190003BF922463146452003F002F9452003F091
:1011A00033F922463146462003F0FAF8462003F090
:1011B0002BF9D5F8E03043F40013C5F8E030D5F84A
:1011C000E03003F400130193019B224604218120A7
:1011D00003F0E6F8812003F017F92246042182206B
:1011E00003F0DEF8822003F00FF9A748A74B036055
:1011F000446084604FF40053436184610223C361FF
:1012000004624462C460C4620463102242632246E2
:10121000214609F073FE002840F0B1839C489D4BA5
:10122000036002234360012282604FF40052426156
:10123000C3610021C160C162016341630A4609F0D4
:101240005DFE002840F09D8300240D940E940F94C1
:101250002422214611A81BF043FC8F488F4B0360CA
:10126000446008228260012303614261047644766F
:101270000322C26180F820408462C4620263C463B6
:10128000046480F84440836402F036FE002840F095
:101290007A8300230D930DA97F4802F0DDFF00281B
:1012A00040F073837E4B119306231293139340F205
:1012B000FF73149304231593002316938DF8653060
:1012C00011A9754801F0ECFF002840F06083754BD0
:1012D00011930C23129311A96F4801F0E1FF00282C
:1012E00040F05783704B11931223129311A96A484F
:1012F00001F0D6FF002840F04E832422002111A8DF
:101300001BF0EEFB69486A4B036000234360082230
:101310008260C3600121016142610376437603224A
:10132000C26180F820308362C36280F83810436362
:101330000263C363036480F84430836402F0DCFD1D
:10134000002840F02A83012311930623129313935C
:1013500040F2FF73149304231593002316931893FC
:1013600011A9524801F09CFF002840F01883514B0E
:1013700011930C23129311A94C4801F091FF0028FE
:1013800040F00F834C4B11931223129311A947483D
:1013900001F086FF002840F006832422002111A8D6
:1013A0001BF09EFB4548464B036003F0BDF8002848
:1013B00040F0FB8200221192062312931392012324
:1013C0001493159211A93D4803F0F8F8002840F055
:1013D000EE823C483C4B03603C4B436000238360FF
:1013E0000122C260036143618361C361036205F04E
:1013F00061FD002840F0DD820021324807F0C2F98B
:10140000002840F0D88200212E4807F0E9F9002892
:1014100040F0D3822E482F4B03602C4B43600023B7
:1014200083600122C260036143618361C36103621F
:1014300005F040FD002840F0C2820021244807F05A
:10144000A1F9002840F0BD820021214807F0C8F929
:10145000002840F0B8822048204B0360204B4360B6
:10146000002383600122C260036143618361C36121
:10147000036205F01FFD002840F0A78200211648F6
:1014800007F080F92EE000BFE40B0024045801406F
:101490004C0B00242458014000130024002002407B
:1014A0000800900C0004002A0008302E901200243E
:1014B0000060025802003004000084CB8C1100242C
:1014C00000740040C010002400540040AE32900070
:1014D0006C1000240058004018100024001C005814
:1014E0002710C720002840F072820021A64807F08C
:1014F00077F9002840F06D82A44AA54B13604FF4A1
:1015000080335360002393604FF48041D1601361B6
:10151000032151610D930E930F9310930A930B9334
:101520000C9311931293139314931593169317938B
:1015300098484FF080420260BF224260836040F2D0
:10154000E732C260036183610BF02EFB002840F09C
:1015500042824FF480530D930DA98E480BF070FC1E
:10156000002840F03A828B480BF04EFB002840F0F8
:10157000368200230A930C930AA986480CF0F8F8E7
:10158000002840F02E8260231193002212921392C1
:10159000159211A97F480BF0A9FB002840F0238287
:1015A000042211A97B480BF0A1FB002840F01D820A
:1015B000082211A977480BF099FB002840F0178208
:1015C0000C2211A973480BF091FB002840F0118206
:1015D000704800F04DFF00230D930E930F9310936E
:1015E0000A930B930C9311931293139314931593E3
:1015F000169317936848694A026043608360EF223C
:10160000C260036183610BF0CFFA002840F0F381E0
:101610004FF480530D930DA95F480BF011FC002887
:1016200040F0EB815C480BF0EFFA002840F0E781D6
:1016300000230A930C930AA957480CF099F8002844
:1016400040F0DF81602311930023129313931593CD
:10165000042211A950480BF049FB002840F0D38127
:101660004D4800F005FF4E484E4B03604FF4E13308
:10167000436000238360C36003610C224261836185
:10168000C3610362436283620DF01DFB002840F0DA
:10169000BC81002142480DF04BFC002840F0B7818E
:1016A00000213F480DF069FC002840F0B2813C4821
:1016B0000DF01FFC002840F0AE813B483B4B03601F
:1016C0004FF4E133436000238360C36003610C2265
:1016D00042618361C3610362436283620DF0F3FA86
:1016E000002840F09A8100212F480DF021FC0028AD
:1016F00040F0958100212C480DF03FFC002840F07F
:10170000908129480DF0F5FB002840F08C81284895
:10171000284B03604FF4E133436000238360C360D0
:1017200003610C2242618361C3610362436283628D
:101730000DF0C9FA002840F0788100211C480DF016
:10174000F7FB002840F07381002119480DF015FCCB
:10175000002840F06E8116480DF0CBFB002840F0C9
:101760006A811548154B03604FF4E1334360002351
:101770008360C36003610C2242618361C3610362C1
:10178000436283621CE000BF18100024E0090024BB
:101790000024024848090024FC08002400080040F6
:1017A000A4070024004C0040100700240050004013
:1017B0007C060024007C0040E80500240010014065
:1017C0000DF081FA002840F0388100219E480DF08C
:1017D000AFFB002840F0338100219B480DF0CDFB8A
:1017E000002840F02E8198480DF083FB002840F03F
:1017F0003F819648964B03604FF4E13343600023EA
:101800008360C36003610C2242618361C361036230
:10181000436283620DF057FA002840F02B810021CB
:101820008A480DF085FB002840F02681002187487A
:101830000DF0A3FB002840F0218184480DF059FBF6
:10184000002840F01D810EF061F8002311931293DF
:1018500013938048804A0260BF2242608360632302
:10186000C360802383610BF09FF9002840F00A8158
:1018700000231193139311A976480BF079FF0028E8
:1018800040F002817548764B0360764B436000233D
:1018900083600122C260036143618361C3610362AB
:1018A00005F008FB002840F0F18000216B4806F0AD
:1018B00069FF002840F0EC800021684806F090FFA6
:1018C000002840F0E78000231193129313931493A0
:1018D0000D930E930F936448644A026043608360E3
:1018E00041F63F72C2600361436183610BF05CF9B2
:1018F000002840F0D1804FF48053119311A95A4829
:101900000BF09EFA002840F0C98020230D9300239D
:101910000E930F930DA954480BF02AFF002840F0B6
:10192000BF8016F06FF815F0E7FE15F07FFD11F09F
:10193000B5F916F0D7F80EF0F5FB15F02DF814F008
:10194000FBFF17F05BFC15F05DFD11F06FF915F072
:101950004FFD4FF4FA7001F0D3FA15F0D5FE0028D0
:1019600000F0A08015F08AFF15F036F916F0E4F8C3
:1019700016F0F0FF18F088FD14F0B2FEF2E772B630
:10198000FEE772B6FEE772B6FEE772B6FEE772B623
:10199000FEE772B6FEE772B6FEE772B6FEE772B613
:1019A000FEE772B6FEE772B6FEE772B6FEE772B603
:1019B000FEE772B6FEE772B6FEE772B6FEE772B6F3
:1019C000FEE772B6FEE772B6FEE772B6FEE772B6E3
:1019D000FEE772B6FEE772B6FEE772B6FEE772B6D3
:1019E000FEE772B6FEE772B6FEE772B6FEE772B6C3
:1019F000FEE772B6FEE772B6FEE772B6FEE772B6B3
:101A0000FEE772B6FEE772B6FEE772B6FEE772B6A2
:101A1000FEE772B6FEE772B6FEE772B6FEE772B692
:101A2000FEE772B6FEE772B6FEE772B6FEE772B682
:101A3000FEE772B6FEE772B6FEE772B6FEE772B672
:101A4000FEE772B6FEE700BFE80500245405002457
:101A500000480040B008002400140040C40F0024D7
:101A600000640040AE329000940900240000014060
:101A700072B6FEE772B6FEE772B6FEE772B6FEE732
:101A800072B6FEE772B6FEE772B6FEE772B6FEE722
:101A900072B6FEE772B6FEE772B6FEE772B6FEE712
:101AA00072B6FEE74FF4007016F0FAFF092016F048
:101AB000E1FF57E772B6FEE782B0074BD3F8F42098
:101AC00042F00202C3F8F420D3F8F43003F002032A
:101AD0000193019B02B070470044025830B58BB0AF
:101AE000044600230593069307930893099303681C
:101AF000574A934204D0574A93425DD00BB030BD51
:101B0000554BD3F8D82042F02002C3F8D820D3F8A0
:101B1000D82002F020020092009AD3F8E02042F090
:101B20000402C3F8E020D3F8E02002F0040201929E
:101B3000019AD3F8E02042F00102C3F8E020D3F884
:101B4000E03003F001030293029B032505950695FF
:101B500005A9424804F010FE402305930695002590
:101B6000079505A93E4804F007FE3E483E4B03603A
:101B7000092343608560C5604FF4806303614FF4BF
:101B8000006343614FF4005383614FF48073C3617A
:101B90000562456203F034F858B9324BA3659C6383
:101BA00000220421122002F0FBFB122002F02CFC88
:101BB000A4E7FFF77FFFF0E7274BD3F8E02042F0E0
:101BC0008072C3F8E020D3F8E02002F08072039224
:101BD000039AD3F8E02042F00402C3F8E020D3F8DF
:101BE000E03003F004030493049B4FF08061084647
:101BF00001F09AF94FF00061084601F095F91B4891
:101C00001B4B03607323436000238360C3604FF466
:101C1000806202614FF4006242614FF400528261BF
:101C20004FF48072C2610362436202F0E9FF58B967
:101C30000E4BA3659C63002204217F2002F0B0FBC1
:101C40007F2002F0E1FB59E7FFF734FFF0E700BF28
:101C50000020024000600258004402580008025868
:101C6000000002581812002440040240A011002471
:101C70001000024010B588B000230393049305932D
:101C8000069307930268284B9A4201D008B010BD12
:101C90000446264BD3F8E82042F00052C3F8E8206F
:101CA000D3F8E82002F000520192019AD3F8E02024
:101CB00042F00102C3F8E020D3F8E03003F0010362
:101CC0000293029B302303930323049303A9184830
:101CD00004F052FD1748184B036043234360402330
:101CE00083600023C3604FF4806202614FF400629E
:101CF00042614FF4005282614FF48072C26103620C
:101D0000436202F07DFF58B90A4BA3609C63002236
:101D10001146362002F044FB362002F075FBB5E791
:101D2000FFF7C8FEF0E700BF00740040004402580F
:101D300000000258141100245804024070B5BCB0D1
:101D4000044600213791389139913A913B91B8225C
:101D500008A81AF0C5FE23687D4A93420CD07D4A3C
:101D600093427ED07C4A934200F00E817B4A93429C
:101D700000F07E813CB070BD08220023CDE908232D
:101D800008A807F00DFC002862D1754ED6F8E030A7
:101D900043F00203C6F8E030D6F8E03003F0020367
:101DA0000093009BC0233793122338930025399565
:101DB0003A9504233B9337A96A4804F0DDFCD6F832
:101DC000E83043F40013C6F8E830D6F8E83003F4FE
:101DD00000130193019B6448644B0360222343601A
:101DE00040238360C5604FF4806303614561856172
:101DF000C5610562456202F003FF60BB5A4BA363F5
:101E00009C635B485B4B036021234360002383603A
:101E1000C3604FF48062026143618361C361036206
:101E2000436202F0EDFEC8B9514BE3639C630022AC
:101E300001211F2002F0B4FA1F2002F0E5FA00226F
:101E40000121202002F0ACFA202002F0DDFA91E717
:101E5000FFF730FE99E7FFF72DFECFE7FFF72AFEE9
:101E6000E2E708220023CDE9082308A807F098FB41
:101E7000002863D13A4ED6F8E03043F00203C6F8AA
:101E8000E030D6F8E03003F002030293029B4FF4F7
:101E90004063379312233893002539953A950423EC
:101EA0003B9337A92F4804F067FCD6F8E83043F499
:101EB0008003C6F8E830D6F8E83003F480030393D3
:101EC000039B2D482D4B03602423436040238360F4
:101ED000C5604FF48063036145618561C56105623A
:101EE000456202F08DFE60BB234BA3639C632448D4
:101EF000244B03602323436000238360C3604FF4BB
:101F00008062026143618361C3610362436202F0E4
:101F100077FEC8B91A4BE3639C630022012121209C
:101F200002F03EFA212002F06FFA00220121222065
:101F300002F036FA222002F067FA1BE7FFF7BAFD3B
:101F400098E7FFF7B7FDCFE7FFF7B4FDE2E700BF83
:101F50000054004000580040001C0058006400403D
:101F600000440258000402584C0F0024A004024010
:101F7000D40E0024B80402405C0E00245800024035
:101F8000E40D00247000024010220023CDE9082354
:101F900008A807F005FB002861D1604ED6F8E030B4
:101FA00043F00203C6F8E030D6F8E03003F0020355
:101FB0000493049B4FF44073379312233893002506
:101FC00039953A9506233B9337A9554804F0D4FB3D
:101FD000D6F8F43043F08003C6F8F430D6F8F43085
:101FE00003F080030593059B4E484F4B03600E237F
:101FF000436040238360C5604FF4806303614561A3
:102000008561C561056202F0FBFD58BB454BA363CA
:102010009C634648464B03600D2343600023836066
:10202000C3604FF48062026143618361C3610362F4
:1020300002F0E6FDC8B93D4BE3639C630022022138
:102040005F2002F0ADF95F2002F0DEF900220221EC
:10205000602002F0A5F9602002F0D6F98AE6FFF7C9
:1020600029FD9AE7FFF726FDD0E7FFF723FDE2E71A
:1020700008220023CDE9082308A807F091FA0028D8
:1020800045D1264ED6F8E03043F00403C6F8E030E0
:10209000D6F8E03003F004030693069B4FF4406348
:1020A000379312233893002539953A9504233B93AF
:1020B00037A9204804F060FBD6F8E83043F00073FD
:1020C000C6F8E830D6F8E83003F000730793079BB2
:1020D00019481A4B03607D23436040238360C56029
:1020E0004FF48063036145618561C56105624562A6
:1020F00002F086FD70B9104BA3639C63002201219E
:102100009D2002F04DF99D2002F07EF932E6FFF7A6
:10211000D1FCB6E7FFF7CEFCEDE700BF0044025864
:10212000000402586C0D002408540258F40C0024DA
:102130001C540258000802587C0C00244000024045
:1021400038B504460368414A934209D0404A934255
:1021500023D0404A93423FD03F4A93425CD038BD9F
:102160003E4AD2F8E83023F40013C2F8E8303C4D80
:102170004021284604F0FCFB8021284604F0F8FBAF
:10218000A06B02F05DFFE06B02F05AFF1F2002F02F
:1021900049F9202002F046F9E1E7304AD2F8E83068
:1021A00023F48003C2F8E8302D4D4FF480612846B7
:1021B00004F0DEFB4FF40061284604F0D9FBA06B6D
:1021C00002F03EFFE06B02F03BFF212002F02AF913
:1021D000222002F027F9C2E702F50A32D2F8F430E1
:1021E00023F08003C2F8F4301D4D4FF4807128466F
:1021F00004F0BEFB4FF40071284604F0B9FBA06B5D
:1022000002F01EFFE06B02F01BFF5F2002F00AF9F4
:10221000602002F007F9A2E7104AD2F8E83023F074
:102220000073C2F8E8300F4D4FF48061284604F087
:102230009FFB4FF40061284604F09AFBA06B02F06C
:10224000FFFE9D2002F0EEF889E700BF0054004039
:1022500000580040001C0058006400400044025830
:10226000000402580008025830B589B000230393D7
:1022700004930593069307930268264B9A4201D074
:1022800009B030BD244BD3F8DC2042F40072C3F80F
:10229000DC20D3F8DC2002F400720092009AD3F81C
:1022A000E02042F00202C3F8E020D3F8E02002F080
:1022B00002020192019AD3F8E02042F00802C3F82A
:1022C000E020D3F8E03003F008030293029B4CF2C5
:1022D0001803039302240494032506950923079306
:1022E00003A90E4804F048FAC02303930494002481
:1022F000059406950B23079303A9094804F03CFABB
:10230000224601217C2002F04BF87C2002F07CF870
:10231000B6E700BF002402480044025800040258F7
:10232000000C025808B502680B4B9A4200D008BD59
:102330000A4AD2F8DC3023F40073C2F8DC304CF2E5
:102340001801074804F014FBC021064804F010FBF4
:102350007C2002F067F8EAE70024024800440258B3
:1023600000040258000C025810B584B003683A4AC1
:1023700093420BD00446B3F1804F15D0374A9342B5
:1023800020D0374A934251D004B010BD354BD3F81A
:10239000F02042F00102C3F8F020D3F8F03003F04F
:1023A00001030093009BEFE72E4BD3F8E82042F0A7
:1023B0000102C3F8E820D3F8E83003F001030193E9
:1023C000019BE1E7274BD3F8E82042F00402C3F871
:1023D000E820D3F8E83003F004030293029B22487C
:1023E000224B03601E234360402383600023C360AD
:1023F0004FF4806202614FF4006242614FF4005278
:102400008261C3610362436202F0FAFB58B9164B62
:10241000A3629C63002203211E2001F0C1FF1E2045
:1024200001F0F2FFB0E7FFF745FBF0E70D4BD3F803
:10243000E82042F02002C3F8E820D3F8E83003F0A7
:1024400020030393039B00220421372001F0A8FFFF
:10245000372001F0D9FF97E7000001400008004055
:1024600000140040004402583808002428040240A8
:1024700000B589B000230393049305930693079353
:102480000368B3F1804F05D01B4A93421BD009B0BB
:102490005DF804FB194BD3F8E02042F00102C3F8C9
:1024A000E020D3F8E03003F001030193019B0F23F8
:1024B00003930223049305930123079303A9104870
:1024C00004F05AF9E3E70D4BD3F8E02042F008029C
:1024D000C3F8E020D3F8E03003F008030293029B36
:1024E0004FF400530393022304930593079303A926
:1024F000044804F041F9CAE70008004000440258CB
:1025000000000258000C025830B5BFB0044600214C
:1025100039913A913B913C913D91B8220AA81AF029
:10252000DFFA2368B64A934210D0B64A934261D08C
:10253000B54A934200F09980B44A934200F0CF80AC
:10254000B34A934200F020813FB030BD0222002305
:10255000CDE90A230AA807F023F8002844D1AD4B9F
:10256000D3F8E82042F40022C3F8E820D3F8E820AA
:1025700002F400220092009AD3F8E02042F0010217
:10258000C3F8E020D3F8E03003F001030193019B8E
:102590004FF4C053399302233A9300253B953C9561
:1025A00006233D9339A99C4804F0E6F89B489C4BD0
:1025B0000360402343608360C5604FF48063036120
:1025C00045618561C5610562456202F019FB70B91C
:1025D000924BE3679C6300220521342001F0E0FE6A
:1025E000342001F011FFAFE7FFF764FAB7E7FFF718
:1025F00061FAEDE702220023CDE90A230AA806F0DA
:10260000CFFF78BB834BD3F8E82042F48012C3F8A5
:10261000E820D3F8E82002F480120292029AD3F85C
:10262000E02042F00202C3F8E020D3F8E03003F0EB
:1026300002030393039B4FF44053399302233A93CD
:1026400000243B943C940E233D9339A9754804F033
:1026500093F822460521352001F0A2FE352001F035
:10266000D3FE71E7FFF726FACCE702220023CDE97B
:102670000A230AA806F094FF70BB664BD3F8E82043
:1026800042F00042C3F8E820D3F8E82002F000420C
:102690000492049AD3F8E02042F01002C3F8E0203C
:1026A000D3F8E03003F010030593059B032339931F
:1026B00002233A9300243B943C9408233D9339A988
:1026C000594804F059F822460421532001F068FECD
:1026D000532001F099FE37E7FFF7ECF9CDE701222F
:1026E0000023CDE90A230AA806F05AFF002845D1A5
:1026F000484BD3F8F02042F01002C3F8F020D3F892
:10270000F02002F010020692069AD3F8E02042F080
:102710000102C3F8E020D3F8E03003F0010307938F
:10272000079B4FF4C063399302233A9300253B95EE
:102730003C9507233D9339A9374804F01DF83B48E1
:102740003B4B03602A23436040238360C5604FF402
:102750008063036145618561C5610562456202F080
:102760004FFA70B9314BE3679C63002203212520A7
:1027700001F016FE252001F047FEE5E6FFF79AF985
:10278000B6E7FFF797F9EDE702220023CDE90A2328
:102790000AA806F005FF78BB1E4BD3F8E82042F4E8
:1027A0008022C3F8E820D3F8E82002F480220892BF
:1027B000089AD3F8E02042F00802C3F8E020D3F8EA
:1027C000E03003F008030993099B4FF440733993F9
:1027D00002233A9300243B943C9407233D9339A968
:1027E000144803F0C9FF22460321272001F0D8FD39
:1027F000272001F009FEA7E6FFF75CF9CCE700BF50
:10280000004C004000500040007C0040001001409F
:10281000004800400044025800000258DC04002434
:10282000880002400004025800100258640400248A
:1028300028000240000C02582DE9F043B7B00446CE
:10284000B822002102A81AF04BF92268694B9A427B
:1028500006D02268684B9A426ED037B0BDE8F0834C
:102860004FF480720023CDE9022302A806F098FEFF
:10287000002845D1614B1B68002B44D05F4A136888
:1028800001331360342331934FF00209CDF8C8901F
:1028900000253395032334934FF00608CDF8D480F8
:1028A000574F31A9384603F067FF40263196CDF8DF
:1028B000C89033953495CDF8D48031A9384603F0CB
:1028C0005BFF5048504B0360572343608660C560F0
:1028D0004FF4806303614FF4006343614FF400538E
:1028E00083614FF48073C3610562456202F088F929
:1028F000F8B9444BC4F884309C63C4F88030A8E72E
:10290000FFF7D8F8B6E7414BD3F8F02042F4800245
:10291000C3F8F020D3F8F03003F480030093009B59
:1029200000221146572001F03BFD572001F06CFDBD
:10293000A4E7FFF7BFF8DCE74FF480720023CDE98E
:1029400002230023189302A806F02AFE002834D19F
:102950002A4B1B68002B33D0284A136801331360BD
:1029600008233193022332930025339534950623AF
:10297000359331A9224803F0FFFE2548254B03601B
:102980005823436040238360C5604FF48063036134
:102990004FF4006343614FF4005383614FF480733D
:1029A000C3610562456202F02BF9F8B9184BC4F80F
:1029B00084309C63C4F880304FE7FFF77BF8C7E7AB
:1029C000124BD3F8F02042F48002C3F8F020D3F881
:1029D000F03003F480030193019B0022114657203D
:1029E00001F0DEFC572001F00FFDB5E7FFF762F8BC
:1029F000DCE700BF04580140245801407013002454
:102A000000100258D40A0024700402400044025806
:102A10005C0A002488040240FEE7FEE7FEE7FEE7CA
:102A2000FEE770477047704708B500F057FA08BDD9
:102A300008B5024803F0E8F908BD00BFA011002462
:102A400008B5024803F0E0F908BD00BF64040024A3
:102A500008B5024803F0D8F908BD00BF7C0C00247B
:102A600008B5024803F0D0F908BD00BF5C0E002491
:102A700008B5024803F0C8F908BD00BFE40D002402
:102A800008B5024803F0C0F908BD00BFDC0400240B
:102A900008B5024800F05AFA08BD00BF0013002430
:102AA00008B5024809F002FF08BD00BFFC08002479
:102AB00008B5024804F0A8FD08BD00BFC0100024FE
:102AC00008B5024805F00EFE08BD00BFC010002486
:102AD00008B5024804F098FD08BD00BF6C10002442
:102AE00008B5024805F0FEFD08BD00BF6C100024CB
:102AF00008B502480AF0A0FF08BD00BFE8050024A1
:102B000008B502480AF098FF08BD00BF540500242C
:102B100008B502480AF090FF08BD00BFA4070024D2
:102B200008B502480AF088FF08BD00BF100700245E
:102B300008B5024801F00BFD08BD00BF8C11002450
:102B400008B5024809F0B2FE08BD00BFB008002475
:102B500008B5024803F058F908BD00BF3808002442
:102B600008B5024803F050F908BD00BF1812002450
:102B700008B5024803F048F908BD00BF141100244D
:102B800008B5024803F040F908BD00BFD40A00248C
:102B900008B5024803F038F908BD00BF5C0A0024FC
:102BA00008B5024803F030F908BD00BF4C0F0024FF
:102BB00008B5024803F028F908BD00BFD40E002470
:102BC00008B502480AF038FF08BD00BF7C060024A3
:102BD00008B5034808F0E8FB024808F0E5FB08BD2B
:102BE000E40B00244C0B002408B5024804F00CFD53
:102BF00008BD00BF1810002408B5024805F072FD9A
:102C000008BD00BF1810002408B5024809F002FBF7
:102C100008BD00BFE009002408B5024800F096F99D
:102C200008BD00BF9012002408B5024803F0ECF87C
:102C300008BD00BF6C0D002408B5024803F0E4F89D
:102C400008BD00BFF40C002408B5024804F0DCFC09
:102C500008BD00BFC40F00240120704708B519F05B
:102C6000A1FF162303604FF0FF3008BD08B519F02F
:102C700099FF16230360FEE770B5161E07DD0C46AC
:102C80008D19AFF3008004F8010BA542F9D130464D
:102C900070BD4FF0FF3070474FF400534B60002081
:102CA00070470120704700207047000008B50346B8
:102CB0000C4A126852B10B4A106803440A4A0B4985
:102CC000521A934206D8074A136008BD054A0849BC
:102CD0001160F0E719F066FF0C2303604FF0FF303E
:102CE000F3E700BF74130024000005240060000017
:102CF00080D300242B4AD2F8883043F47003C2F802
:102D00008830294B1B6803F00F03062B06D8264A90
:102D1000136823F00F0343F007031360234B1A6873
:102D200042F001021A6000221A611968204A0A4022
:102D30001A601D4B1B6813F0080F06D01A4A13685F
:102D400023F00F0343F007031360184B00229A612E
:102D5000DA611A62174999621749D96217491963EA
:102D60005A639963DA6319645A64196821F48021FB
:102D700019601A66D3F8D43013F4805F10D10B4B6E
:102D8000D3F8D42042F48052C3F8D4200C4A43F242
:102D9000D2011160D3F8D42022F48052C3F8D42099
:102DA000704700BF00ED00E00020005200440258D0
:102DB0007FEDF6EA000202020000FF01800201013D
:102DC00000400052044AD36843F00203D3605368C2
:102DD00013F4005FFBD0704700480258DFF838D08A
:102DE000FFF7F0FFFFF786FF0C480D490D4A00235F
:102DF00002E0D458C4500433C4188C42F9D30A4AB0
:102E00000A4C002301E013600432A242FBD319F004
:102E1000CFFEFDF7C3FF704700000524000000242B
:102E2000B0030024C8320208C003002480D3002469
:102E3000FEE700000F4B1B780BB90120704710B55F
:102E400004464FF47A70B0FBF3F30B4A1068B0FB02
:102E5000F3F001F00BFB0F2C00D808B1012010BDDE
:102E6000002221464FF0FF3001F09AFA034B1C601C
:102E70000020F4E708000024040000240C000024D3
:102E800010B5032001F07AFA05F0F0FF0F498B69C5
:102E90000F4AC3F30323D35C03F01F03D8408B69AD
:102EA00003F00F03D35C03F01F0320FA03F3094A76
:102EB0001360094B18600F20FFF7BCFF10B101240D
:102EC000204610BD0446FEF7F7FDF9E7004402581E
:102ED00028F001080000002404000024034A1168BF
:102EE000034B1B780B441360704700BF781300241A
:102EF00008000024014B1868704700BF78130024B5
:102F000038B50446FFF7F6FF0546B4F1FF3F02D09F
:102F1000044B1B781C44FFF7EDFF401BA042FAD383
:102F200038BD00BF08000024034A536823EA0003A9
:102F30000B435360704700BF00040058704708B54A
:102F4000806BFFF7FBFF08BD70477047F8B504467C
:102F500003681D685E689F4A934205D002F580723F
:102F6000934201D09C4B00E09C4B9F6807F01F07E9
:102F700015F0020F10D016F0020F0DD0236E13F0D3
:102F8000100F03D1236E43F400632366204601F043
:102F900061F9236802221A6015F0040F02D016F0BE
:102FA000040F05D115F0080F3ED016F0080F3BD0E6
:102FB000236E13F0100F03D1236E43F400732366C6
:102FC0002368DA6812F4406F28D1854A934200F0F2
:102FD0000981DA6812F4005F20D11A6812F0080F34
:102FE0001CD09A6812F0040F10D15A6822F00C021B
:102FF0005A60236E23F480732366236E13F4805F7C
:103000000CD1236E43F00103236607E0236E43F0E7
:1030100010032366636E43F001036366204613F0DA
:103020009DFC23680C221A6015F0200F02D016F0C8
:10303000200F05D115F0400F48D016F0400F45D0B5
:10304000236E13F0100F03D1236E43F40053236655
:103050002368DA6C02F4C072D86861498B4200F0D0
:10306000AF80D96862BB11F0007F05D001F4005237
:1030700000F44060024323D11A6812F0400F1FD0C1
:1030800011F4001F1CD19A6812F0080F10D15A6871
:1030900022F060025A60236E23F480532366236E6D
:1030A00013F4807F0CD1236E43F00103236607E005
:1030B000236E43F010032366636E43F001036366DF
:1030C000204601F0C3F8236860221A6015F0800FD3
:1030D00002D016F0800F20D115F4807F02D016F4B4
:1030E000807F25D115F4007F02D016F4007F2BD10C
:1030F00015F0100F47D016F0100F44D0E36B002BE3
:1031000033D0002F46D02368324A934228D002F5AC
:103110008072934224D0304B23E0236E43F48033FB
:1031200023662046FFF710FF236880221A60D3E74A
:10313000236E43F400332366204601F089F82368A8
:103140004FF480721A60CDE7236E43F48023236628
:10315000204601F07EF823684FF400721A60C7E73A
:103160001E4B9B6813F4404F0AD0236E43F48063D8
:103170002366636E43F0020363662046FFF7E5FEB5
:10318000236810221A6015F4806F02D016F4806F45
:1031900006D1F8BD2368DB6813F0030FF0D0E4E735
:1031A000236E43F480432366636E43F00803636633
:1031B00023684FF480621A60204601F048F8E8E77F
:1031C000C121F94011F0010F7FF44BAF0149C968EB
:1031D00048E700BF0020024000630258002302407D
:1031E0000021024040F22122FA4012F0010F7FF448
:1031F000F0AE014AD268EDE60020024008B5034671
:10320000806B026E12F0500F30D1036E43F40073E6
:10321000036603681A6812F0080F14D0DA6812F413
:10322000406F20D1DB6813F4005F1CD1036E23F4E0
:1032300080730366036E13F4805F14D1036E43F052
:10324000010303660FE0DB6813F0030F0BD1036E7D
:1032500023F480730366036E13F4805F03D1036E5F
:1032600043F00103036613F079FB08BD026E12F010
:10327000100F04D1826DD26C18469047F5E7FFF726
:1032800064FEF2E708B5806B036E43F0400303660B
:10329000436E43F004034366FFF757FE08BD00008A
:1032A00070B582B00022019290F85C20012A00F0F3
:1032B000B2820346012280F85C200268906810F018
:1032C000040F09D01A6E42F020021A660120002273
:1032D00083F85C2002B070BD0868A84CA2420BD0F5
:1032E000002809DBC0F31304002C4CD1800E01240C
:1032F0008440D0692043D06148684FEA901C0CF0AC
:103300000C0C1A6802F1300E5EF80C4000F01F0041
:103310000A68C2F3846282401F2505FA00F024EA9D
:10332000000002434EF80C2018688468826802F09E
:10333000080204F0040C52EA0C022DD01A689068BE
:1033400010F0010F40F05B820E68CC688B4882421F
:1033500000F06E81D2F8C000C6F3130520EA050024
:1033600004F01805864CEC4034402043C2F8C000FD
:10337000C868844A904200F06B810A68002AC0F253
:10338000D6810020A3E790FAA0F0B0FA80F000F018
:103390001F0001248440ACE70C68E50D05F004052E
:1033A00014304259C4F304540726A64022EA060208
:1033B0008E68A640324342511A687048824211D04A
:1033C0007148006800F07040B0F1805F46D0D0686E
:1033D00010F0100F74D1D068C0F3820040004C6927
:1033E000844041E0C0680D69042D40F0508263487C
:1033F000046E046EC4F384640868C0F31305002DE2
:1034000040F08C80C0F38462944200F0C1805B4A3B
:10341000546E526E424012F0F84F00F0E38018688C
:1034200000F16805826E846EC4F384640A68C2F396
:103430008462A24200F0DC80186800F16C05C26E64
:10344000C46EC4F384640A68C2F38462A2427FF447
:1034500075AF2A6822F000422A606FE7D068C0F397
:10346000820040004C6984400D69042D40F02082A8
:10347000106E00F0F8400C68B0EB846F00F0C9806B
:103480001868426E02F0F8420C68B2EB846F00F0EC
:10349000C5801868826E02F0F8420C68B2EB846F47
:1034A00000F0C1801868C26E02F0F8420C68B2EBFE
:1034B000846F7FF443AFC26E22F00042C2663DE7E4
:1034C000D068400800F008004C698440CCE70C69E3
:1034D000603050F8242022F08072CD692A4340F8F1
:1034E00024201A680D6991F820406038824207D084
:1034F000906810F0010F40F08C810E68CC6829E7CD
:10350000603050F82520012C14BF0024012422F043
:10351000007242EA446240F825200FE790FAA0F5D5
:103520001DB1B5FA85F5AC4232D0144C656E646EAF
:10353000C4F38464154D90FAA0F018B1B0FA80F08D
:10354000A0423BD0186800F16805826E846EC4F317
:1035500084640A6892FAA2F21AB1B2FA82F2A24222
:1035600046D0186800F16C05C26EC46EC4F3846462
:103570000A6892FAA2F2B2FA82F267E70060025891
:10358000FFFF0F000000FF470010005C646002585E
:10359000A248026E22F0004202661A6802F1640537
:1035A000506E546EC4F384640868C0F31306002E92
:1035B000C1D1C0F3846084427FF431AF9748824226
:1035C00011D02A6822F000422A60186800F16805CC
:1035D000826E846EC4F384640A68C2F31306002EFC
:1035E000B8D124E78E4D2A6822F000422A60ECE729
:1035F0002A6822F000422A60186800F16C05C26E49
:10360000C46EC4F384640A68C2F31306002EB0D1FA
:103610001AE7106E20F00040106631E7426E22F08B
:103620000042426635E7826E22F00042826639E748
:103630000546D0F8B020C6F3130022EA000204F0D9
:1036400018047848E04030400243C5F8B0208FE6C7
:103650001A687548824208D07448824238D06F4850
:10366000824200F05981012464E10868704CA04254
:1036700000F057816F4CA04200F060816E4CA04278
:1036800000F05E816D4CA04200F05C8104F1866424
:103690001034A04200F05881694CA04200F05681DD
:1036A00004F1042404F54014A04200F0518104F117
:1036B000866404F50064A04200F04C81614CA04295
:1036C00000F04A81604CA04200F04881012431E1C1
:1036D0000868574CA04200F04381564CA04200F0CD
:1036E0004181554CA04200F03F81544CA04200F073
:1036F0003D8104F186641034A04200F03981504CC1
:10370000A04200F0378104F1042404F54014A042E3
:1037100000F0328104F1866404F50064A04200F0F8
:103720002D81494CA04200F02B81012402E119684F
:103730003D48814200F0988000F58070814200F0A1
:10374000938042488468A0F54070806810F0010FB3
:1037500040F0978004F0E0763C4D02E004F0E07623
:103760003B4D3C4882420DD03B4882422DD03B48E5
:1037700082424CD114F4800F02D1284A914235D0B4
:103780000020A4E514F4000F3BD1244A914201D05B
:1037900000209CE5AA6822F0E072324342F4000265
:1037A000AA602F4A126892092E49A1FB02129209BF
:1037B000013252000192019A2AB3019A013A019210
:1037C000019A002AF9D1002081E514F0807F1CD1F4
:1037D000124A914201D0002079E5AA6822F0E072F5
:1037E000324342F08072AA60002070E5AA6822F09D
:1037F000E072324342F48002AA60002067E50020B4
:1038000065E5002063E5002061E500205FE500201C
:103810005DE500205BE502205CE500BF006002582A
:1038200064600258FFFF0F000020024000210240A8
:1038300002003004040060080800900C1000C01062
:103840000004002A000021430000844B006302585A
:1038500000230240000052C7000021C3000084CBB7
:1038600004000024632D3E0546488468A0F540709E
:10387000856800F580708068284310F0010F3FF4E0
:103880006DAF1A6E42F020021A6601201FE53E4C11
:1038900054F82520C0F3C10040004A6982400868FE
:1038A00000F0F840024342F0004244F825200BE0CB
:1038B000603252F82560086800F0F84006F00046D3
:1038C0003043204342F825001A68304882423FF4D2
:1038D000FEAD0D69603252F8250091F82140012CAF
:1038E00014BF0024012420F0004040EAC47042F8D4
:1038F00025001D6828690A7E012A14BF00220122C2
:10390000D2020C6904F01F04A24020F4F0400243EC
:103910002A6113E5196814E70A68002AFADB002017
:10392000D5E4012090FAA0F0B0FA80F000F01F007A
:1039300001248440D0692043D0611EE51448F1E79A
:103940001448EFE71448EDE71448EBE71448E9E7BB
:103950001448E7E71448E5E71448E3E71448E1E7CB
:103960000120DFE70A48DDE70A48DBE70A48D9E734
:103970000A48D7E70A48D5E70A48D3E70A48D1E713
:103980000B48CFE7002302406060025800600258F5
:10399000400020198000501D000180210002B02548
:1039A0000008302E00106032002090360000524790
:1039B0000000B84F70B50446036898689A6802F032
:1039C000080200F00400024365D0DA6812F0007FBC
:1039D00004D0208B40F20112904223D002295CD007
:1039E0009A6812F0040F09D09A6812F0020F05D1FC
:1039F0009868394A024042F010029A6001292FD09B
:103A000023689A6812F0080F51D103290CBF0C25C6
:103A10000425FFF76FFA064623689B681D4225D1EF
:103A2000002039E01A6812F0400F10D12B4A1968B3
:103A300011F0400F0BD1013AF9D1236E43F010037E
:103A40002366636E43F001036366012024E0402295
:103A50001A6023689A6812F0040F35D10425D8E75C
:103A60000425D6E723689B682B4212D0FFF742FA61
:103A7000831B052BF6D923689B682B42F2D0236E5B
:103A800043F010032366636E43F001036366012075
:103A900002E0002000E0002070BD9A6812F0080FDC
:103AA00003D09A6812F0020F05D00825B1E79A6892
:103AB00012F0020FA9D19868074A024042F0200292
:103AC0009A600229A1D1F0E79A6812F0020F01D0A2
:103AD00004259EE701218BE7C0FFFF7F00DC0C007F
:103AE00003689A6812F0010F57D170B504469968BF
:103AF0002C4A114209D0036E43F010030366436E53
:103B000043F001034366012070BD9968264A0A40CC
:103B100042F001029A60FFF7EDF905462368234A57
:103B200093420BD002F58072934207D0204A9268EC
:103B30001A6812F0010F32D11B4E0FE01D4A916836
:103B4000A2F500729342F3D111F01F0FF0D00020C4
:103B5000DAE723681A6812F0010F1CD19A6812F094
:103B6000010F04D19A68324042F001029A60FFF7D7
:103B7000C1F9401B0228ECD923681B6813F0010F20
:103B8000E7D1236E43F010032366636E43F0010315
:103B900063660120B8E70020B6E7002070470020E8
:103BA000B2E700BF3F000080C0FFFF7F002002405F
:103BB0000063025800230240F8B504460D4616463D
:103BC00000684449884204D0434B984201D043499D
:103BD00000E043498F68816811F0040F75D194F8B3
:103BE0005C20012A73D007F01F07012384F85C30A2
:103BF00040F22123FB4013F0010F04D1002384F88D
:103C00005C30012062E02046FFF76AFF002858D1AF
:103C1000226EA0F60273134043F480732366226879
:103C20002D4B9A4238D0236E23F480132366236EE3
:103C300013F4805F33D0636E23F006036366A36DD5
:103C4000284ADA63A36D284A1A64A36D274ADA6406
:103C500023681C221A60002384F85C3022685368B1
:103C600043F0100353602268214B9A421AD0D36864
:103C700023F00303216B0B43D360216833462A46AC
:103C80004031A06D01F010FB22689168194B0B4088
:103C900043F00403936019E0002FC8D1C3E7002369
:103CA0006366CCE71A46DB6894F8381023F0030308
:103CB00043EA4103D3602268D36843F00103D36031
:103CC000DBE7002384F85C3000E00220F8BD02202E
:103CD000FCE700BF002002400021024000630258C0
:103CE00000230240FD3100083F2F00088532000804
:103CF00000600258C0FFFF7F38B503689A68996872
:103D000012F0020F03D1044611F0010F01D100207F
:103D100038BD9A6802F00D02012A09D0036E43F003
:103D200010030366436E43F0010343660120EFE78F
:103D30009968164A0A4042F002029A600368032218
:103D40001A60FFF7D7F8054623689B6813F0010F48
:103D500006D10020DCE723689B6813F0010F13D025
:103D6000FFF7C8F8401B0228F5D923689B6813F0B9
:103D7000010FF0D0236E43F010032366636E43F00F
:103D8000010363660120C3E70020C1E7C0FFFF7F96
:103D900090F85C30012B18D010B50446012380F850
:103DA0005C300321FFF706FE18B1002384F85C3075
:103DB00010BD2046FFF7A0FF0028F6D1226E044B6D
:103DC000134043F001032366EFE70220704700BF72
:103DD000FEEEFFFF10B504460368404A934220D030
:103DE00002F5807293421CD03D4B9B6813F4403F18
:103DF0001CD005F08FFA6368B3F5003F05D0B3F52A
:103E0000403F26D0B3F5803F02D11B0CB0FBF3F04E
:103E1000344B98424ED82268936823F440739360E1
:103E200010BD314B9B6813F4403FE2D14FF40020AA
:103E3000002106F0D1FB6368B3F5101F36D022D8FD
:103E4000B3F5E01F30D006D9B3F5001FE0D140092B
:103E5000DEE78008DCE7B3F5801F08D00CD8B3F5A7
:103E6000002F04D023F40022B2F5802FD0D19B0C78
:103E70005B00B0FBF3F0CBE7B3F5A01FF7D0B3F5D1
:103E8000C01FF4D0C4E7B3F5201F11D0B3F5301F25
:103E9000BED1164B9842BED92268936823F4407372
:103EA00043F480739360BBE70009B1E78009AFE793
:103EB000C009ADE70E4B9842EED90E4B984207D899
:103EC0002268936823F4407343F400739360A7E778
:103ED0002268936843F440739360A1E70020024096
:103EE0000063025821BCBE0000230240FF21BCBE7B
:103EF00041787D0181F0FA0270B582B00023019310
:103F0000002800F033810446036E002B42D0236862
:103F10009A6812F0005F03D09968954A0A409A6047
:103F200023689A6812F0805F16D19968914A0A4016
:103F300042F080529A60904B1B689B098F4AA2FB0B
:103F400003239B0901330193019B2BB1019B013B8F
:103F50000193019B002BF9D12268936813F0805FD5
:103F60001FD1236E43F010032366636E43F00103F9
:103F7000636601259168236E03F0100301F00401CC
:103F80000B4310D0236E43F010032366012528460F
:103F900002B070BDFDF7A2FD0023636684F85C30BB
:103FA000B5E70025E6E7236E23F4817343F00203AF
:103FB0002366936813F0010F12D1714B9A426BD0B4
:103FC00003F580739A4267D06E4B9B6813F0010F24
:103FD00006D16D4A936823F47C1361680B439360A8
:103FE0002268684B9A4262D0E36BA1680B43617E02
:103FF00043EA413394F8201043EA014394F8201037
:1040000001296CD0A16A21B101F47871E06A014301
:104010000B435C498A4267D0D0685C490140194330
:10402000D16021688A688B6803F0080302F00402FB
:10403000134322D1534B994263D0237E226B42EA31
:104040008332C868524B03401343CB6094F844302A
:10405000012B5DD02268136923F0010313612268EC
:10406000136923F07043216C0B4313612268454BA5
:104070009A4202D02046FFF7ADFE2369012B6CD097
:104080002268136B23F00F031363236E23F00303E3
:1040900043F0010323667AE7394B996803F580738F
:1040A0009B680B4313F0010F9ED13A4A92E7E36BF2
:1040B000E1680B43617E43EA4133A168182906D0C9
:1040C0001C290AD00C2914BF00210121C90094F831
:1040D000200043EA00430B4390E71021F7E7616AB1
:1040E000013943EA41438DE7C8682B4A02401A432D
:1040F000CA602268136923F04063616B0B4313614C
:104100008FE7237E94F83820520042EA833298E702
:1041100022681C4B9A4210D01069A36C591EE36CA4
:10412000266D334343EA0143616D0B431B49014054
:104130000B4343F00103136191E719461869A36C1F
:10414000626D1343164A02401343E26C1343226D1F
:10415000134343F001030B6181E721680A6BE369B4
:10416000013B22F00F0213430B638EE701250EE79C
:10417000C0FFFF5FC0FFFF6F04000024632D3E05FA
:1041800000200240006002580063025803C0F0FFA4
:10419000FCBFFFFF002302400740F0FF1EF800FCB9
:1041A0001FF800FC70B582B00023019390F85C30DA
:1041B000012B42D004460D461646012380F85C30A0
:1041C000FFF79AFD00282FD1226E1D4B134043F0BC
:1041D00002032366226891681A4B0B4006F0804662
:1041E000334305F480352B4343F00043936022684A
:1041F0009368002B06DB236E23F0030343F00103D7
:10420000236615E0019B0133019301990E4B9942FE
:10421000EED3236E23F0120343F010032366002332
:1042200084F85C30012006E0236E43F0100323661F
:10423000002384F85C3002B070BD0220FBE700BFB1
:10424000FDEEFFFFC0FFFE3F00F8C325704770473B
:10425000704770477047000090F85C20012A6BD0CF
:1042600010B49DB00346012280F85C200022189211
:10427000199200683C4A904260D01A6E42F02002C7
:104280001A66002283F85C20012068E00A6852B3B5
:104290003648826822F440424C68224382601A68A1
:1042A000A0F54070824213D000F5807082420FD09A
:1042B0002F4A926812F0010F3AD12C4884680A689C
:1042C00089680A432B4921400A438260002043E069
:1042D000254A906802F580729268024312F0010F3D
:1042E000EBD0002038E021498A6822F440428A60FD
:1042F0001A68A1F540718A420FD001F580718A4297
:104300000BD01B4A926812F0010F13D1174988682D
:10431000184A02408A6000201EE0134A916802F5A4
:10432000807292680A4312F0010FEFD0002013E070
:10433000002011E000200FE0022070470E4A906834
:10434000A2F580729268024312F0040F9ED01A6E9A
:1043500042F020021A660120002283F85C201DB082
:104360005DF8044B704700BF00200240002302406C
:1043700000600258E0F0FFFF00210240064AD368C7
:10438000000200F4E06023F4E0631B041B0C1843FC
:10439000024B0343D360704700ED00E00000FA05D4
:1043A00000B5164BDB68C3F30223C3F1070CBCF165
:1043B000040F28BF4FF0040C03F1040EBEF1060FEA
:1043C0008CBF033B00234FF0FF3E0EFA0CFC21EAAA
:1043D0000C0199400EFA03FE22EA0E021143002856
:1043E00005DB0901C9B2064B19545DF804FB00F066
:1043F0000F000901C9B2034B1954F6E700ED00E0C4
:1044000000E400E014ED00E0002807DB410900F0C3
:104410001F0001238340024A42F82130704700BF49
:1044200000E100E000280CDB430900F01F0001223E
:1044300082402033034941F82320BFF34F8FBFF35D
:104440006F8F704700E100E0BFF34F8F0549CA68E6
:1044500002F4E062044B1343CB60BFF34F8F00BF05
:10446000FDE700BF00ED00E00400FA050138B0F1FF
:10447000807F0BD24FF0E0235861054AF02182F88B
:1044800023100020986107221A61704701207047AD
:1044900000ED00E0BFF35F8F044B5A6A22F48032D4
:1044A0005A620022C3F89420704700BF00ED00E07C
:1044B00040F00100054BC3F894005A6A42F4803280
:1044C0005A62BFF34F8FBFF36F8F704700ED00E06C
:1044D0004378144AC2F89830D2F8A03023F0010390
:1044E000C2F8A0304368C2F89C30017BC37A1B0637
:1044F00043EA017301780B43817A43EAC143417B6C
:1045000043EA8143817B43EA4143C17B43EA014360
:10451000417A43EA0123017A43EA4103C2F8A03019
:10452000704700BF00ED00E070B110B5044603799C
:1045300033B102232371002020610123237110BDB8
:104540004371FDF797FBF4E701207047704770B5A2
:10455000044603681D685E6B15F4005F02D016F414
:10456000005F06D115F0005F02D016F0005F11D198
:1045700070BD04220271026942F0010202614FF42F
:1045800000525A630268136823F480531360FFF7E4
:10459000DDFFE7E704232371236943F0020323616E
:1045A00023684FF000525A632268136823F0805347
:1045B0001360204600F0C8F8DAE70000002800F099
:1045C000BE802DE9F0410D4616460446002900F054
:1045D000B2804379012B00F0B080012343710223A4
:1045E00003710B68042B3ED02B69012B00F09280E5
:1045F0002068C16B06F010020723934021EA0301F3
:10460000EB68012B00F09380022B00F09280AE68E3
:10461000B6FA86F676092B68AF683B43334393407E
:104620000B43C363206803684FF48041914023EA41
:10463000010303602068016840F6FE73934021EA9D
:1046400003016B6893400B43036020680368C0213B
:1046500001FA02F223EA020303600123237100201E
:104660006071BDE8F081FEF745FC074636B123686E
:104670005A6B002A3EDBAA695A641FE02368596B13
:10468000304A0A40C2B1DFF8BC8004E023685A6BAC
:1046900012EA080F10D0FEF72DFCC01B0128F5D937
:1046A00023685B6B13EA080FF0D0236943F008031B
:1046B000236103202071D4E7AA691A642068836CFF
:1046C00006F0100240F2FF31914023EA0103E9694C
:1046D00091400B4383642068C36CFF21914023EA1F
:1046E0000103296A91400B43C3647DE723685A6B39
:1046F000002AC0DAFEF7FEFBC01B0128F6D92368AA
:104700005B6B002BF2DA236943F00803236103207B
:104710002071A6E721688A6B06F010001F238340F2
:1047200022EA03026B69834013438B6360E7002630
:1047300071E701266FE7012093E7022091E701204E
:10474000704700BF0080002070470000F0B4866D05
:104750000568914C914FBD4218BFA5420CBF012482
:1047600000241837BD4208BF44F001041837BD4289
:1047700008BF44F001041837BD4208BF44F00104EB
:104780001837BD4208BF44F001041837BD4208BFC6
:1047900044F001041837BD4208BF44F0010407F596
:1047A0005677BD4208BF44F001041837BD4208BF28
:1047B00044F001041837BD4208BF44F00104183723
:1047C000BD4208BF44F001041837BD4208BF44F0A1
:1047D00001041837BD4208BF44F001041837BD4238
:1047E00008BF44F001041837BD4208BF44F001047B
:1047F0006B4FBD4208BF44F001041437BD4208BFEF
:1048000044F001041437BD4208BF44F001041437DA
:10481000BD4208BF44F001041437BD4208BF44F054
:1048200001041437BD4208BF44F001041437BD42EF
:1048300008BF44F0010414B95A4CA54207D1446E94
:10484000856E6560C46E14B1046F456F6560056860
:10485000514C524FBD4218BFA5420CBF0124002449
:104860001837BD4208BF44F001041837BD4208BFE5
:1048700044F001041837BD4208BF44F00104183762
:10488000BD4208BF44F001041837BD4208BF44F0E0
:1048900001041837BD4208BF44F0010407F55677FC
:1048A000BD4208BF44F001041837BD4208BF44F0C0
:1048B00001041837BD4208BF44F001041837BD4257
:1048C00008BF44F001041837BD4208BF44F001049A
:1048D0001837BD4208BF44F001041837BD4208BF75
:1048E00044F0010414B9304CA54215D1C46D04F054
:1048F0001F053F24AC40B46005682C6824F4802474
:104900002C60046863608368402B3AD00368996028
:104910000368DA60F0BC7047214C244FBD4218BFD9
:10492000A5420CBF012400241437BD4208BF44F047
:1049300001041437BD4208BF44F001041437BD42DE
:1049400008BF44F001041437BD4208BF44F001041D
:104950001437BD4208BF44F0010414B9114CA542FC
:10496000D8D1C46D04F01F050124AC407460046804
:1049700063608368402B09D0036899600368DA603C
:10498000C8E703689A600368D960C3E703689A6060
:104990000368D960BEE700BF100002402800024053
:1049A0000854025894540258B80402401C54025847
:1049B00001460268344B3548824218BF9A420CBF08
:1049C000012300231830824208BF43F0010318304E
:1049D000824208BF43F001031830824208BF43F00F
:1049E00001031830824208BF43F0010318308242AD
:1049F00008BF43F001031830824208BF43F00103AF
:104A000000F55670824208BF43F00103183082421D
:104A100008BF43F001031830824208BF43F001038E
:104A20001830824208BF43F001031830824208BFA9
:104A300043F001031830824208BF43F001031830ED
:104A4000824208BF43F0010313B9114B9A4213D1BC
:104A500010B4D0B210380F4BA3FB0043C3F30213C2
:104A60000D4CE35CCB655F280AD96FF30902101D7A
:104A700088655DF8044B704722F0FF008865704739
:104A800006481040F4E700BF100002402800024032
:104A9000B8040240ABAAAAAA38F0010800FCFFFF44
:104AA0000368264A26498B4218BF93420CBF012255
:104AB000002214318B4208BF42F0010214318B42B4
:104AC00008BF42F0010214318B4208BF42F00102DC
:104AD00014318B4208BF42F0010214318B4208BFEF
:104AE00042F0010212B9174A934212D1DBB2083BDD
:104AF000154AA2FB0323154A02EB13129200C3F3DB
:104B00000413012101FA03F3114902664166836629
:104B10007047D9B210390F4AA2FB012109090E4A88
:104B20001A44A82A08D90D4A0A44920001F01F012C
:104B300001238B400A49E8E70831F4E7085402589A
:104B40001C54025894540258CDCCCCCC009600167C
:104B500080580258ABAAAAAAF0FBFDBF0082001041
:104B60008008024090F804C00CF1FF31072937D8C3
:104B700010B402681B4B1C4CA24218BF9A420CBFD7
:104B8000012300231434A24208BF43F0010314346C
:104B9000A24208BF43F001031434A24208BF43F00D
:104BA00001031434A24208BF43F001031434A242AB
:104BB00008BF43F0010313B90C4B9A420BD10C4BC5
:104BC00063449B000B4AC366026701238B40436723
:104BD0005DF8044B7047084B63449B00074AF2E7BB
:104BE000704700BF085402581C540258945402588D
:104BF0003F960016405902583F820010400902407B
:104C000038B50446FEF776F9002C00F00A82054616
:104C10002268624B62498A4218BF9A420CBF012344
:104C2000002318318A4208BF43F0010318318A4239
:104C300008BF43F0010318318A4208BF43F0010363
:104C400018318A4208BF43F0010318318A4208BF75
:104C500043F0010318318A4208BF43F0010301F514
:104C600056718A4208BF43F0010318318A4208BFD7
:104C700043F0010318318A4208BF43F001031831A1
:104C80008A4208BF43F0010318318A4208BF43F04B
:104C9000010318318A4208BF43F0010318318A42E8
:104CA00008BF43F0010313B93E4B9A421AD10223C5
:104CB00084F83530002384F83430136823F001037E
:104CC000136023681A6812F0010F77D0FEF712F90B
:104CD000431B052BF5D920236365032384F8353066
:104CE000012038BD304B31498A4218BF9A420CBF6F
:104CF0000123002314318A4208BF43F00103143119
:104D00008A4208BF43F0010314318A4208BF43F0CE
:104D1000010314318A4208BF43F0010314318A426F
:104D200008BF43F001031BB9214B9A4240F0638155
:104D3000022384F83530002384F8343010686FF390
:104D40001010A368402B00F05D81802B14BF00235E
:104D500001239B03E1682569294365692943A56906
:104D60002943E5692943256A40EA151040EAD10143
:104D70000B43136022680F4B13440F4AA2FB03231B
:104D80001B099B00E3652046FFF712FEE26D02F06F
:104D90001F0101228A40426057E000BF100002401C
:104DA00028000240B8040240085402581C5402581B
:104DB00094540258F8ABFDA7CDCCCCCC1A689A49D4
:104DC0001140A268E068024320690243606902431F
:104DD000A0690243E0690243206A02430A43616A10
:104DE000042900F0C3806168522900F2C9803E297D
:104DF00040F2C1803F398D4820FA01F111F0010FD6
:104E000001D042F480121A6021684A6922F0070238
:104E1000636A1A43042B0ED1A06A0243E36A53B1BA
:104E2000A569002D40F0C280012800F0B98030F063
:104E3000020000F0AA804A612046FFF7B9FDE36D49
:104E400003F01F023F23934083602268784B794927
:104E50008A4218BF9A420CBF0123002318318A42AC
:104E600008BF43F0010318318A4208BF43F0010331
:104E700018318A4208BF43F0010318318A4208BF43
:104E800043F0010318318A4208BF43F0010318318F
:104E90008A4208BF43F0010301F556718A4208BFF8
:104EA00043F0010318318A4208BF43F0010318316F
:104EB0008A4208BF43F0010318318A4208BF43F019
:104EC000010318318A4208BF43F0010318318A42B6
:104ED00008BF43F0010318318A4208BF43F00103C1
:104EE00018318A4208BF43F0010353498A4208BF80
:104EF00043F0010314318A4208BF43F00103143127
:104F00008A4208BF43F0010314318A4208BF43F0CC
:104F1000010314318A4208BF43F0010314318A426D
:104F200008BF43F0010314318A4208BF43F0010374
:104F300013B9424B9A4213D12046FFF7B1FDA36843
:104F4000802B61D0236E22791A60636EA26E5A6044
:104F50006368013B072B5AD90023E3662367636725
:104F600000206065012384F83530BAE6E16A206BE1
:104F700001430A4337E7293905293FF644AF40E7A3
:104F8000743903293FF63FAF3BE7C3F30063002BBF
:104F90003FF451AF40236365012084F83500A0E65B
:104FA000B3F1C07F14BF00230123F0E7B5F5005F24
:104FB0000AD00228EED903287FF43DAFC3F3006383
:104FC000002B3FF438AFE5E703283FF634AF01A5E7
:104FD00055F820F0954F0008E54F0008954F000860
:104FE000EB4F0008C3F30063EAE7B3F1C07F14BFDF
:104FF00000230123E4E740236365032384F835306D
:1050000001206EE61023A5E6002363609AE72046A0
:10501000FFF7A8FDE36E00221A60236F626F5A60EB
:105020009EE701205DE600BF3F8010FE0F030F00EA
:1050300010000240280002400854025894540258BC
:10504000002800F0238110B504460268904B914976
:105050008A4218BF9A420CBF0123002318318A42AA
:1050600008BF43F0010318318A4208BF43F001032F
:1050700018318A4208BF43F0010318318A4208BF41
:1050800043F0010318318A4208BF43F0010318318D
:105090008A4208BF43F0010301F556718A4208BFF6
:1050A00043F0010318318A4208BF43F0010318316D
:1050B0008A4208BF43F0010318318A4208BF43F017
:1050C000010318318A4208BF43F0010318318A42B4
:1050D00008BF43F0010318318A4208BF43F00103BF
:1050E0001BB96D4B9A4240F08780136823F001038F
:1050F00013602268664B67498A4218BF9A420CBF08
:105100000123002318318A4208BF43F001031831FC
:105110008A4208BF43F0010318318A4208BF43F0B6
:10512000010318318A4208BF43F0010318318A4253
:1051300008BF43F0010318318A4208BF43F001035E
:1051400001F556718A4208BF43F0010318318A42C3
:1051500008BF43F0010318318A4208BF43F001033E
:1051600018318A4208BF43F0010318318A4208BF50
:1051700043F0010318318A4208BF43F0010318319C
:105180008A4208BF43F0010313B9434B9A4238D116
:105190000023136022685360226893602268D36002
:1051A00022681361236821225A612046FFF700FC20
:1051B000E36D03F01F023F23934083602046FFF717
:1051C0006FFC236E23B100221A60636EA26E5A60D8
:1051D0006368013B072B4FD90020E06620676067BA
:1051E000E06320646064A064E0642065606584F826
:1051F000350084F8340010BD136823F001031360F8
:1052000077E7264B26498A4218BF9A420CBF0123F2
:10521000002314318A4208BF43F0010314318A424B
:1052200008BF43F0010314318A4208BF43F0010371
:1052300014318A4208BF43F0010314318A4208BF87
:1052400043F0010313B9174B9A4213D100231360A3
:1052500022685360226893602268D36022681361D9
:105260002046FFF7A5FBE36D03F01F0201239340E7
:105270004360A3E70120BEE72046FFF773FCE36E1F
:1052800000221A60236F626F5A60A5E70120704701
:105290001000024028000240B8040240085402589E
:1052A0001C54025894540258002800F0D28170B562
:1052B000044690F83400012800F0CD81012084F8E4
:1052C000340094F83500C0B2012807D04FF40063D1
:1052D0006365002384F83430012070BD022084F817
:1052E00035000020606525689548964EB54218BF88
:1052F00085420CBF012000201836B54208BF40F09F
:1053000001001836B54208BF40F001001836B5421A
:1053100008BF40F001001836B54208BF40F0010058
:105320001836B54208BF40F001001836B54208BF34
:1053300040F0010006F55676B54208BF40F0010086
:105340001836B54208BF40F001001836B54208BF14
:1053500040F001001836B54208BF40F00100183691
:10536000B54208BF40F001001836B54208BF40F012
:1053700001001836B54208BF40F0010018B9724864
:10538000854240F04B81286820F0010028602046CB
:10539000FFF7DCF922686A4B6A498A4218BF9A42D1
:1053A0000CBF0123002318318A4208BF43F00103D8
:1053B00018318A4208BF43F0010318318A4208BFFE
:1053C00043F0010318318A4208BF43F0010318314A
:1053D0008A4208BF43F0010318318A4208BF43F0F4
:1053E000010301F556718A4208BF43F001031831E9
:1053F0008A4208BF43F0010318318A4208BF43F0D4
:10540000010318318A4208BF43F0010318318A4270
:1054100008BF43F0010318318A4208BF43F001037B
:1054200018318A4208BF43F001031BB9464B9A4228
:1054300040F0F980136823F01E0343F01603136055
:10544000236C23B12268136843F0080313602268B9
:105450003B4B3C498A4218BF9A420CBF01230023B0
:1054600018318A4208BF43F0010318318A4208BF4D
:1054700043F0010318318A4208BF43F00103183199
:105480008A4208BF43F0010318318A4208BF43F043
:10549000010318318A4208BF43F0010301F5567138
:1054A0008A4208BF43F0010318318A4208BF43F023
:1054B000010318318A4208BF43F0010318318A42C0
:1054C00008BF43F0010318318A4208BF43F00103CB
:1054D00018318A4208BF43F0010318318A4208BFDD
:1054E00043F0010318318A4208BF43F00103174912
:1054F0008A4208BF43F0010314318A4208BF43F0D7
:10550000010314318A4208BF43F0010314318A4277
:1055100008BF43F0010314318A4208BF43F001037E
:1055200014318A4208BF43F0010314318A4208BF94
:1055300043F0010373B9064B9A421AD10AE000BF47
:105540001000024028000240B804024008540258EB
:1055500094540258236E1A6812F4803F03D01A68DC
:1055600042F480721A60E36E1BB11A6842F48072D2
:105570001A602268394B3A498A4218BF9A420CBFD6
:105580000123002318318A4208BF43F00103183178
:105590008A4208BF43F0010318318A4208BF43F032
:1055A000010318318A4208BF43F0010318318A42CF
:1055B00008BF43F0010318318A4208BF43F00103DA
:1055C00001F556718A4208BF43F0010318318A423F
:1055D00008BF43F0010318318A4208BF43F00103BA
:1055E00018318A4208BF43F0010318318A4208BFCC
:1055F00043F0010318318A4208BF43F00103183118
:105600008A4208BF43F0010313B9164B9A421AD1DC
:10561000136843F00103136000205EE6286820F061
:1056200001002860B3E6136823F00E0343F00A0379
:105630001360236C002B3FF40AAF2268136843F019
:105640000403136003E7136843F0010313600020B1
:1056500043E60120704702203FE600BF10000240F1
:1056600028000240B804024070B50446FDF742FC31
:10567000002C00F04882054694F83530DBB2022B4E
:1056800006D080236365002384F83430012070BD88
:105690002268924B92498A4218BF9A420CBF01235A
:1056A000002318318A4208BF43F0010318318A42AF
:1056B00008BF43F0010318318A4208BF43F00103D9
:1056C00018318A4208BF43F0010318318A4208BFEB
:1056D00043F0010318318A4208BF43F0010301F58A
:1056E00056718A4208BF43F0010318318A4208BF4D
:1056F00043F0010318318A4208BF43F00103183117
:105700008A4208BF43F0010318318A4208BF43F0C0
:10571000010318318A4208BF43F0010318318A425D
:1057200008BF43F001031BB96E4B9A4240F0F7806B
:10573000136823F01E0313602268536923F080036B
:10574000536126682268654B65498A4218BF9A42B0
:105750000CBF0123002318318A4208BF43F0010324
:1057600018318A4208BF43F0010318318A4208BF4A
:1057700043F0010318318A4208BF43F00103183196
:105780008A4208BF43F0010318318A4208BF43F040
:10579000010301F556718A4208BF43F00103183135
:1057A0008A4208BF43F0010318318A4208BF43F020
:1057B000010318318A4208BF43F0010318318A42BD
:1057C00008BF43F0010318318A4208BF43F00103C8
:1057D00018318A4208BF43F0010318318A4208BFDA
:1057E00043F0010340498A4208BF43F001031431EA
:1057F0008A4208BF43F0010314318A4208BF43F0D4
:10580000010314318A4208BF43F0010314318A4274
:1058100008BF43F0010314318A4208BF43F001037B
:1058200014318A4208BF43F0010313B92F4B9A4247
:1058300004D1226E136823F4807313602268274B0F
:1058400027498A4218BF9A420CBF0123002318310E
:105850008A4208BF43F0010318318A4208BF43F06F
:10586000010318318A4208BF43F0010318318A420C
:1058700008BF43F0010318318A4208BF43F0010317
:1058800018318A4208BF43F0010301F556718A427C
:1058900008BF43F0010318318A4208BF43F00103F7
:1058A00018318A4208BF43F0010318318A4208BF09
:1058B00043F0010318318A4208BF43F00103183155
:1058C0008A4208BF43F0010318318A4208BF43F0FF
:1058D00001036BB9034B9A4227D109E01000024043
:1058E00028000240B8040240085402589454025858
:1058F000136823F001031360336813F0010F19D00C
:10590000FDF7F8FA401B0528F6D920236365032329
:1059100084F83530002384F834300120B7E613686A
:1059200023F00E03136026680CE7136823F00103CD
:105930001360E1E72268754B75498A4218BF9A42A5
:105940000CBF0123002318318A4208BF43F0010332
:1059500018318A4208BF43F0010318318A4208BF58
:1059600043F0010318318A4208BF43F001031831A4
:105970008A4208BF43F0010318318A4208BF43F04E
:10598000010301F556718A4208BF43F00103183143
:105990008A4208BF43F0010318318A4208BF43F02E
:1059A000010318318A4208BF43F0010318318A42CB
:1059B00008BF43F0010318318A4208BF43F00103D6
:1059C00018318A4208BF43F001031BB9514B9A4278
:1059D00040F09180A16DE36D03F01F023F239340DF
:1059E0008B602268494B4A498A4218BF9A420CBFD1
:1059F0000123002318318A4208BF43F00103183104
:105A00008A4208BF43F0010318318A4208BF43F0BD
:105A1000010318318A4208BF43F0010318318A425A
:105A200008BF43F0010318318A4208BF43F0010365
:105A300001F556718A4208BF43F0010318318A42CA
:105A400008BF43F0010318318A4208BF43F0010345
:105A500018318A4208BF43F0010318318A4208BF57
:105A600043F0010318318A4208BF43F001031831A3
:105A70008A4208BF43F0010318318A4208BF43F04D
:105A8000010325498A4208BF43F0010314318A42C9
:105A900008BF43F0010314318A4208BF43F00103F9
:105AA00014318A4208BF43F0010314318A4208BF0F
:105AB00043F0010314318A4208BF43F0010314315B
:105AC0008A4208BF43F0010313B9144B9A420BD129
:105AD000636EA26E5A60E36E33B11A6822F480726C
