:020000040800F2
:1000000000000524C52E0008C12A0008C32A0008E4
:10001000C52A0008C72A0008C92A000800000000F5
:10002000000000000000000000000000CB2A0008D3
:10003000CD2A000800000000CF2A0008D12A0008BD
:10004000192F0008192F0008192F0008192F000870
:10005000192F0008192F0008192F0008192F000860
:10006000192F0008192F0008192F0008D92A000895
:10007000E92A0008F92A0008092B0008192B0008B2
:10008000292B0008392B0008492B0008192F0008DC
:10009000192F0008192F0008192F0008192F000820
:1000A000192F0008192F0008192F0008192F000810
:1000B000192F0008192F0008592B0008692B000878
:1000C000792B0008892B0008992B0008192F0008AC
:1000D000192F0008A92B0008192F0008B92B0008B8
:1000E000192F0008192F000800000000192F000820
:1000F000192F0008192F0008192F0008C92B000814
:10010000192F0008192F0008192F0008192F0008AF
:10011000D92B0008E92B0008F92B0008092C00084E
:10012000192F0008192C0008292C0008392C000868
:10013000492C0008192F0008192F0008192F000852
:1001400000000000000000000000000000000000AF
:10015000592C0008692C0008792C0008192F000878
:10016000892C0008992C0008192F0008192F000865
:10017000192F0008192F0008192F0008000000008F
:10018000192F0008192F0008192F0008A92C0008A2
:10019000192F0008192F0008192F0008B92C000882
:1001A000192F0008192F0008192F0008000000005F
:1001B000192F0008192F0008192F0008D12C00084A
:1001C000E12C0008192F00080000000000000000CA
:1001D0000000000000000000192F000800000000CF
:1001E000000000000000000000000000000000000F
:1001F0000000000000000000192F0008192F00085F
:10020000192F0008192F000800000000192F0008FE
:10021000192F0008192F0008192F0008192F00089E
:10022000192F000800000000192F0008000000002E
:10023000F12C0008192F000800000000012D000813
:10024000192F0008112D0008212D0008192F000872
:10025000192F0008192F0008192F0008192F00085E
:10026000192F0008192F0008192F0008192F00084E
:10027000192F0008192F0008192F0008000000008E
:10028000192F0008192F0008192F0008192F00082E
:1002900000000000192F0008192F000800000000BE
:1002A00000000000192F0008192F0008192F00085E
:1002B000192F0008312D0008192F0008192F0008E8
:0C02C000192F0008192F0008192F000842
:1002D00010B5054C237833B9044B13B10448AFF380
:1002E00000800123237010BD800600240000000060
:1002F000C014020808B5034B1BB103490348AFF310
:10030000008008BD0000000084060024C01402081C
:1003100001F0FF01102A2BDB10F0070F08D010F8B6
:10032000013B013A8B422DD010F0070F42B3F6D1BA
:10033000F0B441EA012141EA014122F007047FF0D3
:1003400000070023F0E80256083C85EA010586EA2A
:10035000010685FA47F5A3FA87F586FA47F6A5FA66
:1003600087F68EB9EED1F0BC01F0FF0102F0070272
:1003700032B110F8013B013A83EA010313B1F8D11D
:100380000020704701387047002D06BF35460338FE
:10039000073815F0010F07D1013015F4807F02BF37
:1003A000013015F4C03F0130F0BC0138704700BF88
:1003B000034613F8012B002AFBD1181A01387047A5
:1003C00053B94AB9002908BF00281CBF4FF0FF31BC
:1003D0004FF0FF3000F088B9ADF1080C6DE904CEA4
:1003E00000F006F8DDF804E0DDE9022304B0704710
:1003F0002DE9F047089D8E4604468846002B4AD1D9
:100400008A42174662D9B2FA82F64EB1C6F120038B
:1004100001FA06F820FA03F3B74043EA0808B440AB
:100420004FEA174E1FFA87FCB8FBFEF1230C0EFBB8
:10043000118843EA084301FB0CF29A4209D9FB18E0
:1004400001F1FF3080F0EA809A4240F2E780023901
:100450003B449A1AA3B2B2FBFEF00EFB102243EA11
:10046000024300FB0CFC9C4509D9FB1800F1FF324C
:1004700080F0D6809C4540F2D3803B44023840EA6D
:100480000140A3EB0C0300211DB1F3400022C5E99C
:100490000032BDE8F0878B4205D90DB1C5E90001F6
:1004A00000210846F5E7B3FA83F1002946D17345E8
:1004B00002D3824200F20581841A6EEB030201200E
:1004C0009046002DE5D0C5E90048E2E7002A00F09B
:1004D0009080B2FA82F6002E40F0A4808A1A030CB3
:1004E0004FEA174E80B2BCB20121B2FBFEFC0EFBFC
:1004F0001C2243EA024304FB0CF29A4207D9FB1880
:100500000CF1FF3802D29A4200F2E080C4469B1AF6
:10051000B3FBFEF20EFB123340EA034302FB04F48A
:100520009C4207D9FB1802F1FF3002D29C4200F234
:10053000CA8002461B1B42EA0C40A5E7C1F1200617
:100540008B4022FA06F71F430EFA01F420FA06F355
:100550002EFA06FE4FEA1749234300FA01F81FFA64
:1005600087FCBEFBF9F01C0C09FB10EE44EA0E44BC
:1005700000FB0CFEA64502FA01F209D93C1900F174
:10058000FF3A80F09C80A64540F2998002383C44B6
:10059000A4EB0E041FFA83FEB4FBF9F309FB13442A
:1005A0004EEA044403FB0CFCA44508D93C1903F1B2
:1005B000FF3E80F08280A4457FD9023B3C4443EA61
:1005C0000040A4EB0C04A0FB02EC64457346E1463A
:1005D00062D35FD05DB1B8EB030264EB090404FAA7
:1005E00006F622FA01F31E43CC40C5E9006400215F
:1005F0004FE7B1FBF2FC010C41EA0E4180B240EA48
:1006000001423B4638463C46B846BE462026B1FB32
:10061000F7F1A2EB080241EA0C4166E7014618E750
:1006200010462CE7C6F120022EFA02F3B740B14083
:1006300020FA02F24FEA174E0A43B3FBFEF8BCB2AF
:100640000EFB1833110C41EA034108FB04F9B040DA
:1006500089454FEA104380B23ED9791808F1FF3C32
:1006600001D289451FD8A1EB0901B1FBFEF909FBB5
:1006700004F80EFB191192B242EA0142424529D216
:10068000BA1809F1FF31C4D24245C2D2A9F1020120
:100690003A44BEE7F0459DD2BEEB02036CEB070C7B
:1006A0000138E14696E7A7EB09094944A8F1020C95
:1006B000B1FBFEF909FB04F8DBE773467FE7504620
:1006C00066E70846FDE63B44023A33E7ACF1020C2C
:1006D0003B441CE749469CE7A1EB0901C446B1FB3A
:1006E000FEF909FB04F8C4E7704700BF90281BD04F
:1006F0000B781B021A4A138049780B431380194A5E
:1007000001211170184A1288184921F81230184B2B
:100710001B88072B02D8013315490B80013202F0E8
:100720000702114B1A8070470B781B02114A138085
:1007300049780B431380104A012111700F4A128827
:100740000F4921F812300F4B1B88072B02D80133B9
:100750000C490B80013202F00702084B1A807047E7
:10076000F6060024F4060024F0060024D006002437
:10077000CA060024F8060024F5060024F206002428
:10078000E0060024CC0600247047000010B582B0BB
:10079000214B1C7824B1204B1C78204602B010BDA0
:1007A00017F042FC1D4B1A681D4B19681AF0CCFD5E
:1007B0000028F0D017F038FC194B18600023019383
:1007C000C2238DF8043083238DF80530154B1B8828
:1007D00053B9022301AA0121902017F05BF80128E8
:1007E0000ED1104B01221A80022301AA012192206E
:1007F00017F050F8012807D0084B0A221A60CAE700
:10080000064B0A221A60C8E7064B00221A80024BE8
:1008100001221A70BFE700BFC8060024AC060024FE
:10082000B0060024A806002407EE900AF8EEE77A46
:100830009FED177A67EE877A9FED167A67EE877AD3
:10084000B7EEE70A9FED106BB4EEC60BF1EE10FAAF
:1008500015D99FED117AF4EEC77AF1EE10FA02DBAA
:100860009FED0E0A704708B5B0EE041B20F030FA79
:10087000B3EE097B20EE070BB7EEC00B08BD9FED72
:10088000070A7047AFF300807B14AE47E17A843FDC
:100890006F128340000000383333534000000000E3
:1008A000484B1B7803B9704710B517F0BDFB464B9A
:1008B0001A68464B19681AF047FDE8B117F0B4FB07
:1008C000424B1860424B1B884BB9022200219020FA
:1008D00017F01CF8012869D13D4B01221A80022231
:1008E0000021922017F012F8012863D1384B002222
:1008F0001A80354B64221A60364B1B784BB3354B4C
:1009000000221A70344B1C88002C57D0334A02EB5B
:100910004400002332F8021F0B448242FAD1B3FB99
:10092000F4F39CB22046FFF77FFF2D4B83ED000AC6
:100930002C4B1C8007EE904AF8EEE77A9FED2A7A5E
:1009400067EE877A9FED297A67EE877A284BC3EDA9
:10095000007A284B1B7843B3264B00221A70264B93
:100960001C886CB3254A02EB4400002332F8021FB6
:100970000B449042FAD1B3FBF4F39CB22046FFF74C
:1009800053FF1F4B83ED000A1E4B1C8007EE904A5D
:10099000F8EEE77A9FED147A67EE877A9FED137A87
:1009A00067EE877A184BC3ED007A10BD064B0A221A
:1009B0001A60FAE7044B0A221A60F6E70023AEE752
:1009C0000023D8E7C8060024A0060024A4060024BB
:1009D0009C060024F5060024CC060024DE06002434
:1009E000C4060024B60600246F12834000000038BD
:1009F000BC060024F4060024CA060024CE06002407
:100A0000C0060024B4060024B8060024014B93ED70
:100A1000000A7047C4060024014B93ED000A70479A
:100A2000C006002470470000902810D00B781B02ED
:100A30000F4A138049780B43138007EE103ABAEE41
:100A4000EC7BB7EEC77B0B4B83ED007A70470B78DE
:100A50001B02094A138049780B43138007EE103AB2
:100A6000BAEEEC7BB7EEC77B044B83ED007A7047A0
:100A7000120700240C070024100700240807002494
:100A800000B585B017F0D0FA0022254B19681AF08E
:100A90005BFC10B905B05DF804FB17F0C5FA204BFC
:100AA00018604FF47A730293022301931D4B009355
:100AB0000123002290211C4806F0E4FB78B9194B71
:100AC0001A785B7843EA0223184A138007EE103A3B
:100AD000BAEEEC7BB7EEC77B154B83ED007A4FF493
:100AE0007A730293022301930E4B00930123002299
:100AF00092210D4806F0C6FB0028CBD1094B1A788D
:100B00005B7843EA02230B4A138007EE103ABAEEF1
:100B1000EC7BB7EEC77B084B83ED007ABAE700BFEA
:100B200004070024FC060024B41400241007002449
:100B300008070024120700240C070024014B93ED42
:100B4000000A704708070024014B93ED000A704724
:100B50000C07002400B59DB04C22002109A81EF00E
:100B600017FA2022002101A81EF012FA022007F035
:100B7000D7FE00230093224B9A6942F440429A61C7
:100B80009B6903F440430093009B1D4A936913F44F
:100B9000005FFBD0092309934FF480330A930122AD
:100BA0000E920223129313931492602215921693BD
:100BB0007D22179218930C23199300231A931B93E9
:100BC00009A807F0D5FEB0B93F2301930323029390
:100BD00000230393082304934023059306934FF4C3
:100BE000806207920893022101A808F0AFFA20B9A9
:100BF0001DB05DF804FB72B6FEE772B6FEE700BFFB
:100C00000048025800B5AFB09822002108A81EF095
:100C1000BFF94FF410220023CDE9002301230293F2
:100C2000182203920222049205920693C02307938E
:100C30004FF480331493684608F026FD10B92FB0A6
:100C40005DF804FB72B6FEE72DE980489BB00024F6
:100C5000119412941394149403F090FC01238DF8D2
:100C600044308DF8454012941F228DF84C20872285
:100C70008DF84D208DF84E408DF84F408DF8503056
:100C80008DF851308DF852408DF8534011A803F083
:100C900093FC042003F080FC02F066F9CB4B5B6907
:100CA00013F4803F28D1C94BC3F88440BFF34F8F62
:100CB000D3F88030C3F3C906C3F34E335C0143F667
:100CC000E075C24804EA0501334641EA8372C0F880
:100CD0006022013BB3F1FF3FF7D1203C14F1200F1C
:100CE000F0D1BFF34F8FB94A536943F48033536156
:100CF000BFF34F8FBFF36F8FB44B5B6913F4003FAB
:100D000013D1BFF34F8FBFF36F8FB04B0022C3F8E7
:100D10005022BFF34F8FBFF36F8F5A6942F40032F6
:100D20005A61BFF34F8FBFF36F8F0023119312935C
:100D300013931493BFF34F8FA54BA449A54AC1F851
:100D4000683220339342FAD1BFF34F8FBFF36F8FD6
:100D500003F014FC01268DF844609D4B12934FF074
:100D60000D0A8DF84CA08DF8456000248DF84E409A
:100D700003278DF84F708DF853408DF852408DF851
:100D800051408DF84D408DF8504011A803F014FCEF
:100D9000042003F001FCFFF7DDFEFFF733FF17F03F
:100DA0004FF916F055FE16F0CDFE119412941394DF
:100DB00014941594884DD5F8E03043F01003C5F82D
:100DC000E030D5F8E03003F010030493049BD5F82D
:100DD000E03043F00403C5F8E030D5F8E03003F02C
:100DE00004030593059BD5F8E03043F08003C5F874
:100DF000E030D5F8E03003F080030693069BD5F889
:100E0000E0303343C5F8E030D5F8E03033400793A5
:100E1000079BD5F8E03043F00203C5F8E030D5F881
:100E2000E03003F002030893089BD5F8E03043F06C
:100E30000803C5F8E030D5F8E03003F00803099363
:100E4000099B22464EF21001644805F0B7FEDFF818
:100E500094B122463146584605F0B0FEDFF888913D
:100E600022464FF45061484605F0A8FEDFF87C8129
:100E7000224641F20F01404605F0A0FE4EF210035B
:100E8000119312961394149411A9544805F0E8FC98
:100E9000119612961394149411A9584605F0E0FC8B
:100EA000802311931294139411A9584605F0D8FC8D
:100EB000062311931294139411A9494805F0D0FC0C
:100EC000802311934FF404131293139411A94846ED
:100ED00005F0C6FC4FF450631193129613941494CA
:100EE00011A9484605F0BCFC4FF40073119312940D
:100EF000139411A9484605F0B3FC41F20F03119376
:100F000012961394149411A9404605F0A9FC44F2DA
:100F1000200311931294139411A9404605F0A0FCEC
:100F20004FF4004311934FF488131293139411A9B3
:100F3000404605F095FC21464FF0807002F068F8BD
:100F4000D5F8D8303343C5F8D830D5F8D830334049
:100F50000293029BD5F8D83043F00203C5F8D8308D
:100F6000D5F8D83003F002030393039B22460421F3
:100F70000B2003F089FA0B2003F0BAFA2246394617
:100F80000C2003F081FA0C2003F0B2FA224604216F
:100F9000504603F079FA504603F0AAFA2246314649
:100FA0000E2003F071FA0E2003F0A2FA2246314619
:100FB0000F2003F069FA0F2003F09AFA224639460F
:100FC000102003F061FA102012E000BF00ED00E0F5
:100FD00000400030008000300044025800080258F1
:100FE000000402580000025800100258000C025879
:100FF00003F07EFA22463146112003F045FA112013
:1010000003F076FA224621462F2003F03DFA2F20E6
:1010100003F06EFA22463946392003F035FA3920BA
:1010200003F066FA224631463A2003F02DFA3A20C0
:1010300003F05EFA224604213B2003F025FA3B2010
:1010400003F056FA224621463C2003F01DFA3C20CC
:1010500003F04EFA22462146442003F015FA4420BC
:1010600003F046FA22463146452003F00DFA4520AA
:1010700003F03EFA22463146462003F005FA4620A8
:1010800003F036FAD5F8E03043F40013C5F8E03049
:10109000D5F8E03003F400130193019B22460421AC
:1010A000812003F0F1F9812003F022FA2246042185
:1010B000822003F0E9F9822003F01AFAA748A84B2E
:1010C0000360446084604FF40053436184610223F1
:1010D000C36104624462C460C46204631022426358
:1010E0002246214609F07EFF002840F0D4839D4827
:1010F0009D4B036002234360012282604FF4005243
:101100004261C3610021C160C162016341630A465B
:1011100009F068FF002840F0C08300240D940E946D
:101120000F942422214611A81DF032FF8F48904BC6
:1011300003604460082282600123036142610476F7
:1011400044760322C26180F820408462C462026354
:10115000C463046480F84440836402F041FF0028C3
:1011600040F09D8300230D930DA9804803F0E8F81B
:10117000002840F096837F4B11930623129313931C
:1011800040F2FF73149304231593002316938DF8F4
:10119000653011A9754802F0F7F8002840F0838304
:1011A000754B11930C23129311A9704802F0ECF8BF
:1011B000002840F07A83714B11931223129311A9E6
:1011C0006A4802F0E1F8002840F0718324220021EF
:1011D00011A81DF0DDFE6A486A4B036000234360DE
:1011E00008228260C3600121016142610376437677
:1011F0000322C26180F820308362C36280F8381015
:1012000043630263C363036480F84430836402F081
:10121000E7FE002840F04D8301231193062312932B
:10122000139340F2FF731493042315930023169332
:10123000189311A9524802F0A7F8002840F03B8308
:10124000514B11930C23129311A94D4802F09CF8B5
:10125000002840F032834D4B11931223129311A9B1
:10126000474802F091F8002840F029832422002109
:1012700011A81DF08DFE4648464B036003F0C8F9E7
:10128000002840F01E83002211920623129313922D
:1012900001231493159211A93D4803F003FA002885
:1012A00040F01183102211A9394803F0FBF90028FE
:1012B00040F00B833848394B0360394B43600023BF
:1012C00083600122C260036143618361C361036281
:1012D00005F064FE002840F0FA8200212E4807F055
:1012E000C5FA002840F0F58200212B4807F0ECFAFF
:1012F000002840F0F0822B482B4B0360284B4360C2
:10130000002383600122C260036143618361C36182
:10131000036205F043FE002840F0DF8200212148EF
:1013200007F0A4FA002840F0DA8200211D4807F0F7
:10133000CBFA002840F0D5821C481D4B03601D4BA2
:101340004360002383600122C260036143618361C3
:10135000C361036205F022FE2EE000BF940E00245C
:1013600004580140FC0D002424580140F4160024C8
:10137000002002400800900C0004002A0008302ED3
:10138000841600240060025802003004000084CB60
:101390008015002400740040B41400240054004060
:1013A000AE3290006014002400580040B8130024AE
:1013B000001C00582710C720002840F0948200210C
:1013C000A74807F053FA002840F08F820021A44874
:1013D00007F07AFA002840F08A82A24AA24B1360F2
:1013E0004FF480335360002393604FF48041D16009
:1013F0001361032151610D930E930F9310930A9380
:101400000B930C93119312931393149315931693B8
:10141000179396484FF080420260BF22426083607B
:1014200040F2E732C260036183610BF031FC0028B7
:1014300040F05F824FF480530D930DA98B480BF061
:1014400073FD002840F0578288480BF051FC0028BB
:1014500040F0538200230A930C930AA983480CF0AE
:10146000FBF9002840F04B82602311930023129374
:1014700013931593042211A97C480BF0ABFC0028B0
:1014800040F03F82082211A978480BF0A3FC002805
:1014900040F039820C2211A974480BF09BFC002803
:1014A00040F03382714801F037F800230D930E931A
:1014B0000F9310930A930B930C931193129313931E
:1014C000149315931693179369486A4A0260436010
:1014D0008360EF22C260036183610BF0D9FB0028B7
:1014E00040F015824FF480530D930DA960480BF026
:1014F0001BFD002840F00D825D480BF0F9FB002831
:1015000040F0098200230A930C930AA958480CF072
:10151000A3F9002840F00182602311930023129365
:1015200013931593042211A951480BF053FC002882
:1015300040F0F5814E4800F0EFFF4F484F4B0360FD
:101540004FF4E133436000238360C36003610C22E6
:1015500042618361C3610362436283620DF027FCD1
:10156000002840F0DE81002143480DF055FD0028A1
:1015700040F0D981002140480DF073FD002840F073
:10158000D4813D480DF029FD002840F0E9813C4818
:101590003C4B03604FF4E133436000238360C3603E
:1015A00003610C2242618361C3610362436283620F
:1015B0000DF0FDFB002840F0D581002130480DF0F2
:1015C0002BFD002840F0D08100212D480DF049FD71
:1015D000002840F0CB812A480DF0FFFC002840F0A5
:1015E000C7812948294B03604FF4E133436000234E
:1015F0008360C36003610C2242618361C361036243
:10160000436283620DF0D3FB002840F0B3810021D8
:101610001D480DF001FD002840F0AE8100211A4860
:101620000DF01FFD002840F0A98117480DF0D5FCF2
:10163000002840F0A5811648164B03604FF4E133B3
:10164000436000238360C36003610C2242618361B5
:10165000C3610362436283620DF0A9FB1CE000BF1B
:10166000B8130024900C002400240248F80B002436
:10167000AC0B002400080040540A0024004C004039
:10168000C0090024005000402C090024007C0040C8
:101690009808002400100140002840F073810021C8
:1016A000A3480DF0B9FC002840F06E810021A0484D
:1016B0000DF0D7FC002840F069819D480DF08DFCAD
:1016C000002840F065819B489B4B03604FF4E13359
:1016D000436000238360C36003610C224261836125
:1016E000C3610362436283620DF061FB002840F036
:1016F000518100218F480DF08FFC002840F04C8173
:1017000000218C480DF0ADFC002840F0478189484D
:101710000DF063FC002840F043810EF0A9F88748E3
:10172000874B0360874B4360002383600122C260C4
:10173000036143618361C361036205F02FFC0028EC
:1017400040F0308100217D4807F090F8002840F0FB
:101750002B810021794807F0B7F8002840F0268156
:1017600000231193129313937748784A0260BF22A3
:10177000426083606323C360802383610BF088FA37
:10178000002840F0158100231193139311A96E488E
:101790000CF062F8002840F00D816D486D4B03603D
:1017A000684B4360002383600122C2600361436190
:1017B0008361C361036205F0F1FB002840F0FC8007
:1017C0000021634807F052F8002840F0F78000211C
:1017D0005F4807F079F8002840F0F2800023119369
:1017E0001293139314930D930E930F935A485B4ADD
:1017F00002604360836041F63F72C26003614361EF
:1018000083610BF045FA002840F0DC804FF48053F0
:10181000119311A950480BF087FB002840F0D480A9
:1018200020230D9300230E930F930DA94A480CF02B
:1018300013F8002840F0CA8016F0E4FC16F06CFBA8
:1018400016F048FB11F030FF16F04CFD0FF084F954
:1018500015F080FD15F04EFD17F0F6FF16F012FBA7
:101860004FF47A7001F0C0FB16F002FB4FF4FA70EF
:1018700001F0BAFB16F058FB16F026FC16F00EFC31
:1018800015F07EFE16F058FD17F03CFC19F0A0F89C
:1018900015F026FCF0E772B6FEE772B6FEE772B608
:1018A000FEE772B6FEE772B6FEE772B6FEE772B604
:1018B000FEE772B6FEE772B6FEE772B6FEE772B6F4
:1018C000FEE772B6FEE772B6FEE772B6FEE772B6E4
:1018D000FEE772B6FEE772B6FEE772B6FEE772B6D4
:1018E000FEE772B6FEE772B6FEE772B6FEE772B6C4
:1018F000FEE772B6FEE772B6FEE772B6FEE772B6B4
:10190000FEE772B6FEE772B6FEE772B6FEE772B6A3
:10191000FEE772B6FEE772B6FEE772B6FEE772B693
:10192000FEE772B6FEE772B6FEE772B6FEE700BFEC
:101930009808002404080024004800400C140024E7
:10194000005C0040AE329000600B002400140040A8
:101950006413002400640040440C00240000014093
:1019600072B6FEE772B6FEE772B6FEE772B6FEE743
:1019700072B6FEE772B6FEE772B6FEE772B6FEE733
:1019800072B6FEE772B6FEE772B6FEE772B6FEE723
:1019900072B6FEE772B6FEE772B6FEE772B6FEE713
:1019A00072B6FEE772B6FEE772B6FEE772B6FEE703
:1019B00072B6FEE772B6FEE772B6FEE772B6FEE7F3
:1019C00072B6FEE772B6FEE772B6FEE772B6FEE7E3
:1019D00072B6FEE782B0074BD3F8F42042F0020261
:1019E000C3F8F420D3F8F43003F002030193019B11
:1019F00002B070470044025830B58BB00446002353
:101A0000059306930793089309930368574A9342F3
:101A100004D0574A93425DD00BB030BD554BD3F83C
:101A2000D82042F02002C3F8D820D3F8D82002F002
:101A300020020092009AD3F8E02042F00402C3F89A
:101A4000E020D3F8E02002F004020192019AD3F8DA
:101A5000E02042F00102C3F8E020D3F8E03003F0C8
:101A600001030293029B03250595069505A94248AB
:101A700004F0F6FE4023059306950025079505A979
:101A80003E4804F0EDFE3E483E4B036009234360B0
:101A90008560C5604FF4806303614FF40063436168
:101AA0004FF4005383614FF48073C3610562456254
:101AB00003F01AF958B9324BA3659C630022042144
:101AC000122002F0E1FC122002F012FDA4E7FFF761
:101AD0007FFFF0E7274BD3F8E02042F08072C3F895
:101AE000E020D3F8E02002F080720392039AD3F84A
:101AF000E02042F00402C3F8E020D3F8E03003F025
:101B000004030493049B4FF08061084601F080FABF
:101B10004FF00061084601F07BFA1B481B4B036045
:101B20007323436000238360C3604FF480620261CB
:101B30004FF4006242614FF4005282614FF48072B0
:101B4000C2610362436203F0CFF858B90E4BA3653C
:101B50009C63002204217F2002F096FC7F2002F08B
:101B6000C7FC59E7FFF734FFF0E700BF0020024051
:101B70000060025800440258000802580000025851
:101B80000C1600244004024094150024100002406A
:101B900010B588B00023039304930593069307932D
:101BA0000268284B9A4201D008B010BD0446264B6B
:101BB000D3F8E82042F00052C3F8E820D3F8E82038
:101BC00002F000520192019AD3F8E02042F00102A3
:101BD000C3F8E020D3F8E03003F001030293029B46
:101BE000302303930323049303A9184804F038FE19
:101BF0001748184B0360432343604023836000234E
:101C0000C3604FF4806202614FF4006242614FF49E
:101C1000005282614FF48072C2610362436203F03A
:101C200063F858B90A4BA3609C6300221146362022
:101C300002F02AFC362002F05BFCB5E7FFF7C8FE95
:101C4000F0E700BF00740040004402580000025852
:101C500008150024580402402DE9F041C0B00446A4
:101C600000213B913C913D913E913F91B8220CA8BF
:101C70001DF08EF92368804A934212D07F4A934226
:101C800000F084807E4A934200F014817D4A9342A2
:101C900000F0A0817C4A934200F0108240B0BDE881
:101CA000F08108220023CDE90C230CA807F0ECFCFE
:101CB000002862D1754ED6F8E03043F00203C6F832
:101CC000E030D6F8E03003F002030193019BC0231B
:101CD0003B9312233C9300253D953E9504233F936F
:101CE0003BA96B4804F0BCFDD6F8E83043F4001380
:101CF000C6F8E830D6F8E83003F400130293029BEC
:101D00006448654B03602223436040238360C560C1
:101D10004FF48063036145618561C5610562456279
:101D200002F0E2FF60BB5B4BA3639C635B485C4BD0
:101D300003602123436000238360C3604FF480620B
:101D4000026143618361C3610362436202F0CCFFBD
:101D5000C8B9524BE3639C63002201211F2002F0AB
:101D600093FB1F2002F0C4FB00220121202002F07F
:101D70008BFB202002F0BCFB90E7FFF729FE99E7E0
:101D8000FFF726FECFE7FFF723FEE2E70822002356
:101D9000CDE90C230CA807F077FC002863D13B4E5B
:101DA000D6F8E03043F00203C6F8E030D6F8E03071
:101DB00003F002030393039B4FF440633B9312230E
:101DC0003C9300253D953E9504233F933BA9304825
:101DD00004F046FDD6F8E83043F48003C6F8E83056
:101DE000D6F8E83003F480030493049B2D482E4B6F
:101DF00003602423436040238360C5604FF4806305
:101E0000036145618561C5610562456202F06CFF51
:101E100060BB244BA3639C632448254B03602323AE
:101E2000436000238360C3604FF4806202614361BA
:101E30008361C3610362436202F056FFC8B91B4B62
:101E4000E3639C6300220121212002F01DFB21207D
:101E500002F04EFB00220121222002F015FB22207D
:101E600002F046FB1AE7FFF7B3FD98E7FFF7B0FD76
:101E7000CFE7FFF7ADFDE2E7005400400058004017
:101E8000005C0040001C0058006400400044025800
:101E900000040258EC120024A00402407412002432
:101EA000B8040240FC1100245800024084110024B0
:101EB0007000024008220023CDE90C230CA807F093
:101EC000E3FB00287DD1A84ED6F8E03043F00403B0
:101ED000C6F8E030D6F8E03003F004030593059B24
:101EE000D6F8E03043F00103C6F8E030D6F8E03031
:101EF00003F001030693069B4FF400733B934FF0EE
:101F00001208CDF8F08000253D953E9504273F97B7
:101F10003BA9964804F0A4FC4FF480733B93CDF8A2
:101F2000F0803D953E953F973BA9914804F098FC81
:101F3000D6F8E83043F40003C6F8E830D6F8E830C5
:101F400003F400030793079B8A488B4B03604A23E3
:101F5000436040238360C5604FF480630361456143
:101F60008561C5610562456202F0BEFE60BB814BC2
:101F7000A3639C638148824B036049234360002331
:101F80008360C3604FF48062026143618361C36117
:101F90000362436202F0A8FEC8B9784BE3639C6316
:101FA00000220221482002F06FFA482002F0A0FA35
:101FB00000220221492002F067FA492002F098FA33
:101FC0006CE6FFF705FD7EE7FFF702FDCFE7FFF7C1
:101FD000FFFCE2E710220023CDE90C230CA807F058
:101FE00053FB002861D1604ED6F8E03043F0020385
:101FF000C6F8E030D6F8E03003F002030893089BFF
:102000004FF440733B9312233C9300253D953E953E
:1020100006233F933BA95B4804F022FCD6F8F4303A
:1020200043F08003C6F8F430D6F8F43003F08003B0
:102030000993099B5448554B03600E23436040238A
:102040008360C5604FF48063036145618561C5614C
:10205000056202F049FE58BB4B4BA3639C634C489E
:102060004C4B03600D23436000238360C3604FF437
:102070008062026143618361C361036202F034FEE6
:10208000C8B9434BE3639C63002202215F2002F046
:10209000FBF95F2002F02CFA00220221602002F0FE
:1020A000F3F9602002F024FAF8E5FFF791FC9AE7D3
:1020B000FFF78EFCD0E7FFF78BFCE2E70822002356
:1020C000CDE90C230CA807F0DFFA002845D1264EF5
:1020D000D6F8E03043F00403C6F8E030D6F8E0303C
:1020E00003F004030A930A9B4FF440633B931223CB
:1020F0003C9300253D953E9504233F933BA91B4807
:1021000004F0AEFBD6F8E83043F00073C6F8E830D0
:10211000D6F8E83003F000730B930B9B1E481F4B5F
:1021200003607D23436040238360C5604FF4806378
:10213000036145618561C5610562456202F0D4FDB8
:1021400070B9154BA3639C63002201219D2002F00E
:102150009BF99D2002F0CCF9A0E5FFF739FCB6E72A
:10216000FFF736FCEDE700BF0044025800080258B4
:10217000000002580C110024A0000240941000241A
:10218000B8000240000402581C10002408540258F1
:10219000A40F00241C5402582C0F002440000240BD
:1021A00038B504460368514A93420CD0504A9342D2
:1021B00026D0504A934242D04F4A93425DD04F4A74
:1021C00093427AD038BD4E4AD2F8E83023F4001357
:1021D000C2F8E8304B4D4021284604F03DFC8021F8
:1021E000284604F039FCA06B02F09EFFE06B02F081
:1021F0009BFF1F2002F08AF9202002F087F9E1E717
:102200003F4AD2F8E83023F48003C2F8E8303D4D6D
:102210004FF48061284604F01FFC4FF4006128460B
:1022200004F01AFCA06B02F07FFFE06B02F07CFF71
:10223000212002F06BF9222002F068F9C2E7304A4F
:10224000D2F8E83023F40003C2F8E8304FF400710C
:102250002D4804F001FC4FF480712C4804F0FCFB85
:10226000A06B02F061FFE06B02F05EFF482002F01D
:102270004DF9492002F04AF9A4E702F50A32D2F8F2
:10228000F43023F08003C2F8F4301E4D4FF4807117
:10229000284604F0E1FB4FF40071284604F0DCFB13
:1022A000A06B02F041FFE06B02F03EFF5F2002F006
:1022B0002DF9602002F02AF984E7114AD2F8E830BB
:1022C00023F00073C2F8E8300F4D4FF480612846C8
:1022D00004F0C2FB4FF40061284604F0BDFBA06B84
:1022E00002F022FF9D2002F011F96BE7005400403C
:1022F00000580040005C0040001C00580064004092
:102300000044025800040258000802580000025815
:1023100030B589B000230393049305930693079384
:102320000268264B9A4201D009B030BD244BD3F845
:10233000DC2042F40072C3F8DC20D3F8DC2002F485
:1023400000720092009AD3F8E02042F00202C3F833
:10235000E020D3F8E02002F002020192019AD3F8C3
:10236000E02042F00802C3F8E020D3F8E03003F0A8
:1023700008030293029B4CF2180303930224049473
:10238000032506950923079303A90E4804F068FA6C
:10239000C023039304940024059406950B2307930C
:1023A00003A9094804F05CFA224601217C2002F0CE
:1023B0006BF87C2002F09CF8B6E700BF00240248CE
:1023C0000044025800040258000C025808B5026884
:1023D0000B4B9A4200D008BD0A4AD2F8DC3023F4F5
:1023E0000073C2F8DC304CF21801074804F034FBEB
:1023F000C021064804F030FB7C2002F087F8EAE7B1
:10240000002402480044025800040258000C0258FC
:1024100010B584B003683A4A93420BD00446B3F136
:10242000804F15D0374A934220D0374A934251D03B
:1024300004B010BD354BD3F8F02042F00102C3F8D0
:10244000F020D3F8F03003F001030093009BEFE796
:102450002E4BD3F8E82042F00102C3F8E820D3F86D
:10246000E83003F001030193019BE1E7274BD3F828
:10247000E82042F00402C3F8E820D3F8E83003F083
:1024800004030293029B2248224B03601E234360F5
:10249000402383600023C3604FF4806202614FF4E5
:1024A000006242614FF400528261C3610362436281
:1024B00002F01AFC58B9164BA3629C630022032158
:1024C0001E2001F0E1FF1E2002F012F8B0E7FFF736
:1024D0007FFAF0E70D4BD3F8E82042F02002C3F872
:1024E000E820D3F8E83003F020030393039B002295
:1024F0000421372001F0C8FF372001F0F9FF97E7EA
:102500000000014000080040001400400044025850
:10251000E80A00242804024000B589B00023039390
:1025200004930593069307930368B3F1804F05D096
:102530001B4A93421AD009B05DF804FB194BD3F83B
:10254000E02042F00102C3F8E020D3F8E03003F0CD
:1025500001030193019B0E230393022304930123A0
:10256000079303A9104804F07BF9E4E70D4BD3F877
:10257000E02042F00802C3F8E020D3F8E03003F096
:1025800008030293029B4FF4005303930223049326
:102590000593079303A9054804F062F9CBE700BF50
:1025A000000800400044025800000258000C025885
:1025B00030B5BFB00446002139913A913B913C912E
:1025C0003D91B8220AA81CF0E3FC2368B64A934266
:1025D00010D0B64A934261D0B54A934200F0998038
:1025E000B44A934200F0CF80B34A934200F0208176
:1025F0003FB030BD02220023CDE90A230AA807F02C
:1026000043F8002844D1AD4BD3F8E82042F400222F
:10261000C3F8E820D3F8E82002F400220092009AE0
:10262000D3F8E02042F00102C3F8E020D3F8E03014
:1026300003F001030193019B4FF4C053399302232C
:102640003A9300253B953C9506233D9339A99C4838
:1026500004F006F99B489C4B036040234360836071
:10266000C5604FF48063036145618561C5610562A2
:10267000456202F039FB70B9924BE3679C6300221C
:102680000521342001F000FF342001F031FFAFE7D5
:10269000FFF79EF9B7E7FFF79BF9EDE7022200236A
:1026A000CDE90A230AA806F0EFFF78BB834BD3F8E5
:1026B000E82042F48012C3F8E820D3F8E82002F4BE
:1026C00080120292029AD3F8E02042F00202C3F88C
:1026D000E020D3F8E03003F002030393039B4FF4B0
:1026E0004053399302233A9300243B943C940E23A5
:1026F0003D9339A9754804F0B3F8224605213520E9
:1027000001F0C2FE352001F0F3FE71E7FFF760F93A
:10271000CCE702220023CDE90A230AA806F0B4FF81
:1027200070BB664BD3F8E82042F00042C3F8E820C3
:10273000D3F8E82002F000420492049AD3F8E02093
:1027400042F01002C3F8E020D3F8E03003F01003A9
:102750000593059B0323399302233A9300243B946A
:102760003C9408233D9339A9594804F079F822464E
:102770000421532001F088FE532001F0B9FE37E711
:10278000FFF726F9CDE701220023CDE90A230AA8A5
:1027900006F07AFF002845D1484BD3F8F02042F0EC
:1027A0001002C3F8F020D3F8F02002F010020692D5
:1027B000069AD3F8E02042F00102C3F8E020D3F8F3
:1027C000E03003F001030793079B4FF4C063399394
:1027D00002233A9300253B953C9507233D9339A965
:1027E000374804F03DF83B483B4B03602A234360E5
:1027F00040238360C5604FF4806303614561856158
:10280000C5610562456202F06FFA70B9314BE3674A
:102810009C6300220321252001F036FE252001F0D3
:1028200067FEE5E6FFF7D4F8B6E7FFF7D1F8EDE786
:1028300002220023CDE90A230AA806F025FF78BB6F
:102840001E4BD3F8E82042F48022C3F8E820D3F8E6
:10285000E82002F480220892089AD3F8E02042F09F
:102860000802C3F8E020D3F8E03003F0080309932E
:10287000099B4FF44073399302233A9300243B940D
:102880003C9407233D9339A9144803F0E9FF2246FD
:102890000321272001F0F8FD272001F029FEA7E6FB
:1028A000FFF796F8CCE700BF004C00400050004016
:1028B000007C0040001001400048004000440258E5
:1028C000000002588C0700248800024000040258CF
:1028D000001002581407002428000240000C02587F
:1028E0002DE9F043B7B00446B822002102A81CF03D
:1028F0004FFB2268694B9A4206D02268684B9A4285
:102900006ED037B0BDE8F0834FF480720023CDE97C
:10291000022302A806F0B8FE002845D1614B1B68CF
:10292000002B44D05F4A1368013313603423319382
:102930004FF00209CDF8C890002533950323349356
:102940004FF00608CDF8D480574F31A9384603F030
:1029500087FF40263196CDF8C89033953495CDF851
:10296000D48031A9384603F07BFF5048504B0360B8
:10297000572343608660C5604FF4806303614FF462
:10298000006343614FF4005383614FF48073C3616C
:102990000562456202F0A8F9F8B9444BC4F88430E6
:1029A0009C63C4F88030A8E7FFF712F8B6E7414B04
:1029B000D3F8F02042F48002C3F8F020D3F8F030CE
:1029C00003F480030093009B00221146572001F07E
:1029D0005BFD572001F08CFDA4E7FEF7F9FFDCE773
:1029E0004FF480720023CDE902230023189302A83C
:1029F00006F04AFE002834D12A4B1B68002B33D046
:102A0000284A136801331360082331930223329359
:102A10000025339534950623359331A9224803F0D8
:102A20001FFF2548254B03605823436040238360E4
:102A3000C5604FF4806303614FF4006343614FF45A
:102A4000005383614FF48073C3610562456202F0F5
:102A50004BF9F8B9184BC4F884309C63C4F8803043
:102A60004FE7FEF7B5FFC7E7124BD3F8F02042F46B
:102A70008002C3F8F020D3F8F03003F48003019310
:102A8000019B00221146572001F0FEFC572001F067
:102A90002FFDB5E7FEF79CFFDCE700BF04580140BF
:102AA000245801406417002400100258840D0024AB
:102AB00070040240004402580C0D002488040240B7
:102AC000FEE7FEE7FEE7FEE7FEE770477047704768
:102AD00008B500F077FA08BD08B5024803F008FA17
:102AE00008BD00BF9415002408B5024803F000FAA1
:102AF00008BD00BF1407002408B5024803F0F8F928
:102B000008BD00BF2C0F002408B5024803F0F0F9FF
:102B100008BD00BFFC11002408B5024803F0E8F925
:102B200008BD00BF8411002408B5024803F0E0F995
:102B300008BD00BF8C07002408B5024803F0D8F98F
:102B400008BD00BF0C11002408B5024800F072FA5D
:102B500008BD00BFF416002408B5024809F01AFFAA
:102B600008BD00BFAC0B002408B5024804F0C0FD4E
:102B700008BD00BFB414002408B5024805F026FEC5
:102B800008BD00BFB414002408B5024804F0B0FD2D
:102B900008BD00BF6014002408B5024805F016FE09
:102BA00008BD00BF6014002408B502480AF0B8FF51
:102BB00008BD00BF9808002408B502480AF0B0FF1D
:102BC00008BD00BF0408002408B5024803F090F9CE
:102BD00008BD00BF9410002408B502480AF0A0FF09
:102BE00008BD00BF540A002408B502480AF098FF47
:102BF00008BD00BFC009002408B5024801F01BFD54
:102C000008BD00BF8015002408B5024809F0C2FEC7
:102C100008BD00BF600B002408B5024803F068F946
:102C200008BD00BFE80A002408B5024803F060F9B7
:102C300008BD00BF0C16002408B5024803F058F97F
:102C400008BD00BF0815002408B5024803F050F97C
:102C500008BD00BF840D002408B5024803F048F900
:102C600008BD00BF0C0D002408B5024803F040F970
:102C700008BD00BFEC12002408B5024803F038F983
:102C800008BD00BF7412002408B5024804F030FDEE
:102C900008BD00BF0C14002408B5024805F096FDDD
:102CA00008BD00BF0C14002408B502480AF038FF24
:102CB00008BD00BF2C09002408B5034808F0E8FB54
:102CC000024808F0E5FB08BD940E0024FC0D00242A
:102CD00008B5024804F00CFD08BD00BFB81300247D
:102CE00008B5024805F072FD08BD00BFB813002406
:102CF00008B5024809F002FB08BD00BF900C002493
:102D000008B5024800F096F908BD00BF84160024FB
:102D100008B5024803F0ECF808BD00BF1C10002401
:102D200008B5024803F0E4F808BD00BFA40F002472
:102D300008B5024804F0DCFC08BD00BF64130024A1
:102D40000120704708B51CF085F9162303604FF089
:102D5000FF3008BD08B51CF07DF916230360FEE7BF
:102D600070B5161E07DD0C468D19AFF3008004F810
:102D7000010BA542F9D1304670BD4FF0FF307047CE
:102D80004FF400534B600020704701207047002033
:102D90007047000008B503460C4A126852B10B4A4E
:102DA000106803440A4A0B49521A934206D8074A4C
:102DB000136008BD054A08491160F0E71CF04AF9A4
:102DC0000C2303604FF0FF30F3E700BF68170024C7
:102DD000000005240060000008DC00242B4AD2F823
:102DE000883043F47003C2F88830294B1B6803F025
:102DF0000F03062B06D8264A136823F00F0343F06F
:102E000007031360234B1A6842F001021A60002284
:102E10001A611968204A0A401A601D4B1B6813F09A
:102E2000080F06D01A4A136823F00F0343F0070374
:102E30001360184B00229A61DA611A62174999628D
:102E40001749D962174919635A639963DA63196498
:102E50005A64196821F4802119601A66D3F8D430B5
:102E600013F4805F10D10B4BD3F8D42042F480527E
:102E7000C3F8D4200C4A43F2D2011160D3F8D42015
:102E800022F48052C3F8D420704700BF00ED00E068
:102E900000200052004402587FEDF6EA00020202D0
:102EA0000000FF018002010100400052044AD36883
:102EB00043F00203D360536813F4005FFBD0704704
:102EC00000480258DFF838D0FFF7F0FFFFF786FF21
:102ED0000C480D490D4A002302E0D458C450043375
:102EE000C4188C42F9D30A4A0A4C002301E013604B
:102EF0000432A242FBD31CF0B3F8FDF7A5FE7047E5
:102F00000000052400000024800600244058020828
:102F10008006002408DC0024FEE700000F4B1B782D
:102F20000BB90120704710B504464FF47A70B0FB1E
:102F3000F3F30B4A1068B0FBF3F001F00BFB0F2C1E
:102F400000D808B1012010BD002221464FF0FF300B
:102F500001F09AFA034B1C600020F4E708000024FB
:102F6000040000240C00002410B5032001F07AFABC
:102F700005F0F0FF0F498B690F4AC3F30323D35CBD
:102F800003F01F03D8408B6903F00F03D35C03F0F9
:102F90001F0320FA03F3094A1360094B18600F203E
:102FA000FFF7BCFF10B10124204610BD0446FEF718
:102FB00011FDF9E700440258E8140208000000245B
:102FC00004000024034A1168034B1B780B44136070
:102FD000704700BF6C17002408000024014B1868DC
:102FE000704700BF6C17002438B50446FFF7F6FFA2
:102FF0000546B4F1FF3F02D0044B1B781C44FFF799
:10300000EDFF401BA042FAD338BD00BF08000024EA
:10301000034A536823EA00030B435360704700BF21
:1030200000040058704708B5806BFFF7FBFF08BD30
:1030300070477047F8B5044603681D685E689F4A8C
:10304000934205D002F58072934201D09C4B00E080
:103050009C4B9F6807F01F0715F0020F10D016F069
:10306000020F0DD0236E13F0100F03D1236E43F423
:1030700000632366204601F061F9236802221A608A
:1030800015F0040F02D016F0040F05D115F0080F4B
:103090003ED016F0080F3BD0236E13F0100F03D173
:1030A000236E43F4007323662368DA6812F4406FDA
:1030B00028D1854A934200F00981DA6812F4005F52
:1030C00020D11A6812F0080F1CD09A6812F0040F71
:1030D00010D15A6822F00C025A60236E23F48073D8
:1030E0002366236E13F4805F0CD1236E43F001033B
:1030F000236607E0236E43F010032366636E43F0FC
:1031000001036366204614F007F923680C221A6055
:1031100015F0200F02D016F0200F05D115F0400F4A
:1031200048D016F0400F45D0236E13F0100F03D196
:10313000236E43F4005323662368DA6C02F4C072F2
:10314000D86861498B4200F0AF80D96862BB11F04A
:10315000007F05D001F4005200F44060024323D107
:103160001A6812F0400F1FD011F4001F1CD19A688A
:1031700012F0080F10D15A6822F060025A60236ED4
:1031800023F480532366236E13F4807F0CD1236EC7
:1031900043F00103236607E0236E43F01003236628
:1031A000636E43F001036366204601F0C3F82368B1
:1031B00060221A6015F0800F02D016F0800F20D127
:1031C00015F4807F02D016F4807F25D115F4007F9E
:1031D00002D016F4007F2BD115F0100F47D016F057
:1031E000100F44D0E36B002B33D0002F46D0236860
:1031F000324A934228D002F58072934224D0304B59
:1032000023E0236E43F4803323662046FFF710FF4C
:10321000236880221A60D3E7236E43F400332366C9
:10322000204601F089F823684FF480721A60CDE7D8
:10323000236E43F480232366204601F07EF8236842
:103240004FF400721A60C7E71E4B9B6813F4404F9F
:103250000AD0236E43F480632366636E43F0020357
:1032600063662046FFF7E5FE236810221A6015F416
:10327000806F02D016F4806F06D1F8BD2368DB683A
:1032800013F0030FF0D0E4E7236E43F4804323668A
:10329000636E43F00803636623684FF480621A602C
:1032A000204601F048F8E8E7C121F94011F0010F8C
:1032B0007FF44BAF0149C96848E700BF00200240D6
:1032C00000630258002302400021024040F2212204
:1032D000FA4012F0010F7FF4F0AE014AD268EDE639
:1032E0000020024008B50346806B026E12F0500FBA
:1032F00030D1036E43F40073036603681A6812F05A
:10330000080F14D0DA6812F4406F20D1DB6813F490
:10331000005F1CD1036E23F480730366036E13F405
:10332000805F14D1036E43F0010303660FE0DB6896
:1033300013F0030F0BD1036E23F480730366036E47
:1033400013F4805F03D1036E43F00103036613F0AF
:10335000E3FF08BD026E12F0100F04D1826DD26C33
:1033600018469047F5E7FFF764FEF2E708B5806B73
:10337000036E43F040030366436E43F00403436669
:10338000FFF757FE08BD000070B582B00022019221
:1033900090F85C20012A00F0B2820346012280F8F6
:1033A0005C200268906810F0040F09D01A6E42F099
:1033B00020021A660120002283F85C2002B070BD52
:1033C0000868A84CA2420BD0002809DBC0F3130404
:1033D000002C4CD1800E01248440D0692043D06160
:1033E00048684FEA901C0CF00C0C1A6802F1300E81
:1033F0005EF80C4000F01F000A68C2F3846282404D
:103400001F2505FA00F024EA000002434EF80C20C4
:1034100018688468826802F0080204F0040C52EA1A
:103420000C022DD01A68906810F0010F40F05B82FA
:103430000E68CC688B48824200F06E81D2F8C000E2
:10344000C6F3130520EA050004F01805864CEC408D
:1034500034402043C2F8C000C868844A904200F05B
:103460006B810A68002AC0F2D6810020A3E790FA97
:10347000A0F0B0FA80F000F01F0001248440ACE717
:103480000C68E50D05F0040514304259C4F30454EA
:103490000726A64022EA06028E68A6403243425121
:1034A0001A687048824211D07148006800F070407C
:1034B000B0F1805F46D0D06810F0100F74D1D068A2
:1034C000C0F3820040004C69844041E0C0680D694F
:1034D000042D40F050826348046E046EC4F384648B
:1034E0000868C0F31305002D40F08C80C0F384629F
:1034F000944200F0C1805B4A546E526E424012F01A
:10350000F84F00F0E380186800F16805826E846E61
:10351000C4F384640A68C2F38462A24200F0DC80CF
:10352000186800F16C05C26EC46EC4F384640A6846
:10353000C2F38462A2427FF475AF2A6822F000428F
:103540002A606FE7D068C0F3820040004C69844075
:103550000D69042D40F02082106E00F0F8400C68D8
:10356000B0EB846F00F0C9801868426E02F0F84238
:103570000C68B2EB846F00F0C5801868826E02F0B0
:10358000F8420C68B2EB846F00F0C1801868C26E1C
:1035900002F0F8420C68B2EB846F7FF443AFC26E66
:1035A00022F00042C2663DE7D068400800F0080003
:1035B0004C698440CCE70C69603050F8242022F03C
:1035C0008072CD692A4340F824201A680D6991F869
:1035D00020406038824207D0906810F0010F40F020
:1035E0008C810E68CC6829E7603050F82520012CCA
:1035F00014BF0024012422F0007242EA446240F821
:1036000025200FE790FAA0F51DB1B5FA85F5AC427B
:1036100032D0144C656E646EC4F38464154D90FA18
:10362000A0F018B1B0FA80F0A0423BD0186800F1C9
:103630006805826E846EC4F384640A6892FAA2F20A
:103640001AB1B2FA82F2A24246D0186800F16C05B3
:10365000C26EC46EC4F384640A6892FAA2F2B2FA2B
:1036600082F267E700600258FFFF0F000000FF478B
:103670000010005C64600258A248026E22F0004212
:1036800002661A6802F16405506E546EC4F38464D5
:103690000868C0F31306002EC1D1C0F384608442D1
:1036A0007FF431AF9748824211D02A6822F000425D
:1036B0002A60186800F16805826E846EC4F3846421
:1036C0000A68C2F31306002EB8D124E78E4D2A688B
:1036D00022F000422A60ECE72A6822F000422A60C9
:1036E000186800F16C05C26EC46EC4F384640A6885
:1036F000C2F31306002EB0D11AE7106E20F000407E
:10370000106631E7426E22F00042426635E7826E73
:1037100022F00042826639E70546D0F8B020C6F3B1
:10372000130022EA000204F018047848E040304018
:103730000243C5F8B0208FE61A687548824208D067
:103740007448824238D06F48824200F05981012487
:1037500064E10868704CA04200F057816F4CA042B1
:1037600000F060816E4CA04200F05E816D4CA04282
:1037700000F05C8104F186641034A04200F05881AE
:10378000694CA04200F0568104F1042404F5401471
:10379000A04200F0518104F1866404F50064A04267
:1037A00000F04C81614CA04200F04A81604CA04284
:1037B00000F04881012431E10868574CA04200F034
:1037C0004381564CA04200F04181554CA04200F08C
:1037D0003F81544CA04200F03D8104F186641034D6
:1037E000A04200F03981504CA04200F0378104F132
:1037F000042404F54014A04200F0328104F18664F0
:1038000004F50064A04200F02D81494CA04200F074
:103810002B81012402E119683D48814200F0988023
:1038200000F58070814200F0938042488468A0F5E2
:103830004070806810F0010F40F0978004F0E0764F
:103840003C4D02E004F0E0763B4D3C4882420DD016
:103850003B4882422DD03B4882424CD114F4800F29
:1038600002D1284A914235D00020A4E514F4000F7B
:103870003BD1244A914201D000209CE5AA6822F065
:10388000E072324342F40002AA602F4A12689209A1
:103890002E49A1FB02129209013252000192019AB3
:1038A0002AB3019A013A0192019A002AF9D1002023
:1038B00081E514F0807F1CD1124A914201D0002092
:1038C00079E5AA6822F0E072324342F08072AA6081
:1038D000002070E5AA6822F0E072324342F48002D0
:1038E000AA60002067E5002065E5002063E5002070
:1038F00061E500205FE500205DE500205BE502203A
:103900005CE500BF0060025864600258FFFF0F00D2
:103910000020024000210240020030040400600840
:103920000800900C1000C0100004002A0000214381
:103930000000844B0063025800230240000052C77D
:10394000000021C3000084CB04000024632D3E0549
:1039500046488468A0F54070856800F580708068EE
:10396000284310F0010F3FF46DAF1A6E42F02002B1
:103970001A6601201FE53E4C54F82520C0F3C10013
:1039800040004A698240086800F0F840024342F073
:10399000004244F825200BE0603252F825600868A8
:1039A00000F0F84006F000463043204342F825007E
:1039B0001A68304882423FF4FEAD0D69603252F819
:1039C000250091F82140012C14BF0024012420F08F
:1039D000004040EAC47042F825001D6828690A7E4C
:1039E000012A14BF00220122D2020C6904F01F0434
:1039F000A24020F4F04002432A6113E5196814E75D
:103A00000A68002AFADB0020D5E4012090FAA0F031
:103A1000B0FA80F000F01F0001248440D0692043F8
:103A2000D0611EE51448F1E71448EFE71448EDE7CC
:103A30001448EBE71448E9E71448E7E71448E5E7DA
:103A40001448E3E71448E1E70120DFE70A48DDE72F
:103A50000A48DBE70A48D9E70A48D7E70A48D5E722
:103A60000A48D3E70A48D1E70B48CFE700230240D2
:103A70006060025800600258400020198000501D0C
:103A8000000180210002B0250008302E00106032B5
:103A900000209036000052470000B84F70B5044631
:103AA000036898689A6802F0080200F00400024374
:103AB00065D0DA6812F0007F04D0208B40F201124A
:103AC000904223D002295CD09A6812F0040F09D0EA
:103AD0009A6812F0020F05D19868394A024042F004
:103AE00010029A6001292FD023689A6812F0080FFB
:103AF00051D103290CBF0C250425FFF76FFA0646A8
:103B000023689B681D4225D1002039E01A6812F015
:103B1000400F10D12B4A196811F0400F0BD1013A18
:103B2000F9D1236E43F010032366636E43F0010363
:103B30006366012024E040221A6023689A6812F02C
:103B4000040F35D10425D8E70425D6E723689B6800
:103B50002B4212D0FFF742FA831B052BF6D92368BC
:103B60009B682B42F2D0236E43F010032366636EF2
:103B700043F001036366012002E0002000E0002022
:103B800070BD9A6812F0080F03D09A6812F0020F05
:103B900005D00825B1E79A6812F0020FA9D19868FC
:103BA000074A024042F020029A600229A1D1F0E7C0
:103BB0009A6812F0020F01D004259EE701218BE7DD
:103BC000C0FFFF7F00DC0C0003689A6812F0010F51
:103BD00057D170B5044699682C4A114209D0036E3A
:103BE00043F010030366436E43F001034366012074
:103BF00070BD9968264A0A4042F001029A60FFF7B8
:103C0000EDF905462368234A93420BD002F58072F2
:103C1000934207D0204A92681A6812F0010F32D1FD
:103C20001B4E0FE01D4A9168A2F500729342F3D13A
:103C300011F01F0FF0D00020DAE723681A6812F0A5
:103C4000010F1CD19A6812F0010F04D19A6832401A
:103C500042F001029A60FFF7C1F9401B0228ECD93B
:103C600023681B6813F0010FE7D1236E43F01003A4
:103C70002366636E43F0010363660120B8E700200A
:103C8000B6E7002070470020B2E700BF3F00008089
:103C9000C0FFFF7F00200240006302580023024063
:103CA000F8B504460D46164600684449884204D0DB
:103CB000434B984201D0434900E043498F688168F3
:103CC00011F0040F75D194F85C20012A73D007F02D
:103CD0001F07012384F85C3040F22123FB4013F0DE
:103CE000010F04D1002384F85C30012062E02046FB
:103CF000FFF76AFF002858D1226EA0F60273134026
:103D000043F48073236622682D4B9A4238D0236E89
:103D100023F480132366236E13F4805F33D0636E25
:103D200023F006036366A36D284ADA63A36D284A6D
:103D30001A64A36D274ADA6423681C221A600023E0
:103D400084F85C302268536843F0100353602268A3
:103D5000214B9A421AD0D36823F00303216B0B4303
:103D6000D360216833462A464031A06D01F010FB34
:103D700022689168194B0B4043F00403936019E0EB
:103D8000002FC8D1C3E700236366CCE71A46DB687F
:103D900094F8381023F0030343EA4103D360226808
:103DA000D36843F00103D360DBE7002384F85C3081
:103DB00000E00220F8BD0220FCE700BF0020024026
:103DC000002102400063025800230240E53200084F
:103DD000273000086D33000800600258C0FFFF7FE5
:103DE00038B503689A68996812F0020F03D1044647
:103DF00011F0010F01D1002038BD9A6802F00D02C8
:103E0000012A09D0036E43F010030366436E43F0AA
:103E1000010343660120EFE79968164A0A4042F021
:103E200002029A60036803221A60FFF7D7F805467A
:103E300023689B6813F0010F06D10020DCE723689C
:103E40009B6813F0010F13D0FFF7C8F8401B02283E
:103E5000F5D923689B6813F0010FF0D0236E43F06F
:103E600010032366636E43F0010363660120C3E71A
:103E70000020C1E7C0FFFF7F90F85C30012B18D015
:103E800010B50446012380F85C300321FFF706FEDD
:103E900018B1002384F85C3010BD2046FFF7A0FF66
:103EA0000028F6D1226E044B134043F00103236631
:103EB000EFE70220704700BFFEEEFFFF10B504469B
:103EC0000368404A934220D002F5807293421CD08E
:103ED0003D4B9B6813F4403F1CD005F08FFA63689C
:103EE000B3F5003F05D0B3F5403F26D0B3F5803F92
:103EF00002D11B0CB0FBF3F0344B98424ED8226831
:103F0000936823F44073936010BD314B9B6813F4A6
:103F1000403FE2D14FF40020002106F0D1FB63685E
:103F2000B3F5101F36D022D8B3F5E01F30D006D934
:103F3000B3F5001FE0D14009DEE78008DCE7B3F508
:103F4000801F08D00CD8B3F5002F04D023F4002232
:103F5000B2F5802FD0D19B0C5B00B0FBF3F0CBE728
:103F6000B3F5A01FF7D0B3F5C01FF4D0C4E7B3F585
:103F7000201F11D0B3F5301FBED1164B9842BED9C9
:103F80002268936823F4407343F480739360BBE723
:103F90000009B1E78009AFE7C009ADE70E4B9842D1
:103FA000EED90E4B984207D82268936823F44073E9
:103FB00043F400739360A7E72268936843F4407367
:103FC0009360A1E7002002400063025821BCBE00BC
:103FD00000230240FF21BCBE41787D0181F0FA023E
:103FE00070B582B000230193002800F033810446AD
:103FF000036E002B42D023689A6812F0005F03D052
:104000009968954A0A409A6023689A6812F0805F1E
:1040100016D19968914A0A4042F080529A60904BBA
:104020001B689B098F4AA2FB03239B090133019361
:10403000019B2BB1019B013B0193019B002BF9D10B
:104040002268936813F0805F1FD1236E43F0100342
:104050002366636E43F00103636601259168236E56
:1040600003F0100301F004010B4310D0236E43F062
:10407000100323660125284602B070BDFDF7BCFC85
:104080000023636684F85C30B5E70025E6E7236E1D
:1040900023F4817343F002032366936813F0010F46
:1040A00012D1714B9A426BD003F580739A4267D05C
:1040B0006E4B9B6813F0010F06D16D4A936823F491
:1040C0007C1361680B4393602268684B9A4262D00C
:1040D000E36BA1680B43617E43EA413394F82010FF
:1040E00043EA014394F8201001296CD0A16A21B160
:1040F00001F47871E06A01430B435C498A4267D05E
:10410000D0685C4901401943D16021688A688B6896
:1041100003F0080302F00402134322D1534B9942E7
:1041200063D0237E226B42EA8332C868524B03403D
:104130001343CB6094F84430012B5DD0226813699F
:1041400023F0010313612268136923F07043216C8B
:104150000B4313612268454B9A4202D02046FFF779
:10416000ADFE2369012B6CD02268136B23F00F0383
:104170001363236E23F0030343F0010323667AE7FE
:10418000394B996803F580739B680B4313F0010F5B
:104190009ED13A4A92E7E36BE1680B43617E43EAC2
:1041A0004133A168182906D01C290AD00C2914BF54
:1041B00000210121C90094F8200043EA00430B4389
:1041C00090E71021F7E7616A013943EA41438DE73F
:1041D000C8682B4A02401A43CA602268136923F058
:1041E0004063616B0B4313618FE7237E94F83820A3
:1041F000520042EA833298E722681C4B9A4210D060
:104200001069A36C591EE36C266D334343EA0143E6
:10421000616D0B431B4901400B4343F001031361E4
:1042200091E719461869A36C626D1343164A024060
:104230001343E26C1343226D134343F001030B61FC
:1042400081E721680A6BE369013B22F00F02134307
:104250000B638EE701250EE7C0FFFF5FC0FFFF6F16
:1042600004000024632D3E05002002400060025837
:104270000063025803C0F0FFFCBFFFFF00230240B1
:104280000740F0FF1EF800FC1FF800FC70B582B07C
:104290000023019390F85C30012B42D004460D4678
:1042A0001646012380F85C30FFF79AFD00282FD1D5
:1042B000226E1D4B134043F002032366226891686F
:1042C0001A4B0B4006F08046334305F480352B43F0
:1042D00043F00043936022689368002B06DB236E53
:1042E00023F0030343F00103236615E0019B013330
:1042F000019301990E4B9942EED3236E23F01203E2
:1043000043F010032366002384F85C30012006E0AC
:10431000236E43F010032366002384F85C3002B060
:1043200070BD0220FBE700BFFDEEFFFFC0FFFE3FB8
:1043300000F8C3257047704770477047704700000A
:1043400090F85C20012A6BD010B49DB00346012286
:1043500080F85C2000221892199200683C4A904232
:1043600060D01A6E42F020021A66002283F85C20A8
:10437000012068E00A6852B33648826822F440425D
:104380004C68224382601A68A0F54070824213D0C4
:1043900000F5807082420FD02F4A926812F0010F10
:1043A0003AD12C4884680A6889680A432B4921401D
:1043B0000A438260002043E0254A906802F580723B
:1043C0009268024312F0010FEBD0002038E021493F
:1043D0008A6822F440428A601A68A1F540718A42D4
:1043E0000FD001F580718A420BD01B4A926812F0FF
:1043F000010F13D117498868184A02408A600020CB
:104400001EE0134A916802F5807292680A4312F026
:10441000010FEFD0002013E0002011E000200FE09A
:10442000022070470E4A9068A2F58072926802439B
:1044300012F0040F9ED01A6E42F020021A6601207C
:10444000002283F85C201DB05DF8044B704700BF6C
:10445000002002400023024000600258E0F0FFFF0D
:1044600000210240064AD368000200F4E06023F411
:10447000E0631B041B0C1843024B0343D3607047DB
:1044800000ED00E00000FA0500B5164BDB68C3F351
:104490000223C3F1070CBCF1040F28BF4FF0040C3A
:1044A00003F1040EBEF1060F8CBF033B00234FF057
:1044B000FF3E0EFA0CFC21EA0C0199400EFA03FEB5
:1044C00022EA0E021143002805DB0901C9B2064B9E
:1044D00019545DF804FB00F00F000901C9B2034B49
:1044E0001954F6E700ED00E000E400E014ED00E010
:1044F000002807DB410900F01F0001238340024A26
:1045000042F82130704700BF00E100E000280CDBDA
:10451000430900F01F00012282402033034941F883
:104520002320BFF34F8FBFF36F8F704700E100E090
:10453000BFF34F8F0549CA6802F4E062044B13438E
:10454000CB60BFF34F8F00BFFDE700BF00ED00E081
:104550000400FA050138B0F1807F0BD24FF0E02360
:104560005861054AF02182F8231000209861072243
:104570001A6170470120704700ED00E0BFF35F8FC4
:10458000044B5A6A22F480325A620022C3F8942003
:10459000704700BF00ED00E040F00100054BC3F89C
:1045A00094005A6A42F480325A62BFF34F8FBFF3CD
:1045B0006F8F704700ED00E04378144AC2F89830DE
:1045C000D2F8A03023F00103C2F8A0304368C2F84B
:1045D0009C30017BC37A1B0643EA017301780B43CD
:1045E000817A43EAC143417B43EA8143817B43EAC9
:1045F0004143C17B43EA0143417A43EA0123017A03
:1046000043EA4103C2F8A030704700BF00ED00E06C
:1046100070B110B50446037933B102232371002031
:1046200020610123237110BD4371FDF7B1FAF4E756
:1046300001207047704770B5044603681D685E6BC3
:1046400015F4005F02D016F4005F06D115F0005F8C
:1046500002D016F0005F11D170BD04220271026910
:1046600042F0010202614FF400525A63026813687B
:1046700023F480531360FFF7DDFFE7E70423237182
:10468000236943F00203236123684FF000525A6309
:104690002268136823F080531360204600F0C8F8A6
:1046A000DAE70000002800F0BE802DE9F0410D4659
:1046B00016460446002900F0B2804379012B00F031
:1046C000B08001234371022303710B68042B3ED099
:1046D0002B69012B00F092802068C16B06F010025C
:1046E0000723934021EA0301EB68012B00F093803C
:1046F000022B00F09280AE68B6FA86F676092B6837
:10470000AF683B43334393400B43C3632068036864
:104710004FF48041914023EA01030360206801685F
:1047200040F6FE73934021EA03016B6893400B430C
:10473000036020680368C02101FA02F223EA020341
:1047400003600123237100206071BDE8F081FEF752
:1047500045FC074636B123685A6B002A3EDBAA693E
:104760005A641FE02368596B304A0A40C2B1DFF82F
:10477000BC8004E023685A6B12EA080F10D0FEF7E1
:104780002DFCC01B0128F5D923685B6B13EA080FC9
:10479000F0D0236943F00803236103202071D4E79C
:1047A000AA691A642068836C06F0100240F2FF3197
:1047B000914023EA0103E96991400B438364206837
:1047C000C36CFF21914023EA0103296A91400B4306
:1047D000C3647DE723685A6B002AC0DAFEF7FEFB4C
:1047E000C01B0128F6D923685B6B002BF2DA236922
:1047F00043F00803236103202071A6E721688A6B38
:1048000006F010001F23834022EA03026B698340F5
:1048100013438B6360E7002671E701266FE70120F1
:1048200093E7022091E70120704700BF008000203D
:1048300070470000F0B4866D0568914C914FBD4201
:1048400018BFA5420CBF012400241837BD4208BF81
:1048500044F001041837BD4208BF44F00104183782
:10486000BD4208BF44F001041837BD4208BF44F000
:1048700001041837BD4208BF44F001041837BD4297
:1048800008BF44F0010407F55677BD4208BF44F065
:1048900001041837BD4208BF44F001041837BD4277
:1048A00008BF44F001041837BD4208BF44F00104BA
:1048B0001837BD4208BF44F001041837BD4208BF95
:1048C00044F001041837BD4208BF44F00104183712
:1048D000BD4208BF44F001046B4FBD4208BF44F025
:1048E00001041437BD4208BF44F001041437BD422F
:1048F00008BF44F001041437BD4208BF44F001046E
:104900001437BD4208BF44F001041437BD4208BF4C
:1049100044F001041437BD4208BF44F0010414B947
:104920005A4CA54207D1446E856E6560C46E14B1C1
:10493000046F456F65600568514C524FBD4218BF0A
:10494000A5420CBF012400241837BD4208BF44F023
:1049500001041837BD4208BF44F001041837BD42B6
:1049600008BF44F001041837BD4208BF44F00104F9
:104970001837BD4208BF44F001041837BD4208BFD4
:1049800044F0010407F55677BD4208BF44F0010426
:104990001837BD4208BF44F001041837BD4208BFB4
:1049A00044F001041837BD4208BF44F00104183731
:1049B000BD4208BF44F001041837BD4208BF44F0AF
:1049C00001041837BD4208BF44F0010414B9304C4B
:1049D000A54215D1C46D04F01F053F24AC40B4605E
:1049E00005682C6824F480242C6004686360836864
:1049F000402B3AD0036899600368DA60F0BC7047D6
:104A0000214C244FBD4218BFA5420CBF01240024F5
:104A10001437BD4208BF44F001041437BD4208BF3B
:104A200044F001041437BD4208BF44F001041437B8
:104A3000BD4208BF44F001041437BD4208BF44F032
:104A4000010414B9114CA542D8D1C46D04F01F055E
:104A50000124AC407460046863608368402B09D013
:104A6000036899600368DA60C8E703689A600368BE
:104A7000D960C3E703689A600368D960BEE700BFE6
:104A80001000024028000240085402589454025872
:104A9000B80402401C54025801460268344B3548A1
:104AA000824218BF9A420CBF012300231830824271
:104AB00008BF43F001031830824208BF43F00103EE
:104AC0001830824208BF43F001031830824208BF09
:104AD00043F001031830824208BF43F0010318304D
:104AE000824208BF43F0010300F55670824208BFBE
:104AF00043F001031830824208BF43F0010318302D
:104B0000824208BF43F001031830824208BF43F0DD
:104B100001031830824208BF43F00103183082427B
:104B200008BF43F001031830824208BF43F001037D
:104B300013B9114B9A4213D110B4D0B210380F4BA5
:104B4000A3FB0043C3F302130D4CE35CCB655F286A
:104B50000AD96FF30902101D88655DF8044B704790
:104B600022F0FF008865704706481040F4E700BF58
:104B70001000024028000240B8040240ABAAAAAAD2
:104B8000F814020800FCFFFF0368264A26498B42FE
:104B900018BF93420CBF0122002214318B4208BF80
:104BA00042F0010214318B4208BF42F0010214317D
:104BB0008B4208BF42F0010214318B4208BF42F021
:104BC000010214318B4208BF42F0010212B9174AA8
:104BD000934212D1DBB2083B154AA2FB0323154ACC
:104BE00002EB13129200C3F30413012101FA03F341
:104BF00011490266416683667047D9B210390F4A7F
:104C0000A2FB012109090E4A1A44A82A08D90D4A13
:104C10000A44920001F01F0101238B400A49E8E792
:104C20000831F4E7085402581C54025894540258AE
:104C3000CDCCCCCC0096001680580258ABAAAAAABC
:104C4000F0FBFDBF008200108008024090F804C015
:104C50000CF1FF31072937D810B402681B4B1C4CEC
:104C6000A24218BF9A420CBF012300231434A2426F
:104C700008BF43F001031434A24208BF43F001030C
:104C80001434A24208BF43F001031434A24208BF07
:104C900043F001031434A24208BF43F0010313B9E7
:104CA0000C4B9A420BD10C4B63449B000B4AC366DE
:104CB000026701238B4043675DF8044B7047084B44
:104CC00063449B00074AF2E7704700BF085402584C
:104CD0001C540258945402583F96001640590258EA
:104CE0003F8200104009024038B50446FEF776F9CD
:104CF000002C00F00A8205462268624B62498A4213
:104D000018BF9A420CBF0123002318318A4208BF02
:104D100043F0010318318A4208BF43F00103183100
:104D20008A4208BF43F0010318318A4208BF43F0AA
:104D3000010318318A4208BF43F0010318318A4247
:104D400008BF43F0010301F556718A4208BF43F0E2
:104D5000010318318A4208BF43F0010318318A4227
:104D600008BF43F0010318318A4208BF43F0010332
:104D700018318A4208BF43F0010318318A4208BF44
:104D800043F0010318318A4208BF43F0010313B90D
:104D90003E4B9A421AD1022384F83530002384F81E
:104DA0003430136823F00103136023681A6812F08B
:104DB000010F77D0FEF712F9431B052BF5D92023FD
:104DC0006365032384F83530012038BD304B314909
:104DD0008A4218BF9A420CBF0123002314318A4231
:104DE00008BF43F0010314318A4208BF43F00103B6
:104DF00014318A4208BF43F0010314318A4208BFCC
:104E000043F0010314318A4208BF43F001031BB988
:104E1000214B9A4240F06381022384F8353000230D
:104E200084F8343010686FF31010A368402B00F042
:104E30005D81802B14BF002301239B03E16825695A
:104E4000294365692943A5692943E5692943256AF9
:104E500040EA151040EAD1010B43136022680F4B62
:104E600013440F4AA2FB03231B099B00E365204662
:104E7000FFF712FEE26D02F01F0101228A4042603C
:104E800057E000BF1000024028000240B804024072
:104E9000085402581C54025894540258F8ABFDA709
:104EA000CDCCCCCC1A689A491140A268E068024384
:104EB0002069024360690243A0690243E06902433A
:104EC000206A02430A43616A042900F0C3806168D2
:104ED000522900F2C9803E2940F2C1803F398D48F5
:104EE00020FA01F111F0010F01D042F480121A6092
:104EF00021684A6922F00702636A1A43042B0ED123
:104F0000A06A0243E36A53B1A569002D40F0C28054
:104F1000012800F0B98030F0020000F0AA804A6158
:104F20002046FFF7B9FDE36D03F01F023F239340D6
:104F300083602268784B79498A4218BF9A420CBF35
:104F40000123002318318A4208BF43F001031831BE
:104F50008A4208BF43F0010318318A4208BF43F078
:104F6000010318318A4208BF43F0010318318A4215
:104F700008BF43F0010318318A4208BF43F0010320
:104F800001F556718A4208BF43F0010318318A4285
:104F900008BF43F0010318318A4208BF43F0010300
:104FA00018318A4208BF43F0010318318A4208BF12
:104FB00043F0010318318A4208BF43F0010318315E
:104FC0008A4208BF43F0010318318A4208BF43F008
:104FD000010353498A4208BF43F0010314318A4256
:104FE00008BF43F0010314318A4208BF43F00103B4
:104FF00014318A4208BF43F0010314318A4208BFCA
:1050000043F0010314318A4208BF43F00103143115
:105010008A4208BF43F0010313B9424B9A4213D1AD
:105020002046FFF7B1FDA368802B61D0236E227963
:105030001A60636EA26E5A606368013B072B5AD9EF
:105040000023E3662367636700206065012384F81B
:105050003530BAE6E16A206B01430A4337E7293964
:1050600005293FF644AF40E7743903293FF63FAFC7
:105070003BE7C3F30063002B3FF451AF402363656C
:10508000012084F83500A0E6B3F1C07F14BF0023EF
:105090000123F0E7B5F5005F0AD00228EED9032816
:1050A0007FF43DAFC3F30063002B3FF438AFE5E777
:1050B00003283FF634AF01A555F820F07D500008D5
:1050C000CD5000087D500008D3500008C3F30063A2
:1050D000EAE7B3F1C07F14BF00230123E4E74023D4
:1050E0006365032384F8353001206EE61023A5E6BE
:1050F000002363609AE72046FFF7A8FDE36E0022D5
:105100001A60236F626F5A609EE701205DE600BF60
:105110003F8010FE0F030F001000024028000240E5
:105120000854025894540258002800F0238110B506
:1051300004460268904B91498A4218BF9A420CBFBC
:105140000123002318318A4208BF43F001031831BC
:105150008A4208BF43F0010318318A4208BF43F076
:10516000010318318A4208BF43F0010318318A4213
:1051700008BF43F0010318318A4208BF43F001031E
:1051800001F556718A4208BF43F0010318318A4283
:1051900008BF43F0010318318A4208BF43F00103FE
:1051A00018318A4208BF43F0010318318A4208BF10
:1051B00043F0010318318A4208BF43F0010318315C
:1051C0008A4208BF43F001031BB96D4B9A4240F07D
:1051D0008780136823F0010313602268664B6749D8
:1051E0008A4218BF9A420CBF0123002318318A4219
:1051F00008BF43F0010318318A4208BF43F001039E
:1052000018318A4208BF43F0010318318A4208BFAF
:1052100043F0010318318A4208BF43F001031831FB
:105220008A4208BF43F0010301F556718A4208BF64
:1052300043F0010318318A4208BF43F001031831DB
:105240008A4208BF43F0010318318A4208BF43F085
:10525000010318318A4208BF43F0010318318A4222
:1052600008BF43F0010318318A4208BF43F001032D
:1052700013B9434B9A4238D100231360226853601C
:10528000226893602268D360226813612368212218
:105290005A612046FFF700FCE36D03F01F023F2335
:1052A000934083602046FFF76FFC236E23B10022FA
:1052B0001A60636EA26E5A606368013B072B4FD978
:1052C0000020E06620676067E06320646064A0649B
:1052D000E0642065606584F8350084F8340010BD12
:1052E000136823F00103136077E7264B26498A42AF
:1052F00018BF9A420CBF0123002314318A4208BF11
:1053000043F0010314318A4208BF43F00103143112
:105310008A4208BF43F0010314318A4208BF43F0B8
:10532000010314318A4208BF43F0010313B9174B3C
:105330009A4213D10023136022685360226893605D
:105340002268D360226813612046FFF7A5FBE36D56
:1053500003F01F02012393404360A3E70120BEE74F
:105360002046FFF773FCE36E00221A60236F626F22
:105370005A60A5E701207047100002402800024053
:10538000B8040240085402581C540258945402585D
:10539000002800F0D28170B5044690F8340001284E
:1053A00000F0CD81012084F8340094F83500C0B2BB
:1053B000012807D04FF400636365002384F834307C
:1053C000012070BD022084F835000020606525684A
:1053D0009548964EB54218BF85420CBF012000206B
:1053E0001836B54208BF40F001001836B54208BF74
:1053F00040F001001836B54208BF40F001001836F1
:10540000B54208BF40F001001836B54208BF40F071
:1054100001001836B54208BF40F0010006F5567687
:10542000B54208BF40F001001836B54208BF40F051
:1054300001001836B54208BF40F001001836B542E9
:1054400008BF40F001001836B54208BF40F0010027
:105450001836B54208BF40F001001836B54208BF03
:1054600040F0010018B97248854240F04B8128682D
:1054700020F0010028602046FFF7DCF922686A4B23
:105480006A498A4218BF9A420CBF0123002318318F
:105490008A4208BF43F0010318318A4208BF43F033
:1054A000010318318A4208BF43F0010318318A42D0
:1054B00008BF43F0010318318A4208BF43F00103DB
:1054C00018318A4208BF43F0010301F556718A4240
:1054D00008BF43F0010318318A4208BF43F00103BB
:1054E00018318A4208BF43F0010318318A4208BFCD
:1054F00043F0010318318A4208BF43F00103183119
:105500008A4208BF43F0010318318A4208BF43F0C2
:1055100001031BB9464B9A4240F0F980136823F00F
:105520001E0343F016031360236C23B12268136833
:1055300043F00803136022683B4B3C498A4218BF82
:105540009A420CBF0123002318318A4208BF43F05E
:10555000010318318A4208BF43F0010318318A421F
:1055600008BF43F0010318318A4208BF43F001032A
:1055700018318A4208BF43F0010318318A4208BF3C
:1055800043F0010301F556718A4208BF43F001035D
:1055900018318A4208BF43F0010318318A4208BF1C
:1055A00043F0010318318A4208BF43F00103183168
:1055B0008A4208BF43F0010318318A4208BF43F012
:1055C000010318318A4208BF43F0010318318A42AF
:1055D00008BF43F0010317498A4208BF43F00103A3
:1055E00014318A4208BF43F0010314318A4208BFD4
:1055F00043F0010314318A4208BF43F00103143120
:105600008A4208BF43F0010314318A4208BF43F0C5
:10561000010314318A4208BF43F0010373B9064BFA
:105620009A421AD10AE000BF10000240280002404E
:10563000B80402400854025894540258236E1A6861
:1056400012F4803F03D01A6842F480721A60E36E4D
:105650001BB11A6842F480721A602268394B3A49C9
:105660008A4218BF9A420CBF0123002318318A4294
:1056700008BF43F0010318318A4208BF43F0010319
:1056800018318A4208BF43F0010318318A4208BF2B
:1056900043F0010318318A4208BF43F00103183177
:1056A0008A4208BF43F0010301F556718A4208BFE0
:1056B00043F0010318318A4208BF43F00103183157
:1056C0008A4208BF43F0010318318A4208BF43F001
:1056D000010318318A4208BF43F0010318318A429E
:1056E00008BF43F0010318318A4208BF43F00103A9
:1056F00013B9164B9A421AD1136843F00103136091
:1057000000205EE6286820F001002860B3E61368F8
:1057100023F00E0343F00A031360236C002B3FF4C5
:105720000AAF2268136843F00403136003E71368A9
:1057300043F001031360002043E60120704702207C
:105740003FE600BF1000024028000240B8040240BB
:1057500070B50446FDF742FC002C00F04882054677
:1057600094F83530DBB2022B06D08023636500232A
:1057700084F83430012070BD2268924B92498A42ED
:1057800018BF9A420CBF0123002318318A4208BF78
:1057900043F0010318318A4208BF43F00103183176
:1057A0008A4208BF43F0010318318A4208BF43F020
:1057B000010318318A4208BF43F0010318318A42BD
:1057C00008BF43F0010301F556718A4208BF43F058
:1057D000010318318A4208BF43F0010318318A429D
:1057E00008BF43F0010318318A4208BF43F00103A8
:1057F00018318A4208BF43F0010318318A4208BFBA
:1058000043F0010318318A4208BF43F001031BB97A
:105810006E4B9A4240F0F780136823F01E0313602A
:105820002268536923F08003536126682268654B20
:1058300065498A4218BF9A420CBF012300231831E0
:105840008A4208BF43F0010318318A4208BF43F07F
:10585000010318318A4208BF43F0010318318A421C
:1058600008BF43F0010318318A4208BF43F0010327
:1058700018318A4208BF43F0010301F556718A428C
:1058800008BF43F0010318318A4208BF43F0010307
:1058900018318A4208BF43F0010318318A4208BF19
:1058A00043F0010318318A4208BF43F00103183165
:1058B0008A4208BF43F0010318318A4208BF43F00F
:1058C000010318318A4208BF43F0010340498A426C
:1058D00008BF43F0010314318A4208BF43F00103BB
:1058E00014318A4208BF43F0010314318A4208BFD1
:1058F00043F0010314318A4208BF43F0010314311D
:105900008A4208BF43F0010314318A4208BF43F0C2
:10591000010313B92F4B9A4204D1226E136823F46A
:10592000807313602268274B27498A4218BF9A4226
:105930000CBF0123002318318A4208BF43F0010342
:1059400018318A4208BF43F0010318318A4208BF68
:1059500043F0010318318A4208BF43F001031831B4
:105960008A4208BF43F0010318318A4208BF43F05E
:10597000010301F556718A4208BF43F00103183153
:105980008A4208BF43F0010318318A4208BF43F03E
:10599000010318318A4208BF43F0010318318A42DB
:1059A00008BF43F0010318318A4208BF43F00103E6
:1059B00018318A4208BF43F001036BB9034B9A4286
:1059C00027D109E01000024028000240B80402403C
:1059D0000854025894540258136823F001031360CA
:1059E000336813F0010F19D0FDF7F8FA401B0528B2
:1059F000F6D920236365032384F83530002384F827
:105A000034300120B7E6136823F00E0313602668D4
:105A10000CE7136823F001031360E1E72268754B7C
:105A200075498A4218BF9A420CBF012300231831DE
:105A30008A4208BF43F0010318318A4208BF43F08D
:105A4000010318318A4208BF43F0010318318A422A
:105A500008BF43F0010318318A4208BF43F0010335
:105A600018318A4208BF43F0010301F556718A429A
:105A700008BF43F0010318318A4208BF43F0010315
:105A800018318A4208BF43F0010318318A4208BF27
:105A900043F0010318318A4208BF43F00103183173
:105AA0008A4208BF43F0010318318A4208BF43F01D
:105AB00001031BB9514B9A4240F09180A16DE36DF7
:105AC00003F01F023F2393408B602268494B4A49F1
:105AD0008A4218BF9A420CBF0123002318318A4220
